{
	"Assigment2/q9.sol": {
		"SimpleLedger": {
			"abi": [
				{
					"inputs": [
						{
							"internalType": "string",
							"name": "description",
							"type": "string"
						},
						{
							"internalType": "uint256",
							"name": "amount",
							"type": "uint256"
						}
					],
					"name": "addEntry",
					"outputs": [],
					"stateMutability": "nonpayable",
					"type": "function"
				},
				{
					"inputs": [
						{
							"internalType": "uint256",
							"name": "",
							"type": "uint256"
						}
					],
					"name": "entries",
					"outputs": [
						{
							"internalType": "string",
							"name": "description",
							"type": "string"
						},
						{
							"internalType": "uint256",
							"name": "amount",
							"type": "uint256"
						}
					],
					"stateMutability": "view",
					"type": "function"
				},
				{
					"inputs": [
						{
							"internalType": "uint256",
							"name": "index",
							"type": "uint256"
						}
					],
					"name": "getEntry",
					"outputs": [
						{
							"internalType": "string",
							"name": "",
							"type": "string"
						},
						{
							"internalType": "uint256",
							"name": "",
							"type": "uint256"
						}
					],
					"stateMutability": "view",
					"type": "function"
				}
			],
			"devdoc": {
				"kind": "dev",
				"methods": {},
				"version": 1
			},
			"evm": {
				"assembly": "    /* \"Assigment2/q9.sol\":60:761  contract SimpleLedger {... */\n  mstore(0x40, 0x80)\n  callvalue\n  dup1\n  iszero\n  tag_1\n  jumpi\n  0x00\n  dup1\n  revert\ntag_1:\n  pop\n  dataSize(sub_0)\n  dup1\n  dataOffset(sub_0)\n  0x00\n  codecopy\n  0x00\n  return\nstop\n\nsub_0: assembly {\n        /* \"Assigment2/q9.sol\":60:761  contract SimpleLedger {... */\n      mstore(0x40, 0x80)\n      callvalue\n      dup1\n      iszero\n      tag_1\n      jumpi\n      0x00\n      dup1\n      revert\n    tag_1:\n      pop\n      jumpi(tag_2, lt(calldatasize, 0x04))\n      shr(0xe0, calldataload(0x00))\n      dup1\n      0x9bcba5dc\n      eq\n      tag_3\n      jumpi\n      dup1\n      0xb30906d4\n      eq\n      tag_4\n      jumpi\n      dup1\n      0xbae78d7b\n      eq\n      tag_5\n      jumpi\n    tag_2:\n      0x00\n      dup1\n      revert\n        /* \"Assigment2/q9.sol\":364:491  function addEntry(string memory description, uint256 amount) public {... */\n    tag_3:\n      tag_6\n      0x04\n      dup1\n      calldatasize\n      sub\n      dup2\n      add\n      swap1\n      tag_7\n      swap2\n      swap1\n      tag_8\n      jump\t// in\n    tag_7:\n      tag_9\n      jump\t// in\n    tag_6:\n      stop\n        /* \"Assigment2/q9.sol\":279:301  Entry[] public entries */\n    tag_4:\n      tag_10\n      0x04\n      dup1\n      calldatasize\n      sub\n      dup2\n      add\n      swap1\n      tag_11\n      swap2\n      swap1\n      tag_12\n      jump\t// in\n    tag_11:\n      tag_13\n      jump\t// in\n    tag_10:\n      mload(0x40)\n      tag_14\n      swap3\n      swap2\n      swap1\n      tag_15\n      jump\t// in\n    tag_14:\n      mload(0x40)\n      dup1\n      swap2\n      sub\n      swap1\n      return\n        /* \"Assigment2/q9.sol\":574:758  function getEntry(uint256 index) public view returns (string memory, uint256) {... */\n    tag_5:\n      tag_16\n      0x04\n      dup1\n      calldatasize\n      sub\n      dup2\n      add\n      swap1\n      tag_17\n      swap2\n      swap1\n      tag_12\n      jump\t// in\n    tag_17:\n      tag_18\n      jump\t// in\n    tag_16:\n      mload(0x40)\n      tag_19\n      swap3\n      swap2\n      swap1\n      tag_15\n      jump\t// in\n    tag_19:\n      mload(0x40)\n      dup1\n      swap2\n      sub\n      swap1\n      return\n        /* \"Assigment2/q9.sol\":364:491  function addEntry(string memory description, uint256 amount) public {... */\n    tag_9:\n        /* \"Assigment2/q9.sol\":443:450  entries */\n      0x00\n        /* \"Assigment2/q9.sol\":456:482  Entry(description, amount) */\n      mload(0x40)\n      dup1\n      0x40\n      add\n      0x40\n      mstore\n      dup1\n        /* \"Assigment2/q9.sol\":462:473  description */\n      dup5\n        /* \"Assigment2/q9.sol\":456:482  Entry(description, amount) */\n      dup2\n      mstore\n      0x20\n      add\n        /* \"Assigment2/q9.sol\":475:481  amount */\n      dup4\n        /* \"Assigment2/q9.sol\":456:482  Entry(description, amount) */\n      dup2\n      mstore\n      pop\n        /* \"Assigment2/q9.sol\":443:483  entries.push(Entry(description, amount)) */\n      swap1\n      dup1\n      0x01\n      dup2\n      sload\n      add\n      dup1\n      dup3\n      sstore\n      dup1\n      swap2\n      pop\n      pop\n      0x01\n      swap1\n      sub\n      swap1\n      0x00\n      mstore\n      keccak256(0x00, 0x20)\n      swap1\n      0x02\n      mul\n      add\n      0x00\n      swap1\n      swap2\n      swap1\n      swap2\n      swap1\n      swap2\n      pop\n      0x00\n      dup3\n      add\n      mload\n      dup2\n      0x00\n      add\n      swap1\n      dup2\n      tag_22\n      swap2\n      swap1\n      tag_23\n      jump\t// in\n    tag_22:\n      pop\n      0x20\n      dup3\n      add\n      mload\n      dup2\n      0x01\n      add\n      sstore\n      pop\n      pop\n        /* \"Assigment2/q9.sol\":364:491  function addEntry(string memory description, uint256 amount) public {... */\n      pop\n      pop\n      jump\t// out\n        /* \"Assigment2/q9.sol\":279:301  Entry[] public entries */\n    tag_13:\n      0x00\n      dup2\n      dup2\n      sload\n      dup2\n      lt\n      tag_24\n      jumpi\n      0x00\n      dup1\n      revert\n    tag_24:\n      swap1\n      0x00\n      mstore\n      keccak256(0x00, 0x20)\n      swap1\n      0x02\n      mul\n      add\n      0x00\n      swap2\n      pop\n      swap1\n      pop\n      dup1\n      0x00\n      add\n      dup1\n      sload\n      tag_26\n      swap1\n      tag_27\n      jump\t// in\n    tag_26:\n      dup1\n      0x1f\n      add\n      0x20\n      dup1\n      swap2\n      div\n      mul\n      0x20\n      add\n      mload(0x40)\n      swap1\n      dup2\n      add\n      0x40\n      mstore\n      dup1\n      swap3\n      swap2\n      swap1\n      dup2\n      dup2\n      mstore\n      0x20\n      add\n      dup3\n      dup1\n      sload\n      tag_28\n      swap1\n      tag_27\n      jump\t// in\n    tag_28:\n      dup1\n      iszero\n      tag_29\n      jumpi\n      dup1\n      0x1f\n      lt\n      tag_30\n      jumpi\n      0x0100\n      dup1\n      dup4\n      sload\n      div\n      mul\n      dup4\n      mstore\n      swap2\n      0x20\n      add\n      swap2\n      jump(tag_29)\n    tag_30:\n      dup3\n      add\n      swap2\n      swap1\n      0x00\n      mstore\n      keccak256(0x00, 0x20)\n      swap1\n    tag_31:\n      dup2\n      sload\n      dup2\n      mstore\n      swap1\n      0x01\n      add\n      swap1\n      0x20\n      add\n      dup1\n      dup4\n      gt\n      tag_31\n      jumpi\n      dup3\n      swap1\n      sub\n      0x1f\n      and\n      dup3\n      add\n      swap2\n    tag_29:\n      pop\n      pop\n      pop\n      pop\n      pop\n      swap1\n      dup1\n      0x01\n      add\n      sload\n      swap1\n      pop\n      dup3\n      jump\t// out\n        /* \"Assigment2/q9.sol\":574:758  function getEntry(uint256 index) public view returns (string memory, uint256) {... */\n    tag_18:\n        /* \"Assigment2/q9.sol\":628:641  string memory */\n      0x60\n        /* \"Assigment2/q9.sol\":643:650  uint256 */\n      0x00\n        /* \"Assigment2/q9.sol\":663:682  Entry storage entry */\n      dup1\n        /* \"Assigment2/q9.sol\":685:692  entries */\n      0x00\n        /* \"Assigment2/q9.sol\":693:698  index */\n      dup5\n        /* \"Assigment2/q9.sol\":685:699  entries[index] */\n      dup2\n      sload\n      dup2\n      lt\n      tag_33\n      jumpi\n      tag_34\n      tag_35\n      jump\t// in\n    tag_34:\n    tag_33:\n      swap1\n      0x00\n      mstore\n      keccak256(0x00, 0x20)\n      swap1\n      0x02\n      mul\n      add\n        /* \"Assigment2/q9.sol\":663:699  Entry storage entry = entries[index] */\n      swap1\n      pop\n        /* \"Assigment2/q9.sol\":718:723  entry */\n      dup1\n        /* \"Assigment2/q9.sol\":718:735  entry.description */\n      0x00\n      add\n        /* \"Assigment2/q9.sol\":737:742  entry */\n      dup2\n        /* \"Assigment2/q9.sol\":737:749  entry.amount */\n      0x01\n      add\n      sload\n        /* \"Assigment2/q9.sol\":710:750  return (entry.description, entry.amount) */\n      dup2\n      dup1\n      sload\n      tag_37\n      swap1\n      tag_27\n      jump\t// in\n    tag_37:\n      dup1\n      0x1f\n      add\n      0x20\n      dup1\n      swap2\n      div\n      mul\n      0x20\n      add\n      mload(0x40)\n      swap1\n      dup2\n      add\n      0x40\n      mstore\n      dup1\n      swap3\n      swap2\n      swap1\n      dup2\n      dup2\n      mstore\n      0x20\n      add\n      dup3\n      dup1\n      sload\n      tag_38\n      swap1\n      tag_27\n      jump\t// in\n    tag_38:\n      dup1\n      iszero\n      tag_39\n      jumpi\n      dup1\n      0x1f\n      lt\n      tag_40\n      jumpi\n      0x0100\n      dup1\n      dup4\n      sload\n      div\n      mul\n      dup4\n      mstore\n      swap2\n      0x20\n      add\n      swap2\n      jump(tag_39)\n    tag_40:\n      dup3\n      add\n      swap2\n      swap1\n      0x00\n      mstore\n      keccak256(0x00, 0x20)\n      swap1\n    tag_41:\n      dup2\n      sload\n      dup2\n      mstore\n      swap1\n      0x01\n      add\n      swap1\n      0x20\n      add\n      dup1\n      dup4\n      gt\n      tag_41\n      jumpi\n      dup3\n      swap1\n      sub\n      0x1f\n      and\n      dup3\n      add\n      swap2\n    tag_39:\n      pop\n      pop\n      pop\n      pop\n      pop\n      swap2\n      pop\n      swap3\n      pop\n      swap3\n      pop\n      pop\n        /* \"Assigment2/q9.sol\":574:758  function getEntry(uint256 index) public view returns (string memory, uint256) {... */\n      swap2\n      pop\n      swap2\n      jump\t// out\n        /* \"#utility.yul\":7:82   */\n    tag_42:\n        /* \"#utility.yul\":40:46   */\n      0x00\n        /* \"#utility.yul\":73:75   */\n      0x40\n        /* \"#utility.yul\":67:76   */\n      mload\n        /* \"#utility.yul\":57:76   */\n      swap1\n      pop\n        /* \"#utility.yul\":7:82   */\n      swap1\n      jump\t// out\n        /* \"#utility.yul\":88:205   */\n    tag_43:\n        /* \"#utility.yul\":197:198   */\n      0x00\n        /* \"#utility.yul\":194:195   */\n      dup1\n        /* \"#utility.yul\":187:199   */\n      revert\n        /* \"#utility.yul\":211:328   */\n    tag_44:\n        /* \"#utility.yul\":320:321   */\n      0x00\n        /* \"#utility.yul\":317:318   */\n      dup1\n        /* \"#utility.yul\":310:322   */\n      revert\n        /* \"#utility.yul\":334:451   */\n    tag_45:\n        /* \"#utility.yul\":443:444   */\n      0x00\n        /* \"#utility.yul\":440:441   */\n      dup1\n        /* \"#utility.yul\":433:445   */\n      revert\n        /* \"#utility.yul\":457:574   */\n    tag_46:\n        /* \"#utility.yul\":566:567   */\n      0x00\n        /* \"#utility.yul\":563:564   */\n      dup1\n        /* \"#utility.yul\":556:568   */\n      revert\n        /* \"#utility.yul\":580:682   */\n    tag_47:\n        /* \"#utility.yul\":621:627   */\n      0x00\n        /* \"#utility.yul\":672:674   */\n      0x1f\n        /* \"#utility.yul\":668:675   */\n      not\n        /* \"#utility.yul\":663:665   */\n      0x1f\n        /* \"#utility.yul\":656:661   */\n      dup4\n        /* \"#utility.yul\":652:666   */\n      add\n        /* \"#utility.yul\":648:676   */\n      and\n        /* \"#utility.yul\":638:676   */\n      swap1\n      pop\n        /* \"#utility.yul\":580:682   */\n      swap2\n      swap1\n      pop\n      jump\t// out\n        /* \"#utility.yul\":688:868   */\n    tag_48:\n        /* \"#utility.yul\":736:813   */\n      0x4e487b7100000000000000000000000000000000000000000000000000000000\n        /* \"#utility.yul\":733:734   */\n      0x00\n        /* \"#utility.yul\":726:814   */\n      mstore\n        /* \"#utility.yul\":833:837   */\n      0x41\n        /* \"#utility.yul\":830:831   */\n      0x04\n        /* \"#utility.yul\":823:838   */\n      mstore\n        /* \"#utility.yul\":857:861   */\n      0x24\n        /* \"#utility.yul\":854:855   */\n      0x00\n        /* \"#utility.yul\":847:862   */\n      revert\n        /* \"#utility.yul\":874:1155   */\n    tag_49:\n        /* \"#utility.yul\":957:984   */\n      tag_88\n        /* \"#utility.yul\":979:983   */\n      dup3\n        /* \"#utility.yul\":957:984   */\n      tag_47\n      jump\t// in\n    tag_88:\n        /* \"#utility.yul\":949:955   */\n      dup2\n        /* \"#utility.yul\":945:985   */\n      add\n        /* \"#utility.yul\":1087:1093   */\n      dup2\n        /* \"#utility.yul\":1075:1085   */\n      dup2\n        /* \"#utility.yul\":1072:1094   */\n      lt\n        /* \"#utility.yul\":1051:1069   */\n      0xffffffffffffffff\n        /* \"#utility.yul\":1039:1049   */\n      dup3\n        /* \"#utility.yul\":1036:1070   */\n      gt\n        /* \"#utility.yul\":1033:1095   */\n      or\n        /* \"#utility.yul\":1030:1118   */\n      iszero\n      tag_89\n      jumpi\n        /* \"#utility.yul\":1098:1116   */\n      tag_90\n      tag_48\n      jump\t// in\n    tag_90:\n        /* \"#utility.yul\":1030:1118   */\n    tag_89:\n        /* \"#utility.yul\":1138:1148   */\n      dup1\n        /* \"#utility.yul\":1134:1136   */\n      0x40\n        /* \"#utility.yul\":1127:1149   */\n      mstore\n        /* \"#utility.yul\":917:1155   */\n      pop\n        /* \"#utility.yul\":874:1155   */\n      pop\n      pop\n      jump\t// out\n        /* \"#utility.yul\":1161:1290   */\n    tag_50:\n        /* \"#utility.yul\":1195:1201   */\n      0x00\n        /* \"#utility.yul\":1222:1242   */\n      tag_92\n      tag_42\n      jump\t// in\n    tag_92:\n        /* \"#utility.yul\":1212:1242   */\n      swap1\n      pop\n        /* \"#utility.yul\":1251:1284   */\n      tag_93\n        /* \"#utility.yul\":1279:1283   */\n      dup3\n        /* \"#utility.yul\":1271:1277   */\n      dup3\n        /* \"#utility.yul\":1251:1284   */\n      tag_49\n      jump\t// in\n    tag_93:\n        /* \"#utility.yul\":1161:1290   */\n      swap2\n      swap1\n      pop\n      jump\t// out\n        /* \"#utility.yul\":1296:1604   */\n    tag_51:\n        /* \"#utility.yul\":1358:1362   */\n      0x00\n        /* \"#utility.yul\":1448:1466   */\n      0xffffffffffffffff\n        /* \"#utility.yul\":1440:1446   */\n      dup3\n        /* \"#utility.yul\":1437:1467   */\n      gt\n        /* \"#utility.yul\":1434:1490   */\n      iszero\n      tag_95\n      jumpi\n        /* \"#utility.yul\":1470:1488   */\n      tag_96\n      tag_48\n      jump\t// in\n    tag_96:\n        /* \"#utility.yul\":1434:1490   */\n    tag_95:\n        /* \"#utility.yul\":1508:1537   */\n      tag_97\n        /* \"#utility.yul\":1530:1536   */\n      dup3\n        /* \"#utility.yul\":1508:1537   */\n      tag_47\n      jump\t// in\n    tag_97:\n        /* \"#utility.yul\":1500:1537   */\n      swap1\n      pop\n        /* \"#utility.yul\":1592:1596   */\n      0x20\n        /* \"#utility.yul\":1586:1590   */\n      dup2\n        /* \"#utility.yul\":1582:1597   */\n      add\n        /* \"#utility.yul\":1574:1597   */\n      swap1\n      pop\n        /* \"#utility.yul\":1296:1604   */\n      swap2\n      swap1\n      pop\n      jump\t// out\n        /* \"#utility.yul\":1610:1758   */\n    tag_52:\n        /* \"#utility.yul\":1708:1714   */\n      dup3\n        /* \"#utility.yul\":1703:1706   */\n      dup2\n        /* \"#utility.yul\":1698:1701   */\n      dup4\n        /* \"#utility.yul\":1685:1715   */\n      calldatacopy\n        /* \"#utility.yul\":1749:1750   */\n      0x00\n        /* \"#utility.yul\":1740:1746   */\n      dup4\n        /* \"#utility.yul\":1735:1738   */\n      dup4\n        /* \"#utility.yul\":1731:1747   */\n      add\n        /* \"#utility.yul\":1724:1751   */\n      mstore\n        /* \"#utility.yul\":1610:1758   */\n      pop\n      pop\n      pop\n      jump\t// out\n        /* \"#utility.yul\":1764:2189   */\n    tag_53:\n        /* \"#utility.yul\":1842:1847   */\n      0x00\n        /* \"#utility.yul\":1867:1933   */\n      tag_100\n        /* \"#utility.yul\":1883:1932   */\n      tag_101\n        /* \"#utility.yul\":1925:1931   */\n      dup5\n        /* \"#utility.yul\":1883:1932   */\n      tag_51\n      jump\t// in\n    tag_101:\n        /* \"#utility.yul\":1867:1933   */\n      tag_50\n      jump\t// in\n    tag_100:\n        /* \"#utility.yul\":1858:1933   */\n      swap1\n      pop\n        /* \"#utility.yul\":1956:1962   */\n      dup3\n        /* \"#utility.yul\":1949:1954   */\n      dup2\n        /* \"#utility.yul\":1942:1963   */\n      mstore\n        /* \"#utility.yul\":1994:1998   */\n      0x20\n        /* \"#utility.yul\":1987:1992   */\n      dup2\n        /* \"#utility.yul\":1983:1999   */\n      add\n        /* \"#utility.yul\":2032:2035   */\n      dup5\n        /* \"#utility.yul\":2023:2029   */\n      dup5\n        /* \"#utility.yul\":2018:2021   */\n      dup5\n        /* \"#utility.yul\":2014:2030   */\n      add\n        /* \"#utility.yul\":2011:2036   */\n      gt\n        /* \"#utility.yul\":2008:2120   */\n      iszero\n      tag_102\n      jumpi\n        /* \"#utility.yul\":2039:2118   */\n      tag_103\n      tag_46\n      jump\t// in\n    tag_103:\n        /* \"#utility.yul\":2008:2120   */\n    tag_102:\n        /* \"#utility.yul\":2129:2183   */\n      tag_104\n        /* \"#utility.yul\":2176:2182   */\n      dup5\n        /* \"#utility.yul\":2171:2174   */\n      dup3\n        /* \"#utility.yul\":2166:2169   */\n      dup6\n        /* \"#utility.yul\":2129:2183   */\n      tag_52\n      jump\t// in\n    tag_104:\n        /* \"#utility.yul\":1848:2189   */\n      pop\n        /* \"#utility.yul\":1764:2189   */\n      swap4\n      swap3\n      pop\n      pop\n      pop\n      jump\t// out\n        /* \"#utility.yul\":2209:2549   */\n    tag_54:\n        /* \"#utility.yul\":2265:2270   */\n      0x00\n        /* \"#utility.yul\":2314:2317   */\n      dup3\n        /* \"#utility.yul\":2307:2311   */\n      0x1f\n        /* \"#utility.yul\":2299:2305   */\n      dup4\n        /* \"#utility.yul\":2295:2312   */\n      add\n        /* \"#utility.yul\":2291:2318   */\n      slt\n        /* \"#utility.yul\":2281:2403   */\n      tag_106\n      jumpi\n        /* \"#utility.yul\":2322:2401   */\n      tag_107\n      tag_45\n      jump\t// in\n    tag_107:\n        /* \"#utility.yul\":2281:2403   */\n    tag_106:\n        /* \"#utility.yul\":2439:2445   */\n      dup2\n        /* \"#utility.yul\":2426:2446   */\n      calldataload\n        /* \"#utility.yul\":2464:2543   */\n      tag_108\n        /* \"#utility.yul\":2539:2542   */\n      dup5\n        /* \"#utility.yul\":2531:2537   */\n      dup3\n        /* \"#utility.yul\":2524:2528   */\n      0x20\n        /* \"#utility.yul\":2516:2522   */\n      dup7\n        /* \"#utility.yul\":2512:2529   */\n      add\n        /* \"#utility.yul\":2464:2543   */\n      tag_53\n      jump\t// in\n    tag_108:\n        /* \"#utility.yul\":2455:2543   */\n      swap2\n      pop\n        /* \"#utility.yul\":2271:2549   */\n      pop\n        /* \"#utility.yul\":2209:2549   */\n      swap3\n      swap2\n      pop\n      pop\n      jump\t// out\n        /* \"#utility.yul\":2555:2632   */\n    tag_55:\n        /* \"#utility.yul\":2592:2599   */\n      0x00\n        /* \"#utility.yul\":2621:2626   */\n      dup2\n        /* \"#utility.yul\":2610:2626   */\n      swap1\n      pop\n        /* \"#utility.yul\":2555:2632   */\n      swap2\n      swap1\n      pop\n      jump\t// out\n        /* \"#utility.yul\":2638:2760   */\n    tag_56:\n        /* \"#utility.yul\":2711:2735   */\n      tag_111\n        /* \"#utility.yul\":2729:2734   */\n      dup2\n        /* \"#utility.yul\":2711:2735   */\n      tag_55\n      jump\t// in\n    tag_111:\n        /* \"#utility.yul\":2704:2709   */\n      dup2\n        /* \"#utility.yul\":2701:2736   */\n      eq\n        /* \"#utility.yul\":2691:2754   */\n      tag_112\n      jumpi\n        /* \"#utility.yul\":2750:2751   */\n      0x00\n        /* \"#utility.yul\":2747:2748   */\n      dup1\n        /* \"#utility.yul\":2740:2752   */\n      revert\n        /* \"#utility.yul\":2691:2754   */\n    tag_112:\n        /* \"#utility.yul\":2638:2760   */\n      pop\n      jump\t// out\n        /* \"#utility.yul\":2766:2905   */\n    tag_57:\n        /* \"#utility.yul\":2812:2817   */\n      0x00\n        /* \"#utility.yul\":2850:2856   */\n      dup2\n        /* \"#utility.yul\":2837:2857   */\n      calldataload\n        /* \"#utility.yul\":2828:2857   */\n      swap1\n      pop\n        /* \"#utility.yul\":2866:2899   */\n      tag_114\n        /* \"#utility.yul\":2893:2898   */\n      dup2\n        /* \"#utility.yul\":2866:2899   */\n      tag_56\n      jump\t// in\n    tag_114:\n        /* \"#utility.yul\":2766:2905   */\n      swap3\n      swap2\n      pop\n      pop\n      jump\t// out\n        /* \"#utility.yul\":2911:3565   */\n    tag_8:\n        /* \"#utility.yul\":2989:2995   */\n      0x00\n        /* \"#utility.yul\":2997:3003   */\n      dup1\n        /* \"#utility.yul\":3046:3048   */\n      0x40\n        /* \"#utility.yul\":3034:3043   */\n      dup4\n        /* \"#utility.yul\":3025:3032   */\n      dup6\n        /* \"#utility.yul\":3021:3044   */\n      sub\n        /* \"#utility.yul\":3017:3049   */\n      slt\n        /* \"#utility.yul\":3014:3133   */\n      iszero\n      tag_116\n      jumpi\n        /* \"#utility.yul\":3052:3131   */\n      tag_117\n      tag_43\n      jump\t// in\n    tag_117:\n        /* \"#utility.yul\":3014:3133   */\n    tag_116:\n        /* \"#utility.yul\":3200:3201   */\n      0x00\n        /* \"#utility.yul\":3189:3198   */\n      dup4\n        /* \"#utility.yul\":3185:3202   */\n      add\n        /* \"#utility.yul\":3172:3203   */\n      calldataload\n        /* \"#utility.yul\":3230:3248   */\n      0xffffffffffffffff\n        /* \"#utility.yul\":3222:3228   */\n      dup2\n        /* \"#utility.yul\":3219:3249   */\n      gt\n        /* \"#utility.yul\":3216:3333   */\n      iszero\n      tag_118\n      jumpi\n        /* \"#utility.yul\":3252:3331   */\n      tag_119\n      tag_44\n      jump\t// in\n    tag_119:\n        /* \"#utility.yul\":3216:3333   */\n    tag_118:\n        /* \"#utility.yul\":3357:3420   */\n      tag_120\n        /* \"#utility.yul\":3412:3419   */\n      dup6\n        /* \"#utility.yul\":3403:3409   */\n      dup3\n        /* \"#utility.yul\":3392:3401   */\n      dup7\n        /* \"#utility.yul\":3388:3410   */\n      add\n        /* \"#utility.yul\":3357:3420   */\n      tag_54\n      jump\t// in\n    tag_120:\n        /* \"#utility.yul\":3347:3420   */\n      swap3\n      pop\n        /* \"#utility.yul\":3143:3430   */\n      pop\n        /* \"#utility.yul\":3469:3471   */\n      0x20\n        /* \"#utility.yul\":3495:3548   */\n      tag_121\n        /* \"#utility.yul\":3540:3547   */\n      dup6\n        /* \"#utility.yul\":3531:3537   */\n      dup3\n        /* \"#utility.yul\":3520:3529   */\n      dup7\n        /* \"#utility.yul\":3516:3538   */\n      add\n        /* \"#utility.yul\":3495:3548   */\n      tag_57\n      jump\t// in\n    tag_121:\n        /* \"#utility.yul\":3485:3548   */\n      swap2\n      pop\n        /* \"#utility.yul\":3440:3558   */\n      pop\n        /* \"#utility.yul\":2911:3565   */\n      swap3\n      pop\n      swap3\n      swap1\n      pop\n      jump\t// out\n        /* \"#utility.yul\":3571:3900   */\n    tag_12:\n        /* \"#utility.yul\":3630:3636   */\n      0x00\n        /* \"#utility.yul\":3679:3681   */\n      0x20\n        /* \"#utility.yul\":3667:3676   */\n      dup3\n        /* \"#utility.yul\":3658:3665   */\n      dup5\n        /* \"#utility.yul\":3654:3677   */\n      sub\n        /* \"#utility.yul\":3650:3682   */\n      slt\n        /* \"#utility.yul\":3647:3766   */\n      iszero\n      tag_123\n      jumpi\n        /* \"#utility.yul\":3685:3764   */\n      tag_124\n      tag_43\n      jump\t// in\n    tag_124:\n        /* \"#utility.yul\":3647:3766   */\n    tag_123:\n        /* \"#utility.yul\":3805:3806   */\n      0x00\n        /* \"#utility.yul\":3830:3883   */\n      tag_125\n        /* \"#utility.yul\":3875:3882   */\n      dup5\n        /* \"#utility.yul\":3866:3872   */\n      dup3\n        /* \"#utility.yul\":3855:3864   */\n      dup6\n        /* \"#utility.yul\":3851:3873   */\n      add\n        /* \"#utility.yul\":3830:3883   */\n      tag_57\n      jump\t// in\n    tag_125:\n        /* \"#utility.yul\":3820:3883   */\n      swap2\n      pop\n        /* \"#utility.yul\":3776:3893   */\n      pop\n        /* \"#utility.yul\":3571:3900   */\n      swap3\n      swap2\n      pop\n      pop\n      jump\t// out\n        /* \"#utility.yul\":3906:4005   */\n    tag_58:\n        /* \"#utility.yul\":3958:3964   */\n      0x00\n        /* \"#utility.yul\":3992:3997   */\n      dup2\n        /* \"#utility.yul\":3986:3998   */\n      mload\n        /* \"#utility.yul\":3976:3998   */\n      swap1\n      pop\n        /* \"#utility.yul\":3906:4005   */\n      swap2\n      swap1\n      pop\n      jump\t// out\n        /* \"#utility.yul\":4011:4180   */\n    tag_59:\n        /* \"#utility.yul\":4095:4106   */\n      0x00\n        /* \"#utility.yul\":4129:4135   */\n      dup3\n        /* \"#utility.yul\":4124:4127   */\n      dup3\n        /* \"#utility.yul\":4117:4136   */\n      mstore\n        /* \"#utility.yul\":4169:4173   */\n      0x20\n        /* \"#utility.yul\":4164:4167   */\n      dup3\n        /* \"#utility.yul\":4160:4174   */\n      add\n        /* \"#utility.yul\":4145:4174   */\n      swap1\n      pop\n        /* \"#utility.yul\":4011:4180   */\n      swap3\n      swap2\n      pop\n      pop\n      jump\t// out\n        /* \"#utility.yul\":4186:4325   */\n    tag_60:\n        /* \"#utility.yul\":4275:4281   */\n      dup3\n        /* \"#utility.yul\":4270:4273   */\n      dup2\n        /* \"#utility.yul\":4265:4268   */\n      dup4\n        /* \"#utility.yul\":4259:4282   */\n      mcopy\n        /* \"#utility.yul\":4316:4317   */\n      0x00\n        /* \"#utility.yul\":4307:4313   */\n      dup4\n        /* \"#utility.yul\":4302:4305   */\n      dup4\n        /* \"#utility.yul\":4298:4314   */\n      add\n        /* \"#utility.yul\":4291:4318   */\n      mstore\n        /* \"#utility.yul\":4186:4325   */\n      pop\n      pop\n      pop\n      jump\t// out\n        /* \"#utility.yul\":4331:4708   */\n    tag_61:\n        /* \"#utility.yul\":4419:4422   */\n      0x00\n        /* \"#utility.yul\":4447:4486   */\n      tag_130\n        /* \"#utility.yul\":4480:4485   */\n      dup3\n        /* \"#utility.yul\":4447:4486   */\n      tag_58\n      jump\t// in\n    tag_130:\n        /* \"#utility.yul\":4502:4573   */\n      tag_131\n        /* \"#utility.yul\":4566:4572   */\n      dup2\n        /* \"#utility.yul\":4561:4564   */\n      dup6\n        /* \"#utility.yul\":4502:4573   */\n      tag_59\n      jump\t// in\n    tag_131:\n        /* \"#utility.yul\":4495:4573   */\n      swap4\n      pop\n        /* \"#utility.yul\":4582:4647   */\n      tag_132\n        /* \"#utility.yul\":4640:4646   */\n      dup2\n        /* \"#utility.yul\":4635:4638   */\n      dup6\n        /* \"#utility.yul\":4628:4632   */\n      0x20\n        /* \"#utility.yul\":4621:4626   */\n      dup7\n        /* \"#utility.yul\":4617:4633   */\n      add\n        /* \"#utility.yul\":4582:4647   */\n      tag_60\n      jump\t// in\n    tag_132:\n        /* \"#utility.yul\":4672:4701   */\n      tag_133\n        /* \"#utility.yul\":4694:4700   */\n      dup2\n        /* \"#utility.yul\":4672:4701   */\n      tag_47\n      jump\t// in\n    tag_133:\n        /* \"#utility.yul\":4667:4670   */\n      dup5\n        /* \"#utility.yul\":4663:4702   */\n      add\n        /* \"#utility.yul\":4656:4702   */\n      swap2\n      pop\n        /* \"#utility.yul\":4423:4708   */\n      pop\n        /* \"#utility.yul\":4331:4708   */\n      swap3\n      swap2\n      pop\n      pop\n      jump\t// out\n        /* \"#utility.yul\":4714:4832   */\n    tag_62:\n        /* \"#utility.yul\":4801:4825   */\n      tag_135\n        /* \"#utility.yul\":4819:4824   */\n      dup2\n        /* \"#utility.yul\":4801:4825   */\n      tag_55\n      jump\t// in\n    tag_135:\n        /* \"#utility.yul\":4796:4799   */\n      dup3\n        /* \"#utility.yul\":4789:4826   */\n      mstore\n        /* \"#utility.yul\":4714:4832   */\n      pop\n      pop\n      jump\t// out\n        /* \"#utility.yul\":4838:5261   */\n    tag_15:\n        /* \"#utility.yul\":4979:4983   */\n      0x00\n        /* \"#utility.yul\":5017:5019   */\n      0x40\n        /* \"#utility.yul\":5006:5015   */\n      dup3\n        /* \"#utility.yul\":5002:5020   */\n      add\n        /* \"#utility.yul\":4994:5020   */\n      swap1\n      pop\n        /* \"#utility.yul\":5066:5075   */\n      dup2\n        /* \"#utility.yul\":5060:5064   */\n      dup2\n        /* \"#utility.yul\":5056:5076   */\n      sub\n        /* \"#utility.yul\":5052:5053   */\n      0x00\n        /* \"#utility.yul\":5041:5050   */\n      dup4\n        /* \"#utility.yul\":5037:5054   */\n      add\n        /* \"#utility.yul\":5030:5077   */\n      mstore\n        /* \"#utility.yul\":5094:5172   */\n      tag_137\n        /* \"#utility.yul\":5167:5171   */\n      dup2\n        /* \"#utility.yul\":5158:5164   */\n      dup6\n        /* \"#utility.yul\":5094:5172   */\n      tag_61\n      jump\t// in\n    tag_137:\n        /* \"#utility.yul\":5086:5172   */\n      swap1\n      pop\n        /* \"#utility.yul\":5182:5254   */\n      tag_138\n        /* \"#utility.yul\":5250:5252   */\n      0x20\n        /* \"#utility.yul\":5239:5248   */\n      dup4\n        /* \"#utility.yul\":5235:5253   */\n      add\n        /* \"#utility.yul\":5226:5232   */\n      dup5\n        /* \"#utility.yul\":5182:5254   */\n      tag_62\n      jump\t// in\n    tag_138:\n        /* \"#utility.yul\":4838:5261   */\n      swap4\n      swap3\n      pop\n      pop\n      pop\n      jump\t// out\n        /* \"#utility.yul\":5267:5447   */\n    tag_63:\n        /* \"#utility.yul\":5315:5392   */\n      0x4e487b7100000000000000000000000000000000000000000000000000000000\n        /* \"#utility.yul\":5312:5313   */\n      0x00\n        /* \"#utility.yul\":5305:5393   */\n      mstore\n        /* \"#utility.yul\":5412:5416   */\n      0x22\n        /* \"#utility.yul\":5409:5410   */\n      0x04\n        /* \"#utility.yul\":5402:5417   */\n      mstore\n        /* \"#utility.yul\":5436:5440   */\n      0x24\n        /* \"#utility.yul\":5433:5434   */\n      0x00\n        /* \"#utility.yul\":5426:5441   */\n      revert\n        /* \"#utility.yul\":5453:5773   */\n    tag_27:\n        /* \"#utility.yul\":5497:5503   */\n      0x00\n        /* \"#utility.yul\":5534:5535   */\n      0x02\n        /* \"#utility.yul\":5528:5532   */\n      dup3\n        /* \"#utility.yul\":5524:5536   */\n      div\n        /* \"#utility.yul\":5514:5536   */\n      swap1\n      pop\n        /* \"#utility.yul\":5581:5582   */\n      0x01\n        /* \"#utility.yul\":5575:5579   */\n      dup3\n        /* \"#utility.yul\":5571:5583   */\n      and\n        /* \"#utility.yul\":5602:5620   */\n      dup1\n        /* \"#utility.yul\":5592:5673   */\n      tag_141\n      jumpi\n        /* \"#utility.yul\":5658:5662   */\n      0x7f\n        /* \"#utility.yul\":5650:5656   */\n      dup3\n        /* \"#utility.yul\":5646:5663   */\n      and\n        /* \"#utility.yul\":5636:5663   */\n      swap2\n      pop\n        /* \"#utility.yul\":5592:5673   */\n    tag_141:\n        /* \"#utility.yul\":5720:5722   */\n      0x20\n        /* \"#utility.yul\":5712:5718   */\n      dup3\n        /* \"#utility.yul\":5709:5723   */\n      lt\n        /* \"#utility.yul\":5689:5707   */\n      dup2\n        /* \"#utility.yul\":5686:5724   */\n      sub\n        /* \"#utility.yul\":5683:5767   */\n      tag_142\n      jumpi\n        /* \"#utility.yul\":5739:5757   */\n      tag_143\n      tag_63\n      jump\t// in\n    tag_143:\n        /* \"#utility.yul\":5683:5767   */\n    tag_142:\n        /* \"#utility.yul\":5504:5773   */\n      pop\n        /* \"#utility.yul\":5453:5773   */\n      swap2\n      swap1\n      pop\n      jump\t// out\n        /* \"#utility.yul\":5779:5920   */\n    tag_64:\n        /* \"#utility.yul\":5828:5832   */\n      0x00\n        /* \"#utility.yul\":5851:5854   */\n      dup2\n        /* \"#utility.yul\":5843:5854   */\n      swap1\n      pop\n        /* \"#utility.yul\":5874:5877   */\n      dup2\n        /* \"#utility.yul\":5871:5872   */\n      0x00\n        /* \"#utility.yul\":5864:5878   */\n      mstore\n        /* \"#utility.yul\":5908:5912   */\n      0x20\n        /* \"#utility.yul\":5905:5906   */\n      0x00\n        /* \"#utility.yul\":5895:5913   */\n      keccak256\n        /* \"#utility.yul\":5887:5913   */\n      swap1\n      pop\n        /* \"#utility.yul\":5779:5920   */\n      swap2\n      swap1\n      pop\n      jump\t// out\n        /* \"#utility.yul\":5926:6019   */\n    tag_65:\n        /* \"#utility.yul\":5963:5969   */\n      0x00\n        /* \"#utility.yul\":6010:6012   */\n      0x20\n        /* \"#utility.yul\":6005:6007   */\n      0x1f\n        /* \"#utility.yul\":5998:6003   */\n      dup4\n        /* \"#utility.yul\":5994:6008   */\n      add\n        /* \"#utility.yul\":5990:6013   */\n      div\n        /* \"#utility.yul\":5980:6013   */\n      swap1\n      pop\n        /* \"#utility.yul\":5926:6019   */\n      swap2\n      swap1\n      pop\n      jump\t// out\n        /* \"#utility.yul\":6025:6132   */\n    tag_66:\n        /* \"#utility.yul\":6069:6077   */\n      0x00\n        /* \"#utility.yul\":6119:6124   */\n      dup3\n        /* \"#utility.yul\":6113:6117   */\n      dup3\n        /* \"#utility.yul\":6109:6125   */\n      shl\n        /* \"#utility.yul\":6088:6125   */\n      swap1\n      pop\n        /* \"#utility.yul\":6025:6132   */\n      swap3\n      swap2\n      pop\n      pop\n      jump\t// out\n        /* \"#utility.yul\":6138:6531   */\n    tag_67:\n        /* \"#utility.yul\":6207:6213   */\n      0x00\n        /* \"#utility.yul\":6257:6258   */\n      0x08\n        /* \"#utility.yul\":6245:6255   */\n      dup4\n        /* \"#utility.yul\":6241:6259   */\n      mul\n        /* \"#utility.yul\":6280:6377   */\n      tag_148\n        /* \"#utility.yul\":6310:6376   */\n      0xffffffffffffffffffffffffffffffffffffffffffffffffffffffffffffffff\n        /* \"#utility.yul\":6299:6308   */\n      dup3\n        /* \"#utility.yul\":6280:6377   */\n      tag_66\n      jump\t// in\n    tag_148:\n        /* \"#utility.yul\":6398:6437   */\n      tag_149\n        /* \"#utility.yul\":6428:6436   */\n      dup7\n        /* \"#utility.yul\":6417:6426   */\n      dup4\n        /* \"#utility.yul\":6398:6437   */\n      tag_66\n      jump\t// in\n    tag_149:\n        /* \"#utility.yul\":6386:6437   */\n      swap6\n      pop\n        /* \"#utility.yul\":6470:6474   */\n      dup1\n        /* \"#utility.yul\":6466:6475   */\n      not\n        /* \"#utility.yul\":6459:6464   */\n      dup5\n        /* \"#utility.yul\":6455:6476   */\n      and\n        /* \"#utility.yul\":6446:6476   */\n      swap4\n      pop\n        /* \"#utility.yul\":6519:6523   */\n      dup1\n        /* \"#utility.yul\":6509:6517   */\n      dup7\n        /* \"#utility.yul\":6505:6524   */\n      and\n        /* \"#utility.yul\":6498:6503   */\n      dup5\n        /* \"#utility.yul\":6495:6525   */\n      or\n        /* \"#utility.yul\":6485:6525   */\n      swap3\n      pop\n        /* \"#utility.yul\":6214:6531   */\n      pop\n      pop\n        /* \"#utility.yul\":6138:6531   */\n      swap4\n      swap3\n      pop\n      pop\n      pop\n      jump\t// out\n        /* \"#utility.yul\":6537:6597   */\n    tag_68:\n        /* \"#utility.yul\":6565:6568   */\n      0x00\n        /* \"#utility.yul\":6586:6591   */\n      dup2\n        /* \"#utility.yul\":6579:6591   */\n      swap1\n      pop\n        /* \"#utility.yul\":6537:6597   */\n      swap2\n      swap1\n      pop\n      jump\t// out\n        /* \"#utility.yul\":6603:6745   */\n    tag_69:\n        /* \"#utility.yul\":6653:6662   */\n      0x00\n        /* \"#utility.yul\":6686:6739   */\n      tag_152\n        /* \"#utility.yul\":6704:6738   */\n      tag_153\n        /* \"#utility.yul\":6713:6737   */\n      tag_154\n        /* \"#utility.yul\":6731:6736   */\n      dup5\n        /* \"#utility.yul\":6713:6737   */\n      tag_55\n      jump\t// in\n    tag_154:\n        /* \"#utility.yul\":6704:6738   */\n      tag_68\n      jump\t// in\n    tag_153:\n        /* \"#utility.yul\":6686:6739   */\n      tag_55\n      jump\t// in\n    tag_152:\n        /* \"#utility.yul\":6673:6739   */\n      swap1\n      pop\n        /* \"#utility.yul\":6603:6745   */\n      swap2\n      swap1\n      pop\n      jump\t// out\n        /* \"#utility.yul\":6751:6826   */\n    tag_70:\n        /* \"#utility.yul\":6794:6797   */\n      0x00\n        /* \"#utility.yul\":6815:6820   */\n      dup2\n        /* \"#utility.yul\":6808:6820   */\n      swap1\n      pop\n        /* \"#utility.yul\":6751:6826   */\n      swap2\n      swap1\n      pop\n      jump\t// out\n        /* \"#utility.yul\":6832:7101   */\n    tag_71:\n        /* \"#utility.yul\":6942:6981   */\n      tag_157\n        /* \"#utility.yul\":6973:6980   */\n      dup4\n        /* \"#utility.yul\":6942:6981   */\n      tag_69\n      jump\t// in\n    tag_157:\n        /* \"#utility.yul\":7003:7094   */\n      tag_158\n        /* \"#utility.yul\":7052:7093   */\n      tag_159\n        /* \"#utility.yul\":7076:7092   */\n      dup3\n        /* \"#utility.yul\":7052:7093   */\n      tag_70\n      jump\t// in\n    tag_159:\n        /* \"#utility.yul\":7044:7050   */\n      dup5\n        /* \"#utility.yul\":7037:7041   */\n      dup5\n        /* \"#utility.yul\":7031:7042   */\n      sload\n        /* \"#utility.yul\":7003:7094   */\n      tag_67\n      jump\t// in\n    tag_158:\n        /* \"#utility.yul\":6997:7001   */\n      dup3\n        /* \"#utility.yul\":6990:7095   */\n      sstore\n        /* \"#utility.yul\":6908:7101   */\n      pop\n        /* \"#utility.yul\":6832:7101   */\n      pop\n      pop\n      pop\n      jump\t// out\n        /* \"#utility.yul\":7107:7180   */\n    tag_72:\n        /* \"#utility.yul\":7152:7155   */\n      0x00\n        /* \"#utility.yul\":7107:7180   */\n      swap1\n      jump\t// out\n        /* \"#utility.yul\":7186:7375   */\n    tag_73:\n        /* \"#utility.yul\":7263:7295   */\n      tag_162\n      tag_72\n      jump\t// in\n    tag_162:\n        /* \"#utility.yul\":7304:7369   */\n      tag_163\n        /* \"#utility.yul\":7362:7368   */\n      dup2\n        /* \"#utility.yul\":7354:7360   */\n      dup5\n        /* \"#utility.yul\":7348:7352   */\n      dup5\n        /* \"#utility.yul\":7304:7369   */\n      tag_71\n      jump\t// in\n    tag_163:\n        /* \"#utility.yul\":7239:7375   */\n      pop\n        /* \"#utility.yul\":7186:7375   */\n      pop\n      pop\n      jump\t// out\n        /* \"#utility.yul\":7381:7567   */\n    tag_74:\n        /* \"#utility.yul\":7441:7561   */\n    tag_165:\n        /* \"#utility.yul\":7458:7461   */\n      dup2\n        /* \"#utility.yul\":7451:7456   */\n      dup2\n        /* \"#utility.yul\":7448:7462   */\n      lt\n        /* \"#utility.yul\":7441:7561   */\n      iszero\n      tag_167\n      jumpi\n        /* \"#utility.yul\":7512:7551   */\n      tag_168\n        /* \"#utility.yul\":7549:7550   */\n      0x00\n        /* \"#utility.yul\":7542:7547   */\n      dup3\n        /* \"#utility.yul\":7512:7551   */\n      tag_73\n      jump\t// in\n    tag_168:\n        /* \"#utility.yul\":7485:7486   */\n      0x01\n        /* \"#utility.yul\":7478:7483   */\n      dup2\n        /* \"#utility.yul\":7474:7487   */\n      add\n        /* \"#utility.yul\":7465:7487   */\n      swap1\n      pop\n        /* \"#utility.yul\":7441:7561   */\n      jump(tag_165)\n    tag_167:\n        /* \"#utility.yul\":7381:7567   */\n      pop\n      pop\n      jump\t// out\n        /* \"#utility.yul\":7573:8116   */\n    tag_75:\n        /* \"#utility.yul\":7674:7676   */\n      0x1f\n        /* \"#utility.yul\":7669:7672   */\n      dup3\n        /* \"#utility.yul\":7666:7677   */\n      gt\n        /* \"#utility.yul\":7663:8109   */\n      iszero\n      tag_170\n      jumpi\n        /* \"#utility.yul\":7708:7746   */\n      tag_171\n        /* \"#utility.yul\":7740:7745   */\n      dup2\n        /* \"#utility.yul\":7708:7746   */\n      tag_64\n      jump\t// in\n    tag_171:\n        /* \"#utility.yul\":7792:7821   */\n      tag_172\n        /* \"#utility.yul\":7810:7820   */\n      dup5\n        /* \"#utility.yul\":7792:7821   */\n      tag_65\n      jump\t// in\n    tag_172:\n        /* \"#utility.yul\":7782:7790   */\n      dup2\n        /* \"#utility.yul\":7778:7822   */\n      add\n        /* \"#utility.yul\":7975:7977   */\n      0x20\n        /* \"#utility.yul\":7963:7973   */\n      dup6\n        /* \"#utility.yul\":7960:7978   */\n      lt\n        /* \"#utility.yul\":7957:8006   */\n      iszero\n      tag_173\n      jumpi\n        /* \"#utility.yul\":7996:8004   */\n      dup2\n        /* \"#utility.yul\":7981:8004   */\n      swap1\n      pop\n        /* \"#utility.yul\":7957:8006   */\n    tag_173:\n        /* \"#utility.yul\":8019:8099   */\n      tag_174\n        /* \"#utility.yul\":8075:8097   */\n      tag_175\n        /* \"#utility.yul\":8093:8096   */\n      dup6\n        /* \"#utility.yul\":8075:8097   */\n      tag_65\n      jump\t// in\n    tag_175:\n        /* \"#utility.yul\":8065:8073   */\n      dup4\n        /* \"#utility.yul\":8061:8098   */\n      add\n        /* \"#utility.yul\":8048:8059   */\n      dup3\n        /* \"#utility.yul\":8019:8099   */\n      tag_74\n      jump\t// in\n    tag_174:\n        /* \"#utility.yul\":7678:8109   */\n      pop\n      pop\n        /* \"#utility.yul\":7663:8109   */\n    tag_170:\n        /* \"#utility.yul\":7573:8116   */\n      pop\n      pop\n      pop\n      jump\t// out\n        /* \"#utility.yul\":8122:8239   */\n    tag_76:\n        /* \"#utility.yul\":8176:8184   */\n      0x00\n        /* \"#utility.yul\":8226:8231   */\n      dup3\n        /* \"#utility.yul\":8220:8224   */\n      dup3\n        /* \"#utility.yul\":8216:8232   */\n      shr\n        /* \"#utility.yul\":8195:8232   */\n      swap1\n      pop\n        /* \"#utility.yul\":8122:8239   */\n      swap3\n      swap2\n      pop\n      pop\n      jump\t// out\n        /* \"#utility.yul\":8245:8414   */\n    tag_77:\n        /* \"#utility.yul\":8289:8295   */\n      0x00\n        /* \"#utility.yul\":8322:8373   */\n      tag_178\n        /* \"#utility.yul\":8370:8371   */\n      0x00\n        /* \"#utility.yul\":8366:8372   */\n      not\n        /* \"#utility.yul\":8358:8363   */\n      dup5\n        /* \"#utility.yul\":8355:8356   */\n      0x08\n        /* \"#utility.yul\":8351:8364   */\n      mul\n        /* \"#utility.yul\":8322:8373   */\n      tag_76\n      jump\t// in\n    tag_178:\n        /* \"#utility.yul\":8318:8374   */\n      not\n        /* \"#utility.yul\":8403:8407   */\n      dup1\n        /* \"#utility.yul\":8397:8401   */\n      dup4\n        /* \"#utility.yul\":8393:8408   */\n      and\n        /* \"#utility.yul\":8383:8408   */\n      swap2\n      pop\n        /* \"#utility.yul\":8296:8414   */\n      pop\n        /* \"#utility.yul\":8245:8414   */\n      swap3\n      swap2\n      pop\n      pop\n      jump\t// out\n        /* \"#utility.yul\":8419:8714   */\n    tag_78:\n        /* \"#utility.yul\":8495:8499   */\n      0x00\n        /* \"#utility.yul\":8641:8670   */\n      tag_180\n        /* \"#utility.yul\":8666:8669   */\n      dup4\n        /* \"#utility.yul\":8660:8664   */\n      dup4\n        /* \"#utility.yul\":8641:8670   */\n      tag_77\n      jump\t// in\n    tag_180:\n        /* \"#utility.yul\":8633:8670   */\n      swap2\n      pop\n        /* \"#utility.yul\":8703:8706   */\n      dup3\n        /* \"#utility.yul\":8700:8701   */\n      0x02\n        /* \"#utility.yul\":8696:8707   */\n      mul\n        /* \"#utility.yul\":8690:8694   */\n      dup3\n        /* \"#utility.yul\":8687:8708   */\n      or\n        /* \"#utility.yul\":8679:8708   */\n      swap1\n      pop\n        /* \"#utility.yul\":8419:8714   */\n      swap3\n      swap2\n      pop\n      pop\n      jump\t// out\n        /* \"#utility.yul\":8719:10114   */\n    tag_23:\n        /* \"#utility.yul\":8836:8873   */\n      tag_182\n        /* \"#utility.yul\":8869:8872   */\n      dup3\n        /* \"#utility.yul\":8836:8873   */\n      tag_58\n      jump\t// in\n    tag_182:\n        /* \"#utility.yul\":8938:8956   */\n      0xffffffffffffffff\n        /* \"#utility.yul\":8930:8936   */\n      dup2\n        /* \"#utility.yul\":8927:8957   */\n      gt\n        /* \"#utility.yul\":8924:8980   */\n      iszero\n      tag_183\n      jumpi\n        /* \"#utility.yul\":8960:8978   */\n      tag_184\n      tag_48\n      jump\t// in\n    tag_184:\n        /* \"#utility.yul\":8924:8980   */\n    tag_183:\n        /* \"#utility.yul\":9004:9042   */\n      tag_185\n        /* \"#utility.yul\":9036:9040   */\n      dup3\n        /* \"#utility.yul\":9030:9041   */\n      sload\n        /* \"#utility.yul\":9004:9042   */\n      tag_27\n      jump\t// in\n    tag_185:\n        /* \"#utility.yul\":9089:9156   */\n      tag_186\n        /* \"#utility.yul\":9149:9155   */\n      dup3\n        /* \"#utility.yul\":9141:9147   */\n      dup3\n        /* \"#utility.yul\":9135:9139   */\n      dup6\n        /* \"#utility.yul\":9089:9156   */\n      tag_75\n      jump\t// in\n    tag_186:\n        /* \"#utility.yul\":9183:9184   */\n      0x00\n        /* \"#utility.yul\":9207:9211   */\n      0x20\n        /* \"#utility.yul\":9194:9211   */\n      swap1\n      pop\n        /* \"#utility.yul\":9239:9241   */\n      0x1f\n        /* \"#utility.yul\":9231:9237   */\n      dup4\n        /* \"#utility.yul\":9228:9242   */\n      gt\n        /* \"#utility.yul\":9256:9257   */\n      0x01\n        /* \"#utility.yul\":9251:9869   */\n      dup2\n      eq\n      tag_188\n      jumpi\n        /* \"#utility.yul\":9913:9914   */\n      0x00\n        /* \"#utility.yul\":9930:9936   */\n      dup5\n        /* \"#utility.yul\":9927:10004   */\n      iszero\n      tag_189\n      jumpi\n        /* \"#utility.yul\":9979:9988   */\n      dup3\n        /* \"#utility.yul\":9974:9977   */\n      dup8\n        /* \"#utility.yul\":9970:9989   */\n      add\n        /* \"#utility.yul\":9964:9990   */\n      mload\n        /* \"#utility.yul\":9955:9990   */\n      swap1\n      pop\n        /* \"#utility.yul\":9927:10004   */\n    tag_189:\n        /* \"#utility.yul\":10030:10097   */\n      tag_190\n        /* \"#utility.yul\":10090:10096   */\n      dup6\n        /* \"#utility.yul\":10083:10088   */\n      dup3\n        /* \"#utility.yul\":10030:10097   */\n      tag_78\n      jump\t// in\n    tag_190:\n        /* \"#utility.yul\":10024:10028   */\n      dup7\n        /* \"#utility.yul\":10017:10098   */\n      sstore\n        /* \"#utility.yul\":9886:10108   */\n      pop\n        /* \"#utility.yul\":9221:10108   */\n      jump(tag_187)\n        /* \"#utility.yul\":9251:9869   */\n    tag_188:\n        /* \"#utility.yul\":9303:9307   */\n      0x1f\n        /* \"#utility.yul\":9299:9308   */\n      not\n        /* \"#utility.yul\":9291:9297   */\n      dup5\n        /* \"#utility.yul\":9287:9309   */\n      and\n        /* \"#utility.yul\":9337:9374   */\n      tag_191\n        /* \"#utility.yul\":9369:9373   */\n      dup7\n        /* \"#utility.yul\":9337:9374   */\n      tag_64\n      jump\t// in\n    tag_191:\n        /* \"#utility.yul\":9396:9397   */\n      0x00\n        /* \"#utility.yul\":9410:9618   */\n    tag_192:\n        /* \"#utility.yul\":9424:9431   */\n      dup3\n        /* \"#utility.yul\":9421:9422   */\n      dup2\n        /* \"#utility.yul\":9418:9432   */\n      lt\n        /* \"#utility.yul\":9410:9618   */\n      iszero\n      tag_194\n      jumpi\n        /* \"#utility.yul\":9503:9512   */\n      dup5\n        /* \"#utility.yul\":9498:9501   */\n      dup10\n        /* \"#utility.yul\":9494:9513   */\n      add\n        /* \"#utility.yul\":9488:9514   */\n      mload\n        /* \"#utility.yul\":9480:9486   */\n      dup3\n        /* \"#utility.yul\":9473:9515   */\n      sstore\n        /* \"#utility.yul\":9554:9555   */\n      0x01\n        /* \"#utility.yul\":9546:9552   */\n      dup3\n        /* \"#utility.yul\":9542:9556   */\n      add\n        /* \"#utility.yul\":9532:9556   */\n      swap2\n      pop\n        /* \"#utility.yul\":9601:9603   */\n      0x20\n        /* \"#utility.yul\":9590:9599   */\n      dup6\n        /* \"#utility.yul\":9586:9604   */\n      add\n        /* \"#utility.yul\":9573:9604   */\n      swap5\n      pop\n        /* \"#utility.yul\":9447:9451   */\n      0x20\n        /* \"#utility.yul\":9444:9445   */\n      dup2\n        /* \"#utility.yul\":9440:9452   */\n      add\n        /* \"#utility.yul\":9435:9452   */\n      swap1\n      pop\n        /* \"#utility.yul\":9410:9618   */\n      jump(tag_192)\n    tag_194:\n        /* \"#utility.yul\":9646:9652   */\n      dup7\n        /* \"#utility.yul\":9637:9644   */\n      dup4\n        /* \"#utility.yul\":9634:9653   */\n      lt\n        /* \"#utility.yul\":9631:9810   */\n      iszero\n      tag_195\n      jumpi\n        /* \"#utility.yul\":9704:9713   */\n      dup5\n        /* \"#utility.yul\":9699:9702   */\n      dup10\n        /* \"#utility.yul\":9695:9714   */\n      add\n        /* \"#utility.yul\":9689:9715   */\n      mload\n        /* \"#utility.yul\":9747:9795   */\n      tag_196\n        /* \"#utility.yul\":9789:9793   */\n      0x1f\n        /* \"#utility.yul\":9781:9787   */\n      dup10\n        /* \"#utility.yul\":9777:9794   */\n      and\n        /* \"#utility.yul\":9766:9775   */\n      dup3\n        /* \"#utility.yul\":9747:9795   */\n      tag_77\n      jump\t// in\n    tag_196:\n        /* \"#utility.yul\":9739:9745   */\n      dup4\n        /* \"#utility.yul\":9732:9796   */\n      sstore\n        /* \"#utility.yul\":9654:9810   */\n      pop\n        /* \"#utility.yul\":9631:9810   */\n    tag_195:\n        /* \"#utility.yul\":9856:9857   */\n      0x01\n        /* \"#utility.yul\":9852:9853   */\n      0x02\n        /* \"#utility.yul\":9844:9850   */\n      dup9\n        /* \"#utility.yul\":9840:9854   */\n      mul\n        /* \"#utility.yul\":9836:9858   */\n      add\n        /* \"#utility.yul\":9830:9834   */\n      dup9\n        /* \"#utility.yul\":9823:9859   */\n      sstore\n        /* \"#utility.yul\":9258:9869   */\n      pop\n      pop\n      pop\n        /* \"#utility.yul\":9221:10108   */\n    tag_187:\n      pop\n        /* \"#utility.yul\":8811:10114   */\n      pop\n      pop\n      pop\n        /* \"#utility.yul\":8719:10114   */\n      pop\n      pop\n      jump\t// out\n        /* \"#utility.yul\":10120:10300   */\n    tag_35:\n        /* \"#utility.yul\":10168:10245   */\n      0x4e487b7100000000000000000000000000000000000000000000000000000000\n        /* \"#utility.yul\":10165:10166   */\n      0x00\n        /* \"#utility.yul\":10158:10246   */\n      mstore\n        /* \"#utility.yul\":10265:10269   */\n      0x32\n        /* \"#utility.yul\":10262:10263   */\n      0x04\n        /* \"#utility.yul\":10255:10270   */\n      mstore\n        /* \"#utility.yul\":10289:10293   */\n      0x24\n        /* \"#utility.yul\":10286:10287   */\n      0x00\n        /* \"#utility.yul\":10279:10294   */\n      revert\n\n    auxdata: 0xa2646970667358221220d638f08e0d62184234841c4a5ca6a38dee463b35c843ee6644a2caad8d48585d64736f6c634300081a0033\n}\n",
				"bytecode": {
					"linkReferences": {},
					"object": "6080604052348015600e575f80fd5b506108648061001c5f395ff3fe608060405234801561000f575f80fd5b506004361061003f575f3560e01c80639bcba5dc14610043578063b30906d41461005f578063bae78d7b14610090575b5f80fd5b61005d60048036038101906100589190610416565b6100c1565b005b61007960048036038101906100749190610470565b610121565b60405161008792919061050a565b60405180910390f35b6100aa60048036038101906100a59190610470565b6101d5565b6040516100b892919061050a565b60405180910390f35b5f604051806040016040528084815260200183815250908060018154018082558091505060019003905f5260205f2090600202015f909190919091505f820151815f0190816101109190610732565b506020820151816001015550505050565b5f818154811061012f575f80fd5b905f5260205f2090600202015f91509050805f01805461014e90610565565b80601f016020809104026020016040519081016040528092919081815260200182805461017a90610565565b80156101c55780601f1061019c576101008083540402835291602001916101c5565b820191905f5260205f20905b8154815290600101906020018083116101a857829003601f168201915b5050505050908060010154905082565b60605f805f84815481106101ec576101eb610801565b5b905f5260205f2090600202019050805f01816001015481805461020e90610565565b80601f016020809104026020016040519081016040528092919081815260200182805461023a90610565565b80156102855780601f1061025c57610100808354040283529160200191610285565b820191905f5260205f20905b81548152906001019060200180831161026857829003601f168201915b505050505091509250925050915091565b5f604051905090565b5f80fd5b5f80fd5b5f80fd5b5f80fd5b5f601f19601f8301169050919050565b7f4e487b71000000000000000000000000000000000000000000000000000000005f52604160045260245ffd5b6102f5826102af565b810181811067ffffffffffffffff82111715610314576103136102bf565b5b80604052505050565b5f610326610296565b905061033282826102ec565b919050565b5f67ffffffffffffffff821115610351576103506102bf565b5b61035a826102af565b9050602081019050919050565b828183375f83830152505050565b5f61038761038284610337565b61031d565b9050828152602081018484840111156103a3576103a26102ab565b5b6103ae848285610367565b509392505050565b5f82601f8301126103ca576103c96102a7565b5b81356103da848260208601610375565b91505092915050565b5f819050919050565b6103f5816103e3565b81146103ff575f80fd5b50565b5f81359050610410816103ec565b92915050565b5f806040838503121561042c5761042b61029f565b5b5f83013567ffffffffffffffff811115610449576104486102a3565b5b610455858286016103b6565b925050602061046685828601610402565b9150509250929050565b5f602082840312156104855761048461029f565b5b5f61049284828501610402565b91505092915050565b5f81519050919050565b5f82825260208201905092915050565b8281835e5f83830152505050565b5f6104cd8261049b565b6104d781856104a5565b93506104e78185602086016104b5565b6104f0816102af565b840191505092915050565b610504816103e3565b82525050565b5f6040820190508181035f83015261052281856104c3565b905061053160208301846104fb565b9392505050565b7f4e487b71000000000000000000000000000000000000000000000000000000005f52602260045260245ffd5b5f600282049050600182168061057c57607f821691505b60208210810361058f5761058e610538565b5b50919050565b5f819050815f5260205f209050919050565b5f6020601f8301049050919050565b5f82821b905092915050565b5f600883026105f17fffffffffffffffffffffffffffffffffffffffffffffffffffffffffffffffff826105b6565b6105fb86836105b6565b95508019841693508086168417925050509392505050565b5f819050919050565b5f61063661063161062c846103e3565b610613565b6103e3565b9050919050565b5f819050919050565b61064f8361061c565b61066361065b8261063d565b8484546105c2565b825550505050565b5f90565b61067761066b565b610682818484610646565b505050565b5b818110156106a55761069a5f8261066f565b600181019050610688565b5050565b601f8211156106ea576106bb81610595565b6106c4846105a7565b810160208510156106d3578190505b6106e76106df856105a7565b830182610687565b50505b505050565b5f82821c905092915050565b5f61070a5f19846008026106ef565b1980831691505092915050565b5f61072283836106fb565b9150826002028217905092915050565b61073b8261049b565b67ffffffffffffffff811115610754576107536102bf565b5b61075e8254610565565b6107698282856106a9565b5f60209050601f83116001811461079a575f8415610788578287015190505b6107928582610717565b8655506107f9565b601f1984166107a886610595565b5f5b828110156107cf578489015182556001820191506020850194506020810190506107aa565b868310156107ec57848901516107e8601f8916826106fb565b8355505b6001600288020188555050505b505050505050565b7f4e487b71000000000000000000000000000000000000000000000000000000005f52603260045260245ffdfea2646970667358221220d638f08e0d62184234841c4a5ca6a38dee463b35c843ee6644a2caad8d48585d64736f6c634300081a0033",
					"opcodes": "PUSH1 0x80 PUSH1 0x40 MSTORE CALLVALUE DUP1 ISZERO PUSH1 0xE JUMPI PUSH0 DUP1 REVERT JUMPDEST POP PUSH2 0x864 DUP1 PUSH2 0x1C PUSH0 CODECOPY PUSH0 RETURN INVALID PUSH1 0x80 PUSH1 0x40 MSTORE CALLVALUE DUP1 ISZERO PUSH2 0xF JUMPI PUSH0 DUP1 REVERT JUMPDEST POP PUSH1 0x4 CALLDATASIZE LT PUSH2 0x3F JUMPI PUSH0 CALLDATALOAD PUSH1 0xE0 SHR DUP1 PUSH4 0x9BCBA5DC EQ PUSH2 0x43 JUMPI DUP1 PUSH4 0xB30906D4 EQ PUSH2 0x5F JUMPI DUP1 PUSH4 0xBAE78D7B EQ PUSH2 0x90 JUMPI JUMPDEST PUSH0 DUP1 REVERT JUMPDEST PUSH2 0x5D PUSH1 0x4 DUP1 CALLDATASIZE SUB DUP2 ADD SWAP1 PUSH2 0x58 SWAP2 SWAP1 PUSH2 0x416 JUMP JUMPDEST PUSH2 0xC1 JUMP JUMPDEST STOP JUMPDEST PUSH2 0x79 PUSH1 0x4 DUP1 CALLDATASIZE SUB DUP2 ADD SWAP1 PUSH2 0x74 SWAP2 SWAP1 PUSH2 0x470 JUMP JUMPDEST PUSH2 0x121 JUMP JUMPDEST PUSH1 0x40 MLOAD PUSH2 0x87 SWAP3 SWAP2 SWAP1 PUSH2 0x50A JUMP JUMPDEST PUSH1 0x40 MLOAD DUP1 SWAP2 SUB SWAP1 RETURN JUMPDEST PUSH2 0xAA PUSH1 0x4 DUP1 CALLDATASIZE SUB DUP2 ADD SWAP1 PUSH2 0xA5 SWAP2 SWAP1 PUSH2 0x470 JUMP JUMPDEST PUSH2 0x1D5 JUMP JUMPDEST PUSH1 0x40 MLOAD PUSH2 0xB8 SWAP3 SWAP2 SWAP1 PUSH2 0x50A JUMP JUMPDEST PUSH1 0x40 MLOAD DUP1 SWAP2 SUB SWAP1 RETURN JUMPDEST PUSH0 PUSH1 0x40 MLOAD DUP1 PUSH1 0x40 ADD PUSH1 0x40 MSTORE DUP1 DUP5 DUP2 MSTORE PUSH1 0x20 ADD DUP4 DUP2 MSTORE POP SWAP1 DUP1 PUSH1 0x1 DUP2 SLOAD ADD DUP1 DUP3 SSTORE DUP1 SWAP2 POP POP PUSH1 0x1 SWAP1 SUB SWAP1 PUSH0 MSTORE PUSH1 0x20 PUSH0 KECCAK256 SWAP1 PUSH1 0x2 MUL ADD PUSH0 SWAP1 SWAP2 SWAP1 SWAP2 SWAP1 SWAP2 POP PUSH0 DUP3 ADD MLOAD DUP2 PUSH0 ADD SWAP1 DUP2 PUSH2 0x110 SWAP2 SWAP1 PUSH2 0x732 JUMP JUMPDEST POP PUSH1 0x20 DUP3 ADD MLOAD DUP2 PUSH1 0x1 ADD SSTORE POP POP POP POP JUMP JUMPDEST PUSH0 DUP2 DUP2 SLOAD DUP2 LT PUSH2 0x12F JUMPI PUSH0 DUP1 REVERT JUMPDEST SWAP1 PUSH0 MSTORE PUSH1 0x20 PUSH0 KECCAK256 SWAP1 PUSH1 0x2 MUL ADD PUSH0 SWAP2 POP SWAP1 POP DUP1 PUSH0 ADD DUP1 SLOAD PUSH2 0x14E SWAP1 PUSH2 0x565 JUMP JUMPDEST DUP1 PUSH1 0x1F ADD PUSH1 0x20 DUP1 SWAP2 DIV MUL PUSH1 0x20 ADD PUSH1 0x40 MLOAD SWAP1 DUP2 ADD PUSH1 0x40 MSTORE DUP1 SWAP3 SWAP2 SWAP1 DUP2 DUP2 MSTORE PUSH1 0x20 ADD DUP3 DUP1 SLOAD PUSH2 0x17A SWAP1 PUSH2 0x565 JUMP JUMPDEST DUP1 ISZERO PUSH2 0x1C5 JUMPI DUP1 PUSH1 0x1F LT PUSH2 0x19C JUMPI PUSH2 0x100 DUP1 DUP4 SLOAD DIV MUL DUP4 MSTORE SWAP2 PUSH1 0x20 ADD SWAP2 PUSH2 0x1C5 JUMP JUMPDEST DUP3 ADD SWAP2 SWAP1 PUSH0 MSTORE PUSH1 0x20 PUSH0 KECCAK256 SWAP1 JUMPDEST DUP2 SLOAD DUP2 MSTORE SWAP1 PUSH1 0x1 ADD SWAP1 PUSH1 0x20 ADD DUP1 DUP4 GT PUSH2 0x1A8 JUMPI DUP3 SWAP1 SUB PUSH1 0x1F AND DUP3 ADD SWAP2 JUMPDEST POP POP POP POP POP SWAP1 DUP1 PUSH1 0x1 ADD SLOAD SWAP1 POP DUP3 JUMP JUMPDEST PUSH1 0x60 PUSH0 DUP1 PUSH0 DUP5 DUP2 SLOAD DUP2 LT PUSH2 0x1EC JUMPI PUSH2 0x1EB PUSH2 0x801 JUMP JUMPDEST JUMPDEST SWAP1 PUSH0 MSTORE PUSH1 0x20 PUSH0 KECCAK256 SWAP1 PUSH1 0x2 MUL ADD SWAP1 POP DUP1 PUSH0 ADD DUP2 PUSH1 0x1 ADD SLOAD DUP2 DUP1 SLOAD PUSH2 0x20E SWAP1 PUSH2 0x565 JUMP JUMPDEST DUP1 PUSH1 0x1F ADD PUSH1 0x20 DUP1 SWAP2 DIV MUL PUSH1 0x20 ADD PUSH1 0x40 MLOAD SWAP1 DUP2 ADD PUSH1 0x40 MSTORE DUP1 SWAP3 SWAP2 SWAP1 DUP2 DUP2 MSTORE PUSH1 0x20 ADD DUP3 DUP1 SLOAD PUSH2 0x23A SWAP1 PUSH2 0x565 JUMP JUMPDEST DUP1 ISZERO PUSH2 0x285 JUMPI DUP1 PUSH1 0x1F LT PUSH2 0x25C JUMPI PUSH2 0x100 DUP1 DUP4 SLOAD DIV MUL DUP4 MSTORE SWAP2 PUSH1 0x20 ADD SWAP2 PUSH2 0x285 JUMP JUMPDEST DUP3 ADD SWAP2 SWAP1 PUSH0 MSTORE PUSH1 0x20 PUSH0 KECCAK256 SWAP1 JUMPDEST DUP2 SLOAD DUP2 MSTORE SWAP1 PUSH1 0x1 ADD SWAP1 PUSH1 0x20 ADD DUP1 DUP4 GT PUSH2 0x268 JUMPI DUP3 SWAP1 SUB PUSH1 0x1F AND DUP3 ADD SWAP2 JUMPDEST POP POP POP POP POP SWAP2 POP SWAP3 POP SWAP3 POP POP SWAP2 POP SWAP2 JUMP JUMPDEST PUSH0 PUSH1 0x40 MLOAD SWAP1 POP SWAP1 JUMP JUMPDEST PUSH0 DUP1 REVERT JUMPDEST PUSH0 DUP1 REVERT JUMPDEST PUSH0 DUP1 REVERT JUMPDEST PUSH0 DUP1 REVERT JUMPDEST PUSH0 PUSH1 0x1F NOT PUSH1 0x1F DUP4 ADD AND SWAP1 POP SWAP2 SWAP1 POP JUMP JUMPDEST PUSH32 0x4E487B7100000000000000000000000000000000000000000000000000000000 PUSH0 MSTORE PUSH1 0x41 PUSH1 0x4 MSTORE PUSH1 0x24 PUSH0 REVERT JUMPDEST PUSH2 0x2F5 DUP3 PUSH2 0x2AF JUMP JUMPDEST DUP2 ADD DUP2 DUP2 LT PUSH8 0xFFFFFFFFFFFFFFFF DUP3 GT OR ISZERO PUSH2 0x314 JUMPI PUSH2 0x313 PUSH2 0x2BF JUMP JUMPDEST JUMPDEST DUP1 PUSH1 0x40 MSTORE POP POP POP JUMP JUMPDEST PUSH0 PUSH2 0x326 PUSH2 0x296 JUMP JUMPDEST SWAP1 POP PUSH2 0x332 DUP3 DUP3 PUSH2 0x2EC JUMP JUMPDEST SWAP2 SWAP1 POP JUMP JUMPDEST PUSH0 PUSH8 0xFFFFFFFFFFFFFFFF DUP3 GT ISZERO PUSH2 0x351 JUMPI PUSH2 0x350 PUSH2 0x2BF JUMP JUMPDEST JUMPDEST PUSH2 0x35A DUP3 PUSH2 0x2AF JUMP JUMPDEST SWAP1 POP PUSH1 0x20 DUP2 ADD SWAP1 POP SWAP2 SWAP1 POP JUMP JUMPDEST DUP3 DUP2 DUP4 CALLDATACOPY PUSH0 DUP4 DUP4 ADD MSTORE POP POP POP JUMP JUMPDEST PUSH0 PUSH2 0x387 PUSH2 0x382 DUP5 PUSH2 0x337 JUMP JUMPDEST PUSH2 0x31D JUMP JUMPDEST SWAP1 POP DUP3 DUP2 MSTORE PUSH1 0x20 DUP2 ADD DUP5 DUP5 DUP5 ADD GT ISZERO PUSH2 0x3A3 JUMPI PUSH2 0x3A2 PUSH2 0x2AB JUMP JUMPDEST JUMPDEST PUSH2 0x3AE DUP5 DUP3 DUP6 PUSH2 0x367 JUMP JUMPDEST POP SWAP4 SWAP3 POP POP POP JUMP JUMPDEST PUSH0 DUP3 PUSH1 0x1F DUP4 ADD SLT PUSH2 0x3CA JUMPI PUSH2 0x3C9 PUSH2 0x2A7 JUMP JUMPDEST JUMPDEST DUP2 CALLDATALOAD PUSH2 0x3DA DUP5 DUP3 PUSH1 0x20 DUP7 ADD PUSH2 0x375 JUMP JUMPDEST SWAP2 POP POP SWAP3 SWAP2 POP POP JUMP JUMPDEST PUSH0 DUP2 SWAP1 POP SWAP2 SWAP1 POP JUMP JUMPDEST PUSH2 0x3F5 DUP2 PUSH2 0x3E3 JUMP JUMPDEST DUP2 EQ PUSH2 0x3FF JUMPI PUSH0 DUP1 REVERT JUMPDEST POP JUMP JUMPDEST PUSH0 DUP2 CALLDATALOAD SWAP1 POP PUSH2 0x410 DUP2 PUSH2 0x3EC JUMP JUMPDEST SWAP3 SWAP2 POP POP JUMP JUMPDEST PUSH0 DUP1 PUSH1 0x40 DUP4 DUP6 SUB SLT ISZERO PUSH2 0x42C JUMPI PUSH2 0x42B PUSH2 0x29F JUMP JUMPDEST JUMPDEST PUSH0 DUP4 ADD CALLDATALOAD PUSH8 0xFFFFFFFFFFFFFFFF DUP2 GT ISZERO PUSH2 0x449 JUMPI PUSH2 0x448 PUSH2 0x2A3 JUMP JUMPDEST JUMPDEST PUSH2 0x455 DUP6 DUP3 DUP7 ADD PUSH2 0x3B6 JUMP JUMPDEST SWAP3 POP POP PUSH1 0x20 PUSH2 0x466 DUP6 DUP3 DUP7 ADD PUSH2 0x402 JUMP JUMPDEST SWAP2 POP POP SWAP3 POP SWAP3 SWAP1 POP JUMP JUMPDEST PUSH0 PUSH1 0x20 DUP3 DUP5 SUB SLT ISZERO PUSH2 0x485 JUMPI PUSH2 0x484 PUSH2 0x29F JUMP JUMPDEST JUMPDEST PUSH0 PUSH2 0x492 DUP5 DUP3 DUP6 ADD PUSH2 0x402 JUMP JUMPDEST SWAP2 POP POP SWAP3 SWAP2 POP POP JUMP JUMPDEST PUSH0 DUP2 MLOAD SWAP1 POP SWAP2 SWAP1 POP JUMP JUMPDEST PUSH0 DUP3 DUP3 MSTORE PUSH1 0x20 DUP3 ADD SWAP1 POP SWAP3 SWAP2 POP POP JUMP JUMPDEST DUP3 DUP2 DUP4 MCOPY PUSH0 DUP4 DUP4 ADD MSTORE POP POP POP JUMP JUMPDEST PUSH0 PUSH2 0x4CD DUP3 PUSH2 0x49B JUMP JUMPDEST PUSH2 0x4D7 DUP2 DUP6 PUSH2 0x4A5 JUMP JUMPDEST SWAP4 POP PUSH2 0x4E7 DUP2 DUP6 PUSH1 0x20 DUP7 ADD PUSH2 0x4B5 JUMP JUMPDEST PUSH2 0x4F0 DUP2 PUSH2 0x2AF JUMP JUMPDEST DUP5 ADD SWAP2 POP POP SWAP3 SWAP2 POP POP JUMP JUMPDEST PUSH2 0x504 DUP2 PUSH2 0x3E3 JUMP JUMPDEST DUP3 MSTORE POP POP JUMP JUMPDEST PUSH0 PUSH1 0x40 DUP3 ADD SWAP1 POP DUP2 DUP2 SUB PUSH0 DUP4 ADD MSTORE PUSH2 0x522 DUP2 DUP6 PUSH2 0x4C3 JUMP JUMPDEST SWAP1 POP PUSH2 0x531 PUSH1 0x20 DUP4 ADD DUP5 PUSH2 0x4FB JUMP JUMPDEST SWAP4 SWAP3 POP POP POP JUMP JUMPDEST PUSH32 0x4E487B7100000000000000000000000000000000000000000000000000000000 PUSH0 MSTORE PUSH1 0x22 PUSH1 0x4 MSTORE PUSH1 0x24 PUSH0 REVERT JUMPDEST PUSH0 PUSH1 0x2 DUP3 DIV SWAP1 POP PUSH1 0x1 DUP3 AND DUP1 PUSH2 0x57C JUMPI PUSH1 0x7F DUP3 AND SWAP2 POP JUMPDEST PUSH1 0x20 DUP3 LT DUP2 SUB PUSH2 0x58F JUMPI PUSH2 0x58E PUSH2 0x538 JUMP JUMPDEST JUMPDEST POP SWAP2 SWAP1 POP JUMP JUMPDEST PUSH0 DUP2 SWAP1 POP DUP2 PUSH0 MSTORE PUSH1 0x20 PUSH0 KECCAK256 SWAP1 POP SWAP2 SWAP1 POP JUMP JUMPDEST PUSH0 PUSH1 0x20 PUSH1 0x1F DUP4 ADD DIV SWAP1 POP SWAP2 SWAP1 POP JUMP JUMPDEST PUSH0 DUP3 DUP3 SHL SWAP1 POP SWAP3 SWAP2 POP POP JUMP JUMPDEST PUSH0 PUSH1 0x8 DUP4 MUL PUSH2 0x5F1 PUSH32 0xFFFFFFFFFFFFFFFFFFFFFFFFFFFFFFFFFFFFFFFFFFFFFFFFFFFFFFFFFFFFFFFF DUP3 PUSH2 0x5B6 JUMP JUMPDEST PUSH2 0x5FB DUP7 DUP4 PUSH2 0x5B6 JUMP JUMPDEST SWAP6 POP DUP1 NOT DUP5 AND SWAP4 POP DUP1 DUP7 AND DUP5 OR SWAP3 POP POP POP SWAP4 SWAP3 POP POP POP JUMP JUMPDEST PUSH0 DUP2 SWAP1 POP SWAP2 SWAP1 POP JUMP JUMPDEST PUSH0 PUSH2 0x636 PUSH2 0x631 PUSH2 0x62C DUP5 PUSH2 0x3E3 JUMP JUMPDEST PUSH2 0x613 JUMP JUMPDEST PUSH2 0x3E3 JUMP JUMPDEST SWAP1 POP SWAP2 SWAP1 POP JUMP JUMPDEST PUSH0 DUP2 SWAP1 POP SWAP2 SWAP1 POP JUMP JUMPDEST PUSH2 0x64F DUP4 PUSH2 0x61C JUMP JUMPDEST PUSH2 0x663 PUSH2 0x65B DUP3 PUSH2 0x63D JUMP JUMPDEST DUP5 DUP5 SLOAD PUSH2 0x5C2 JUMP JUMPDEST DUP3 SSTORE POP POP POP POP JUMP JUMPDEST PUSH0 SWAP1 JUMP JUMPDEST PUSH2 0x677 PUSH2 0x66B JUMP JUMPDEST PUSH2 0x682 DUP2 DUP5 DUP5 PUSH2 0x646 JUMP JUMPDEST POP POP POP JUMP JUMPDEST JUMPDEST DUP2 DUP2 LT ISZERO PUSH2 0x6A5 JUMPI PUSH2 0x69A PUSH0 DUP3 PUSH2 0x66F JUMP JUMPDEST PUSH1 0x1 DUP2 ADD SWAP1 POP PUSH2 0x688 JUMP JUMPDEST POP POP JUMP JUMPDEST PUSH1 0x1F DUP3 GT ISZERO PUSH2 0x6EA JUMPI PUSH2 0x6BB DUP2 PUSH2 0x595 JUMP JUMPDEST PUSH2 0x6C4 DUP5 PUSH2 0x5A7 JUMP JUMPDEST DUP2 ADD PUSH1 0x20 DUP6 LT ISZERO PUSH2 0x6D3 JUMPI DUP2 SWAP1 POP JUMPDEST PUSH2 0x6E7 PUSH2 0x6DF DUP6 PUSH2 0x5A7 JUMP JUMPDEST DUP4 ADD DUP3 PUSH2 0x687 JUMP JUMPDEST POP POP JUMPDEST POP POP POP JUMP JUMPDEST PUSH0 DUP3 DUP3 SHR SWAP1 POP SWAP3 SWAP2 POP POP JUMP JUMPDEST PUSH0 PUSH2 0x70A PUSH0 NOT DUP5 PUSH1 0x8 MUL PUSH2 0x6EF JUMP JUMPDEST NOT DUP1 DUP4 AND SWAP2 POP POP SWAP3 SWAP2 POP POP JUMP JUMPDEST PUSH0 PUSH2 0x722 DUP4 DUP4 PUSH2 0x6FB JUMP JUMPDEST SWAP2 POP DUP3 PUSH1 0x2 MUL DUP3 OR SWAP1 POP SWAP3 SWAP2 POP POP JUMP JUMPDEST PUSH2 0x73B DUP3 PUSH2 0x49B JUMP JUMPDEST PUSH8 0xFFFFFFFFFFFFFFFF DUP2 GT ISZERO PUSH2 0x754 JUMPI PUSH2 0x753 PUSH2 0x2BF JUMP JUMPDEST JUMPDEST PUSH2 0x75E DUP3 SLOAD PUSH2 0x565 JUMP JUMPDEST PUSH2 0x769 DUP3 DUP3 DUP6 PUSH2 0x6A9 JUMP JUMPDEST PUSH0 PUSH1 0x20 SWAP1 POP PUSH1 0x1F DUP4 GT PUSH1 0x1 DUP2 EQ PUSH2 0x79A JUMPI PUSH0 DUP5 ISZERO PUSH2 0x788 JUMPI DUP3 DUP8 ADD MLOAD SWAP1 POP JUMPDEST PUSH2 0x792 DUP6 DUP3 PUSH2 0x717 JUMP JUMPDEST DUP7 SSTORE POP PUSH2 0x7F9 JUMP JUMPDEST PUSH1 0x1F NOT DUP5 AND PUSH2 0x7A8 DUP7 PUSH2 0x595 JUMP JUMPDEST PUSH0 JUMPDEST DUP3 DUP2 LT ISZERO PUSH2 0x7CF JUMPI DUP5 DUP10 ADD MLOAD DUP3 SSTORE PUSH1 0x1 DUP3 ADD SWAP2 POP PUSH1 0x20 DUP6 ADD SWAP5 POP PUSH1 0x20 DUP2 ADD SWAP1 POP PUSH2 0x7AA JUMP JUMPDEST DUP7 DUP4 LT ISZERO PUSH2 0x7EC JUMPI DUP5 DUP10 ADD MLOAD PUSH2 0x7E8 PUSH1 0x1F DUP10 AND DUP3 PUSH2 0x6FB JUMP JUMPDEST DUP4 SSTORE POP JUMPDEST PUSH1 0x1 PUSH1 0x2 DUP9 MUL ADD DUP9 SSTORE POP POP POP JUMPDEST POP POP POP POP POP POP JUMP JUMPDEST PUSH32 0x4E487B7100000000000000000000000000000000000000000000000000000000 PUSH0 MSTORE PUSH1 0x32 PUSH1 0x4 MSTORE PUSH1 0x24 PUSH0 REVERT INVALID LOG2 PUSH5 0x6970667358 0x22 SLT KECCAK256 0xD6 CODESIZE CREATE DUP15 0xD PUSH3 0x184234 DUP5 SHR BLOBBASEFEE TLOAD 0xA6 LOG3 DUP14 0xEE CHAINID EXTCODESIZE CALLDATALOAD 0xC8 NUMBER 0xEE PUSH7 0x44A2CAAD8D4858 TSTORE PUSH5 0x736F6C6343 STOP ADDMOD BYTE STOP CALLER "
				},
				"gasEstimates": {
					"creation": {
						"codeDepositCost": "429600",
						"executionCost": "466",
						"totalCost": "430066"
					},
					"external": {
						"addEntry(string,uint256)": "infinite",
						"entries(uint256)": "infinite",
						"getEntry(uint256)": "infinite"
					}
				},
				"methodIdentifiers": {
					"addEntry(string,uint256)": "9bcba5dc",
					"entries(uint256)": "b30906d4",
					"getEntry(uint256)": "bae78d7b"
				}
			},
			"storageLayout": {
				"storage": [
					{
						"astId": 10,
						"contract": "Assigment2/q9.sol:SimpleLedger",
						"label": "entries",
						"offset": 0,
						"slot": "0",
						"type": "t_array(t_struct(Entry)6_storage)dyn_storage"
					}
				],
				"types": {
					"t_array(t_struct(Entry)6_storage)dyn_storage": {
						"base": "t_struct(Entry)6_storage",
						"encoding": "dynamic_array",
						"label": "struct SimpleLedger.Entry[]",
						"numberOfBytes": "32"
					},
					"t_string_storage": {
						"encoding": "bytes",
						"label": "string",
						"numberOfBytes": "32"
					},
					"t_struct(Entry)6_storage": {
						"encoding": "inplace",
						"label": "struct SimpleLedger.Entry",
						"members": [
							{
								"astId": 3,
								"contract": "Assigment2/q9.sol:SimpleLedger",
								"label": "description",
								"offset": 0,
								"slot": "0",
								"type": "t_string_storage"
							},
							{
								"astId": 5,
								"contract": "Assigment2/q9.sol:SimpleLedger",
								"label": "amount",
								"offset": 0,
								"slot": "1",
								"type": "t_uint256"
							}
						],
						"numberOfBytes": "64"
					},
					"t_uint256": {
						"encoding": "inplace",
						"label": "uint256",
						"numberOfBytes": "32"
					}
				}
			},
			"userdoc": {
				"kind": "user",
				"methods": {},
				"version": 1
			}
		}
	}
}