{
	"Assignment5/q1.sol": {
		"Crowdfunding": {
			"abi": [
				{
					"anonymous": false,
					"inputs": [
						{
							"indexed": false,
							"internalType": "uint256",
							"name": "campaignId",
							"type": "uint256"
						},
						{
							"indexed": false,
							"internalType": "address",
							"name": "creator",
							"type": "address"
						},
						{
							"indexed": false,
							"internalType": "uint256",
							"name": "targetAmount",
							"type": "uint256"
						},
						{
							"indexed": false,
							"internalType": "uint256",
							"name": "deadline",
							"type": "uint256"
						}
					],
					"name": "CampaignCreated",
					"type": "event"
				},
				{
					"anonymous": false,
					"inputs": [
						{
							"indexed": false,
							"internalType": "uint256",
							"name": "campaignId",
							"type": "uint256"
						},
						{
							"indexed": false,
							"internalType": "bool",
							"name": "success",
							"type": "bool"
						}
					],
					"name": "CampaignFinalized",
					"type": "event"
				},
				{
					"anonymous": false,
					"inputs": [
						{
							"indexed": false,
							"internalType": "uint256",
							"name": "campaignId",
							"type": "uint256"
						},
						{
							"indexed": false,
							"internalType": "address",
							"name": "contributor",
							"type": "address"
						},
						{
							"indexed": false,
							"internalType": "uint256",
							"name": "amount",
							"type": "uint256"
						}
					],
					"name": "ContributionMade",
					"type": "event"
				},
				{
					"anonymous": false,
					"inputs": [
						{
							"indexed": false,
							"internalType": "uint256",
							"name": "campaignId",
							"type": "uint256"
						},
						{
							"indexed": false,
							"internalType": "address",
							"name": "contributor",
							"type": "address"
						},
						{
							"indexed": false,
							"internalType": "uint256",
							"name": "amount",
							"type": "uint256"
						}
					],
					"name": "RefundIssued",
					"type": "event"
				},
				{
					"inputs": [],
					"name": "campaignCount",
					"outputs": [
						{
							"internalType": "uint256",
							"name": "",
							"type": "uint256"
						}
					],
					"stateMutability": "view",
					"type": "function"
				},
				{
					"inputs": [
						{
							"internalType": "uint256",
							"name": "",
							"type": "uint256"
						}
					],
					"name": "campaigns",
					"outputs": [
						{
							"internalType": "address",
							"name": "creator",
							"type": "address"
						},
						{
							"internalType": "uint256",
							"name": "targetAmount",
							"type": "uint256"
						},
						{
							"internalType": "uint256",
							"name": "deadline",
							"type": "uint256"
						},
						{
							"internalType": "uint256",
							"name": "totalContributions",
							"type": "uint256"
						},
						{
							"internalType": "bool",
							"name": "finalized",
							"type": "bool"
						}
					],
					"stateMutability": "view",
					"type": "function"
				},
				{
					"inputs": [
						{
							"internalType": "uint256",
							"name": "_campaignId",
							"type": "uint256"
						}
					],
					"name": "contribute",
					"outputs": [],
					"stateMutability": "payable",
					"type": "function"
				},
				{
					"inputs": [
						{
							"internalType": "uint256",
							"name": "_targetAmount",
							"type": "uint256"
						},
						{
							"internalType": "uint256",
							"name": "_duration",
							"type": "uint256"
						}
					],
					"name": "createCampaign",
					"outputs": [],
					"stateMutability": "nonpayable",
					"type": "function"
				},
				{
					"inputs": [
						{
							"internalType": "uint256",
							"name": "_campaignId",
							"type": "uint256"
						}
					],
					"name": "finalizeCampaign",
					"outputs": [],
					"stateMutability": "nonpayable",
					"type": "function"
				},
				{
					"inputs": [
						{
							"internalType": "uint256",
							"name": "_campaignId",
							"type": "uint256"
						}
					],
					"name": "getCampaign",
					"outputs": [
						{
							"internalType": "address",
							"name": "creator",
							"type": "address"
						},
						{
							"internalType": "uint256",
							"name": "targetAmount",
							"type": "uint256"
						},
						{
							"internalType": "uint256",
							"name": "deadline",
							"type": "uint256"
						},
						{
							"internalType": "uint256",
							"name": "totalContributions",
							"type": "uint256"
						},
						{
							"internalType": "bool",
							"name": "finalized",
							"type": "bool"
						}
					],
					"stateMutability": "view",
					"type": "function"
				},
				{
					"inputs": [
						{
							"internalType": "uint256",
							"name": "_campaignId",
							"type": "uint256"
						}
					],
					"name": "withdrawFunds",
					"outputs": [],
					"stateMutability": "nonpayable",
					"type": "function"
				}
			],
			"devdoc": {
				"kind": "dev",
				"methods": {},
				"version": 1
			},
			"evm": {
				"assembly": "    /* \"Assignment5/q1.sol\":36:4415  contract Crowdfunding {... */\n  mstore(0x40, 0x80)\n  callvalue\n  dup1\n  iszero\n  tag_1\n  jumpi\n  0x00\n  dup1\n  revert\ntag_1:\n  pop\n  dataSize(sub_0)\n  dup1\n  dataOffset(sub_0)\n  0x00\n  codecopy\n  0x00\n  return\nstop\n\nsub_0: assembly {\n        /* \"Assignment5/q1.sol\":36:4415  contract Crowdfunding {... */\n      mstore(0x40, 0x80)\n      jumpi(tag_1, lt(calldatasize, 0x04))\n      shr(0xe0, calldataload(0x00))\n      dup1\n      0x5598f8cc\n      gt\n      tag_9\n      jumpi\n      dup1\n      0x5598f8cc\n      eq\n      tag_5\n      jumpi\n      dup1\n      0x6b5ca27d\n      eq\n      tag_6\n      jumpi\n      dup1\n      0x7274e30d\n      eq\n      tag_7\n      jumpi\n      dup1\n      0xc1cbbca7\n      eq\n      tag_8\n      jumpi\n      jump(tag_1)\n    tag_9:\n      dup1\n      0x141961bc\n      eq\n      tag_2\n      jumpi\n      dup1\n      0x155dd5ee\n      eq\n      tag_3\n      jumpi\n      dup1\n      0x22502268\n      eq\n      tag_4\n      jumpi\n    tag_1:\n      0x00\n      dup1\n      revert\n        /* \"Assignment5/q1.sol\":470:515  mapping(uint256 => Campaign) public campaigns */\n    tag_2:\n      callvalue\n      dup1\n      iszero\n      tag_10\n      jumpi\n      0x00\n      dup1\n      revert\n    tag_10:\n      pop\n      tag_11\n      0x04\n      dup1\n      calldatasize\n      sub\n      dup2\n      add\n      swap1\n      tag_12\n      swap2\n      swap1\n      tag_13\n      jump\t// in\n    tag_12:\n      tag_14\n      jump\t// in\n    tag_11:\n      mload(0x40)\n      tag_15\n      swap6\n      swap5\n      swap4\n      swap3\n      swap2\n      swap1\n      tag_16\n      jump\t// in\n    tag_15:\n      mload(0x40)\n      dup1\n      swap2\n      sub\n      swap1\n      return\n        /* \"Assignment5/q1.sol\":3278:3859  function withdrawFunds(uint256 _campaignId) external {... */\n    tag_3:\n      callvalue\n      dup1\n      iszero\n      tag_17\n      jumpi\n      0x00\n      dup1\n      revert\n    tag_17:\n      pop\n      tag_18\n      0x04\n      dup1\n      calldatasize\n      sub\n      dup2\n      add\n      swap1\n      tag_19\n      swap2\n      swap1\n      tag_13\n      jump\t// in\n    tag_19:\n      tag_20\n      jump\t// in\n    tag_18:\n      stop\n        /* \"Assignment5/q1.sol\":1189:1809  function createCampaign(uint256 _targetAmount, uint256 _duration) external {... */\n    tag_4:\n      callvalue\n      dup1\n      iszero\n      tag_21\n      jumpi\n      0x00\n      dup1\n      revert\n    tag_21:\n      pop\n      tag_22\n      0x04\n      dup1\n      calldatasize\n      sub\n      dup2\n      add\n      swap1\n      tag_23\n      swap2\n      swap1\n      tag_24\n      jump\t// in\n    tag_23:\n      tag_25\n      jump\t// in\n    tag_22:\n      stop\n        /* \"Assignment5/q1.sol\":3922:4412  function getCampaign(uint256 _campaignId) external view returns (... */\n    tag_5:\n      callvalue\n      dup1\n      iszero\n      tag_26\n      jumpi\n      0x00\n      dup1\n      revert\n    tag_26:\n      pop\n      tag_27\n      0x04\n      dup1\n      calldatasize\n      sub\n      dup2\n      add\n      swap1\n      tag_28\n      swap2\n      swap1\n      tag_13\n      jump\t// in\n    tag_28:\n      tag_29\n      jump\t// in\n    tag_27:\n      mload(0x40)\n      tag_30\n      swap6\n      swap5\n      swap4\n      swap3\n      swap2\n      swap1\n      tag_16\n      jump\t// in\n    tag_30:\n      mload(0x40)\n      dup1\n      swap2\n      sub\n      swap1\n      return\n        /* \"Assignment5/q1.sol\":2491:3200  function finalizeCampaign(uint256 _campaignId) external {... */\n    tag_6:\n      callvalue\n      dup1\n      iszero\n      tag_31\n      jumpi\n      0x00\n      dup1\n      revert\n    tag_31:\n      pop\n      tag_32\n      0x04\n      dup1\n      calldatasize\n      sub\n      dup2\n      add\n      swap1\n      tag_33\n      swap2\n      swap1\n      tag_13\n      jump\t// in\n    tag_33:\n      tag_34\n      jump\t// in\n    tag_32:\n      stop\n        /* \"Assignment5/q1.sol\":522:550  uint256 public campaignCount */\n    tag_7:\n      callvalue\n      dup1\n      iszero\n      tag_35\n      jumpi\n      0x00\n      dup1\n      revert\n    tag_35:\n      pop\n      tag_36\n      tag_37\n      jump\t// in\n    tag_36:\n      mload(0x40)\n      tag_38\n      swap2\n      swap1\n      tag_39\n      jump\t// in\n    tag_38:\n      mload(0x40)\n      dup1\n      swap2\n      sub\n      swap1\n      return\n        /* \"Assignment5/q1.sol\":1877:2403  function contribute(uint256 _campaignId) external payable {... */\n    tag_8:\n      tag_40\n      0x04\n      dup1\n      calldatasize\n      sub\n      dup2\n      add\n      swap1\n      tag_41\n      swap2\n      swap1\n      tag_13\n      jump\t// in\n    tag_41:\n      tag_42\n      jump\t// in\n    tag_40:\n      stop\n        /* \"Assignment5/q1.sol\":470:515  mapping(uint256 => Campaign) public campaigns */\n    tag_14:\n      mstore(0x20, 0x00)\n      dup1\n      0x00\n      mstore\n      keccak256(0x00, 0x40)\n      0x00\n      swap2\n      pop\n      swap1\n      pop\n      dup1\n      0x00\n      add\n      0x00\n      swap1\n      sload\n      swap1\n      0x0100\n      exp\n      swap1\n      div\n      0xffffffffffffffffffffffffffffffffffffffff\n      and\n      swap1\n      dup1\n      0x01\n      add\n      sload\n      swap1\n      dup1\n      0x02\n      add\n      sload\n      swap1\n      dup1\n      0x03\n      add\n      sload\n      swap1\n      dup1\n      0x04\n      add\n      0x00\n      swap1\n      sload\n      swap1\n      0x0100\n      exp\n      swap1\n      div\n      0xff\n      and\n      swap1\n      pop\n      dup6\n      jump\t// out\n        /* \"Assignment5/q1.sol\":3278:3859  function withdrawFunds(uint256 _campaignId) external {... */\n    tag_20:\n        /* \"Assignment5/q1.sol\":3342:3367  Campaign storage campaign */\n      0x00\n        /* \"Assignment5/q1.sol\":3370:3379  campaigns */\n      dup1\n        /* \"Assignment5/q1.sol\":3370:3392  campaigns[_campaignId] */\n      0x00\n        /* \"Assignment5/q1.sol\":3380:3391  _campaignId */\n      dup4\n        /* \"Assignment5/q1.sol\":3370:3392  campaigns[_campaignId] */\n      dup2\n      mstore\n      0x20\n      add\n      swap1\n      dup2\n      mstore\n      0x20\n      add\n      0x00\n      keccak256\n        /* \"Assignment5/q1.sol\":3342:3392  Campaign storage campaign = campaigns[_campaignId] */\n      swap1\n      pop\n        /* \"Assignment5/q1.sol\":3403:3423  uint256 contribution */\n      0x00\n        /* \"Assignment5/q1.sol\":3426:3434  campaign */\n      dup2\n        /* \"Assignment5/q1.sol\":3426:3448  campaign.contributions */\n      0x05\n      add\n        /* \"Assignment5/q1.sol\":3426:3460  campaign.contributions[msg.sender] */\n      0x00\n        /* \"Assignment5/q1.sol\":3449:3459  msg.sender */\n      caller\n        /* \"Assignment5/q1.sol\":3426:3460  campaign.contributions[msg.sender] */\n      0xffffffffffffffffffffffffffffffffffffffff\n      and\n      0xffffffffffffffffffffffffffffffffffffffff\n      and\n      dup2\n      mstore\n      0x20\n      add\n      swap1\n      dup2\n      mstore\n      0x20\n      add\n      0x00\n      keccak256\n      sload\n        /* \"Assignment5/q1.sol\":3403:3460  uint256 contribution = campaign.contributions[msg.sender] */\n      swap1\n      pop\n        /* \"Assignment5/q1.sol\":3481:3489  campaign */\n      dup2\n        /* \"Assignment5/q1.sol\":3481:3499  campaign.finalized */\n      0x04\n      add\n      0x00\n      swap1\n      sload\n      swap1\n      0x0100\n      exp\n      swap1\n      div\n      0xff\n      and\n        /* \"Assignment5/q1.sol\":3473:3529  require(campaign.finalized, \"Campaign is not finalized\") */\n      tag_44\n      jumpi\n      mload(0x40)\n      0x08c379a000000000000000000000000000000000000000000000000000000000\n      dup2\n      mstore\n      0x04\n      add\n      tag_45\n      swap1\n      tag_46\n      jump\t// in\n    tag_45:\n      mload(0x40)\n      dup1\n      swap2\n      sub\n      swap1\n      revert\n    tag_44:\n        /* \"Assignment5/q1.sol\":3563:3564  0 */\n      0x00\n        /* \"Assignment5/q1.sol\":3548:3560  contribution */\n      dup2\n        /* \"Assignment5/q1.sol\":3548:3564  contribution > 0 */\n      gt\n        /* \"Assignment5/q1.sol\":3540:3589  require(contribution > 0, \"No funds to withdraw\") */\n      tag_47\n      jumpi\n      mload(0x40)\n      0x08c379a000000000000000000000000000000000000000000000000000000000\n      dup2\n      mstore\n      0x04\n      add\n      tag_48\n      swap1\n      tag_49\n      jump\t// in\n    tag_48:\n      mload(0x40)\n      dup1\n      swap2\n      sub\n      swap1\n      revert\n    tag_47:\n        /* \"Assignment5/q1.sol\":3636:3644  campaign */\n      dup2\n        /* \"Assignment5/q1.sol\":3636:3657  campaign.targetAmount */\n      0x01\n      add\n      sload\n        /* \"Assignment5/q1.sol\":3606:3614  campaign */\n      dup3\n        /* \"Assignment5/q1.sol\":3606:3633  campaign.totalContributions */\n      0x03\n      add\n      sload\n        /* \"Assignment5/q1.sol\":3606:3657  campaign.totalContributions < campaign.targetAmount */\n      lt\n        /* \"Assignment5/q1.sol\":3602:3852  if (campaign.totalContributions < campaign.targetAmount) {... */\n      iszero\n      tag_50\n      jumpi\n        /* \"Assignment5/q1.sol\":3711:3712  0 */\n      0x00\n        /* \"Assignment5/q1.sol\":3674:3682  campaign */\n      dup3\n        /* \"Assignment5/q1.sol\":3674:3696  campaign.contributions */\n      0x05\n      add\n        /* \"Assignment5/q1.sol\":3674:3708  campaign.contributions[msg.sender] */\n      0x00\n        /* \"Assignment5/q1.sol\":3697:3707  msg.sender */\n      caller\n        /* \"Assignment5/q1.sol\":3674:3708  campaign.contributions[msg.sender] */\n      0xffffffffffffffffffffffffffffffffffffffff\n      and\n      0xffffffffffffffffffffffffffffffffffffffff\n      and\n      dup2\n      mstore\n      0x20\n      add\n      swap1\n      dup2\n      mstore\n      0x20\n      add\n      0x00\n      keccak256\n        /* \"Assignment5/q1.sol\":3674:3712  campaign.contributions[msg.sender] = 0 */\n      dup2\n      swap1\n      sstore\n      pop\n        /* \"Assignment5/q1.sol\":3735:3745  msg.sender */\n      caller\n        /* \"Assignment5/q1.sol\":3727:3755  payable(msg.sender).transfer */\n      0xffffffffffffffffffffffffffffffffffffffff\n      and\n        /* \"Assignment5/q1.sol\":3727:3769  payable(msg.sender).transfer(contribution) */\n      0x08fc\n        /* \"Assignment5/q1.sol\":3756:3768  contribution */\n      dup3\n        /* \"Assignment5/q1.sol\":3727:3769  payable(msg.sender).transfer(contribution) */\n      swap1\n      dup2\n      iszero\n      mul\n      swap1\n      mload(0x40)\n      0x00\n      mload(0x40)\n      dup1\n      dup4\n      sub\n      dup2\n      dup6\n      dup9\n      dup9\n      call\n      swap4\n      pop\n      pop\n      pop\n      pop\n      iszero\n      dup1\n      iszero\n      tag_52\n      jumpi\n      returndatasize\n      0x00\n      dup1\n      returndatacopy\n      revert(0x00, returndatasize)\n    tag_52:\n      pop\n        /* \"Assignment5/q1.sol\":3789:3840  RefundIssued(_campaignId, msg.sender, contribution) */\n      0x7a482fdeb6bc9a1376f597068a214a7a39472bb2eff1b8cad21ba04f49ddca1b\n        /* \"Assignment5/q1.sol\":3802:3813  _campaignId */\n      dup4\n        /* \"Assignment5/q1.sol\":3815:3825  msg.sender */\n      caller\n        /* \"Assignment5/q1.sol\":3827:3839  contribution */\n      dup4\n        /* \"Assignment5/q1.sol\":3789:3840  RefundIssued(_campaignId, msg.sender, contribution) */\n      mload(0x40)\n      tag_53\n      swap4\n      swap3\n      swap2\n      swap1\n      tag_54\n      jump\t// in\n    tag_53:\n      mload(0x40)\n      dup1\n      swap2\n      sub\n      swap1\n      log1\n        /* \"Assignment5/q1.sol\":3602:3852  if (campaign.totalContributions < campaign.targetAmount) {... */\n    tag_50:\n        /* \"Assignment5/q1.sol\":3331:3859  {... */\n      pop\n      pop\n        /* \"Assignment5/q1.sol\":3278:3859  function withdrawFunds(uint256 _campaignId) external {... */\n      pop\n      jump\t// out\n        /* \"Assignment5/q1.sol\":1189:1809  function createCampaign(uint256 _targetAmount, uint256 _duration) external {... */\n    tag_25:\n        /* \"Assignment5/q1.sol\":1299:1300  0 */\n      0x00\n        /* \"Assignment5/q1.sol\":1283:1296  _targetAmount */\n      dup3\n        /* \"Assignment5/q1.sol\":1283:1300  _targetAmount > 0 */\n      gt\n        /* \"Assignment5/q1.sol\":1275:1344  require(_targetAmount > 0, \"Target amount must be greater than zero\") */\n      tag_56\n      jumpi\n      mload(0x40)\n      0x08c379a000000000000000000000000000000000000000000000000000000000\n      dup2\n      mstore\n      0x04\n      add\n      tag_57\n      swap1\n      tag_58\n      jump\t// in\n    tag_57:\n      mload(0x40)\n      dup1\n      swap2\n      sub\n      swap1\n      revert\n    tag_56:\n        /* \"Assignment5/q1.sol\":1375:1376  0 */\n      0x00\n        /* \"Assignment5/q1.sol\":1363:1372  _duration */\n      dup2\n        /* \"Assignment5/q1.sol\":1363:1376  _duration > 0 */\n      gt\n        /* \"Assignment5/q1.sol\":1355:1415  require(_duration > 0, \"Duration must be greater than zero\") */\n      tag_59\n      jumpi\n      mload(0x40)\n      0x08c379a000000000000000000000000000000000000000000000000000000000\n      dup2\n      mstore\n      0x04\n      add\n      tag_60\n      swap1\n      tag_61\n      jump\t// in\n    tag_60:\n      mload(0x40)\n      dup1\n      swap2\n      sub\n      swap1\n      revert\n    tag_59:\n        /* \"Assignment5/q1.sol\":1428:1441  campaignCount */\n      0x01\n      0x00\n        /* \"Assignment5/q1.sol\":1428:1443  campaignCount++ */\n      dup2\n      sload\n      dup1\n      swap3\n      swap2\n      swap1\n      tag_62\n      swap1\n      tag_63\n      jump\t// in\n    tag_62:\n      swap2\n      swap1\n      pop\n      sstore\n      pop\n        /* \"Assignment5/q1.sol\":1454:1482  Campaign storage newCampaign */\n      0x00\n        /* \"Assignment5/q1.sol\":1485:1494  campaigns */\n      dup1\n        /* \"Assignment5/q1.sol\":1485:1509  campaigns[campaignCount] */\n      0x00\n        /* \"Assignment5/q1.sol\":1495:1508  campaignCount */\n      sload(0x01)\n        /* \"Assignment5/q1.sol\":1485:1509  campaigns[campaignCount] */\n      dup2\n      mstore\n      0x20\n      add\n      swap1\n      dup2\n      mstore\n      0x20\n      add\n      0x00\n      keccak256\n        /* \"Assignment5/q1.sol\":1454:1509  Campaign storage newCampaign = campaigns[campaignCount] */\n      swap1\n      pop\n        /* \"Assignment5/q1.sol\":1542:1552  msg.sender */\n      caller\n        /* \"Assignment5/q1.sol\":1520:1531  newCampaign */\n      dup2\n        /* \"Assignment5/q1.sol\":1520:1539  newCampaign.creator */\n      0x00\n      add\n      0x00\n        /* \"Assignment5/q1.sol\":1520:1552  newCampaign.creator = msg.sender */\n      0x0100\n      exp\n      dup2\n      sload\n      dup2\n      0xffffffffffffffffffffffffffffffffffffffff\n      mul\n      not\n      and\n      swap1\n      dup4\n      0xffffffffffffffffffffffffffffffffffffffff\n      and\n      mul\n      or\n      swap1\n      sstore\n      pop\n        /* \"Assignment5/q1.sol\":1590:1603  _targetAmount */\n      dup3\n        /* \"Assignment5/q1.sol\":1563:1574  newCampaign */\n      dup2\n        /* \"Assignment5/q1.sol\":1563:1587  newCampaign.targetAmount */\n      0x01\n      add\n        /* \"Assignment5/q1.sol\":1563:1603  newCampaign.targetAmount = _targetAmount */\n      dup2\n      swap1\n      sstore\n      pop\n        /* \"Assignment5/q1.sol\":1655:1664  _duration */\n      dup2\n        /* \"Assignment5/q1.sol\":1637:1652  block.timestamp */\n      timestamp\n        /* \"Assignment5/q1.sol\":1637:1664  block.timestamp + _duration */\n      tag_64\n      swap2\n      swap1\n      tag_65\n      jump\t// in\n    tag_64:\n        /* \"Assignment5/q1.sol\":1614:1625  newCampaign */\n      dup2\n        /* \"Assignment5/q1.sol\":1614:1634  newCampaign.deadline */\n      0x02\n      add\n        /* \"Assignment5/q1.sol\":1614:1664  newCampaign.deadline = block.timestamp + _duration */\n      dup2\n      swap1\n      sstore\n      pop\n        /* \"Assignment5/q1.sol\":1699:1704  false */\n      0x00\n        /* \"Assignment5/q1.sol\":1675:1686  newCampaign */\n      dup2\n        /* \"Assignment5/q1.sol\":1675:1696  newCampaign.finalized */\n      0x04\n      add\n      0x00\n        /* \"Assignment5/q1.sol\":1675:1704  newCampaign.finalized = false */\n      0x0100\n      exp\n      dup2\n      sload\n      dup2\n      0xff\n      mul\n      not\n      and\n      swap1\n      dup4\n      iszero\n      iszero\n      mul\n      or\n      swap1\n      sstore\n      pop\n        /* \"Assignment5/q1.sol\":1722:1801  CampaignCreated(campaignCount, msg.sender, _targetAmount, newCampaign.deadline) */\n      0x91b289a829e71d811b8c69e4a24ba2d40d115d8a236e9a724cb3bb2d43cf7223\n        /* \"Assignment5/q1.sol\":1738:1751  campaignCount */\n      sload(0x01)\n        /* \"Assignment5/q1.sol\":1753:1763  msg.sender */\n      caller\n        /* \"Assignment5/q1.sol\":1765:1778  _targetAmount */\n      dup6\n        /* \"Assignment5/q1.sol\":1780:1791  newCampaign */\n      dup5\n        /* \"Assignment5/q1.sol\":1780:1800  newCampaign.deadline */\n      0x02\n      add\n      sload\n        /* \"Assignment5/q1.sol\":1722:1801  CampaignCreated(campaignCount, msg.sender, _targetAmount, newCampaign.deadline) */\n      mload(0x40)\n      tag_66\n      swap5\n      swap4\n      swap3\n      swap2\n      swap1\n      tag_67\n      jump\t// in\n    tag_66:\n      mload(0x40)\n      dup1\n      swap2\n      sub\n      swap1\n      log1\n        /* \"Assignment5/q1.sol\":1264:1809  {... */\n      pop\n        /* \"Assignment5/q1.sol\":1189:1809  function createCampaign(uint256 _targetAmount, uint256 _duration) external {... */\n      pop\n      pop\n      jump\t// out\n        /* \"Assignment5/q1.sol\":3922:4412  function getCampaign(uint256 _campaignId) external view returns (... */\n    tag_29:\n        /* \"Assignment5/q1.sol\":3997:4012  address creator */\n      0x00\n        /* \"Assignment5/q1.sol\":4023:4043  uint256 targetAmount */\n      dup1\n        /* \"Assignment5/q1.sol\":4054:4070  uint256 deadline */\n      0x00\n        /* \"Assignment5/q1.sol\":4081:4107  uint256 totalContributions */\n      dup1\n        /* \"Assignment5/q1.sol\":4118:4132  bool finalized */\n      0x00\n        /* \"Assignment5/q1.sol\":4151:4176  Campaign storage campaign */\n      dup1\n        /* \"Assignment5/q1.sol\":4179:4188  campaigns */\n      0x00\n        /* \"Assignment5/q1.sol\":4179:4201  campaigns[_campaignId] */\n      dup1\n        /* \"Assignment5/q1.sol\":4189:4200  _campaignId */\n      dup9\n        /* \"Assignment5/q1.sol\":4179:4201  campaigns[_campaignId] */\n      dup2\n      mstore\n      0x20\n      add\n      swap1\n      dup2\n      mstore\n      0x20\n      add\n      0x00\n      keccak256\n        /* \"Assignment5/q1.sol\":4151:4201  Campaign storage campaign = campaigns[_campaignId] */\n      swap1\n      pop\n        /* \"Assignment5/q1.sol\":4234:4242  campaign */\n      dup1\n        /* \"Assignment5/q1.sol\":4234:4250  campaign.creator */\n      0x00\n      add\n      0x00\n      swap1\n      sload\n      swap1\n      0x0100\n      exp\n      swap1\n      div\n      0xffffffffffffffffffffffffffffffffffffffff\n      and\n        /* \"Assignment5/q1.sol\":4265:4273  campaign */\n      dup2\n        /* \"Assignment5/q1.sol\":4265:4286  campaign.targetAmount */\n      0x01\n      add\n      sload\n        /* \"Assignment5/q1.sol\":4301:4309  campaign */\n      dup3\n        /* \"Assignment5/q1.sol\":4301:4318  campaign.deadline */\n      0x02\n      add\n      sload\n        /* \"Assignment5/q1.sol\":4333:4341  campaign */\n      dup4\n        /* \"Assignment5/q1.sol\":4333:4360  campaign.totalContributions */\n      0x03\n      add\n      sload\n        /* \"Assignment5/q1.sol\":4375:4383  campaign */\n      dup5\n        /* \"Assignment5/q1.sol\":4375:4393  campaign.finalized */\n      0x04\n      add\n      0x00\n      swap1\n      sload\n      swap1\n      0x0100\n      exp\n      swap1\n      div\n      0xff\n      and\n        /* \"Assignment5/q1.sol\":4212:4404  return (... */\n      swap6\n      pop\n      swap6\n      pop\n      swap6\n      pop\n      swap6\n      pop\n      swap6\n      pop\n      pop\n        /* \"Assignment5/q1.sol\":3922:4412  function getCampaign(uint256 _campaignId) external view returns (... */\n      swap2\n      swap4\n      swap6\n      swap1\n      swap3\n      swap5\n      pop\n      jump\t// out\n        /* \"Assignment5/q1.sol\":2491:3200  function finalizeCampaign(uint256 _campaignId) external {... */\n    tag_34:\n        /* \"Assignment5/q1.sol\":2558:2583  Campaign storage campaign */\n      0x00\n        /* \"Assignment5/q1.sol\":2586:2595  campaigns */\n      dup1\n        /* \"Assignment5/q1.sol\":2586:2608  campaigns[_campaignId] */\n      0x00\n        /* \"Assignment5/q1.sol\":2596:2607  _campaignId */\n      dup4\n        /* \"Assignment5/q1.sol\":2586:2608  campaigns[_campaignId] */\n      dup2\n      mstore\n      0x20\n      add\n      swap1\n      dup2\n      mstore\n      0x20\n      add\n      0x00\n      keccak256\n        /* \"Assignment5/q1.sol\":2558:2608  Campaign storage campaign = campaigns[_campaignId] */\n      swap1\n      pop\n        /* \"Assignment5/q1.sol\":2643:2651  campaign */\n      dup1\n        /* \"Assignment5/q1.sol\":2643:2659  campaign.creator */\n      0x00\n      add\n      0x00\n      swap1\n      sload\n      swap1\n      0x0100\n      exp\n      swap1\n      div\n      0xffffffffffffffffffffffffffffffffffffffff\n      and\n        /* \"Assignment5/q1.sol\":2629:2659  msg.sender == campaign.creator */\n      0xffffffffffffffffffffffffffffffffffffffff\n      and\n        /* \"Assignment5/q1.sol\":2629:2639  msg.sender */\n      caller\n        /* \"Assignment5/q1.sol\":2629:2659  msg.sender == campaign.creator */\n      0xffffffffffffffffffffffffffffffffffffffff\n      and\n      eq\n        /* \"Assignment5/q1.sol\":2621:2706  require(msg.sender == campaign.creator, \"Only the creator can finalize the campaign\") */\n      tag_70\n      jumpi\n      mload(0x40)\n      0x08c379a000000000000000000000000000000000000000000000000000000000\n      dup2\n      mstore\n      0x04\n      add\n      tag_71\n      swap1\n      tag_72\n      jump\t// in\n    tag_71:\n      mload(0x40)\n      dup1\n      swap2\n      sub\n      swap1\n      revert\n    tag_70:\n        /* \"Assignment5/q1.sol\":2744:2752  campaign */\n      dup1\n        /* \"Assignment5/q1.sol\":2744:2761  campaign.deadline */\n      0x02\n      add\n      sload\n        /* \"Assignment5/q1.sol\":2725:2740  block.timestamp */\n      timestamp\n        /* \"Assignment5/q1.sol\":2725:2761  block.timestamp >= campaign.deadline */\n      lt\n      iszero\n        /* \"Assignment5/q1.sol\":2717:2791  require(block.timestamp >= campaign.deadline, \"Campaign is still ongoing\") */\n      tag_73\n      jumpi\n      mload(0x40)\n      0x08c379a000000000000000000000000000000000000000000000000000000000\n      dup2\n      mstore\n      0x04\n      add\n      tag_74\n      swap1\n      tag_75\n      jump\t// in\n    tag_74:\n      mload(0x40)\n      dup1\n      swap2\n      sub\n      swap1\n      revert\n    tag_73:\n        /* \"Assignment5/q1.sol\":2811:2819  campaign */\n      dup1\n        /* \"Assignment5/q1.sol\":2811:2829  campaign.finalized */\n      0x04\n      add\n      0x00\n      swap1\n      sload\n      swap1\n      0x0100\n      exp\n      swap1\n      div\n      0xff\n      and\n        /* \"Assignment5/q1.sol\":2810:2829  !campaign.finalized */\n      iszero\n        /* \"Assignment5/q1.sol\":2802:2863  require(!campaign.finalized, \"Campaign is already finalized\") */\n      tag_76\n      jumpi\n      mload(0x40)\n      0x08c379a000000000000000000000000000000000000000000000000000000000\n      dup2\n      mstore\n      0x04\n      add\n      tag_77\n      swap1\n      tag_78\n      jump\t// in\n    tag_77:\n      mload(0x40)\n      dup1\n      swap2\n      sub\n      swap1\n      revert\n    tag_76:\n        /* \"Assignment5/q1.sol\":2897:2901  true */\n      0x01\n        /* \"Assignment5/q1.sol\":2876:2884  campaign */\n      dup2\n        /* \"Assignment5/q1.sol\":2876:2894  campaign.finalized */\n      0x04\n      add\n      0x00\n        /* \"Assignment5/q1.sol\":2876:2901  campaign.finalized = true */\n      0x0100\n      exp\n      dup2\n      sload\n      dup2\n      0xff\n      mul\n      not\n      and\n      swap1\n      dup4\n      iszero\n      iszero\n      mul\n      or\n      swap1\n      sstore\n      pop\n        /* \"Assignment5/q1.sol\":2949:2957  campaign */\n      dup1\n        /* \"Assignment5/q1.sol\":2949:2970  campaign.targetAmount */\n      0x01\n      add\n      sload\n        /* \"Assignment5/q1.sol\":2918:2926  campaign */\n      dup2\n        /* \"Assignment5/q1.sol\":2918:2945  campaign.totalContributions */\n      0x03\n      add\n      sload\n        /* \"Assignment5/q1.sol\":2918:2970  campaign.totalContributions >= campaign.targetAmount */\n      lt\n        /* \"Assignment5/q1.sol\":2914:3193  if (campaign.totalContributions >= campaign.targetAmount) {... */\n      tag_79\n      jumpi\n        /* \"Assignment5/q1.sol\":2995:3003  campaign */\n      dup1\n        /* \"Assignment5/q1.sol\":2995:3011  campaign.creator */\n      0x00\n      add\n      0x00\n      swap1\n      sload\n      swap1\n      0x0100\n      exp\n      swap1\n      div\n      0xffffffffffffffffffffffffffffffffffffffff\n      and\n        /* \"Assignment5/q1.sol\":2987:3021  payable(campaign.creator).transfer */\n      0xffffffffffffffffffffffffffffffffffffffff\n      and\n        /* \"Assignment5/q1.sol\":2987:3050  payable(campaign.creator).transfer(campaign.totalContributions) */\n      0x08fc\n        /* \"Assignment5/q1.sol\":3022:3030  campaign */\n      dup3\n        /* \"Assignment5/q1.sol\":3022:3049  campaign.totalContributions */\n      0x03\n      add\n      sload\n        /* \"Assignment5/q1.sol\":2987:3050  payable(campaign.creator).transfer(campaign.totalContributions) */\n      swap1\n      dup2\n      iszero\n      mul\n      swap1\n      mload(0x40)\n      0x00\n      mload(0x40)\n      dup1\n      dup4\n      sub\n      dup2\n      dup6\n      dup9\n      dup9\n      call\n      swap4\n      pop\n      pop\n      pop\n      pop\n      iszero\n      dup1\n      iszero\n      tag_81\n      jumpi\n      returndatasize\n      0x00\n      dup1\n      returndatacopy\n      revert(0x00, returndatasize)\n    tag_81:\n      pop\n        /* \"Assignment5/q1.sol\":3070:3106  CampaignFinalized(_campaignId, true) */\n      0x153ed4c9c4475018e4899faf78c3171cc7869a9c53a2d247de2ff74377eba788\n        /* \"Assignment5/q1.sol\":3088:3099  _campaignId */\n      dup3\n        /* \"Assignment5/q1.sol\":3101:3105  true */\n      0x01\n        /* \"Assignment5/q1.sol\":3070:3106  CampaignFinalized(_campaignId, true) */\n      mload(0x40)\n      tag_82\n      swap3\n      swap2\n      swap1\n      tag_83\n      jump\t// in\n    tag_82:\n      mload(0x40)\n      dup1\n      swap2\n      sub\n      swap1\n      log1\n        /* \"Assignment5/q1.sol\":2914:3193  if (campaign.totalContributions >= campaign.targetAmount) {... */\n      jump(tag_84)\n    tag_79:\n        /* \"Assignment5/q1.sol\":3144:3181  CampaignFinalized(_campaignId, false) */\n      0x153ed4c9c4475018e4899faf78c3171cc7869a9c53a2d247de2ff74377eba788\n        /* \"Assignment5/q1.sol\":3162:3173  _campaignId */\n      dup3\n        /* \"Assignment5/q1.sol\":3175:3180  false */\n      0x00\n        /* \"Assignment5/q1.sol\":3144:3181  CampaignFinalized(_campaignId, false) */\n      mload(0x40)\n      tag_85\n      swap3\n      swap2\n      swap1\n      tag_83\n      jump\t// in\n    tag_85:\n      mload(0x40)\n      dup1\n      swap2\n      sub\n      swap1\n      log1\n        /* \"Assignment5/q1.sol\":2914:3193  if (campaign.totalContributions >= campaign.targetAmount) {... */\n    tag_84:\n        /* \"Assignment5/q1.sol\":2547:3200  {... */\n      pop\n        /* \"Assignment5/q1.sol\":2491:3200  function finalizeCampaign(uint256 _campaignId) external {... */\n      pop\n      jump\t// out\n        /* \"Assignment5/q1.sol\":522:550  uint256 public campaignCount */\n    tag_37:\n      sload(0x01)\n      dup2\n      jump\t// out\n        /* \"Assignment5/q1.sol\":1877:2403  function contribute(uint256 _campaignId) external payable {... */\n    tag_42:\n        /* \"Assignment5/q1.sol\":1946:1971  Campaign storage campaign */\n      0x00\n        /* \"Assignment5/q1.sol\":1974:1983  campaigns */\n      dup1\n        /* \"Assignment5/q1.sol\":1974:1996  campaigns[_campaignId] */\n      0x00\n        /* \"Assignment5/q1.sol\":1984:1995  _campaignId */\n      dup4\n        /* \"Assignment5/q1.sol\":1974:1996  campaigns[_campaignId] */\n      dup2\n      mstore\n      0x20\n      add\n      swap1\n      dup2\n      mstore\n      0x20\n      add\n      0x00\n      keccak256\n        /* \"Assignment5/q1.sol\":1946:1996  Campaign storage campaign = campaigns[_campaignId] */\n      swap1\n      pop\n        /* \"Assignment5/q1.sol\":2035:2043  campaign */\n      dup1\n        /* \"Assignment5/q1.sol\":2035:2052  campaign.deadline */\n      0x02\n      add\n      sload\n        /* \"Assignment5/q1.sol\":2017:2032  block.timestamp */\n      timestamp\n        /* \"Assignment5/q1.sol\":2017:2052  block.timestamp < campaign.deadline */\n      lt\n        /* \"Assignment5/q1.sol\":2009:2075  require(block.timestamp < campaign.deadline, \"Campaign has ended\") */\n      tag_87\n      jumpi\n      mload(0x40)\n      0x08c379a000000000000000000000000000000000000000000000000000000000\n      dup2\n      mstore\n      0x04\n      add\n      tag_88\n      swap1\n      tag_89\n      jump\t// in\n    tag_88:\n      mload(0x40)\n      dup1\n      swap2\n      sub\n      swap1\n      revert\n    tag_87:\n        /* \"Assignment5/q1.sol\":2106:2107  0 */\n      0x00\n        /* \"Assignment5/q1.sol\":2094:2103  msg.value */\n      callvalue\n        /* \"Assignment5/q1.sol\":2094:2107  msg.value > 0 */\n      gt\n        /* \"Assignment5/q1.sol\":2086:2150  require(msg.value > 0, \"Contribution must be greater than zero\") */\n      tag_90\n      jumpi\n      mload(0x40)\n      0x08c379a000000000000000000000000000000000000000000000000000000000\n      dup2\n      mstore\n      0x04\n      add\n      tag_91\n      swap1\n      tag_92\n      jump\t// in\n    tag_91:\n      mload(0x40)\n      dup1\n      swap2\n      sub\n      swap1\n      revert\n    tag_90:\n        /* \"Assignment5/q1.sol\":2170:2178  campaign */\n      dup1\n        /* \"Assignment5/q1.sol\":2170:2188  campaign.finalized */\n      0x04\n      add\n      0x00\n      swap1\n      sload\n      swap1\n      0x0100\n      exp\n      swap1\n      div\n      0xff\n      and\n        /* \"Assignment5/q1.sol\":2169:2188  !campaign.finalized */\n      iszero\n        /* \"Assignment5/q1.sol\":2161:2214  require(!campaign.finalized, \"Campaign is finalized\") */\n      tag_93\n      jumpi\n      mload(0x40)\n      0x08c379a000000000000000000000000000000000000000000000000000000000\n      dup2\n      mstore\n      0x04\n      add\n      tag_94\n      swap1\n      tag_95\n      jump\t// in\n    tag_94:\n      mload(0x40)\n      dup1\n      swap2\n      sub\n      swap1\n      revert\n    tag_93:\n        /* \"Assignment5/q1.sol\":2258:2267  msg.value */\n      callvalue\n        /* \"Assignment5/q1.sol\":2227:2235  campaign */\n      dup2\n        /* \"Assignment5/q1.sol\":2227:2254  campaign.totalContributions */\n      0x03\n      add\n      0x00\n        /* \"Assignment5/q1.sol\":2227:2267  campaign.totalContributions += msg.value */\n      dup3\n      dup3\n      sload\n      tag_96\n      swap2\n      swap1\n      tag_65\n      jump\t// in\n    tag_96:\n      swap3\n      pop\n      pop\n      dup2\n      swap1\n      sstore\n      pop\n        /* \"Assignment5/q1.sol\":2316:2325  msg.value */\n      callvalue\n        /* \"Assignment5/q1.sol\":2278:2286  campaign */\n      dup2\n        /* \"Assignment5/q1.sol\":2278:2300  campaign.contributions */\n      0x05\n      add\n        /* \"Assignment5/q1.sol\":2278:2312  campaign.contributions[msg.sender] */\n      0x00\n        /* \"Assignment5/q1.sol\":2301:2311  msg.sender */\n      caller\n        /* \"Assignment5/q1.sol\":2278:2312  campaign.contributions[msg.sender] */\n      0xffffffffffffffffffffffffffffffffffffffff\n      and\n      0xffffffffffffffffffffffffffffffffffffffff\n      and\n      dup2\n      mstore\n      0x20\n      add\n      swap1\n      dup2\n      mstore\n      0x20\n      add\n      0x00\n      keccak256\n      0x00\n        /* \"Assignment5/q1.sol\":2278:2325  campaign.contributions[msg.sender] += msg.value */\n      dup3\n      dup3\n      sload\n      tag_97\n      swap2\n      swap1\n      tag_65\n      jump\t// in\n    tag_97:\n      swap3\n      pop\n      pop\n      dup2\n      swap1\n      sstore\n      pop\n        /* \"Assignment5/q1.sol\":2343:2395  ContributionMade(_campaignId, msg.sender, msg.value) */\n      0x0a4a91237423e0a1766a761c7cb029311d8b95d6b1b81db1b949a70c98b4e08e\n        /* \"Assignment5/q1.sol\":2360:2371  _campaignId */\n      dup3\n        /* \"Assignment5/q1.sol\":2373:2383  msg.sender */\n      caller\n        /* \"Assignment5/q1.sol\":2385:2394  msg.value */\n      callvalue\n        /* \"Assignment5/q1.sol\":2343:2395  ContributionMade(_campaignId, msg.sender, msg.value) */\n      mload(0x40)\n      tag_98\n      swap4\n      swap3\n      swap2\n      swap1\n      tag_54\n      jump\t// in\n    tag_98:\n      mload(0x40)\n      dup1\n      swap2\n      sub\n      swap1\n      log1\n        /* \"Assignment5/q1.sol\":1935:2403  {... */\n      pop\n        /* \"Assignment5/q1.sol\":1877:2403  function contribute(uint256 _campaignId) external payable {... */\n      pop\n      jump\t// out\n        /* \"#utility.yul\":88:205   */\n    tag_100:\n        /* \"#utility.yul\":197:198   */\n      0x00\n        /* \"#utility.yul\":194:195   */\n      dup1\n        /* \"#utility.yul\":187:199   */\n      revert\n        /* \"#utility.yul\":334:411   */\n    tag_102:\n        /* \"#utility.yul\":371:378   */\n      0x00\n        /* \"#utility.yul\":400:405   */\n      dup2\n        /* \"#utility.yul\":389:405   */\n      swap1\n      pop\n        /* \"#utility.yul\":334:411   */\n      swap2\n      swap1\n      pop\n      jump\t// out\n        /* \"#utility.yul\":417:539   */\n    tag_103:\n        /* \"#utility.yul\":490:514   */\n      tag_139\n        /* \"#utility.yul\":508:513   */\n      dup2\n        /* \"#utility.yul\":490:514   */\n      tag_102\n      jump\t// in\n    tag_139:\n        /* \"#utility.yul\":483:488   */\n      dup2\n        /* \"#utility.yul\":480:515   */\n      eq\n        /* \"#utility.yul\":470:533   */\n      tag_140\n      jumpi\n        /* \"#utility.yul\":529:530   */\n      0x00\n        /* \"#utility.yul\":526:527   */\n      dup1\n        /* \"#utility.yul\":519:531   */\n      revert\n        /* \"#utility.yul\":470:533   */\n    tag_140:\n        /* \"#utility.yul\":417:539   */\n      pop\n      jump\t// out\n        /* \"#utility.yul\":545:684   */\n    tag_104:\n        /* \"#utility.yul\":591:596   */\n      0x00\n        /* \"#utility.yul\":629:635   */\n      dup2\n        /* \"#utility.yul\":616:636   */\n      calldataload\n        /* \"#utility.yul\":607:636   */\n      swap1\n      pop\n        /* \"#utility.yul\":645:678   */\n      tag_142\n        /* \"#utility.yul\":672:677   */\n      dup2\n        /* \"#utility.yul\":645:678   */\n      tag_103\n      jump\t// in\n    tag_142:\n        /* \"#utility.yul\":545:684   */\n      swap3\n      swap2\n      pop\n      pop\n      jump\t// out\n        /* \"#utility.yul\":690:1019   */\n    tag_13:\n        /* \"#utility.yul\":749:755   */\n      0x00\n        /* \"#utility.yul\":798:800   */\n      0x20\n        /* \"#utility.yul\":786:795   */\n      dup3\n        /* \"#utility.yul\":777:784   */\n      dup5\n        /* \"#utility.yul\":773:796   */\n      sub\n        /* \"#utility.yul\":769:801   */\n      slt\n        /* \"#utility.yul\":766:885   */\n      iszero\n      tag_144\n      jumpi\n        /* \"#utility.yul\":804:883   */\n      tag_145\n      tag_100\n      jump\t// in\n    tag_145:\n        /* \"#utility.yul\":766:885   */\n    tag_144:\n        /* \"#utility.yul\":924:925   */\n      0x00\n        /* \"#utility.yul\":949:1002   */\n      tag_146\n        /* \"#utility.yul\":994:1001   */\n      dup5\n        /* \"#utility.yul\":985:991   */\n      dup3\n        /* \"#utility.yul\":974:983   */\n      dup6\n        /* \"#utility.yul\":970:992   */\n      add\n        /* \"#utility.yul\":949:1002   */\n      tag_104\n      jump\t// in\n    tag_146:\n        /* \"#utility.yul\":939:1002   */\n      swap2\n      pop\n        /* \"#utility.yul\":895:1012   */\n      pop\n        /* \"#utility.yul\":690:1019   */\n      swap3\n      swap2\n      pop\n      pop\n      jump\t// out\n        /* \"#utility.yul\":1025:1151   */\n    tag_105:\n        /* \"#utility.yul\":1062:1069   */\n      0x00\n        /* \"#utility.yul\":1102:1144   */\n      0xffffffffffffffffffffffffffffffffffffffff\n        /* \"#utility.yul\":1095:1100   */\n      dup3\n        /* \"#utility.yul\":1091:1145   */\n      and\n        /* \"#utility.yul\":1080:1145   */\n      swap1\n      pop\n        /* \"#utility.yul\":1025:1151   */\n      swap2\n      swap1\n      pop\n      jump\t// out\n        /* \"#utility.yul\":1157:1253   */\n    tag_106:\n        /* \"#utility.yul\":1194:1201   */\n      0x00\n        /* \"#utility.yul\":1223:1247   */\n      tag_149\n        /* \"#utility.yul\":1241:1246   */\n      dup3\n        /* \"#utility.yul\":1223:1247   */\n      tag_105\n      jump\t// in\n    tag_149:\n        /* \"#utility.yul\":1212:1247   */\n      swap1\n      pop\n        /* \"#utility.yul\":1157:1253   */\n      swap2\n      swap1\n      pop\n      jump\t// out\n        /* \"#utility.yul\":1259:1377   */\n    tag_107:\n        /* \"#utility.yul\":1346:1370   */\n      tag_151\n        /* \"#utility.yul\":1364:1369   */\n      dup2\n        /* \"#utility.yul\":1346:1370   */\n      tag_106\n      jump\t// in\n    tag_151:\n        /* \"#utility.yul\":1341:1344   */\n      dup3\n        /* \"#utility.yul\":1334:1371   */\n      mstore\n        /* \"#utility.yul\":1259:1377   */\n      pop\n      pop\n      jump\t// out\n        /* \"#utility.yul\":1383:1501   */\n    tag_108:\n        /* \"#utility.yul\":1470:1494   */\n      tag_153\n        /* \"#utility.yul\":1488:1493   */\n      dup2\n        /* \"#utility.yul\":1470:1494   */\n      tag_102\n      jump\t// in\n    tag_153:\n        /* \"#utility.yul\":1465:1468   */\n      dup3\n        /* \"#utility.yul\":1458:1495   */\n      mstore\n        /* \"#utility.yul\":1383:1501   */\n      pop\n      pop\n      jump\t// out\n        /* \"#utility.yul\":1507:1597   */\n    tag_109:\n        /* \"#utility.yul\":1541:1548   */\n      0x00\n        /* \"#utility.yul\":1584:1589   */\n      dup2\n        /* \"#utility.yul\":1577:1590   */\n      iszero\n        /* \"#utility.yul\":1570:1591   */\n      iszero\n        /* \"#utility.yul\":1559:1591   */\n      swap1\n      pop\n        /* \"#utility.yul\":1507:1597   */\n      swap2\n      swap1\n      pop\n      jump\t// out\n        /* \"#utility.yul\":1603:1712   */\n    tag_110:\n        /* \"#utility.yul\":1684:1705   */\n      tag_156\n        /* \"#utility.yul\":1699:1704   */\n      dup2\n        /* \"#utility.yul\":1684:1705   */\n      tag_109\n      jump\t// in\n    tag_156:\n        /* \"#utility.yul\":1679:1682   */\n      dup3\n        /* \"#utility.yul\":1672:1706   */\n      mstore\n        /* \"#utility.yul\":1603:1712   */\n      pop\n      pop\n      jump\t// out\n        /* \"#utility.yul\":1718:2370   */\n    tag_16:\n        /* \"#utility.yul\":1917:1921   */\n      0x00\n        /* \"#utility.yul\":1955:1958   */\n      0xa0\n        /* \"#utility.yul\":1944:1953   */\n      dup3\n        /* \"#utility.yul\":1940:1959   */\n      add\n        /* \"#utility.yul\":1932:1959   */\n      swap1\n      pop\n        /* \"#utility.yul\":1969:2040   */\n      tag_158\n        /* \"#utility.yul\":2037:2038   */\n      0x00\n        /* \"#utility.yul\":2026:2035   */\n      dup4\n        /* \"#utility.yul\":2022:2039   */\n      add\n        /* \"#utility.yul\":2013:2019   */\n      dup9\n        /* \"#utility.yul\":1969:2040   */\n      tag_107\n      jump\t// in\n    tag_158:\n        /* \"#utility.yul\":2050:2122   */\n      tag_159\n        /* \"#utility.yul\":2118:2120   */\n      0x20\n        /* \"#utility.yul\":2107:2116   */\n      dup4\n        /* \"#utility.yul\":2103:2121   */\n      add\n        /* \"#utility.yul\":2094:2100   */\n      dup8\n        /* \"#utility.yul\":2050:2122   */\n      tag_108\n      jump\t// in\n    tag_159:\n        /* \"#utility.yul\":2132:2204   */\n      tag_160\n        /* \"#utility.yul\":2200:2202   */\n      0x40\n        /* \"#utility.yul\":2189:2198   */\n      dup4\n        /* \"#utility.yul\":2185:2203   */\n      add\n        /* \"#utility.yul\":2176:2182   */\n      dup7\n        /* \"#utility.yul\":2132:2204   */\n      tag_108\n      jump\t// in\n    tag_160:\n        /* \"#utility.yul\":2214:2286   */\n      tag_161\n        /* \"#utility.yul\":2282:2284   */\n      0x60\n        /* \"#utility.yul\":2271:2280   */\n      dup4\n        /* \"#utility.yul\":2267:2285   */\n      add\n        /* \"#utility.yul\":2258:2264   */\n      dup6\n        /* \"#utility.yul\":2214:2286   */\n      tag_108\n      jump\t// in\n    tag_161:\n        /* \"#utility.yul\":2296:2363   */\n      tag_162\n        /* \"#utility.yul\":2358:2361   */\n      0x80\n        /* \"#utility.yul\":2347:2356   */\n      dup4\n        /* \"#utility.yul\":2343:2362   */\n      add\n        /* \"#utility.yul\":2334:2340   */\n      dup5\n        /* \"#utility.yul\":2296:2363   */\n      tag_110\n      jump\t// in\n    tag_162:\n        /* \"#utility.yul\":1718:2370   */\n      swap7\n      swap6\n      pop\n      pop\n      pop\n      pop\n      pop\n      pop\n      jump\t// out\n        /* \"#utility.yul\":2376:2850   */\n    tag_24:\n        /* \"#utility.yul\":2444:2450   */\n      0x00\n        /* \"#utility.yul\":2452:2458   */\n      dup1\n        /* \"#utility.yul\":2501:2503   */\n      0x40\n        /* \"#utility.yul\":2489:2498   */\n      dup4\n        /* \"#utility.yul\":2480:2487   */\n      dup6\n        /* \"#utility.yul\":2476:2499   */\n      sub\n        /* \"#utility.yul\":2472:2504   */\n      slt\n        /* \"#utility.yul\":2469:2588   */\n      iszero\n      tag_164\n      jumpi\n        /* \"#utility.yul\":2507:2586   */\n      tag_165\n      tag_100\n      jump\t// in\n    tag_165:\n        /* \"#utility.yul\":2469:2588   */\n    tag_164:\n        /* \"#utility.yul\":2627:2628   */\n      0x00\n        /* \"#utility.yul\":2652:2705   */\n      tag_166\n        /* \"#utility.yul\":2697:2704   */\n      dup6\n        /* \"#utility.yul\":2688:2694   */\n      dup3\n        /* \"#utility.yul\":2677:2686   */\n      dup7\n        /* \"#utility.yul\":2673:2695   */\n      add\n        /* \"#utility.yul\":2652:2705   */\n      tag_104\n      jump\t// in\n    tag_166:\n        /* \"#utility.yul\":2642:2705   */\n      swap3\n      pop\n        /* \"#utility.yul\":2598:2715   */\n      pop\n        /* \"#utility.yul\":2754:2756   */\n      0x20\n        /* \"#utility.yul\":2780:2833   */\n      tag_167\n        /* \"#utility.yul\":2825:2832   */\n      dup6\n        /* \"#utility.yul\":2816:2822   */\n      dup3\n        /* \"#utility.yul\":2805:2814   */\n      dup7\n        /* \"#utility.yul\":2801:2823   */\n      add\n        /* \"#utility.yul\":2780:2833   */\n      tag_104\n      jump\t// in\n    tag_167:\n        /* \"#utility.yul\":2770:2833   */\n      swap2\n      pop\n        /* \"#utility.yul\":2725:2843   */\n      pop\n        /* \"#utility.yul\":2376:2850   */\n      swap3\n      pop\n      swap3\n      swap1\n      pop\n      jump\t// out\n        /* \"#utility.yul\":2856:3078   */\n    tag_39:\n        /* \"#utility.yul\":2949:2953   */\n      0x00\n        /* \"#utility.yul\":2987:2989   */\n      0x20\n        /* \"#utility.yul\":2976:2985   */\n      dup3\n        /* \"#utility.yul\":2972:2990   */\n      add\n        /* \"#utility.yul\":2964:2990   */\n      swap1\n      pop\n        /* \"#utility.yul\":3000:3071   */\n      tag_169\n        /* \"#utility.yul\":3068:3069   */\n      0x00\n        /* \"#utility.yul\":3057:3066   */\n      dup4\n        /* \"#utility.yul\":3053:3070   */\n      add\n        /* \"#utility.yul\":3044:3050   */\n      dup5\n        /* \"#utility.yul\":3000:3071   */\n      tag_108\n      jump\t// in\n    tag_169:\n        /* \"#utility.yul\":2856:3078   */\n      swap3\n      swap2\n      pop\n      pop\n      jump\t// out\n        /* \"#utility.yul\":3084:3253   */\n    tag_111:\n        /* \"#utility.yul\":3168:3179   */\n      0x00\n        /* \"#utility.yul\":3202:3208   */\n      dup3\n        /* \"#utility.yul\":3197:3200   */\n      dup3\n        /* \"#utility.yul\":3190:3209   */\n      mstore\n        /* \"#utility.yul\":3242:3246   */\n      0x20\n        /* \"#utility.yul\":3237:3240   */\n      dup3\n        /* \"#utility.yul\":3233:3247   */\n      add\n        /* \"#utility.yul\":3218:3247   */\n      swap1\n      pop\n        /* \"#utility.yul\":3084:3253   */\n      swap3\n      swap2\n      pop\n      pop\n      jump\t// out\n        /* \"#utility.yul\":3259:3434   */\n    tag_112:\n        /* \"#utility.yul\":3399:3426   */\n      0x43616d706169676e206973206e6f742066696e616c697a656400000000000000\n        /* \"#utility.yul\":3395:3396   */\n      0x00\n        /* \"#utility.yul\":3387:3393   */\n      dup3\n        /* \"#utility.yul\":3383:3397   */\n      add\n        /* \"#utility.yul\":3376:3427   */\n      mstore\n        /* \"#utility.yul\":3259:3434   */\n      pop\n      jump\t// out\n        /* \"#utility.yul\":3440:3806   */\n    tag_113:\n        /* \"#utility.yul\":3582:3585   */\n      0x00\n        /* \"#utility.yul\":3603:3670   */\n      tag_173\n        /* \"#utility.yul\":3667:3669   */\n      0x19\n        /* \"#utility.yul\":3662:3665   */\n      dup4\n        /* \"#utility.yul\":3603:3670   */\n      tag_111\n      jump\t// in\n    tag_173:\n        /* \"#utility.yul\":3596:3670   */\n      swap2\n      pop\n        /* \"#utility.yul\":3679:3772   */\n      tag_174\n        /* \"#utility.yul\":3768:3771   */\n      dup3\n        /* \"#utility.yul\":3679:3772   */\n      tag_112\n      jump\t// in\n    tag_174:\n        /* \"#utility.yul\":3797:3799   */\n      0x20\n        /* \"#utility.yul\":3792:3795   */\n      dup3\n        /* \"#utility.yul\":3788:3800   */\n      add\n        /* \"#utility.yul\":3781:3800   */\n      swap1\n      pop\n        /* \"#utility.yul\":3440:3806   */\n      swap2\n      swap1\n      pop\n      jump\t// out\n        /* \"#utility.yul\":3812:4231   */\n    tag_46:\n        /* \"#utility.yul\":3978:3982   */\n      0x00\n        /* \"#utility.yul\":4016:4018   */\n      0x20\n        /* \"#utility.yul\":4005:4014   */\n      dup3\n        /* \"#utility.yul\":4001:4019   */\n      add\n        /* \"#utility.yul\":3993:4019   */\n      swap1\n      pop\n        /* \"#utility.yul\":4065:4074   */\n      dup2\n        /* \"#utility.yul\":4059:4063   */\n      dup2\n        /* \"#utility.yul\":4055:4075   */\n      sub\n        /* \"#utility.yul\":4051:4052   */\n      0x00\n        /* \"#utility.yul\":4040:4049   */\n      dup4\n        /* \"#utility.yul\":4036:4053   */\n      add\n        /* \"#utility.yul\":4029:4076   */\n      mstore\n        /* \"#utility.yul\":4093:4224   */\n      tag_176\n        /* \"#utility.yul\":4219:4223   */\n      dup2\n        /* \"#utility.yul\":4093:4224   */\n      tag_113\n      jump\t// in\n    tag_176:\n        /* \"#utility.yul\":4085:4224   */\n      swap1\n      pop\n        /* \"#utility.yul\":3812:4231   */\n      swap2\n      swap1\n      pop\n      jump\t// out\n        /* \"#utility.yul\":4237:4407   */\n    tag_114:\n        /* \"#utility.yul\":4377:4399   */\n      0x4e6f2066756e647320746f207769746864726177000000000000000000000000\n        /* \"#utility.yul\":4373:4374   */\n      0x00\n        /* \"#utility.yul\":4365:4371   */\n      dup3\n        /* \"#utility.yul\":4361:4375   */\n      add\n        /* \"#utility.yul\":4354:4400   */\n      mstore\n        /* \"#utility.yul\":4237:4407   */\n      pop\n      jump\t// out\n        /* \"#utility.yul\":4413:4779   */\n    tag_115:\n        /* \"#utility.yul\":4555:4558   */\n      0x00\n        /* \"#utility.yul\":4576:4643   */\n      tag_179\n        /* \"#utility.yul\":4640:4642   */\n      0x14\n        /* \"#utility.yul\":4635:4638   */\n      dup4\n        /* \"#utility.yul\":4576:4643   */\n      tag_111\n      jump\t// in\n    tag_179:\n        /* \"#utility.yul\":4569:4643   */\n      swap2\n      pop\n        /* \"#utility.yul\":4652:4745   */\n      tag_180\n        /* \"#utility.yul\":4741:4744   */\n      dup3\n        /* \"#utility.yul\":4652:4745   */\n      tag_114\n      jump\t// in\n    tag_180:\n        /* \"#utility.yul\":4770:4772   */\n      0x20\n        /* \"#utility.yul\":4765:4768   */\n      dup3\n        /* \"#utility.yul\":4761:4773   */\n      add\n        /* \"#utility.yul\":4754:4773   */\n      swap1\n      pop\n        /* \"#utility.yul\":4413:4779   */\n      swap2\n      swap1\n      pop\n      jump\t// out\n        /* \"#utility.yul\":4785:5204   */\n    tag_49:\n        /* \"#utility.yul\":4951:4955   */\n      0x00\n        /* \"#utility.yul\":4989:4991   */\n      0x20\n        /* \"#utility.yul\":4978:4987   */\n      dup3\n        /* \"#utility.yul\":4974:4992   */\n      add\n        /* \"#utility.yul\":4966:4992   */\n      swap1\n      pop\n        /* \"#utility.yul\":5038:5047   */\n      dup2\n        /* \"#utility.yul\":5032:5036   */\n      dup2\n        /* \"#utility.yul\":5028:5048   */\n      sub\n        /* \"#utility.yul\":5024:5025   */\n      0x00\n        /* \"#utility.yul\":5013:5022   */\n      dup4\n        /* \"#utility.yul\":5009:5026   */\n      add\n        /* \"#utility.yul\":5002:5049   */\n      mstore\n        /* \"#utility.yul\":5066:5197   */\n      tag_182\n        /* \"#utility.yul\":5192:5196   */\n      dup2\n        /* \"#utility.yul\":5066:5197   */\n      tag_115\n      jump\t// in\n    tag_182:\n        /* \"#utility.yul\":5058:5197   */\n      swap1\n      pop\n        /* \"#utility.yul\":4785:5204   */\n      swap2\n      swap1\n      pop\n      jump\t// out\n        /* \"#utility.yul\":5210:5652   */\n    tag_54:\n        /* \"#utility.yul\":5359:5363   */\n      0x00\n        /* \"#utility.yul\":5397:5399   */\n      0x60\n        /* \"#utility.yul\":5386:5395   */\n      dup3\n        /* \"#utility.yul\":5382:5400   */\n      add\n        /* \"#utility.yul\":5374:5400   */\n      swap1\n      pop\n        /* \"#utility.yul\":5410:5481   */\n      tag_184\n        /* \"#utility.yul\":5478:5479   */\n      0x00\n        /* \"#utility.yul\":5467:5476   */\n      dup4\n        /* \"#utility.yul\":5463:5480   */\n      add\n        /* \"#utility.yul\":5454:5460   */\n      dup7\n        /* \"#utility.yul\":5410:5481   */\n      tag_108\n      jump\t// in\n    tag_184:\n        /* \"#utility.yul\":5491:5563   */\n      tag_185\n        /* \"#utility.yul\":5559:5561   */\n      0x20\n        /* \"#utility.yul\":5548:5557   */\n      dup4\n        /* \"#utility.yul\":5544:5562   */\n      add\n        /* \"#utility.yul\":5535:5541   */\n      dup6\n        /* \"#utility.yul\":5491:5563   */\n      tag_107\n      jump\t// in\n    tag_185:\n        /* \"#utility.yul\":5573:5645   */\n      tag_186\n        /* \"#utility.yul\":5641:5643   */\n      0x40\n        /* \"#utility.yul\":5630:5639   */\n      dup4\n        /* \"#utility.yul\":5626:5644   */\n      add\n        /* \"#utility.yul\":5617:5623   */\n      dup5\n        /* \"#utility.yul\":5573:5645   */\n      tag_108\n      jump\t// in\n    tag_186:\n        /* \"#utility.yul\":5210:5652   */\n      swap5\n      swap4\n      pop\n      pop\n      pop\n      pop\n      jump\t// out\n        /* \"#utility.yul\":5658:5884   */\n    tag_116:\n        /* \"#utility.yul\":5798:5832   */\n      0x54617267657420616d6f756e74206d7573742062652067726561746572207468\n        /* \"#utility.yul\":5794:5795   */\n      0x00\n        /* \"#utility.yul\":5786:5792   */\n      dup3\n        /* \"#utility.yul\":5782:5796   */\n      add\n        /* \"#utility.yul\":5775:5833   */\n      mstore\n        /* \"#utility.yul\":5867:5876   */\n      0x616e207a65726f00000000000000000000000000000000000000000000000000\n        /* \"#utility.yul\":5862:5864   */\n      0x20\n        /* \"#utility.yul\":5854:5860   */\n      dup3\n        /* \"#utility.yul\":5850:5865   */\n      add\n        /* \"#utility.yul\":5843:5877   */\n      mstore\n        /* \"#utility.yul\":5658:5884   */\n      pop\n      jump\t// out\n        /* \"#utility.yul\":5890:6256   */\n    tag_117:\n        /* \"#utility.yul\":6032:6035   */\n      0x00\n        /* \"#utility.yul\":6053:6120   */\n      tag_189\n        /* \"#utility.yul\":6117:6119   */\n      0x27\n        /* \"#utility.yul\":6112:6115   */\n      dup4\n        /* \"#utility.yul\":6053:6120   */\n      tag_111\n      jump\t// in\n    tag_189:\n        /* \"#utility.yul\":6046:6120   */\n      swap2\n      pop\n        /* \"#utility.yul\":6129:6222   */\n      tag_190\n        /* \"#utility.yul\":6218:6221   */\n      dup3\n        /* \"#utility.yul\":6129:6222   */\n      tag_116\n      jump\t// in\n    tag_190:\n        /* \"#utility.yul\":6247:6249   */\n      0x40\n        /* \"#utility.yul\":6242:6245   */\n      dup3\n        /* \"#utility.yul\":6238:6250   */\n      add\n        /* \"#utility.yul\":6231:6250   */\n      swap1\n      pop\n        /* \"#utility.yul\":5890:6256   */\n      swap2\n      swap1\n      pop\n      jump\t// out\n        /* \"#utility.yul\":6262:6681   */\n    tag_58:\n        /* \"#utility.yul\":6428:6432   */\n      0x00\n        /* \"#utility.yul\":6466:6468   */\n      0x20\n        /* \"#utility.yul\":6455:6464   */\n      dup3\n        /* \"#utility.yul\":6451:6469   */\n      add\n        /* \"#utility.yul\":6443:6469   */\n      swap1\n      pop\n        /* \"#utility.yul\":6515:6524   */\n      dup2\n        /* \"#utility.yul\":6509:6513   */\n      dup2\n        /* \"#utility.yul\":6505:6525   */\n      sub\n        /* \"#utility.yul\":6501:6502   */\n      0x00\n        /* \"#utility.yul\":6490:6499   */\n      dup4\n        /* \"#utility.yul\":6486:6503   */\n      add\n        /* \"#utility.yul\":6479:6526   */\n      mstore\n        /* \"#utility.yul\":6543:6674   */\n      tag_192\n        /* \"#utility.yul\":6669:6673   */\n      dup2\n        /* \"#utility.yul\":6543:6674   */\n      tag_117\n      jump\t// in\n    tag_192:\n        /* \"#utility.yul\":6535:6674   */\n      swap1\n      pop\n        /* \"#utility.yul\":6262:6681   */\n      swap2\n      swap1\n      pop\n      jump\t// out\n        /* \"#utility.yul\":6687:6908   */\n    tag_118:\n        /* \"#utility.yul\":6827:6861   */\n      0x4475726174696f6e206d7573742062652067726561746572207468616e207a65\n        /* \"#utility.yul\":6823:6824   */\n      0x00\n        /* \"#utility.yul\":6815:6821   */\n      dup3\n        /* \"#utility.yul\":6811:6825   */\n      add\n        /* \"#utility.yul\":6804:6862   */\n      mstore\n        /* \"#utility.yul\":6896:6900   */\n      0x726f000000000000000000000000000000000000000000000000000000000000\n        /* \"#utility.yul\":6891:6893   */\n      0x20\n        /* \"#utility.yul\":6883:6889   */\n      dup3\n        /* \"#utility.yul\":6879:6894   */\n      add\n        /* \"#utility.yul\":6872:6901   */\n      mstore\n        /* \"#utility.yul\":6687:6908   */\n      pop\n      jump\t// out\n        /* \"#utility.yul\":6914:7280   */\n    tag_119:\n        /* \"#utility.yul\":7056:7059   */\n      0x00\n        /* \"#utility.yul\":7077:7144   */\n      tag_195\n        /* \"#utility.yul\":7141:7143   */\n      0x22\n        /* \"#utility.yul\":7136:7139   */\n      dup4\n        /* \"#utility.yul\":7077:7144   */\n      tag_111\n      jump\t// in\n    tag_195:\n        /* \"#utility.yul\":7070:7144   */\n      swap2\n      pop\n        /* \"#utility.yul\":7153:7246   */\n      tag_196\n        /* \"#utility.yul\":7242:7245   */\n      dup3\n        /* \"#utility.yul\":7153:7246   */\n      tag_118\n      jump\t// in\n    tag_196:\n        /* \"#utility.yul\":7271:7273   */\n      0x40\n        /* \"#utility.yul\":7266:7269   */\n      dup3\n        /* \"#utility.yul\":7262:7274   */\n      add\n        /* \"#utility.yul\":7255:7274   */\n      swap1\n      pop\n        /* \"#utility.yul\":6914:7280   */\n      swap2\n      swap1\n      pop\n      jump\t// out\n        /* \"#utility.yul\":7286:7705   */\n    tag_61:\n        /* \"#utility.yul\":7452:7456   */\n      0x00\n        /* \"#utility.yul\":7490:7492   */\n      0x20\n        /* \"#utility.yul\":7479:7488   */\n      dup3\n        /* \"#utility.yul\":7475:7493   */\n      add\n        /* \"#utility.yul\":7467:7493   */\n      swap1\n      pop\n        /* \"#utility.yul\":7539:7548   */\n      dup2\n        /* \"#utility.yul\":7533:7537   */\n      dup2\n        /* \"#utility.yul\":7529:7549   */\n      sub\n        /* \"#utility.yul\":7525:7526   */\n      0x00\n        /* \"#utility.yul\":7514:7523   */\n      dup4\n        /* \"#utility.yul\":7510:7527   */\n      add\n        /* \"#utility.yul\":7503:7550   */\n      mstore\n        /* \"#utility.yul\":7567:7698   */\n      tag_198\n        /* \"#utility.yul\":7693:7697   */\n      dup2\n        /* \"#utility.yul\":7567:7698   */\n      tag_119\n      jump\t// in\n    tag_198:\n        /* \"#utility.yul\":7559:7698   */\n      swap1\n      pop\n        /* \"#utility.yul\":7286:7705   */\n      swap2\n      swap1\n      pop\n      jump\t// out\n        /* \"#utility.yul\":7711:7891   */\n    tag_120:\n        /* \"#utility.yul\":7759:7836   */\n      0x4e487b7100000000000000000000000000000000000000000000000000000000\n        /* \"#utility.yul\":7756:7757   */\n      0x00\n        /* \"#utility.yul\":7749:7837   */\n      mstore\n        /* \"#utility.yul\":7856:7860   */\n      0x11\n        /* \"#utility.yul\":7853:7854   */\n      0x04\n        /* \"#utility.yul\":7846:7861   */\n      mstore\n        /* \"#utility.yul\":7880:7884   */\n      0x24\n        /* \"#utility.yul\":7877:7878   */\n      0x00\n        /* \"#utility.yul\":7870:7885   */\n      revert\n        /* \"#utility.yul\":7897:8130   */\n    tag_63:\n        /* \"#utility.yul\":7936:7939   */\n      0x00\n        /* \"#utility.yul\":7959:7983   */\n      tag_201\n        /* \"#utility.yul\":7977:7982   */\n      dup3\n        /* \"#utility.yul\":7959:7983   */\n      tag_102\n      jump\t// in\n    tag_201:\n        /* \"#utility.yul\":7950:7983   */\n      swap2\n      pop\n        /* \"#utility.yul\":8005:8071   */\n      0xffffffffffffffffffffffffffffffffffffffffffffffffffffffffffffffff\n        /* \"#utility.yul\":7998:8003   */\n      dup3\n        /* \"#utility.yul\":7995:8072   */\n      sub\n        /* \"#utility.yul\":7992:8095   */\n      tag_202\n      jumpi\n        /* \"#utility.yul\":8075:8093   */\n      tag_203\n      tag_120\n      jump\t// in\n    tag_203:\n        /* \"#utility.yul\":7992:8095   */\n    tag_202:\n        /* \"#utility.yul\":8122:8123   */\n      0x01\n        /* \"#utility.yul\":8115:8120   */\n      dup3\n        /* \"#utility.yul\":8111:8124   */\n      add\n        /* \"#utility.yul\":8104:8124   */\n      swap1\n      pop\n        /* \"#utility.yul\":7897:8130   */\n      swap2\n      swap1\n      pop\n      jump\t// out\n        /* \"#utility.yul\":8136:8327   */\n    tag_65:\n        /* \"#utility.yul\":8176:8179   */\n      0x00\n        /* \"#utility.yul\":8195:8215   */\n      tag_205\n        /* \"#utility.yul\":8213:8214   */\n      dup3\n        /* \"#utility.yul\":8195:8215   */\n      tag_102\n      jump\t// in\n    tag_205:\n        /* \"#utility.yul\":8190:8215   */\n      swap2\n      pop\n        /* \"#utility.yul\":8229:8249   */\n      tag_206\n        /* \"#utility.yul\":8247:8248   */\n      dup4\n        /* \"#utility.yul\":8229:8249   */\n      tag_102\n      jump\t// in\n    tag_206:\n        /* \"#utility.yul\":8224:8249   */\n      swap3\n      pop\n        /* \"#utility.yul\":8272:8273   */\n      dup3\n        /* \"#utility.yul\":8269:8270   */\n      dup3\n        /* \"#utility.yul\":8265:8274   */\n      add\n        /* \"#utility.yul\":8258:8274   */\n      swap1\n      pop\n        /* \"#utility.yul\":8293:8296   */\n      dup1\n        /* \"#utility.yul\":8290:8291   */\n      dup3\n        /* \"#utility.yul\":8287:8297   */\n      gt\n        /* \"#utility.yul\":8284:8320   */\n      iszero\n      tag_207\n      jumpi\n        /* \"#utility.yul\":8300:8318   */\n      tag_208\n      tag_120\n      jump\t// in\n    tag_208:\n        /* \"#utility.yul\":8284:8320   */\n    tag_207:\n        /* \"#utility.yul\":8136:8327   */\n      swap3\n      swap2\n      pop\n      pop\n      jump\t// out\n        /* \"#utility.yul\":8333:8886   */\n    tag_67:\n        /* \"#utility.yul\":8510:8514   */\n      0x00\n        /* \"#utility.yul\":8548:8551   */\n      0x80\n        /* \"#utility.yul\":8537:8546   */\n      dup3\n        /* \"#utility.yul\":8533:8552   */\n      add\n        /* \"#utility.yul\":8525:8552   */\n      swap1\n      pop\n        /* \"#utility.yul\":8562:8633   */\n      tag_210\n        /* \"#utility.yul\":8630:8631   */\n      0x00\n        /* \"#utility.yul\":8619:8628   */\n      dup4\n        /* \"#utility.yul\":8615:8632   */\n      add\n        /* \"#utility.yul\":8606:8612   */\n      dup8\n        /* \"#utility.yul\":8562:8633   */\n      tag_108\n      jump\t// in\n    tag_210:\n        /* \"#utility.yul\":8643:8715   */\n      tag_211\n        /* \"#utility.yul\":8711:8713   */\n      0x20\n        /* \"#utility.yul\":8700:8709   */\n      dup4\n        /* \"#utility.yul\":8696:8714   */\n      add\n        /* \"#utility.yul\":8687:8693   */\n      dup7\n        /* \"#utility.yul\":8643:8715   */\n      tag_107\n      jump\t// in\n    tag_211:\n        /* \"#utility.yul\":8725:8797   */\n      tag_212\n        /* \"#utility.yul\":8793:8795   */\n      0x40\n        /* \"#utility.yul\":8782:8791   */\n      dup4\n        /* \"#utility.yul\":8778:8796   */\n      add\n        /* \"#utility.yul\":8769:8775   */\n      dup6\n        /* \"#utility.yul\":8725:8797   */\n      tag_108\n      jump\t// in\n    tag_212:\n        /* \"#utility.yul\":8807:8879   */\n      tag_213\n        /* \"#utility.yul\":8875:8877   */\n      0x60\n        /* \"#utility.yul\":8864:8873   */\n      dup4\n        /* \"#utility.yul\":8860:8878   */\n      add\n        /* \"#utility.yul\":8851:8857   */\n      dup5\n        /* \"#utility.yul\":8807:8879   */\n      tag_108\n      jump\t// in\n    tag_213:\n        /* \"#utility.yul\":8333:8886   */\n      swap6\n      swap5\n      pop\n      pop\n      pop\n      pop\n      pop\n      jump\t// out\n        /* \"#utility.yul\":8892:9121   */\n    tag_121:\n        /* \"#utility.yul\":9032:9066   */\n      0x4f6e6c79207468652063726561746f722063616e2066696e616c697a65207468\n        /* \"#utility.yul\":9028:9029   */\n      0x00\n        /* \"#utility.yul\":9020:9026   */\n      dup3\n        /* \"#utility.yul\":9016:9030   */\n      add\n        /* \"#utility.yul\":9009:9067   */\n      mstore\n        /* \"#utility.yul\":9101:9113   */\n      0x652063616d706169676e00000000000000000000000000000000000000000000\n        /* \"#utility.yul\":9096:9098   */\n      0x20\n        /* \"#utility.yul\":9088:9094   */\n      dup3\n        /* \"#utility.yul\":9084:9099   */\n      add\n        /* \"#utility.yul\":9077:9114   */\n      mstore\n        /* \"#utility.yul\":8892:9121   */\n      pop\n      jump\t// out\n        /* \"#utility.yul\":9127:9493   */\n    tag_122:\n        /* \"#utility.yul\":9269:9272   */\n      0x00\n        /* \"#utility.yul\":9290:9357   */\n      tag_216\n        /* \"#utility.yul\":9354:9356   */\n      0x2a\n        /* \"#utility.yul\":9349:9352   */\n      dup4\n        /* \"#utility.yul\":9290:9357   */\n      tag_111\n      jump\t// in\n    tag_216:\n        /* \"#utility.yul\":9283:9357   */\n      swap2\n      pop\n        /* \"#utility.yul\":9366:9459   */\n      tag_217\n        /* \"#utility.yul\":9455:9458   */\n      dup3\n        /* \"#utility.yul\":9366:9459   */\n      tag_121\n      jump\t// in\n    tag_217:\n        /* \"#utility.yul\":9484:9486   */\n      0x40\n        /* \"#utility.yul\":9479:9482   */\n      dup3\n        /* \"#utility.yul\":9475:9487   */\n      add\n        /* \"#utility.yul\":9468:9487   */\n      swap1\n      pop\n        /* \"#utility.yul\":9127:9493   */\n      swap2\n      swap1\n      pop\n      jump\t// out\n        /* \"#utility.yul\":9499:9918   */\n    tag_72:\n        /* \"#utility.yul\":9665:9669   */\n      0x00\n        /* \"#utility.yul\":9703:9705   */\n      0x20\n        /* \"#utility.yul\":9692:9701   */\n      dup3\n        /* \"#utility.yul\":9688:9706   */\n      add\n        /* \"#utility.yul\":9680:9706   */\n      swap1\n      pop\n        /* \"#utility.yul\":9752:9761   */\n      dup2\n        /* \"#utility.yul\":9746:9750   */\n      dup2\n        /* \"#utility.yul\":9742:9762   */\n      sub\n        /* \"#utility.yul\":9738:9739   */\n      0x00\n        /* \"#utility.yul\":9727:9736   */\n      dup4\n        /* \"#utility.yul\":9723:9740   */\n      add\n        /* \"#utility.yul\":9716:9763   */\n      mstore\n        /* \"#utility.yul\":9780:9911   */\n      tag_219\n        /* \"#utility.yul\":9906:9910   */\n      dup2\n        /* \"#utility.yul\":9780:9911   */\n      tag_122\n      jump\t// in\n    tag_219:\n        /* \"#utility.yul\":9772:9911   */\n      swap1\n      pop\n        /* \"#utility.yul\":9499:9918   */\n      swap2\n      swap1\n      pop\n      jump\t// out\n        /* \"#utility.yul\":9924:10099   */\n    tag_123:\n        /* \"#utility.yul\":10064:10091   */\n      0x43616d706169676e206973207374696c6c206f6e676f696e6700000000000000\n        /* \"#utility.yul\":10060:10061   */\n      0x00\n        /* \"#utility.yul\":10052:10058   */\n      dup3\n        /* \"#utility.yul\":10048:10062   */\n      add\n        /* \"#utility.yul\":10041:10092   */\n      mstore\n        /* \"#utility.yul\":9924:10099   */\n      pop\n      jump\t// out\n        /* \"#utility.yul\":10105:10471   */\n    tag_124:\n        /* \"#utility.yul\":10247:10250   */\n      0x00\n        /* \"#utility.yul\":10268:10335   */\n      tag_222\n        /* \"#utility.yul\":10332:10334   */\n      0x19\n        /* \"#utility.yul\":10327:10330   */\n      dup4\n        /* \"#utility.yul\":10268:10335   */\n      tag_111\n      jump\t// in\n    tag_222:\n        /* \"#utility.yul\":10261:10335   */\n      swap2\n      pop\n        /* \"#utility.yul\":10344:10437   */\n      tag_223\n        /* \"#utility.yul\":10433:10436   */\n      dup3\n        /* \"#utility.yul\":10344:10437   */\n      tag_123\n      jump\t// in\n    tag_223:\n        /* \"#utility.yul\":10462:10464   */\n      0x20\n        /* \"#utility.yul\":10457:10460   */\n      dup3\n        /* \"#utility.yul\":10453:10465   */\n      add\n        /* \"#utility.yul\":10446:10465   */\n      swap1\n      pop\n        /* \"#utility.yul\":10105:10471   */\n      swap2\n      swap1\n      pop\n      jump\t// out\n        /* \"#utility.yul\":10477:10896   */\n    tag_75:\n        /* \"#utility.yul\":10643:10647   */\n      0x00\n        /* \"#utility.yul\":10681:10683   */\n      0x20\n        /* \"#utility.yul\":10670:10679   */\n      dup3\n        /* \"#utility.yul\":10666:10684   */\n      add\n        /* \"#utility.yul\":10658:10684   */\n      swap1\n      pop\n        /* \"#utility.yul\":10730:10739   */\n      dup2\n        /* \"#utility.yul\":10724:10728   */\n      dup2\n        /* \"#utility.yul\":10720:10740   */\n      sub\n        /* \"#utility.yul\":10716:10717   */\n      0x00\n        /* \"#utility.yul\":10705:10714   */\n      dup4\n        /* \"#utility.yul\":10701:10718   */\n      add\n        /* \"#utility.yul\":10694:10741   */\n      mstore\n        /* \"#utility.yul\":10758:10889   */\n      tag_225\n        /* \"#utility.yul\":10884:10888   */\n      dup2\n        /* \"#utility.yul\":10758:10889   */\n      tag_124\n      jump\t// in\n    tag_225:\n        /* \"#utility.yul\":10750:10889   */\n      swap1\n      pop\n        /* \"#utility.yul\":10477:10896   */\n      swap2\n      swap1\n      pop\n      jump\t// out\n        /* \"#utility.yul\":10902:11081   */\n    tag_125:\n        /* \"#utility.yul\":11042:11073   */\n      0x43616d706169676e20697320616c72656164792066696e616c697a6564000000\n        /* \"#utility.yul\":11038:11039   */\n      0x00\n        /* \"#utility.yul\":11030:11036   */\n      dup3\n        /* \"#utility.yul\":11026:11040   */\n      add\n        /* \"#utility.yul\":11019:11074   */\n      mstore\n        /* \"#utility.yul\":10902:11081   */\n      pop\n      jump\t// out\n        /* \"#utility.yul\":11087:11453   */\n    tag_126:\n        /* \"#utility.yul\":11229:11232   */\n      0x00\n        /* \"#utility.yul\":11250:11317   */\n      tag_228\n        /* \"#utility.yul\":11314:11316   */\n      0x1d\n        /* \"#utility.yul\":11309:11312   */\n      dup4\n        /* \"#utility.yul\":11250:11317   */\n      tag_111\n      jump\t// in\n    tag_228:\n        /* \"#utility.yul\":11243:11317   */\n      swap2\n      pop\n        /* \"#utility.yul\":11326:11419   */\n      tag_229\n        /* \"#utility.yul\":11415:11418   */\n      dup3\n        /* \"#utility.yul\":11326:11419   */\n      tag_125\n      jump\t// in\n    tag_229:\n        /* \"#utility.yul\":11444:11446   */\n      0x20\n        /* \"#utility.yul\":11439:11442   */\n      dup3\n        /* \"#utility.yul\":11435:11447   */\n      add\n        /* \"#utility.yul\":11428:11447   */\n      swap1\n      pop\n        /* \"#utility.yul\":11087:11453   */\n      swap2\n      swap1\n      pop\n      jump\t// out\n        /* \"#utility.yul\":11459:11878   */\n    tag_78:\n        /* \"#utility.yul\":11625:11629   */\n      0x00\n        /* \"#utility.yul\":11663:11665   */\n      0x20\n        /* \"#utility.yul\":11652:11661   */\n      dup3\n        /* \"#utility.yul\":11648:11666   */\n      add\n        /* \"#utility.yul\":11640:11666   */\n      swap1\n      pop\n        /* \"#utility.yul\":11712:11721   */\n      dup2\n        /* \"#utility.yul\":11706:11710   */\n      dup2\n        /* \"#utility.yul\":11702:11722   */\n      sub\n        /* \"#utility.yul\":11698:11699   */\n      0x00\n        /* \"#utility.yul\":11687:11696   */\n      dup4\n        /* \"#utility.yul\":11683:11700   */\n      add\n        /* \"#utility.yul\":11676:11723   */\n      mstore\n        /* \"#utility.yul\":11740:11871   */\n      tag_231\n        /* \"#utility.yul\":11866:11870   */\n      dup2\n        /* \"#utility.yul\":11740:11871   */\n      tag_126\n      jump\t// in\n    tag_231:\n        /* \"#utility.yul\":11732:11871   */\n      swap1\n      pop\n        /* \"#utility.yul\":11459:11878   */\n      swap2\n      swap1\n      pop\n      jump\t// out\n        /* \"#utility.yul\":11884:12204   */\n    tag_83:\n        /* \"#utility.yul\":11999:12003   */\n      0x00\n        /* \"#utility.yul\":12037:12039   */\n      0x40\n        /* \"#utility.yul\":12026:12035   */\n      dup3\n        /* \"#utility.yul\":12022:12040   */\n      add\n        /* \"#utility.yul\":12014:12040   */\n      swap1\n      pop\n        /* \"#utility.yul\":12050:12121   */\n      tag_233\n        /* \"#utility.yul\":12118:12119   */\n      0x00\n        /* \"#utility.yul\":12107:12116   */\n      dup4\n        /* \"#utility.yul\":12103:12120   */\n      add\n        /* \"#utility.yul\":12094:12100   */\n      dup6\n        /* \"#utility.yul\":12050:12121   */\n      tag_108\n      jump\t// in\n    tag_233:\n        /* \"#utility.yul\":12131:12197   */\n      tag_234\n        /* \"#utility.yul\":12193:12195   */\n      0x20\n        /* \"#utility.yul\":12182:12191   */\n      dup4\n        /* \"#utility.yul\":12178:12196   */\n      add\n        /* \"#utility.yul\":12169:12175   */\n      dup5\n        /* \"#utility.yul\":12131:12197   */\n      tag_110\n      jump\t// in\n    tag_234:\n        /* \"#utility.yul\":11884:12204   */\n      swap4\n      swap3\n      pop\n      pop\n      pop\n      jump\t// out\n        /* \"#utility.yul\":12210:12378   */\n    tag_127:\n        /* \"#utility.yul\":12350:12370   */\n      0x43616d706169676e2068617320656e6465640000000000000000000000000000\n        /* \"#utility.yul\":12346:12347   */\n      0x00\n        /* \"#utility.yul\":12338:12344   */\n      dup3\n        /* \"#utility.yul\":12334:12348   */\n      add\n        /* \"#utility.yul\":12327:12371   */\n      mstore\n        /* \"#utility.yul\":12210:12378   */\n      pop\n      jump\t// out\n        /* \"#utility.yul\":12384:12750   */\n    tag_128:\n        /* \"#utility.yul\":12526:12529   */\n      0x00\n        /* \"#utility.yul\":12547:12614   */\n      tag_237\n        /* \"#utility.yul\":12611:12613   */\n      0x12\n        /* \"#utility.yul\":12606:12609   */\n      dup4\n        /* \"#utility.yul\":12547:12614   */\n      tag_111\n      jump\t// in\n    tag_237:\n        /* \"#utility.yul\":12540:12614   */\n      swap2\n      pop\n        /* \"#utility.yul\":12623:12716   */\n      tag_238\n        /* \"#utility.yul\":12712:12715   */\n      dup3\n        /* \"#utility.yul\":12623:12716   */\n      tag_127\n      jump\t// in\n    tag_238:\n        /* \"#utility.yul\":12741:12743   */\n      0x20\n        /* \"#utility.yul\":12736:12739   */\n      dup3\n        /* \"#utility.yul\":12732:12744   */\n      add\n        /* \"#utility.yul\":12725:12744   */\n      swap1\n      pop\n        /* \"#utility.yul\":12384:12750   */\n      swap2\n      swap1\n      pop\n      jump\t// out\n        /* \"#utility.yul\":12756:13175   */\n    tag_89:\n        /* \"#utility.yul\":12922:12926   */\n      0x00\n        /* \"#utility.yul\":12960:12962   */\n      0x20\n        /* \"#utility.yul\":12949:12958   */\n      dup3\n        /* \"#utility.yul\":12945:12963   */\n      add\n        /* \"#utility.yul\":12937:12963   */\n      swap1\n      pop\n        /* \"#utility.yul\":13009:13018   */\n      dup2\n        /* \"#utility.yul\":13003:13007   */\n      dup2\n        /* \"#utility.yul\":12999:13019   */\n      sub\n        /* \"#utility.yul\":12995:12996   */\n      0x00\n        /* \"#utility.yul\":12984:12993   */\n      dup4\n        /* \"#utility.yul\":12980:12997   */\n      add\n        /* \"#utility.yul\":12973:13020   */\n      mstore\n        /* \"#utility.yul\":13037:13168   */\n      tag_240\n        /* \"#utility.yul\":13163:13167   */\n      dup2\n        /* \"#utility.yul\":13037:13168   */\n      tag_128\n      jump\t// in\n    tag_240:\n        /* \"#utility.yul\":13029:13168   */\n      swap1\n      pop\n        /* \"#utility.yul\":12756:13175   */\n      swap2\n      swap1\n      pop\n      jump\t// out\n        /* \"#utility.yul\":13181:13406   */\n    tag_129:\n        /* \"#utility.yul\":13321:13355   */\n      0x436f6e747269627574696f6e206d757374206265206772656174657220746861\n        /* \"#utility.yul\":13317:13318   */\n      0x00\n        /* \"#utility.yul\":13309:13315   */\n      dup3\n        /* \"#utility.yul\":13305:13319   */\n      add\n        /* \"#utility.yul\":13298:13356   */\n      mstore\n        /* \"#utility.yul\":13390:13398   */\n      0x6e207a65726f0000000000000000000000000000000000000000000000000000\n        /* \"#utility.yul\":13385:13387   */\n      0x20\n        /* \"#utility.yul\":13377:13383   */\n      dup3\n        /* \"#utility.yul\":13373:13388   */\n      add\n        /* \"#utility.yul\":13366:13399   */\n      mstore\n        /* \"#utility.yul\":13181:13406   */\n      pop\n      jump\t// out\n        /* \"#utility.yul\":13412:13778   */\n    tag_130:\n        /* \"#utility.yul\":13554:13557   */\n      0x00\n        /* \"#utility.yul\":13575:13642   */\n      tag_243\n        /* \"#utility.yul\":13639:13641   */\n      0x26\n        /* \"#utility.yul\":13634:13637   */\n      dup4\n        /* \"#utility.yul\":13575:13642   */\n      tag_111\n      jump\t// in\n    tag_243:\n        /* \"#utility.yul\":13568:13642   */\n      swap2\n      pop\n        /* \"#utility.yul\":13651:13744   */\n      tag_244\n        /* \"#utility.yul\":13740:13743   */\n      dup3\n        /* \"#utility.yul\":13651:13744   */\n      tag_129\n      jump\t// in\n    tag_244:\n        /* \"#utility.yul\":13769:13771   */\n      0x40\n        /* \"#utility.yul\":13764:13767   */\n      dup3\n        /* \"#utility.yul\":13760:13772   */\n      add\n        /* \"#utility.yul\":13753:13772   */\n      swap1\n      pop\n        /* \"#utility.yul\":13412:13778   */\n      swap2\n      swap1\n      pop\n      jump\t// out\n        /* \"#utility.yul\":13784:14203   */\n    tag_92:\n        /* \"#utility.yul\":13950:13954   */\n      0x00\n        /* \"#utility.yul\":13988:13990   */\n      0x20\n        /* \"#utility.yul\":13977:13986   */\n      dup3\n        /* \"#utility.yul\":13973:13991   */\n      add\n        /* \"#utility.yul\":13965:13991   */\n      swap1\n      pop\n        /* \"#utility.yul\":14037:14046   */\n      dup2\n        /* \"#utility.yul\":14031:14035   */\n      dup2\n        /* \"#utility.yul\":14027:14047   */\n      sub\n        /* \"#utility.yul\":14023:14024   */\n      0x00\n        /* \"#utility.yul\":14012:14021   */\n      dup4\n        /* \"#utility.yul\":14008:14025   */\n      add\n        /* \"#utility.yul\":14001:14048   */\n      mstore\n        /* \"#utility.yul\":14065:14196   */\n      tag_246\n        /* \"#utility.yul\":14191:14195   */\n      dup2\n        /* \"#utility.yul\":14065:14196   */\n      tag_130\n      jump\t// in\n    tag_246:\n        /* \"#utility.yul\":14057:14196   */\n      swap1\n      pop\n        /* \"#utility.yul\":13784:14203   */\n      swap2\n      swap1\n      pop\n      jump\t// out\n        /* \"#utility.yul\":14209:14380   */\n    tag_131:\n        /* \"#utility.yul\":14349:14372   */\n      0x43616d706169676e2069732066696e616c697a65640000000000000000000000\n        /* \"#utility.yul\":14345:14346   */\n      0x00\n        /* \"#utility.yul\":14337:14343   */\n      dup3\n        /* \"#utility.yul\":14333:14347   */\n      add\n        /* \"#utility.yul\":14326:14373   */\n      mstore\n        /* \"#utility.yul\":14209:14380   */\n      pop\n      jump\t// out\n        /* \"#utility.yul\":14386:14752   */\n    tag_132:\n        /* \"#utility.yul\":14528:14531   */\n      0x00\n        /* \"#utility.yul\":14549:14616   */\n      tag_249\n        /* \"#utility.yul\":14613:14615   */\n      0x15\n        /* \"#utility.yul\":14608:14611   */\n      dup4\n        /* \"#utility.yul\":14549:14616   */\n      tag_111\n      jump\t// in\n    tag_249:\n        /* \"#utility.yul\":14542:14616   */\n      swap2\n      pop\n        /* \"#utility.yul\":14625:14718   */\n      tag_250\n        /* \"#utility.yul\":14714:14717   */\n      dup3\n        /* \"#utility.yul\":14625:14718   */\n      tag_131\n      jump\t// in\n    tag_250:\n        /* \"#utility.yul\":14743:14745   */\n      0x20\n        /* \"#utility.yul\":14738:14741   */\n      dup3\n        /* \"#utility.yul\":14734:14746   */\n      add\n        /* \"#utility.yul\":14727:14746   */\n      swap1\n      pop\n        /* \"#utility.yul\":14386:14752   */\n      swap2\n      swap1\n      pop\n      jump\t// out\n        /* \"#utility.yul\":14758:15177   */\n    tag_95:\n        /* \"#utility.yul\":14924:14928   */\n      0x00\n        /* \"#utility.yul\":14962:14964   */\n      0x20\n        /* \"#utility.yul\":14951:14960   */\n      dup3\n        /* \"#utility.yul\":14947:14965   */\n      add\n        /* \"#utility.yul\":14939:14965   */\n      swap1\n      pop\n        /* \"#utility.yul\":15011:15020   */\n      dup2\n        /* \"#utility.yul\":15005:15009   */\n      dup2\n        /* \"#utility.yul\":15001:15021   */\n      sub\n        /* \"#utility.yul\":14997:14998   */\n      0x00\n        /* \"#utility.yul\":14986:14995   */\n      dup4\n        /* \"#utility.yul\":14982:14999   */\n      add\n        /* \"#utility.yul\":14975:15022   */\n      mstore\n        /* \"#utility.yul\":15039:15170   */\n      tag_252\n        /* \"#utility.yul\":15165:15169   */\n      dup2\n        /* \"#utility.yul\":15039:15170   */\n      tag_132\n      jump\t// in\n    tag_252:\n        /* \"#utility.yul\":15031:15170   */\n      swap1\n      pop\n        /* \"#utility.yul\":14758:15177   */\n      swap2\n      swap1\n      pop\n      jump\t// out\n\n    auxdata: 0xa2646970667358221220f351cf40ae090434eef902b756d218d08227c5a04dca21a5cddf97dc5350725264736f6c634300081a0033\n}\n",
				"bytecode": {
					"linkReferences": {},
					"object": "6080604052348015600e575f80fd5b506111418061001c5f395ff3fe60806040526004361061006f575f3560e01c80635598f8cc1161004d5780635598f8cc146101035780636b5ca27d146101435780637274e30d1461016b578063c1cbbca7146101955761006f565b8063141961bc14610073578063155dd5ee146100b357806322502268146100db575b5f80fd5b34801561007e575f80fd5b50610099600480360381019061009491906109d2565b6101b1565b6040516100aa959493929190610a65565b60405180910390f35b3480156100be575f80fd5b506100d960048036038101906100d491906109d2565b61020d565b005b3480156100e6575f80fd5b5061010160048036038101906100fc9190610ab6565b6103ce565b005b34801561010e575f80fd5b50610129600480360381019061012491906109d2565b61053f565b60405161013a959493929190610a65565b60405180910390f35b34801561014e575f80fd5b50610169600480360381019061016491906109d2565b6105ae565b005b348015610176575f80fd5b5061017f6107fb565b60405161018c9190610af4565b60405180910390f35b6101af60048036038101906101aa91906109d2565b610801565b005b5f602052805f5260405f205f91509050805f015f9054906101000a900473ffffffffffffffffffffffffffffffffffffffff1690806001015490806002015490806003015490806004015f9054906101000a900460ff16905085565b5f805f8381526020019081526020015f2090505f816005015f3373ffffffffffffffffffffffffffffffffffffffff1673ffffffffffffffffffffffffffffffffffffffff1681526020019081526020015f20549050816004015f9054906101000a900460ff166102b3576040517f08c379a00000000000000000000000000000000000000000000000000000000081526004016102aa90610b67565b60405180910390fd5b5f81116102f5576040517f08c379a00000000000000000000000000000000000000000000000000000000081526004016102ec90610bcf565b60405180910390fd5b8160010154826003015410156103c9575f826005015f3373ffffffffffffffffffffffffffffffffffffffff1673ffffffffffffffffffffffffffffffffffffffff1681526020019081526020015f20819055503373ffffffffffffffffffffffffffffffffffffffff166108fc8290811502906040515f60405180830381858888f1935050505015801561038c573d5f803e3d5ffd5b507f7a482fdeb6bc9a1376f597068a214a7a39472bb2eff1b8cad21ba04f49ddca1b8333836040516103c093929190610bed565b60405180910390a15b505050565b5f8211610410576040517f08c379a000000000000000000000000000000000000000000000000000000000815260040161040790610c92565b60405180910390fd5b5f8111610452576040517f08c379a000000000000000000000000000000000000000000000000000000000815260040161044990610d20565b60405180910390fd5b60015f81548092919061046490610d6b565b91905055505f805f60015481526020019081526020015f20905033815f015f6101000a81548173ffffffffffffffffffffffffffffffffffffffff021916908373ffffffffffffffffffffffffffffffffffffffff16021790555082816001018190555081426104d49190610db2565b81600201819055505f816004015f6101000a81548160ff0219169083151502179055507f91b289a829e71d811b8c69e4a24ba2d40d115d8a236e9a724cb3bb2d43cf7223600154338584600201546040516105329493929190610de5565b60405180910390a1505050565b5f805f805f805f808881526020019081526020015f209050805f015f9054906101000a900473ffffffffffffffffffffffffffffffffffffffff16816001015482600201548360030154846004015f9054906101000a900460ff16955095509550955095505091939590929450565b5f805f8381526020019081526020015f209050805f015f9054906101000a900473ffffffffffffffffffffffffffffffffffffffff1673ffffffffffffffffffffffffffffffffffffffff163373ffffffffffffffffffffffffffffffffffffffff1614610651576040517f08c379a000000000000000000000000000000000000000000000000000000000815260040161064890610e98565b60405180910390fd5b8060020154421015610698576040517f08c379a000000000000000000000000000000000000000000000000000000000815260040161068f90610f00565b60405180910390fd5b806004015f9054906101000a900460ff16156106e9576040517f08c379a00000000000000000000000000000000000000000000000000000000081526004016106e090610f68565b60405180910390fd5b6001816004015f6101000a81548160ff02191690831515021790555080600101548160030154106107bd57805f015f9054906101000a900473ffffffffffffffffffffffffffffffffffffffff1673ffffffffffffffffffffffffffffffffffffffff166108fc826003015490811502906040515f60405180830381858888f1935050505015801561077d573d5f803e3d5ffd5b507f153ed4c9c4475018e4899faf78c3171cc7869a9c53a2d247de2ff74377eba7888260016040516107b0929190610f86565b60405180910390a16107f7565b7f153ed4c9c4475018e4899faf78c3171cc7869a9c53a2d247de2ff74377eba788825f6040516107ee929190610f86565b60405180910390a15b5050565b60015481565b5f805f8381526020019081526020015f2090508060020154421061085a576040517f08c379a000000000000000000000000000000000000000000000000000000000815260040161085190610ff7565b60405180910390fd5b5f341161089c576040517f08c379a000000000000000000000000000000000000000000000000000000000815260040161089390611085565b60405180910390fd5b806004015f9054906101000a900460ff16156108ed576040517f08c379a00000000000000000000000000000000000000000000000000000000081526004016108e4906110ed565b60405180910390fd5b34816003015f8282546109009190610db2565b9250508190555034816005015f3373ffffffffffffffffffffffffffffffffffffffff1673ffffffffffffffffffffffffffffffffffffffff1681526020019081526020015f205f8282546109559190610db2565b925050819055507f0a4a91237423e0a1766a761c7cb029311d8b95d6b1b81db1b949a70c98b4e08e82333460405161098f93929190610bed565b60405180910390a15050565b5f80fd5b5f819050919050565b6109b18161099f565b81146109bb575f80fd5b50565b5f813590506109cc816109a8565b92915050565b5f602082840312156109e7576109e661099b565b5b5f6109f4848285016109be565b91505092915050565b5f73ffffffffffffffffffffffffffffffffffffffff82169050919050565b5f610a26826109fd565b9050919050565b610a3681610a1c565b82525050565b610a458161099f565b82525050565b5f8115159050919050565b610a5f81610a4b565b82525050565b5f60a082019050610a785f830188610a2d565b610a856020830187610a3c565b610a926040830186610a3c565b610a9f6060830185610a3c565b610aac6080830184610a56565b9695505050505050565b5f8060408385031215610acc57610acb61099b565b5b5f610ad9858286016109be565b9250506020610aea858286016109be565b9150509250929050565b5f602082019050610b075f830184610a3c565b92915050565b5f82825260208201905092915050565b7f43616d706169676e206973206e6f742066696e616c697a6564000000000000005f82015250565b5f610b51601983610b0d565b9150610b5c82610b1d565b602082019050919050565b5f6020820190508181035f830152610b7e81610b45565b9050919050565b7f4e6f2066756e647320746f2077697468647261770000000000000000000000005f82015250565b5f610bb9601483610b0d565b9150610bc482610b85565b602082019050919050565b5f6020820190508181035f830152610be681610bad565b9050919050565b5f606082019050610c005f830186610a3c565b610c0d6020830185610a2d565b610c1a6040830184610a3c565b949350505050565b7f54617267657420616d6f756e74206d75737420626520677265617465722074685f8201527f616e207a65726f00000000000000000000000000000000000000000000000000602082015250565b5f610c7c602783610b0d565b9150610c8782610c22565b604082019050919050565b5f6020820190508181035f830152610ca981610c70565b9050919050565b7f4475726174696f6e206d7573742062652067726561746572207468616e207a655f8201527f726f000000000000000000000000000000000000000000000000000000000000602082015250565b5f610d0a602283610b0d565b9150610d1582610cb0565b604082019050919050565b5f6020820190508181035f830152610d3781610cfe565b9050919050565b7f4e487b71000000000000000000000000000000000000000000000000000000005f52601160045260245ffd5b5f610d758261099f565b91507fffffffffffffffffffffffffffffffffffffffffffffffffffffffffffffffff8203610da757610da6610d3e565b5b600182019050919050565b5f610dbc8261099f565b9150610dc78361099f565b9250828201905080821115610ddf57610dde610d3e565b5b92915050565b5f608082019050610df85f830187610a3c565b610e056020830186610a2d565b610e126040830185610a3c565b610e1f6060830184610a3c565b95945050505050565b7f4f6e6c79207468652063726561746f722063616e2066696e616c697a652074685f8201527f652063616d706169676e00000000000000000000000000000000000000000000602082015250565b5f610e82602a83610b0d565b9150610e8d82610e28565b604082019050919050565b5f6020820190508181035f830152610eaf81610e76565b9050919050565b7f43616d706169676e206973207374696c6c206f6e676f696e67000000000000005f82015250565b5f610eea601983610b0d565b9150610ef582610eb6565b602082019050919050565b5f6020820190508181035f830152610f1781610ede565b9050919050565b7f43616d706169676e20697320616c72656164792066696e616c697a65640000005f82015250565b5f610f52601d83610b0d565b9150610f5d82610f1e565b602082019050919050565b5f6020820190508181035f830152610f7f81610f46565b9050919050565b5f604082019050610f995f830185610a3c565b610fa66020830184610a56565b9392505050565b7f43616d706169676e2068617320656e64656400000000000000000000000000005f82015250565b5f610fe1601283610b0d565b9150610fec82610fad565b602082019050919050565b5f6020820190508181035f83015261100e81610fd5565b9050919050565b7f436f6e747269627574696f6e206d7573742062652067726561746572207468615f8201527f6e207a65726f0000000000000000000000000000000000000000000000000000602082015250565b5f61106f602683610b0d565b915061107a82611015565b604082019050919050565b5f6020820190508181035f83015261109c81611063565b9050919050565b7f43616d706169676e2069732066696e616c697a656400000000000000000000005f82015250565b5f6110d7601583610b0d565b91506110e2826110a3565b602082019050919050565b5f6020820190508181035f830152611104816110cb565b905091905056fea2646970667358221220f351cf40ae090434eef902b756d218d08227c5a04dca21a5cddf97dc5350725264736f6c634300081a0033",
					"opcodes": "PUSH1 0x80 PUSH1 0x40 MSTORE CALLVALUE DUP1 ISZERO PUSH1 0xE JUMPI PUSH0 DUP1 REVERT JUMPDEST POP PUSH2 0x1141 DUP1 PUSH2 0x1C PUSH0 CODECOPY PUSH0 RETURN INVALID PUSH1 0x80 PUSH1 0x40 MSTORE PUSH1 0x4 CALLDATASIZE LT PUSH2 0x6F JUMPI PUSH0 CALLDATALOAD PUSH1 0xE0 SHR DUP1 PUSH4 0x5598F8CC GT PUSH2 0x4D JUMPI DUP1 PUSH4 0x5598F8CC EQ PUSH2 0x103 JUMPI DUP1 PUSH4 0x6B5CA27D EQ PUSH2 0x143 JUMPI DUP1 PUSH4 0x7274E30D EQ PUSH2 0x16B JUMPI DUP1 PUSH4 0xC1CBBCA7 EQ PUSH2 0x195 JUMPI PUSH2 0x6F JUMP JUMPDEST DUP1 PUSH4 0x141961BC EQ PUSH2 0x73 JUMPI DUP1 PUSH4 0x155DD5EE EQ PUSH2 0xB3 JUMPI DUP1 PUSH4 0x22502268 EQ PUSH2 0xDB JUMPI JUMPDEST PUSH0 DUP1 REVERT JUMPDEST CALLVALUE DUP1 ISZERO PUSH2 0x7E JUMPI PUSH0 DUP1 REVERT JUMPDEST POP PUSH2 0x99 PUSH1 0x4 DUP1 CALLDATASIZE SUB DUP2 ADD SWAP1 PUSH2 0x94 SWAP2 SWAP1 PUSH2 0x9D2 JUMP JUMPDEST PUSH2 0x1B1 JUMP JUMPDEST PUSH1 0x40 MLOAD PUSH2 0xAA SWAP6 SWAP5 SWAP4 SWAP3 SWAP2 SWAP1 PUSH2 0xA65 JUMP JUMPDEST PUSH1 0x40 MLOAD DUP1 SWAP2 SUB SWAP1 RETURN JUMPDEST CALLVALUE DUP1 ISZERO PUSH2 0xBE JUMPI PUSH0 DUP1 REVERT JUMPDEST POP PUSH2 0xD9 PUSH1 0x4 DUP1 CALLDATASIZE SUB DUP2 ADD SWAP1 PUSH2 0xD4 SWAP2 SWAP1 PUSH2 0x9D2 JUMP JUMPDEST PUSH2 0x20D JUMP JUMPDEST STOP JUMPDEST CALLVALUE DUP1 ISZERO PUSH2 0xE6 JUMPI PUSH0 DUP1 REVERT JUMPDEST POP PUSH2 0x101 PUSH1 0x4 DUP1 CALLDATASIZE SUB DUP2 ADD SWAP1 PUSH2 0xFC SWAP2 SWAP1 PUSH2 0xAB6 JUMP JUMPDEST PUSH2 0x3CE JUMP JUMPDEST STOP JUMPDEST CALLVALUE DUP1 ISZERO PUSH2 0x10E JUMPI PUSH0 DUP1 REVERT JUMPDEST POP PUSH2 0x129 PUSH1 0x4 DUP1 CALLDATASIZE SUB DUP2 ADD SWAP1 PUSH2 0x124 SWAP2 SWAP1 PUSH2 0x9D2 JUMP JUMPDEST PUSH2 0x53F JUMP JUMPDEST PUSH1 0x40 MLOAD PUSH2 0x13A SWAP6 SWAP5 SWAP4 SWAP3 SWAP2 SWAP1 PUSH2 0xA65 JUMP JUMPDEST PUSH1 0x40 MLOAD DUP1 SWAP2 SUB SWAP1 RETURN JUMPDEST CALLVALUE DUP1 ISZERO PUSH2 0x14E JUMPI PUSH0 DUP1 REVERT JUMPDEST POP PUSH2 0x169 PUSH1 0x4 DUP1 CALLDATASIZE SUB DUP2 ADD SWAP1 PUSH2 0x164 SWAP2 SWAP1 PUSH2 0x9D2 JUMP JUMPDEST PUSH2 0x5AE JUMP JUMPDEST STOP JUMPDEST CALLVALUE DUP1 ISZERO PUSH2 0x176 JUMPI PUSH0 DUP1 REVERT JUMPDEST POP PUSH2 0x17F PUSH2 0x7FB JUMP JUMPDEST PUSH1 0x40 MLOAD PUSH2 0x18C SWAP2 SWAP1 PUSH2 0xAF4 JUMP JUMPDEST PUSH1 0x40 MLOAD DUP1 SWAP2 SUB SWAP1 RETURN JUMPDEST PUSH2 0x1AF PUSH1 0x4 DUP1 CALLDATASIZE SUB DUP2 ADD SWAP1 PUSH2 0x1AA SWAP2 SWAP1 PUSH2 0x9D2 JUMP JUMPDEST PUSH2 0x801 JUMP JUMPDEST STOP JUMPDEST PUSH0 PUSH1 0x20 MSTORE DUP1 PUSH0 MSTORE PUSH1 0x40 PUSH0 KECCAK256 PUSH0 SWAP2 POP SWAP1 POP DUP1 PUSH0 ADD PUSH0 SWAP1 SLOAD SWAP1 PUSH2 0x100 EXP SWAP1 DIV PUSH20 0xFFFFFFFFFFFFFFFFFFFFFFFFFFFFFFFFFFFFFFFF AND SWAP1 DUP1 PUSH1 0x1 ADD SLOAD SWAP1 DUP1 PUSH1 0x2 ADD SLOAD SWAP1 DUP1 PUSH1 0x3 ADD SLOAD SWAP1 DUP1 PUSH1 0x4 ADD PUSH0 SWAP1 SLOAD SWAP1 PUSH2 0x100 EXP SWAP1 DIV PUSH1 0xFF AND SWAP1 POP DUP6 JUMP JUMPDEST PUSH0 DUP1 PUSH0 DUP4 DUP2 MSTORE PUSH1 0x20 ADD SWAP1 DUP2 MSTORE PUSH1 0x20 ADD PUSH0 KECCAK256 SWAP1 POP PUSH0 DUP2 PUSH1 0x5 ADD PUSH0 CALLER PUSH20 0xFFFFFFFFFFFFFFFFFFFFFFFFFFFFFFFFFFFFFFFF AND PUSH20 0xFFFFFFFFFFFFFFFFFFFFFFFFFFFFFFFFFFFFFFFF AND DUP2 MSTORE PUSH1 0x20 ADD SWAP1 DUP2 MSTORE PUSH1 0x20 ADD PUSH0 KECCAK256 SLOAD SWAP1 POP DUP2 PUSH1 0x4 ADD PUSH0 SWAP1 SLOAD SWAP1 PUSH2 0x100 EXP SWAP1 DIV PUSH1 0xFF AND PUSH2 0x2B3 JUMPI PUSH1 0x40 MLOAD PUSH32 0x8C379A000000000000000000000000000000000000000000000000000000000 DUP2 MSTORE PUSH1 0x4 ADD PUSH2 0x2AA SWAP1 PUSH2 0xB67 JUMP JUMPDEST PUSH1 0x40 MLOAD DUP1 SWAP2 SUB SWAP1 REVERT JUMPDEST PUSH0 DUP2 GT PUSH2 0x2F5 JUMPI PUSH1 0x40 MLOAD PUSH32 0x8C379A000000000000000000000000000000000000000000000000000000000 DUP2 MSTORE PUSH1 0x4 ADD PUSH2 0x2EC SWAP1 PUSH2 0xBCF JUMP JUMPDEST PUSH1 0x40 MLOAD DUP1 SWAP2 SUB SWAP1 REVERT JUMPDEST DUP2 PUSH1 0x1 ADD SLOAD DUP3 PUSH1 0x3 ADD SLOAD LT ISZERO PUSH2 0x3C9 JUMPI PUSH0 DUP3 PUSH1 0x5 ADD PUSH0 CALLER PUSH20 0xFFFFFFFFFFFFFFFFFFFFFFFFFFFFFFFFFFFFFFFF AND PUSH20 0xFFFFFFFFFFFFFFFFFFFFFFFFFFFFFFFFFFFFFFFF AND DUP2 MSTORE PUSH1 0x20 ADD SWAP1 DUP2 MSTORE PUSH1 0x20 ADD PUSH0 KECCAK256 DUP2 SWAP1 SSTORE POP CALLER PUSH20 0xFFFFFFFFFFFFFFFFFFFFFFFFFFFFFFFFFFFFFFFF AND PUSH2 0x8FC DUP3 SWAP1 DUP2 ISZERO MUL SWAP1 PUSH1 0x40 MLOAD PUSH0 PUSH1 0x40 MLOAD DUP1 DUP4 SUB DUP2 DUP6 DUP9 DUP9 CALL SWAP4 POP POP POP POP ISZERO DUP1 ISZERO PUSH2 0x38C JUMPI RETURNDATASIZE PUSH0 DUP1 RETURNDATACOPY RETURNDATASIZE PUSH0 REVERT JUMPDEST POP PUSH32 0x7A482FDEB6BC9A1376F597068A214A7A39472BB2EFF1B8CAD21BA04F49DDCA1B DUP4 CALLER DUP4 PUSH1 0x40 MLOAD PUSH2 0x3C0 SWAP4 SWAP3 SWAP2 SWAP1 PUSH2 0xBED JUMP JUMPDEST PUSH1 0x40 MLOAD DUP1 SWAP2 SUB SWAP1 LOG1 JUMPDEST POP POP POP JUMP JUMPDEST PUSH0 DUP3 GT PUSH2 0x410 JUMPI PUSH1 0x40 MLOAD PUSH32 0x8C379A000000000000000000000000000000000000000000000000000000000 DUP2 MSTORE PUSH1 0x4 ADD PUSH2 0x407 SWAP1 PUSH2 0xC92 JUMP JUMPDEST PUSH1 0x40 MLOAD DUP1 SWAP2 SUB SWAP1 REVERT JUMPDEST PUSH0 DUP2 GT PUSH2 0x452 JUMPI PUSH1 0x40 MLOAD PUSH32 0x8C379A000000000000000000000000000000000000000000000000000000000 DUP2 MSTORE PUSH1 0x4 ADD PUSH2 0x449 SWAP1 PUSH2 0xD20 JUMP JUMPDEST PUSH1 0x40 MLOAD DUP1 SWAP2 SUB SWAP1 REVERT JUMPDEST PUSH1 0x1 PUSH0 DUP2 SLOAD DUP1 SWAP3 SWAP2 SWAP1 PUSH2 0x464 SWAP1 PUSH2 0xD6B JUMP JUMPDEST SWAP2 SWAP1 POP SSTORE POP PUSH0 DUP1 PUSH0 PUSH1 0x1 SLOAD DUP2 MSTORE PUSH1 0x20 ADD SWAP1 DUP2 MSTORE PUSH1 0x20 ADD PUSH0 KECCAK256 SWAP1 POP CALLER DUP2 PUSH0 ADD PUSH0 PUSH2 0x100 EXP DUP2 SLOAD DUP2 PUSH20 0xFFFFFFFFFFFFFFFFFFFFFFFFFFFFFFFFFFFFFFFF MUL NOT AND SWAP1 DUP4 PUSH20 0xFFFFFFFFFFFFFFFFFFFFFFFFFFFFFFFFFFFFFFFF AND MUL OR SWAP1 SSTORE POP DUP3 DUP2 PUSH1 0x1 ADD DUP2 SWAP1 SSTORE POP DUP2 TIMESTAMP PUSH2 0x4D4 SWAP2 SWAP1 PUSH2 0xDB2 JUMP JUMPDEST DUP2 PUSH1 0x2 ADD DUP2 SWAP1 SSTORE POP PUSH0 DUP2 PUSH1 0x4 ADD PUSH0 PUSH2 0x100 EXP DUP2 SLOAD DUP2 PUSH1 0xFF MUL NOT AND SWAP1 DUP4 ISZERO ISZERO MUL OR SWAP1 SSTORE POP PUSH32 0x91B289A829E71D811B8C69E4A24BA2D40D115D8A236E9A724CB3BB2D43CF7223 PUSH1 0x1 SLOAD CALLER DUP6 DUP5 PUSH1 0x2 ADD SLOAD PUSH1 0x40 MLOAD PUSH2 0x532 SWAP5 SWAP4 SWAP3 SWAP2 SWAP1 PUSH2 0xDE5 JUMP JUMPDEST PUSH1 0x40 MLOAD DUP1 SWAP2 SUB SWAP1 LOG1 POP POP POP JUMP JUMPDEST PUSH0 DUP1 PUSH0 DUP1 PUSH0 DUP1 PUSH0 DUP1 DUP9 DUP2 MSTORE PUSH1 0x20 ADD SWAP1 DUP2 MSTORE PUSH1 0x20 ADD PUSH0 KECCAK256 SWAP1 POP DUP1 PUSH0 ADD PUSH0 SWAP1 SLOAD SWAP1 PUSH2 0x100 EXP SWAP1 DIV PUSH20 0xFFFFFFFFFFFFFFFFFFFFFFFFFFFFFFFFFFFFFFFF AND DUP2 PUSH1 0x1 ADD SLOAD DUP3 PUSH1 0x2 ADD SLOAD DUP4 PUSH1 0x3 ADD SLOAD DUP5 PUSH1 0x4 ADD PUSH0 SWAP1 SLOAD SWAP1 PUSH2 0x100 EXP SWAP1 DIV PUSH1 0xFF AND SWAP6 POP SWAP6 POP SWAP6 POP SWAP6 POP SWAP6 POP POP SWAP2 SWAP4 SWAP6 SWAP1 SWAP3 SWAP5 POP JUMP JUMPDEST PUSH0 DUP1 PUSH0 DUP4 DUP2 MSTORE PUSH1 0x20 ADD SWAP1 DUP2 MSTORE PUSH1 0x20 ADD PUSH0 KECCAK256 SWAP1 POP DUP1 PUSH0 ADD PUSH0 SWAP1 SLOAD SWAP1 PUSH2 0x100 EXP SWAP1 DIV PUSH20 0xFFFFFFFFFFFFFFFFFFFFFFFFFFFFFFFFFFFFFFFF AND PUSH20 0xFFFFFFFFFFFFFFFFFFFFFFFFFFFFFFFFFFFFFFFF AND CALLER PUSH20 0xFFFFFFFFFFFFFFFFFFFFFFFFFFFFFFFFFFFFFFFF AND EQ PUSH2 0x651 JUMPI PUSH1 0x40 MLOAD PUSH32 0x8C379A000000000000000000000000000000000000000000000000000000000 DUP2 MSTORE PUSH1 0x4 ADD PUSH2 0x648 SWAP1 PUSH2 0xE98 JUMP JUMPDEST PUSH1 0x40 MLOAD DUP1 SWAP2 SUB SWAP1 REVERT JUMPDEST DUP1 PUSH1 0x2 ADD SLOAD TIMESTAMP LT ISZERO PUSH2 0x698 JUMPI PUSH1 0x40 MLOAD PUSH32 0x8C379A000000000000000000000000000000000000000000000000000000000 DUP2 MSTORE PUSH1 0x4 ADD PUSH2 0x68F SWAP1 PUSH2 0xF00 JUMP JUMPDEST PUSH1 0x40 MLOAD DUP1 SWAP2 SUB SWAP1 REVERT JUMPDEST DUP1 PUSH1 0x4 ADD PUSH0 SWAP1 SLOAD SWAP1 PUSH2 0x100 EXP SWAP1 DIV PUSH1 0xFF AND ISZERO PUSH2 0x6E9 JUMPI PUSH1 0x40 MLOAD PUSH32 0x8C379A000000000000000000000000000000000000000000000000000000000 DUP2 MSTORE PUSH1 0x4 ADD PUSH2 0x6E0 SWAP1 PUSH2 0xF68 JUMP JUMPDEST PUSH1 0x40 MLOAD DUP1 SWAP2 SUB SWAP1 REVERT JUMPDEST PUSH1 0x1 DUP2 PUSH1 0x4 ADD PUSH0 PUSH2 0x100 EXP DUP2 SLOAD DUP2 PUSH1 0xFF MUL NOT AND SWAP1 DUP4 ISZERO ISZERO MUL OR SWAP1 SSTORE POP DUP1 PUSH1 0x1 ADD SLOAD DUP2 PUSH1 0x3 ADD SLOAD LT PUSH2 0x7BD JUMPI DUP1 PUSH0 ADD PUSH0 SWAP1 SLOAD SWAP1 PUSH2 0x100 EXP SWAP1 DIV PUSH20 0xFFFFFFFFFFFFFFFFFFFFFFFFFFFFFFFFFFFFFFFF AND PUSH20 0xFFFFFFFFFFFFFFFFFFFFFFFFFFFFFFFFFFFFFFFF AND PUSH2 0x8FC DUP3 PUSH1 0x3 ADD SLOAD SWAP1 DUP2 ISZERO MUL SWAP1 PUSH1 0x40 MLOAD PUSH0 PUSH1 0x40 MLOAD DUP1 DUP4 SUB DUP2 DUP6 DUP9 DUP9 CALL SWAP4 POP POP POP POP ISZERO DUP1 ISZERO PUSH2 0x77D JUMPI RETURNDATASIZE PUSH0 DUP1 RETURNDATACOPY RETURNDATASIZE PUSH0 REVERT JUMPDEST POP PUSH32 0x153ED4C9C4475018E4899FAF78C3171CC7869A9C53A2D247DE2FF74377EBA788 DUP3 PUSH1 0x1 PUSH1 0x40 MLOAD PUSH2 0x7B0 SWAP3 SWAP2 SWAP1 PUSH2 0xF86 JUMP JUMPDEST PUSH1 0x40 MLOAD DUP1 SWAP2 SUB SWAP1 LOG1 PUSH2 0x7F7 JUMP JUMPDEST PUSH32 0x153ED4C9C4475018E4899FAF78C3171CC7869A9C53A2D247DE2FF74377EBA788 DUP3 PUSH0 PUSH1 0x40 MLOAD PUSH2 0x7EE SWAP3 SWAP2 SWAP1 PUSH2 0xF86 JUMP JUMPDEST PUSH1 0x40 MLOAD DUP1 SWAP2 SUB SWAP1 LOG1 JUMPDEST POP POP JUMP JUMPDEST PUSH1 0x1 SLOAD DUP2 JUMP JUMPDEST PUSH0 DUP1 PUSH0 DUP4 DUP2 MSTORE PUSH1 0x20 ADD SWAP1 DUP2 MSTORE PUSH1 0x20 ADD PUSH0 KECCAK256 SWAP1 POP DUP1 PUSH1 0x2 ADD SLOAD TIMESTAMP LT PUSH2 0x85A JUMPI PUSH1 0x40 MLOAD PUSH32 0x8C379A000000000000000000000000000000000000000000000000000000000 DUP2 MSTORE PUSH1 0x4 ADD PUSH2 0x851 SWAP1 PUSH2 0xFF7 JUMP JUMPDEST PUSH1 0x40 MLOAD DUP1 SWAP2 SUB SWAP1 REVERT JUMPDEST PUSH0 CALLVALUE GT PUSH2 0x89C JUMPI PUSH1 0x40 MLOAD PUSH32 0x8C379A000000000000000000000000000000000000000000000000000000000 DUP2 MSTORE PUSH1 0x4 ADD PUSH2 0x893 SWAP1 PUSH2 0x1085 JUMP JUMPDEST PUSH1 0x40 MLOAD DUP1 SWAP2 SUB SWAP1 REVERT JUMPDEST DUP1 PUSH1 0x4 ADD PUSH0 SWAP1 SLOAD SWAP1 PUSH2 0x100 EXP SWAP1 DIV PUSH1 0xFF AND ISZERO PUSH2 0x8ED JUMPI PUSH1 0x40 MLOAD PUSH32 0x8C379A000000000000000000000000000000000000000000000000000000000 DUP2 MSTORE PUSH1 0x4 ADD PUSH2 0x8E4 SWAP1 PUSH2 0x10ED JUMP JUMPDEST PUSH1 0x40 MLOAD DUP1 SWAP2 SUB SWAP1 REVERT JUMPDEST CALLVALUE DUP2 PUSH1 0x3 ADD PUSH0 DUP3 DUP3 SLOAD PUSH2 0x900 SWAP2 SWAP1 PUSH2 0xDB2 JUMP JUMPDEST SWAP3 POP POP DUP2 SWAP1 SSTORE POP CALLVALUE DUP2 PUSH1 0x5 ADD PUSH0 CALLER PUSH20 0xFFFFFFFFFFFFFFFFFFFFFFFFFFFFFFFFFFFFFFFF AND PUSH20 0xFFFFFFFFFFFFFFFFFFFFFFFFFFFFFFFFFFFFFFFF AND DUP2 MSTORE PUSH1 0x20 ADD SWAP1 DUP2 MSTORE PUSH1 0x20 ADD PUSH0 KECCAK256 PUSH0 DUP3 DUP3 SLOAD PUSH2 0x955 SWAP2 SWAP1 PUSH2 0xDB2 JUMP JUMPDEST SWAP3 POP POP DUP2 SWAP1 SSTORE POP PUSH32 0xA4A91237423E0A1766A761C7CB029311D8B95D6B1B81DB1B949A70C98B4E08E DUP3 CALLER CALLVALUE PUSH1 0x40 MLOAD PUSH2 0x98F SWAP4 SWAP3 SWAP2 SWAP1 PUSH2 0xBED JUMP JUMPDEST PUSH1 0x40 MLOAD DUP1 SWAP2 SUB SWAP1 LOG1 POP POP JUMP JUMPDEST PUSH0 DUP1 REVERT JUMPDEST PUSH0 DUP2 SWAP1 POP SWAP2 SWAP1 POP JUMP JUMPDEST PUSH2 0x9B1 DUP2 PUSH2 0x99F JUMP JUMPDEST DUP2 EQ PUSH2 0x9BB JUMPI PUSH0 DUP1 REVERT JUMPDEST POP JUMP JUMPDEST PUSH0 DUP2 CALLDATALOAD SWAP1 POP PUSH2 0x9CC DUP2 PUSH2 0x9A8 JUMP JUMPDEST SWAP3 SWAP2 POP POP JUMP JUMPDEST PUSH0 PUSH1 0x20 DUP3 DUP5 SUB SLT ISZERO PUSH2 0x9E7 JUMPI PUSH2 0x9E6 PUSH2 0x99B JUMP JUMPDEST JUMPDEST PUSH0 PUSH2 0x9F4 DUP5 DUP3 DUP6 ADD PUSH2 0x9BE JUMP JUMPDEST SWAP2 POP POP SWAP3 SWAP2 POP POP JUMP JUMPDEST PUSH0 PUSH20 0xFFFFFFFFFFFFFFFFFFFFFFFFFFFFFFFFFFFFFFFF DUP3 AND SWAP1 POP SWAP2 SWAP1 POP JUMP JUMPDEST PUSH0 PUSH2 0xA26 DUP3 PUSH2 0x9FD JUMP JUMPDEST SWAP1 POP SWAP2 SWAP1 POP JUMP JUMPDEST PUSH2 0xA36 DUP2 PUSH2 0xA1C JUMP JUMPDEST DUP3 MSTORE POP POP JUMP JUMPDEST PUSH2 0xA45 DUP2 PUSH2 0x99F JUMP JUMPDEST DUP3 MSTORE POP POP JUMP JUMPDEST PUSH0 DUP2 ISZERO ISZERO SWAP1 POP SWAP2 SWAP1 POP JUMP JUMPDEST PUSH2 0xA5F DUP2 PUSH2 0xA4B JUMP JUMPDEST DUP3 MSTORE POP POP JUMP JUMPDEST PUSH0 PUSH1 0xA0 DUP3 ADD SWAP1 POP PUSH2 0xA78 PUSH0 DUP4 ADD DUP9 PUSH2 0xA2D JUMP JUMPDEST PUSH2 0xA85 PUSH1 0x20 DUP4 ADD DUP8 PUSH2 0xA3C JUMP JUMPDEST PUSH2 0xA92 PUSH1 0x40 DUP4 ADD DUP7 PUSH2 0xA3C JUMP JUMPDEST PUSH2 0xA9F PUSH1 0x60 DUP4 ADD DUP6 PUSH2 0xA3C JUMP JUMPDEST PUSH2 0xAAC PUSH1 0x80 DUP4 ADD DUP5 PUSH2 0xA56 JUMP JUMPDEST SWAP7 SWAP6 POP POP POP POP POP POP JUMP JUMPDEST PUSH0 DUP1 PUSH1 0x40 DUP4 DUP6 SUB SLT ISZERO PUSH2 0xACC JUMPI PUSH2 0xACB PUSH2 0x99B JUMP JUMPDEST JUMPDEST PUSH0 PUSH2 0xAD9 DUP6 DUP3 DUP7 ADD PUSH2 0x9BE JUMP JUMPDEST SWAP3 POP POP PUSH1 0x20 PUSH2 0xAEA DUP6 DUP3 DUP7 ADD PUSH2 0x9BE JUMP JUMPDEST SWAP2 POP POP SWAP3 POP SWAP3 SWAP1 POP JUMP JUMPDEST PUSH0 PUSH1 0x20 DUP3 ADD SWAP1 POP PUSH2 0xB07 PUSH0 DUP4 ADD DUP5 PUSH2 0xA3C JUMP JUMPDEST SWAP3 SWAP2 POP POP JUMP JUMPDEST PUSH0 DUP3 DUP3 MSTORE PUSH1 0x20 DUP3 ADD SWAP1 POP SWAP3 SWAP2 POP POP JUMP JUMPDEST PUSH32 0x43616D706169676E206973206E6F742066696E616C697A656400000000000000 PUSH0 DUP3 ADD MSTORE POP JUMP JUMPDEST PUSH0 PUSH2 0xB51 PUSH1 0x19 DUP4 PUSH2 0xB0D JUMP JUMPDEST SWAP2 POP PUSH2 0xB5C DUP3 PUSH2 0xB1D JUMP JUMPDEST PUSH1 0x20 DUP3 ADD SWAP1 POP SWAP2 SWAP1 POP JUMP JUMPDEST PUSH0 PUSH1 0x20 DUP3 ADD SWAP1 POP DUP2 DUP2 SUB PUSH0 DUP4 ADD MSTORE PUSH2 0xB7E DUP2 PUSH2 0xB45 JUMP JUMPDEST SWAP1 POP SWAP2 SWAP1 POP JUMP JUMPDEST PUSH32 0x4E6F2066756E647320746F207769746864726177000000000000000000000000 PUSH0 DUP3 ADD MSTORE POP JUMP JUMPDEST PUSH0 PUSH2 0xBB9 PUSH1 0x14 DUP4 PUSH2 0xB0D JUMP JUMPDEST SWAP2 POP PUSH2 0xBC4 DUP3 PUSH2 0xB85 JUMP JUMPDEST PUSH1 0x20 DUP3 ADD SWAP1 POP SWAP2 SWAP1 POP JUMP JUMPDEST PUSH0 PUSH1 0x20 DUP3 ADD SWAP1 POP DUP2 DUP2 SUB PUSH0 DUP4 ADD MSTORE PUSH2 0xBE6 DUP2 PUSH2 0xBAD JUMP JUMPDEST SWAP1 POP SWAP2 SWAP1 POP JUMP JUMPDEST PUSH0 PUSH1 0x60 DUP3 ADD SWAP1 POP PUSH2 0xC00 PUSH0 DUP4 ADD DUP7 PUSH2 0xA3C JUMP JUMPDEST PUSH2 0xC0D PUSH1 0x20 DUP4 ADD DUP6 PUSH2 0xA2D JUMP JUMPDEST PUSH2 0xC1A PUSH1 0x40 DUP4 ADD DUP5 PUSH2 0xA3C JUMP JUMPDEST SWAP5 SWAP4 POP POP POP POP JUMP JUMPDEST PUSH32 0x54617267657420616D6F756E74206D7573742062652067726561746572207468 PUSH0 DUP3 ADD MSTORE PUSH32 0x616E207A65726F00000000000000000000000000000000000000000000000000 PUSH1 0x20 DUP3 ADD MSTORE POP JUMP JUMPDEST PUSH0 PUSH2 0xC7C PUSH1 0x27 DUP4 PUSH2 0xB0D JUMP JUMPDEST SWAP2 POP PUSH2 0xC87 DUP3 PUSH2 0xC22 JUMP JUMPDEST PUSH1 0x40 DUP3 ADD SWAP1 POP SWAP2 SWAP1 POP JUMP JUMPDEST PUSH0 PUSH1 0x20 DUP3 ADD SWAP1 POP DUP2 DUP2 SUB PUSH0 DUP4 ADD MSTORE PUSH2 0xCA9 DUP2 PUSH2 0xC70 JUMP JUMPDEST SWAP1 POP SWAP2 SWAP1 POP JUMP JUMPDEST PUSH32 0x4475726174696F6E206D7573742062652067726561746572207468616E207A65 PUSH0 DUP3 ADD MSTORE PUSH32 0x726F000000000000000000000000000000000000000000000000000000000000 PUSH1 0x20 DUP3 ADD MSTORE POP JUMP JUMPDEST PUSH0 PUSH2 0xD0A PUSH1 0x22 DUP4 PUSH2 0xB0D JUMP JUMPDEST SWAP2 POP PUSH2 0xD15 DUP3 PUSH2 0xCB0 JUMP JUMPDEST PUSH1 0x40 DUP3 ADD SWAP1 POP SWAP2 SWAP1 POP JUMP JUMPDEST PUSH0 PUSH1 0x20 DUP3 ADD SWAP1 POP DUP2 DUP2 SUB PUSH0 DUP4 ADD MSTORE PUSH2 0xD37 DUP2 PUSH2 0xCFE JUMP JUMPDEST SWAP1 POP SWAP2 SWAP1 POP JUMP JUMPDEST PUSH32 0x4E487B7100000000000000000000000000000000000000000000000000000000 PUSH0 MSTORE PUSH1 0x11 PUSH1 0x4 MSTORE PUSH1 0x24 PUSH0 REVERT JUMPDEST PUSH0 PUSH2 0xD75 DUP3 PUSH2 0x99F JUMP JUMPDEST SWAP2 POP PUSH32 0xFFFFFFFFFFFFFFFFFFFFFFFFFFFFFFFFFFFFFFFFFFFFFFFFFFFFFFFFFFFFFFFF DUP3 SUB PUSH2 0xDA7 JUMPI PUSH2 0xDA6 PUSH2 0xD3E JUMP JUMPDEST JUMPDEST PUSH1 0x1 DUP3 ADD SWAP1 POP SWAP2 SWAP1 POP JUMP JUMPDEST PUSH0 PUSH2 0xDBC DUP3 PUSH2 0x99F JUMP JUMPDEST SWAP2 POP PUSH2 0xDC7 DUP4 PUSH2 0x99F JUMP JUMPDEST SWAP3 POP DUP3 DUP3 ADD SWAP1 POP DUP1 DUP3 GT ISZERO PUSH2 0xDDF JUMPI PUSH2 0xDDE PUSH2 0xD3E JUMP JUMPDEST JUMPDEST SWAP3 SWAP2 POP POP JUMP JUMPDEST PUSH0 PUSH1 0x80 DUP3 ADD SWAP1 POP PUSH2 0xDF8 PUSH0 DUP4 ADD DUP8 PUSH2 0xA3C JUMP JUMPDEST PUSH2 0xE05 PUSH1 0x20 DUP4 ADD DUP7 PUSH2 0xA2D JUMP JUMPDEST PUSH2 0xE12 PUSH1 0x40 DUP4 ADD DUP6 PUSH2 0xA3C JUMP JUMPDEST PUSH2 0xE1F PUSH1 0x60 DUP4 ADD DUP5 PUSH2 0xA3C JUMP JUMPDEST SWAP6 SWAP5 POP POP POP POP POP JUMP JUMPDEST PUSH32 0x4F6E6C79207468652063726561746F722063616E2066696E616C697A65207468 PUSH0 DUP3 ADD MSTORE PUSH32 0x652063616D706169676E00000000000000000000000000000000000000000000 PUSH1 0x20 DUP3 ADD MSTORE POP JUMP JUMPDEST PUSH0 PUSH2 0xE82 PUSH1 0x2A DUP4 PUSH2 0xB0D JUMP JUMPDEST SWAP2 POP PUSH2 0xE8D DUP3 PUSH2 0xE28 JUMP JUMPDEST PUSH1 0x40 DUP3 ADD SWAP1 POP SWAP2 SWAP1 POP JUMP JUMPDEST PUSH0 PUSH1 0x20 DUP3 ADD SWAP1 POP DUP2 DUP2 SUB PUSH0 DUP4 ADD MSTORE PUSH2 0xEAF DUP2 PUSH2 0xE76 JUMP JUMPDEST SWAP1 POP SWAP2 SWAP1 POP JUMP JUMPDEST PUSH32 0x43616D706169676E206973207374696C6C206F6E676F696E6700000000000000 PUSH0 DUP3 ADD MSTORE POP JUMP JUMPDEST PUSH0 PUSH2 0xEEA PUSH1 0x19 DUP4 PUSH2 0xB0D JUMP JUMPDEST SWAP2 POP PUSH2 0xEF5 DUP3 PUSH2 0xEB6 JUMP JUMPDEST PUSH1 0x20 DUP3 ADD SWAP1 POP SWAP2 SWAP1 POP JUMP JUMPDEST PUSH0 PUSH1 0x20 DUP3 ADD SWAP1 POP DUP2 DUP2 SUB PUSH0 DUP4 ADD MSTORE PUSH2 0xF17 DUP2 PUSH2 0xEDE JUMP JUMPDEST SWAP1 POP SWAP2 SWAP1 POP JUMP JUMPDEST PUSH32 0x43616D706169676E20697320616C72656164792066696E616C697A6564000000 PUSH0 DUP3 ADD MSTORE POP JUMP JUMPDEST PUSH0 PUSH2 0xF52 PUSH1 0x1D DUP4 PUSH2 0xB0D JUMP JUMPDEST SWAP2 POP PUSH2 0xF5D DUP3 PUSH2 0xF1E JUMP JUMPDEST PUSH1 0x20 DUP3 ADD SWAP1 POP SWAP2 SWAP1 POP JUMP JUMPDEST PUSH0 PUSH1 0x20 DUP3 ADD SWAP1 POP DUP2 DUP2 SUB PUSH0 DUP4 ADD MSTORE PUSH2 0xF7F DUP2 PUSH2 0xF46 JUMP JUMPDEST SWAP1 POP SWAP2 SWAP1 POP JUMP JUMPDEST PUSH0 PUSH1 0x40 DUP3 ADD SWAP1 POP PUSH2 0xF99 PUSH0 DUP4 ADD DUP6 PUSH2 0xA3C JUMP JUMPDEST PUSH2 0xFA6 PUSH1 0x20 DUP4 ADD DUP5 PUSH2 0xA56 JUMP JUMPDEST SWAP4 SWAP3 POP POP POP JUMP JUMPDEST PUSH32 0x43616D706169676E2068617320656E6465640000000000000000000000000000 PUSH0 DUP3 ADD MSTORE POP JUMP JUMPDEST PUSH0 PUSH2 0xFE1 PUSH1 0x12 DUP4 PUSH2 0xB0D JUMP JUMPDEST SWAP2 POP PUSH2 0xFEC DUP3 PUSH2 0xFAD JUMP JUMPDEST PUSH1 0x20 DUP3 ADD SWAP1 POP SWAP2 SWAP1 POP JUMP JUMPDEST PUSH0 PUSH1 0x20 DUP3 ADD SWAP1 POP DUP2 DUP2 SUB PUSH0 DUP4 ADD MSTORE PUSH2 0x100E DUP2 PUSH2 0xFD5 JUMP JUMPDEST SWAP1 POP SWAP2 SWAP1 POP JUMP JUMPDEST PUSH32 0x436F6E747269627574696F6E206D757374206265206772656174657220746861 PUSH0 DUP3 ADD MSTORE PUSH32 0x6E207A65726F0000000000000000000000000000000000000000000000000000 PUSH1 0x20 DUP3 ADD MSTORE POP JUMP JUMPDEST PUSH0 PUSH2 0x106F PUSH1 0x26 DUP4 PUSH2 0xB0D JUMP JUMPDEST SWAP2 POP PUSH2 0x107A DUP3 PUSH2 0x1015 JUMP JUMPDEST PUSH1 0x40 DUP3 ADD SWAP1 POP SWAP2 SWAP1 POP JUMP JUMPDEST PUSH0 PUSH1 0x20 DUP3 ADD SWAP1 POP DUP2 DUP2 SUB PUSH0 DUP4 ADD MSTORE PUSH2 0x109C DUP2 PUSH2 0x1063 JUMP JUMPDEST SWAP1 POP SWAP2 SWAP1 POP JUMP JUMPDEST PUSH32 0x43616D706169676E2069732066696E616C697A65640000000000000000000000 PUSH0 DUP3 ADD MSTORE POP JUMP JUMPDEST PUSH0 PUSH2 0x10D7 PUSH1 0x15 DUP4 PUSH2 0xB0D JUMP JUMPDEST SWAP2 POP PUSH2 0x10E2 DUP3 PUSH2 0x10A3 JUMP JUMPDEST PUSH1 0x20 DUP3 ADD SWAP1 POP SWAP2 SWAP1 POP JUMP JUMPDEST PUSH0 PUSH1 0x20 DUP3 ADD SWAP1 POP DUP2 DUP2 SUB PUSH0 DUP4 ADD MSTORE PUSH2 0x1104 DUP2 PUSH2 0x10CB JUMP JUMPDEST SWAP1 POP SWAP2 SWAP1 POP JUMP INVALID LOG2 PUSH5 0x6970667358 0x22 SLT KECCAK256 RETURN MLOAD 0xCF BLOCKHASH 0xAE MULMOD DIV CALLVALUE 0xEE 0xF9 MUL 0xB7 JUMP 0xD2 XOR 0xD0 DUP3 0x27 0xC5 LOG0 0x4D 0xCA 0x21 0xA5 0xCD 0xDF SWAP8 0xDC MSTORE8 POP PUSH19 0x5264736F6C634300081A003300000000000000 "
				},
				"gasEstimates": {
					"creation": {
						"codeDepositCost": "883400",
						"executionCost": "920",
						"totalCost": "884320"
					},
					"external": {
						"campaignCount()": "2469",
						"campaigns(uint256)": "infinite",
						"contribute(uint256)": "infinite",
						"createCampaign(uint256,uint256)": "infinite",
						"finalizeCampaign(uint256)": "infinite",
						"getCampaign(uint256)": "infinite",
						"withdrawFunds(uint256)": "infinite"
					}
				},
				"methodIdentifiers": {
					"campaignCount()": "7274e30d",
					"campaigns(uint256)": "141961bc",
					"contribute(uint256)": "c1cbbca7",
					"createCampaign(uint256,uint256)": "22502268",
					"finalizeCampaign(uint256)": "6b5ca27d",
					"getCampaign(uint256)": "5598f8cc",
					"withdrawFunds(uint256)": "155dd5ee"
				}
			},
			"storageLayout": {
				"storage": [
					{
						"astId": 21,
						"contract": "Assignment5/q1.sol:Crowdfunding",
						"label": "campaigns",
						"offset": 0,
						"slot": "0",
						"type": "t_mapping(t_uint256,t_struct(Campaign)16_storage)"
					},
					{
						"astId": 23,
						"contract": "Assignment5/q1.sol:Crowdfunding",
						"label": "campaignCount",
						"offset": 0,
						"slot": "1",
						"type": "t_uint256"
					}
				],
				"types": {
					"t_address": {
						"encoding": "inplace",
						"label": "address",
						"numberOfBytes": "20"
					},
					"t_bool": {
						"encoding": "inplace",
						"label": "bool",
						"numberOfBytes": "1"
					},
					"t_mapping(t_address,t_uint256)": {
						"encoding": "mapping",
						"key": "t_address",
						"label": "mapping(address => uint256)",
						"numberOfBytes": "32",
						"value": "t_uint256"
					},
					"t_mapping(t_uint256,t_struct(Campaign)16_storage)": {
						"encoding": "mapping",
						"key": "t_uint256",
						"label": "mapping(uint256 => struct Crowdfunding.Campaign)",
						"numberOfBytes": "32",
						"value": "t_struct(Campaign)16_storage"
					},
					"t_struct(Campaign)16_storage": {
						"encoding": "inplace",
						"label": "struct Crowdfunding.Campaign",
						"members": [
							{
								"astId": 3,
								"contract": "Assignment5/q1.sol:Crowdfunding",
								"label": "creator",
								"offset": 0,
								"slot": "0",
								"type": "t_address"
							},
							{
								"astId": 5,
								"contract": "Assignment5/q1.sol:Crowdfunding",
								"label": "targetAmount",
								"offset": 0,
								"slot": "1",
								"type": "t_uint256"
							},
							{
								"astId": 7,
								"contract": "Assignment5/q1.sol:Crowdfunding",
								"label": "deadline",
								"offset": 0,
								"slot": "2",
								"type": "t_uint256"
							},
							{
								"astId": 9,
								"contract": "Assignment5/q1.sol:Crowdfunding",
								"label": "totalContributions",
								"offset": 0,
								"slot": "3",
								"type": "t_uint256"
							},
							{
								"astId": 11,
								"contract": "Assignment5/q1.sol:Crowdfunding",
								"label": "finalized",
								"offset": 0,
								"slot": "4",
								"type": "t_bool"
							},
							{
								"astId": 15,
								"contract": "Assignment5/q1.sol:Crowdfunding",
								"label": "contributions",
								"offset": 0,
								"slot": "5",
								"type": "t_mapping(t_address,t_uint256)"
							}
						],
						"numberOfBytes": "192"
					},
					"t_uint256": {
						"encoding": "inplace",
						"label": "uint256",
						"numberOfBytes": "32"
					}
				}
			},
			"userdoc": {
				"kind": "user",
				"methods": {},
				"version": 1
			}
		}
	}
}