{
	"data": {
		"bytecode": {
			"linkReferences": {},
			"object": "6080604052348015600e575f80fd5b506109ea8061001c5f395ff3fe608060405234801561000f575f80fd5b5060043610610029575f3560e01c8063b068e1a81461002d575b5f80fd5b610047600480360381019061004291906105b8565b61005e565b604051610055929190610667565b60405180910390f35b5f805f5b83811015610139575f8661007583610149565b6040516020016100869291906106e0565b60405160208183030381529060405290505f6002826040516020016100ab9190610703565b6040516020818303038152906040526040516100c7919061075d565b602060405180830381855afa1580156100e2573d5f803e3d5ffd5b5050506040513d601f19601f82011682018060405250810190610105919061079d565b905061011181886102c2565b1561012457828194509450505050610141565b828061012f906107f5565b9350505050610062565b5f8092509250505b935093915050565b60605f820361018f576040518060400160405280600181526020017f300000000000000000000000000000000000000000000000000000000000000081525090506102bd565b5f8290505f5b5f82146101be5780806101a7906107f5565b915050600a826101b79190610869565b9150610195565b5f8167ffffffffffffffff8111156101d9576101d86103c3565b5b6040519080825280601f01601f19166020018201604052801561020b5781602001600182028036833780820191505090505b5090505f8290505b5f86146102b5576001816102279190610899565b90505f600a80886102389190610869565b61024291906108cc565b8761024d9190610899565b60306102599190610919565b90508060f81b8383815181106102725761027161094d565b5b60200101907effffffffffffffffffffffffffffffffffffffffffffffffffffffffffffff191690815f1a905350600a876102ad9190610869565b965050610213565b819450505050505b919050565b5f80836040516020016102d5919061099a565b60405160208183030381529060405290505f5b835181101561038d578381815181106103045761030361094d565b5b602001015160f81c60f81b7effffffffffffffffffffffffffffffffffffffffffffffffffffffffffffff19168282815181106103445761034361094d565b5b602001015160f81c60f81b7effffffffffffffffffffffffffffffffffffffffffffffffffffffffffffff191614610380575f92505050610394565b80806001019150506102e8565b5060019150505b92915050565b5f604051905090565b5f80fd5b5f80fd5b5f80fd5b5f80fd5b5f601f19601f8301169050919050565b7f4e487b71000000000000000000000000000000000000000000000000000000005f52604160045260245ffd5b6103f9826103b3565b810181811067ffffffffffffffff82111715610418576104176103c3565b5b80604052505050565b5f61042a61039a565b905061043682826103f0565b919050565b5f67ffffffffffffffff821115610455576104546103c3565b5b61045e826103b3565b9050602081019050919050565b828183375f83830152505050565b5f61048b6104868461043b565b610421565b9050828152602081018484840111156104a7576104a66103af565b5b6104b284828561046b565b509392505050565b5f82601f8301126104ce576104cd6103ab565b5b81356104de848260208601610479565b91505092915050565b5f67ffffffffffffffff821115610501576105006103c3565b5b61050a826103b3565b9050602081019050919050565b5f610529610524846104e7565b610421565b905082815260208101848484011115610545576105446103af565b5b61055084828561046b565b509392505050565b5f82601f83011261056c5761056b6103ab565b5b813561057c848260208601610517565b91505092915050565b5f819050919050565b61059781610585565b81146105a1575f80fd5b50565b5f813590506105b28161058e565b92915050565b5f805f606084860312156105cf576105ce6103a3565b5b5f84013567ffffffffffffffff8111156105ec576105eb6103a7565b5b6105f8868287016104ba565b935050602084013567ffffffffffffffff811115610619576106186103a7565b5b61062586828701610558565b9250506040610636868287016105a4565b9150509250925092565b61064981610585565b82525050565b5f819050919050565b6106618161064f565b82525050565b5f60408201905061067a5f830185610640565b6106876020830184610658565b9392505050565b5f81519050919050565b5f81905092915050565b8281835e5f83830152505050565b5f6106ba8261068e565b6106c48185610698565b93506106d48185602086016106a2565b80840191505092915050565b5f6106eb82856106b0565b91506106f782846106b0565b91508190509392505050565b5f61070e82846106b0565b915081905092915050565b5f81519050919050565b5f81905092915050565b5f61073782610719565b6107418185610723565b93506107518185602086016106a2565b80840191505092915050565b5f610768828461072d565b915081905092915050565b61077c8161064f565b8114610786575f80fd5b50565b5f8151905061079781610773565b92915050565b5f602082840312156107b2576107b16103a3565b5b5f6107bf84828501610789565b91505092915050565b7f4e487b71000000000000000000000000000000000000000000000000000000005f52601160045260245ffd5b5f6107ff82610585565b91507fffffffffffffffffffffffffffffffffffffffffffffffffffffffffffffffff8203610831576108306107c8565b5b600182019050919050565b7f4e487b71000000000000000000000000000000000000000000000000000000005f52601260045260245ffd5b5f61087382610585565b915061087e83610585565b92508261088e5761088d61083c565b5b828204905092915050565b5f6108a382610585565b91506108ae83610585565b92508282039050818111156108c6576108c56107c8565b5b92915050565b5f6108d682610585565b91506108e183610585565b92508282026108ef81610585565b91508282048414831517610906576109056107c8565b5b5092915050565b5f60ff82169050919050565b5f6109238261090d565b915061092e8361090d565b9250828201905060ff811115610947576109466107c8565b5b92915050565b7f4e487b71000000000000000000000000000000000000000000000000000000005f52603260045260245ffd5b5f819050919050565b61099461098f8261064f565b61097a565b82525050565b5f6109a58284610983565b6020820191508190509291505056fea264697066735822122040e914ed504fd1f2f2ad54090b082ff0e92bc6d6e15d055b411039f8fb8b87c264736f6c634300081a0033",
			"opcodes": "PUSH1 0x80 PUSH1 0x40 MSTORE CALLVALUE DUP1 ISZERO PUSH1 0xE JUMPI PUSH0 DUP1 REVERT JUMPDEST POP PUSH2 0x9EA DUP1 PUSH2 0x1C PUSH0 CODECOPY PUSH0 RETURN INVALID PUSH1 0x80 PUSH1 0x40 MSTORE CALLVALUE DUP1 ISZERO PUSH2 0xF JUMPI PUSH0 DUP1 REVERT JUMPDEST POP PUSH1 0x4 CALLDATASIZE LT PUSH2 0x29 JUMPI PUSH0 CALLDATALOAD PUSH1 0xE0 SHR DUP1 PUSH4 0xB068E1A8 EQ PUSH2 0x2D JUMPI JUMPDEST PUSH0 DUP1 REVERT JUMPDEST PUSH2 0x47 PUSH1 0x4 DUP1 CALLDATASIZE SUB DUP2 ADD SWAP1 PUSH2 0x42 SWAP2 SWAP1 PUSH2 0x5B8 JUMP JUMPDEST PUSH2 0x5E JUMP JUMPDEST PUSH1 0x40 MLOAD PUSH2 0x55 SWAP3 SWAP2 SWAP1 PUSH2 0x667 JUMP JUMPDEST PUSH1 0x40 MLOAD DUP1 SWAP2 SUB SWAP1 RETURN JUMPDEST PUSH0 DUP1 PUSH0 JUMPDEST DUP4 DUP2 LT ISZERO PUSH2 0x139 JUMPI PUSH0 DUP7 PUSH2 0x75 DUP4 PUSH2 0x149 JUMP JUMPDEST PUSH1 0x40 MLOAD PUSH1 0x20 ADD PUSH2 0x86 SWAP3 SWAP2 SWAP1 PUSH2 0x6E0 JUMP JUMPDEST PUSH1 0x40 MLOAD PUSH1 0x20 DUP2 DUP4 SUB SUB DUP2 MSTORE SWAP1 PUSH1 0x40 MSTORE SWAP1 POP PUSH0 PUSH1 0x2 DUP3 PUSH1 0x40 MLOAD PUSH1 0x20 ADD PUSH2 0xAB SWAP2 SWAP1 PUSH2 0x703 JUMP JUMPDEST PUSH1 0x40 MLOAD PUSH1 0x20 DUP2 DUP4 SUB SUB DUP2 MSTORE SWAP1 PUSH1 0x40 MSTORE PUSH1 0x40 MLOAD PUSH2 0xC7 SWAP2 SWAP1 PUSH2 0x75D JUMP JUMPDEST PUSH1 0x20 PUSH1 0x40 MLOAD DUP1 DUP4 SUB DUP2 DUP6 GAS STATICCALL ISZERO DUP1 ISZERO PUSH2 0xE2 JUMPI RETURNDATASIZE PUSH0 DUP1 RETURNDATACOPY RETURNDATASIZE PUSH0 REVERT JUMPDEST POP POP POP PUSH1 0x40 MLOAD RETURNDATASIZE PUSH1 0x1F NOT PUSH1 0x1F DUP3 ADD AND DUP3 ADD DUP1 PUSH1 0x40 MSTORE POP DUP2 ADD SWAP1 PUSH2 0x105 SWAP2 SWAP1 PUSH2 0x79D JUMP JUMPDEST SWAP1 POP PUSH2 0x111 DUP2 DUP9 PUSH2 0x2C2 JUMP JUMPDEST ISZERO PUSH2 0x124 JUMPI DUP3 DUP2 SWAP5 POP SWAP5 POP POP POP POP PUSH2 0x141 JUMP JUMPDEST DUP3 DUP1 PUSH2 0x12F SWAP1 PUSH2 0x7F5 JUMP JUMPDEST SWAP4 POP POP POP POP PUSH2 0x62 JUMP JUMPDEST PUSH0 DUP1 SWAP3 POP SWAP3 POP POP JUMPDEST SWAP4 POP SWAP4 SWAP2 POP POP JUMP JUMPDEST PUSH1 0x60 PUSH0 DUP3 SUB PUSH2 0x18F JUMPI PUSH1 0x40 MLOAD DUP1 PUSH1 0x40 ADD PUSH1 0x40 MSTORE DUP1 PUSH1 0x1 DUP2 MSTORE PUSH1 0x20 ADD PUSH32 0x3000000000000000000000000000000000000000000000000000000000000000 DUP2 MSTORE POP SWAP1 POP PUSH2 0x2BD JUMP JUMPDEST PUSH0 DUP3 SWAP1 POP PUSH0 JUMPDEST PUSH0 DUP3 EQ PUSH2 0x1BE JUMPI DUP1 DUP1 PUSH2 0x1A7 SWAP1 PUSH2 0x7F5 JUMP JUMPDEST SWAP2 POP POP PUSH1 0xA DUP3 PUSH2 0x1B7 SWAP2 SWAP1 PUSH2 0x869 JUMP JUMPDEST SWAP2 POP PUSH2 0x195 JUMP JUMPDEST PUSH0 DUP2 PUSH8 0xFFFFFFFFFFFFFFFF DUP2 GT ISZERO PUSH2 0x1D9 JUMPI PUSH2 0x1D8 PUSH2 0x3C3 JUMP JUMPDEST JUMPDEST PUSH1 0x40 MLOAD SWAP1 DUP1 DUP3 MSTORE DUP1 PUSH1 0x1F ADD PUSH1 0x1F NOT AND PUSH1 0x20 ADD DUP3 ADD PUSH1 0x40 MSTORE DUP1 ISZERO PUSH2 0x20B JUMPI DUP2 PUSH1 0x20 ADD PUSH1 0x1 DUP3 MUL DUP1 CALLDATASIZE DUP4 CALLDATACOPY DUP1 DUP3 ADD SWAP2 POP POP SWAP1 POP JUMPDEST POP SWAP1 POP PUSH0 DUP3 SWAP1 POP JUMPDEST PUSH0 DUP7 EQ PUSH2 0x2B5 JUMPI PUSH1 0x1 DUP2 PUSH2 0x227 SWAP2 SWAP1 PUSH2 0x899 JUMP JUMPDEST SWAP1 POP PUSH0 PUSH1 0xA DUP1 DUP9 PUSH2 0x238 SWAP2 SWAP1 PUSH2 0x869 JUMP JUMPDEST PUSH2 0x242 SWAP2 SWAP1 PUSH2 0x8CC JUMP JUMPDEST DUP8 PUSH2 0x24D SWAP2 SWAP1 PUSH2 0x899 JUMP JUMPDEST PUSH1 0x30 PUSH2 0x259 SWAP2 SWAP1 PUSH2 0x919 JUMP JUMPDEST SWAP1 POP DUP1 PUSH1 0xF8 SHL DUP4 DUP4 DUP2 MLOAD DUP2 LT PUSH2 0x272 JUMPI PUSH2 0x271 PUSH2 0x94D JUMP JUMPDEST JUMPDEST PUSH1 0x20 ADD ADD SWAP1 PUSH31 0xFFFFFFFFFFFFFFFFFFFFFFFFFFFFFFFFFFFFFFFFFFFFFFFFFFFFFFFFFFFFFF NOT AND SWAP1 DUP2 PUSH0 BYTE SWAP1 MSTORE8 POP PUSH1 0xA DUP8 PUSH2 0x2AD SWAP2 SWAP1 PUSH2 0x869 JUMP JUMPDEST SWAP7 POP POP PUSH2 0x213 JUMP JUMPDEST DUP2 SWAP5 POP POP POP POP POP JUMPDEST SWAP2 SWAP1 POP JUMP JUMPDEST PUSH0 DUP1 DUP4 PUSH1 0x40 MLOAD PUSH1 0x20 ADD PUSH2 0x2D5 SWAP2 SWAP1 PUSH2 0x99A JUMP JUMPDEST PUSH1 0x40 MLOAD PUSH1 0x20 DUP2 DUP4 SUB SUB DUP2 MSTORE SWAP1 PUSH1 0x40 MSTORE SWAP1 POP PUSH0 JUMPDEST DUP4 MLOAD DUP2 LT ISZERO PUSH2 0x38D JUMPI DUP4 DUP2 DUP2 MLOAD DUP2 LT PUSH2 0x304 JUMPI PUSH2 0x303 PUSH2 0x94D JUMP JUMPDEST JUMPDEST PUSH1 0x20 ADD ADD MLOAD PUSH1 0xF8 SHR PUSH1 0xF8 SHL PUSH31 0xFFFFFFFFFFFFFFFFFFFFFFFFFFFFFFFFFFFFFFFFFFFFFFFFFFFFFFFFFFFFFF NOT AND DUP3 DUP3 DUP2 MLOAD DUP2 LT PUSH2 0x344 JUMPI PUSH2 0x343 PUSH2 0x94D JUMP JUMPDEST JUMPDEST PUSH1 0x20 ADD ADD MLOAD PUSH1 0xF8 SHR PUSH1 0xF8 SHL PUSH31 0xFFFFFFFFFFFFFFFFFFFFFFFFFFFFFFFFFFFFFFFFFFFFFFFFFFFFFFFFFFFFFF NOT AND EQ PUSH2 0x380 JUMPI PUSH0 SWAP3 POP POP POP PUSH2 0x394 JUMP JUMPDEST DUP1 DUP1 PUSH1 0x1 ADD SWAP2 POP POP PUSH2 0x2E8 JUMP JUMPDEST POP PUSH1 0x1 SWAP2 POP POP JUMPDEST SWAP3 SWAP2 POP POP JUMP JUMPDEST PUSH0 PUSH1 0x40 MLOAD SWAP1 POP SWAP1 JUMP JUMPDEST PUSH0 DUP1 REVERT JUMPDEST PUSH0 DUP1 REVERT JUMPDEST PUSH0 DUP1 REVERT JUMPDEST PUSH0 DUP1 REVERT JUMPDEST PUSH0 PUSH1 0x1F NOT PUSH1 0x1F DUP4 ADD AND SWAP1 POP SWAP2 SWAP1 POP JUMP JUMPDEST PUSH32 0x4E487B7100000000000000000000000000000000000000000000000000000000 PUSH0 MSTORE PUSH1 0x41 PUSH1 0x4 MSTORE PUSH1 0x24 PUSH0 REVERT JUMPDEST PUSH2 0x3F9 DUP3 PUSH2 0x3B3 JUMP JUMPDEST DUP2 ADD DUP2 DUP2 LT PUSH8 0xFFFFFFFFFFFFFFFF DUP3 GT OR ISZERO PUSH2 0x418 JUMPI PUSH2 0x417 PUSH2 0x3C3 JUMP JUMPDEST JUMPDEST DUP1 PUSH1 0x40 MSTORE POP POP POP JUMP JUMPDEST PUSH0 PUSH2 0x42A PUSH2 0x39A JUMP JUMPDEST SWAP1 POP PUSH2 0x436 DUP3 DUP3 PUSH2 0x3F0 JUMP JUMPDEST SWAP2 SWAP1 POP JUMP JUMPDEST PUSH0 PUSH8 0xFFFFFFFFFFFFFFFF DUP3 GT ISZERO PUSH2 0x455 JUMPI PUSH2 0x454 PUSH2 0x3C3 JUMP JUMPDEST JUMPDEST PUSH2 0x45E DUP3 PUSH2 0x3B3 JUMP JUMPDEST SWAP1 POP PUSH1 0x20 DUP2 ADD SWAP1 POP SWAP2 SWAP1 POP JUMP JUMPDEST DUP3 DUP2 DUP4 CALLDATACOPY PUSH0 DUP4 DUP4 ADD MSTORE POP POP POP JUMP JUMPDEST PUSH0 PUSH2 0x48B PUSH2 0x486 DUP5 PUSH2 0x43B JUMP JUMPDEST PUSH2 0x421 JUMP JUMPDEST SWAP1 POP DUP3 DUP2 MSTORE PUSH1 0x20 DUP2 ADD DUP5 DUP5 DUP5 ADD GT ISZERO PUSH2 0x4A7 JUMPI PUSH2 0x4A6 PUSH2 0x3AF JUMP JUMPDEST JUMPDEST PUSH2 0x4B2 DUP5 DUP3 DUP6 PUSH2 0x46B JUMP JUMPDEST POP SWAP4 SWAP3 POP POP POP JUMP JUMPDEST PUSH0 DUP3 PUSH1 0x1F DUP4 ADD SLT PUSH2 0x4CE JUMPI PUSH2 0x4CD PUSH2 0x3AB JUMP JUMPDEST JUMPDEST DUP2 CALLDATALOAD PUSH2 0x4DE DUP5 DUP3 PUSH1 0x20 DUP7 ADD PUSH2 0x479 JUMP JUMPDEST SWAP2 POP POP SWAP3 SWAP2 POP POP JUMP JUMPDEST PUSH0 PUSH8 0xFFFFFFFFFFFFFFFF DUP3 GT ISZERO PUSH2 0x501 JUMPI PUSH2 0x500 PUSH2 0x3C3 JUMP JUMPDEST JUMPDEST PUSH2 0x50A DUP3 PUSH2 0x3B3 JUMP JUMPDEST SWAP1 POP PUSH1 0x20 DUP2 ADD SWAP1 POP SWAP2 SWAP1 POP JUMP JUMPDEST PUSH0 PUSH2 0x529 PUSH2 0x524 DUP5 PUSH2 0x4E7 JUMP JUMPDEST PUSH2 0x421 JUMP JUMPDEST SWAP1 POP DUP3 DUP2 MSTORE PUSH1 0x20 DUP2 ADD DUP5 DUP5 DUP5 ADD GT ISZERO PUSH2 0x545 JUMPI PUSH2 0x544 PUSH2 0x3AF JUMP JUMPDEST JUMPDEST PUSH2 0x550 DUP5 DUP3 DUP6 PUSH2 0x46B JUMP JUMPDEST POP SWAP4 SWAP3 POP POP POP JUMP JUMPDEST PUSH0 DUP3 PUSH1 0x1F DUP4 ADD SLT PUSH2 0x56C JUMPI PUSH2 0x56B PUSH2 0x3AB JUMP JUMPDEST JUMPDEST DUP2 CALLDATALOAD PUSH2 0x57C DUP5 DUP3 PUSH1 0x20 DUP7 ADD PUSH2 0x517 JUMP JUMPDEST SWAP2 POP POP SWAP3 SWAP2 POP POP JUMP JUMPDEST PUSH0 DUP2 SWAP1 POP SWAP2 SWAP1 POP JUMP JUMPDEST PUSH2 0x597 DUP2 PUSH2 0x585 JUMP JUMPDEST DUP2 EQ PUSH2 0x5A1 JUMPI PUSH0 DUP1 REVERT JUMPDEST POP JUMP JUMPDEST PUSH0 DUP2 CALLDATALOAD SWAP1 POP PUSH2 0x5B2 DUP2 PUSH2 0x58E JUMP JUMPDEST SWAP3 SWAP2 POP POP JUMP JUMPDEST PUSH0 DUP1 PUSH0 PUSH1 0x60 DUP5 DUP7 SUB SLT ISZERO PUSH2 0x5CF JUMPI PUSH2 0x5CE PUSH2 0x3A3 JUMP JUMPDEST JUMPDEST PUSH0 DUP5 ADD CALLDATALOAD PUSH8 0xFFFFFFFFFFFFFFFF DUP2 GT ISZERO PUSH2 0x5EC JUMPI PUSH2 0x5EB PUSH2 0x3A7 JUMP JUMPDEST JUMPDEST PUSH2 0x5F8 DUP7 DUP3 DUP8 ADD PUSH2 0x4BA JUMP JUMPDEST SWAP4 POP POP PUSH1 0x20 DUP5 ADD CALLDATALOAD PUSH8 0xFFFFFFFFFFFFFFFF DUP2 GT ISZERO PUSH2 0x619 JUMPI PUSH2 0x618 PUSH2 0x3A7 JUMP JUMPDEST JUMPDEST PUSH2 0x625 DUP7 DUP3 DUP8 ADD PUSH2 0x558 JUMP JUMPDEST SWAP3 POP POP PUSH1 0x40 PUSH2 0x636 DUP7 DUP3 DUP8 ADD PUSH2 0x5A4 JUMP JUMPDEST SWAP2 POP POP SWAP3 POP SWAP3 POP SWAP3 JUMP JUMPDEST PUSH2 0x649 DUP2 PUSH2 0x585 JUMP JUMPDEST DUP3 MSTORE POP POP JUMP JUMPDEST PUSH0 DUP2 SWAP1 POP SWAP2 SWAP1 POP JUMP JUMPDEST PUSH2 0x661 DUP2 PUSH2 0x64F JUMP JUMPDEST DUP3 MSTORE POP POP JUMP JUMPDEST PUSH0 PUSH1 0x40 DUP3 ADD SWAP1 POP PUSH2 0x67A PUSH0 DUP4 ADD DUP6 PUSH2 0x640 JUMP JUMPDEST PUSH2 0x687 PUSH1 0x20 DUP4 ADD DUP5 PUSH2 0x658 JUMP JUMPDEST SWAP4 SWAP3 POP POP POP JUMP JUMPDEST PUSH0 DUP2 MLOAD SWAP1 POP SWAP2 SWAP1 POP JUMP JUMPDEST PUSH0 DUP2 SWAP1 POP SWAP3 SWAP2 POP POP JUMP JUMPDEST DUP3 DUP2 DUP4 MCOPY PUSH0 DUP4 DUP4 ADD MSTORE POP POP POP JUMP JUMPDEST PUSH0 PUSH2 0x6BA DUP3 PUSH2 0x68E JUMP JUMPDEST PUSH2 0x6C4 DUP2 DUP6 PUSH2 0x698 JUMP JUMPDEST SWAP4 POP PUSH2 0x6D4 DUP2 DUP6 PUSH1 0x20 DUP7 ADD PUSH2 0x6A2 JUMP JUMPDEST DUP1 DUP5 ADD SWAP2 POP POP SWAP3 SWAP2 POP POP JUMP JUMPDEST PUSH0 PUSH2 0x6EB DUP3 DUP6 PUSH2 0x6B0 JUMP JUMPDEST SWAP2 POP PUSH2 0x6F7 DUP3 DUP5 PUSH2 0x6B0 JUMP JUMPDEST SWAP2 POP DUP2 SWAP1 POP SWAP4 SWAP3 POP POP POP JUMP JUMPDEST PUSH0 PUSH2 0x70E DUP3 DUP5 PUSH2 0x6B0 JUMP JUMPDEST SWAP2 POP DUP2 SWAP1 POP SWAP3 SWAP2 POP POP JUMP JUMPDEST PUSH0 DUP2 MLOAD SWAP1 POP SWAP2 SWAP1 POP JUMP JUMPDEST PUSH0 DUP2 SWAP1 POP SWAP3 SWAP2 POP POP JUMP JUMPDEST PUSH0 PUSH2 0x737 DUP3 PUSH2 0x719 JUMP JUMPDEST PUSH2 0x741 DUP2 DUP6 PUSH2 0x723 JUMP JUMPDEST SWAP4 POP PUSH2 0x751 DUP2 DUP6 PUSH1 0x20 DUP7 ADD PUSH2 0x6A2 JUMP JUMPDEST DUP1 DUP5 ADD SWAP2 POP POP SWAP3 SWAP2 POP POP JUMP JUMPDEST PUSH0 PUSH2 0x768 DUP3 DUP5 PUSH2 0x72D JUMP JUMPDEST SWAP2 POP DUP2 SWAP1 POP SWAP3 SWAP2 POP POP JUMP JUMPDEST PUSH2 0x77C DUP2 PUSH2 0x64F JUMP JUMPDEST DUP2 EQ PUSH2 0x786 JUMPI PUSH0 DUP1 REVERT JUMPDEST POP JUMP JUMPDEST PUSH0 DUP2 MLOAD SWAP1 POP PUSH2 0x797 DUP2 PUSH2 0x773 JUMP JUMPDEST SWAP3 SWAP2 POP POP JUMP JUMPDEST PUSH0 PUSH1 0x20 DUP3 DUP5 SUB SLT ISZERO PUSH2 0x7B2 JUMPI PUSH2 0x7B1 PUSH2 0x3A3 JUMP JUMPDEST JUMPDEST PUSH0 PUSH2 0x7BF DUP5 DUP3 DUP6 ADD PUSH2 0x789 JUMP JUMPDEST SWAP2 POP POP SWAP3 SWAP2 POP POP JUMP JUMPDEST PUSH32 0x4E487B7100000000000000000000000000000000000000000000000000000000 PUSH0 MSTORE PUSH1 0x11 PUSH1 0x4 MSTORE PUSH1 0x24 PUSH0 REVERT JUMPDEST PUSH0 PUSH2 0x7FF DUP3 PUSH2 0x585 JUMP JUMPDEST SWAP2 POP PUSH32 0xFFFFFFFFFFFFFFFFFFFFFFFFFFFFFFFFFFFFFFFFFFFFFFFFFFFFFFFFFFFFFFFF DUP3 SUB PUSH2 0x831 JUMPI PUSH2 0x830 PUSH2 0x7C8 JUMP JUMPDEST JUMPDEST PUSH1 0x1 DUP3 ADD SWAP1 POP SWAP2 SWAP1 POP JUMP JUMPDEST PUSH32 0x4E487B7100000000000000000000000000000000000000000000000000000000 PUSH0 MSTORE PUSH1 0x12 PUSH1 0x4 MSTORE PUSH1 0x24 PUSH0 REVERT JUMPDEST PUSH0 PUSH2 0x873 DUP3 PUSH2 0x585 JUMP JUMPDEST SWAP2 POP PUSH2 0x87E DUP4 PUSH2 0x585 JUMP JUMPDEST SWAP3 POP DUP3 PUSH2 0x88E JUMPI PUSH2 0x88D PUSH2 0x83C JUMP JUMPDEST JUMPDEST DUP3 DUP3 DIV SWAP1 POP SWAP3 SWAP2 POP POP JUMP JUMPDEST PUSH0 PUSH2 0x8A3 DUP3 PUSH2 0x585 JUMP JUMPDEST SWAP2 POP PUSH2 0x8AE DUP4 PUSH2 0x585 JUMP JUMPDEST SWAP3 POP DUP3 DUP3 SUB SWAP1 POP DUP2 DUP2 GT ISZERO PUSH2 0x8C6 JUMPI PUSH2 0x8C5 PUSH2 0x7C8 JUMP JUMPDEST JUMPDEST SWAP3 SWAP2 POP POP JUMP JUMPDEST PUSH0 PUSH2 0x8D6 DUP3 PUSH2 0x585 JUMP JUMPDEST SWAP2 POP PUSH2 0x8E1 DUP4 PUSH2 0x585 JUMP JUMPDEST SWAP3 POP DUP3 DUP3 MUL PUSH2 0x8EF DUP2 PUSH2 0x585 JUMP JUMPDEST SWAP2 POP DUP3 DUP3 DIV DUP5 EQ DUP4 ISZERO OR PUSH2 0x906 JUMPI PUSH2 0x905 PUSH2 0x7C8 JUMP JUMPDEST JUMPDEST POP SWAP3 SWAP2 POP POP JUMP JUMPDEST PUSH0 PUSH1 0xFF DUP3 AND SWAP1 POP SWAP2 SWAP1 POP JUMP JUMPDEST PUSH0 PUSH2 0x923 DUP3 PUSH2 0x90D JUMP JUMPDEST SWAP2 POP PUSH2 0x92E DUP4 PUSH2 0x90D JUMP JUMPDEST SWAP3 POP DUP3 DUP3 ADD SWAP1 POP PUSH1 0xFF DUP2 GT ISZERO PUSH2 0x947 JUMPI PUSH2 0x946 PUSH2 0x7C8 JUMP JUMPDEST JUMPDEST SWAP3 SWAP2 POP POP JUMP JUMPDEST PUSH32 0x4E487B7100000000000000000000000000000000000000000000000000000000 PUSH0 MSTORE PUSH1 0x32 PUSH1 0x4 MSTORE PUSH1 0x24 PUSH0 REVERT JUMPDEST PUSH0 DUP2 SWAP1 POP SWAP2 SWAP1 POP JUMP JUMPDEST PUSH2 0x994 PUSH2 0x98F DUP3 PUSH2 0x64F JUMP JUMPDEST PUSH2 0x97A JUMP JUMPDEST DUP3 MSTORE POP POP JUMP JUMPDEST PUSH0 PUSH2 0x9A5 DUP3 DUP5 PUSH2 0x983 JUMP JUMPDEST PUSH1 0x20 DUP3 ADD SWAP2 POP DUP2 SWAP1 POP SWAP3 SWAP2 POP POP JUMP INVALID LOG2 PUSH5 0x6970667358 0x22 SLT KECCAK256 BLOCKHASH 0xE9 EQ 0xED POP 0x4F 0xD1 CALLCODE CALLCODE 0xAD SLOAD MULMOD SIGNEXTEND ADDMOD 0x2F CREATE 0xE9 0x2B 0xC6 0xD6 0xE1 TSTORE SDIV JUMPDEST COINBASE LT CODECOPY 0xF8 0xFB DUP12 DUP8 0xC2 PUSH5 0x736F6C6343 STOP ADDMOD BYTE STOP CALLER "
		},
		"gasEstimates": {
			"creation": {
				"codeDepositCost": "507600",
				"executionCost": "541",
				"totalCost": "508141"
			},
			"external": {
				"findNonce(string,bytes,uint256)": "infinite"
			},
			"internal": {
				"startsWith(bytes32,bytes memory)": "infinite",
				"uint2str(uint256)": "infinite"
			}
		},
		"methodIdentifiers": {
			"findNonce(string,bytes,uint256)": "b068e1a8"
		}
	},
	"abi": [
		{
			"inputs": [
				{
					"internalType": "string",
					"name": "inputStr",
					"type": "string"
				},
				{
					"internalType": "bytes",
					"name": "prefix",
					"type": "bytes"
				},
				{
					"internalType": "uint256",
					"name": "maxIterations",
					"type": "uint256"
				}
			],
			"name": "findNonce",
			"outputs": [
				{
					"internalType": "uint256",
					"name": "",
					"type": "uint256"
				},
				{
					"internalType": "bytes32",
					"name": "",
					"type": "bytes32"
				}
			],
			"stateMutability": "pure",
			"type": "function"
		}
	]
}