{
	"data": {
		"bytecode": {
			"linkReferences": {},
			"object": "6080604052348015600e575f80fd5b5061069b8061001c5f395ff3fe608060405234801561000f575f80fd5b5060043610610029575f3560e01c806359755c061461002d575b5f80fd5b61004760048036038101906100429190610396565b61005e565b604051610055929190610468565b60405180910390f35b60605f805f90505f6040518060400160405280600b81526020017f64657661646e616e69323600000000000000000000000000000000000000000081525090505f866040516020016100b091906104d0565b6040516020818303038152906040528051906020012090505b858310156101c6575f82846040516020016100e5929190610506565b60405160208183030381529060405290505f8160405160200161010891906104d0565b6040516020818303038152906040528051906020012090507f0e53c60cdd9654fd64b2f36b9771522a297484b20bf4f8c39fa6f987d0ae517a858260405161015192919061053c565b60405180910390a16101638184610208565b156101b1577f42859f226be9c8e762f7883a3f7e465c7fef42dcff2d31f4c55efdebaffba7f68282604051610199929190610468565b60405180910390a18181965096505050505050610201565b84806101bc90610590565b95505050506100c9565b6040517f08c379a00000000000000000000000000000000000000000000000000000000081526004016101f890610647565b60405180910390fd5b9250929050565b5f8182841614905092915050565b5f604051905090565b5f80fd5b5f80fd5b5f80fd5b5f80fd5b5f601f19601f8301169050919050565b7f4e487b71000000000000000000000000000000000000000000000000000000005f52604160045260245ffd5b6102758261022f565b810181811067ffffffffffffffff821117156102945761029361023f565b5b80604052505050565b5f6102a6610216565b90506102b2828261026c565b919050565b5f67ffffffffffffffff8211156102d1576102d061023f565b5b6102da8261022f565b9050602081019050919050565b828183375f83830152505050565b5f610307610302846102b7565b61029d565b9050828152602081018484840111156103235761032261022b565b5b61032e8482856102e7565b509392505050565b5f82601f83011261034a57610349610227565b5b813561035a8482602086016102f5565b91505092915050565b5f819050919050565b61037581610363565b811461037f575f80fd5b50565b5f813590506103908161036c565b92915050565b5f80604083850312156103ac576103ab61021f565b5b5f83013567ffffffffffffffff8111156103c9576103c8610223565b5b6103d585828601610336565b92505060206103e685828601610382565b9150509250929050565b5f81519050919050565b5f82825260208201905092915050565b8281835e5f83830152505050565b5f610422826103f0565b61042c81856103fa565b935061043c81856020860161040a565b6104458161022f565b840191505092915050565b5f819050919050565b61046281610450565b82525050565b5f6040820190508181035f8301526104808185610418565b905061048f6020830184610459565b9392505050565b5f81905092915050565b5f6104aa826103f0565b6104b48185610496565b93506104c481856020860161040a565b80840191505092915050565b5f6104db82846104a0565b915081905092915050565b5f819050919050565b6105006104fb82610363565b6104e6565b82525050565b5f61051182856104a0565b915061051d82846104ef565b6020820191508190509392505050565b61053681610363565b82525050565b5f60408201905061054f5f83018561052d565b61055c6020830184610459565b9392505050565b7f4e487b71000000000000000000000000000000000000000000000000000000005f52601160045260245ffd5b5f61059a82610363565b91507fffffffffffffffffffffffffffffffffffffffffffffffffffffffffffffffff82036105cc576105cb610563565b5b600182019050919050565b7f4d617820697465726174696f6e73207265616368656420776974686f757420665f8201527f696e64696e672061206d61746368000000000000000000000000000000000000602082015250565b5f610631602e836103fa565b915061063c826105d7565b604082019050919050565b5f6020820190508181035f83015261065e81610625565b905091905056fea264697066735822122094527ca032ad0328aa155c75c489b775493102aa0d453bf4c74f806c0973bd6564736f6c634300081a0033",
			"opcodes": "PUSH1 0x80 PUSH1 0x40 MSTORE CALLVALUE DUP1 ISZERO PUSH1 0xE JUMPI PUSH0 DUP1 REVERT JUMPDEST POP PUSH2 0x69B DUP1 PUSH2 0x1C PUSH0 CODECOPY PUSH0 RETURN INVALID PUSH1 0x80 PUSH1 0x40 MSTORE CALLVALUE DUP1 ISZERO PUSH2 0xF JUMPI PUSH0 DUP1 REVERT JUMPDEST POP PUSH1 0x4 CALLDATASIZE LT PUSH2 0x29 JUMPI PUSH0 CALLDATALOAD PUSH1 0xE0 SHR DUP1 PUSH4 0x59755C06 EQ PUSH2 0x2D JUMPI JUMPDEST PUSH0 DUP1 REVERT JUMPDEST PUSH2 0x47 PUSH1 0x4 DUP1 CALLDATASIZE SUB DUP2 ADD SWAP1 PUSH2 0x42 SWAP2 SWAP1 PUSH2 0x396 JUMP JUMPDEST PUSH2 0x5E JUMP JUMPDEST PUSH1 0x40 MLOAD PUSH2 0x55 SWAP3 SWAP2 SWAP1 PUSH2 0x468 JUMP JUMPDEST PUSH1 0x40 MLOAD DUP1 SWAP2 SUB SWAP1 RETURN JUMPDEST PUSH1 0x60 PUSH0 DUP1 PUSH0 SWAP1 POP PUSH0 PUSH1 0x40 MLOAD DUP1 PUSH1 0x40 ADD PUSH1 0x40 MSTORE DUP1 PUSH1 0xB DUP2 MSTORE PUSH1 0x20 ADD PUSH32 0x64657661646E616E693236000000000000000000000000000000000000000000 DUP2 MSTORE POP SWAP1 POP PUSH0 DUP7 PUSH1 0x40 MLOAD PUSH1 0x20 ADD PUSH2 0xB0 SWAP2 SWAP1 PUSH2 0x4D0 JUMP JUMPDEST PUSH1 0x40 MLOAD PUSH1 0x20 DUP2 DUP4 SUB SUB DUP2 MSTORE SWAP1 PUSH1 0x40 MSTORE DUP1 MLOAD SWAP1 PUSH1 0x20 ADD KECCAK256 SWAP1 POP JUMPDEST DUP6 DUP4 LT ISZERO PUSH2 0x1C6 JUMPI PUSH0 DUP3 DUP5 PUSH1 0x40 MLOAD PUSH1 0x20 ADD PUSH2 0xE5 SWAP3 SWAP2 SWAP1 PUSH2 0x506 JUMP JUMPDEST PUSH1 0x40 MLOAD PUSH1 0x20 DUP2 DUP4 SUB SUB DUP2 MSTORE SWAP1 PUSH1 0x40 MSTORE SWAP1 POP PUSH0 DUP2 PUSH1 0x40 MLOAD PUSH1 0x20 ADD PUSH2 0x108 SWAP2 SWAP1 PUSH2 0x4D0 JUMP JUMPDEST PUSH1 0x40 MLOAD PUSH1 0x20 DUP2 DUP4 SUB SUB DUP2 MSTORE SWAP1 PUSH1 0x40 MSTORE DUP1 MLOAD SWAP1 PUSH1 0x20 ADD KECCAK256 SWAP1 POP PUSH32 0xE53C60CDD9654FD64B2F36B9771522A297484B20BF4F8C39FA6F987D0AE517A DUP6 DUP3 PUSH1 0x40 MLOAD PUSH2 0x151 SWAP3 SWAP2 SWAP1 PUSH2 0x53C JUMP JUMPDEST PUSH1 0x40 MLOAD DUP1 SWAP2 SUB SWAP1 LOG1 PUSH2 0x163 DUP2 DUP5 PUSH2 0x208 JUMP JUMPDEST ISZERO PUSH2 0x1B1 JUMPI PUSH32 0x42859F226BE9C8E762F7883A3F7E465C7FEF42DCFF2D31F4C55EFDEBAFFBA7F6 DUP3 DUP3 PUSH1 0x40 MLOAD PUSH2 0x199 SWAP3 SWAP2 SWAP1 PUSH2 0x468 JUMP JUMPDEST PUSH1 0x40 MLOAD DUP1 SWAP2 SUB SWAP1 LOG1 DUP2 DUP2 SWAP7 POP SWAP7 POP POP POP POP POP POP PUSH2 0x201 JUMP JUMPDEST DUP5 DUP1 PUSH2 0x1BC SWAP1 PUSH2 0x590 JUMP JUMPDEST SWAP6 POP POP POP POP PUSH2 0xC9 JUMP JUMPDEST PUSH1 0x40 MLOAD PUSH32 0x8C379A000000000000000000000000000000000000000000000000000000000 DUP2 MSTORE PUSH1 0x4 ADD PUSH2 0x1F8 SWAP1 PUSH2 0x647 JUMP JUMPDEST PUSH1 0x40 MLOAD DUP1 SWAP2 SUB SWAP1 REVERT JUMPDEST SWAP3 POP SWAP3 SWAP1 POP JUMP JUMPDEST PUSH0 DUP2 DUP3 DUP5 AND EQ SWAP1 POP SWAP3 SWAP2 POP POP JUMP JUMPDEST PUSH0 PUSH1 0x40 MLOAD SWAP1 POP SWAP1 JUMP JUMPDEST PUSH0 DUP1 REVERT JUMPDEST PUSH0 DUP1 REVERT JUMPDEST PUSH0 DUP1 REVERT JUMPDEST PUSH0 DUP1 REVERT JUMPDEST PUSH0 PUSH1 0x1F NOT PUSH1 0x1F DUP4 ADD AND SWAP1 POP SWAP2 SWAP1 POP JUMP JUMPDEST PUSH32 0x4E487B7100000000000000000000000000000000000000000000000000000000 PUSH0 MSTORE PUSH1 0x41 PUSH1 0x4 MSTORE PUSH1 0x24 PUSH0 REVERT JUMPDEST PUSH2 0x275 DUP3 PUSH2 0x22F JUMP JUMPDEST DUP2 ADD DUP2 DUP2 LT PUSH8 0xFFFFFFFFFFFFFFFF DUP3 GT OR ISZERO PUSH2 0x294 JUMPI PUSH2 0x293 PUSH2 0x23F JUMP JUMPDEST JUMPDEST DUP1 PUSH1 0x40 MSTORE POP POP POP JUMP JUMPDEST PUSH0 PUSH2 0x2A6 PUSH2 0x216 JUMP JUMPDEST SWAP1 POP PUSH2 0x2B2 DUP3 DUP3 PUSH2 0x26C JUMP JUMPDEST SWAP2 SWAP1 POP JUMP JUMPDEST PUSH0 PUSH8 0xFFFFFFFFFFFFFFFF DUP3 GT ISZERO PUSH2 0x2D1 JUMPI PUSH2 0x2D0 PUSH2 0x23F JUMP JUMPDEST JUMPDEST PUSH2 0x2DA DUP3 PUSH2 0x22F JUMP JUMPDEST SWAP1 POP PUSH1 0x20 DUP2 ADD SWAP1 POP SWAP2 SWAP1 POP JUMP JUMPDEST DUP3 DUP2 DUP4 CALLDATACOPY PUSH0 DUP4 DUP4 ADD MSTORE POP POP POP JUMP JUMPDEST PUSH0 PUSH2 0x307 PUSH2 0x302 DUP5 PUSH2 0x2B7 JUMP JUMPDEST PUSH2 0x29D JUMP JUMPDEST SWAP1 POP DUP3 DUP2 MSTORE PUSH1 0x20 DUP2 ADD DUP5 DUP5 DUP5 ADD GT ISZERO PUSH2 0x323 JUMPI PUSH2 0x322 PUSH2 0x22B JUMP JUMPDEST JUMPDEST PUSH2 0x32E DUP5 DUP3 DUP6 PUSH2 0x2E7 JUMP JUMPDEST POP SWAP4 SWAP3 POP POP POP JUMP JUMPDEST PUSH0 DUP3 PUSH1 0x1F DUP4 ADD SLT PUSH2 0x34A JUMPI PUSH2 0x349 PUSH2 0x227 JUMP JUMPDEST JUMPDEST DUP2 CALLDATALOAD PUSH2 0x35A DUP5 DUP3 PUSH1 0x20 DUP7 ADD PUSH2 0x2F5 JUMP JUMPDEST SWAP2 POP POP SWAP3 SWAP2 POP POP JUMP JUMPDEST PUSH0 DUP2 SWAP1 POP SWAP2 SWAP1 POP JUMP JUMPDEST PUSH2 0x375 DUP2 PUSH2 0x363 JUMP JUMPDEST DUP2 EQ PUSH2 0x37F JUMPI PUSH0 DUP1 REVERT JUMPDEST POP JUMP JUMPDEST PUSH0 DUP2 CALLDATALOAD SWAP1 POP PUSH2 0x390 DUP2 PUSH2 0x36C JUMP JUMPDEST SWAP3 SWAP2 POP POP JUMP JUMPDEST PUSH0 DUP1 PUSH1 0x40 DUP4 DUP6 SUB SLT ISZERO PUSH2 0x3AC JUMPI PUSH2 0x3AB PUSH2 0x21F JUMP JUMPDEST JUMPDEST PUSH0 DUP4 ADD CALLDATALOAD PUSH8 0xFFFFFFFFFFFFFFFF DUP2 GT ISZERO PUSH2 0x3C9 JUMPI PUSH2 0x3C8 PUSH2 0x223 JUMP JUMPDEST JUMPDEST PUSH2 0x3D5 DUP6 DUP3 DUP7 ADD PUSH2 0x336 JUMP JUMPDEST SWAP3 POP POP PUSH1 0x20 PUSH2 0x3E6 DUP6 DUP3 DUP7 ADD PUSH2 0x382 JUMP JUMPDEST SWAP2 POP POP SWAP3 POP SWAP3 SWAP1 POP JUMP JUMPDEST PUSH0 DUP2 MLOAD SWAP1 POP SWAP2 SWAP1 POP JUMP JUMPDEST PUSH0 DUP3 DUP3 MSTORE PUSH1 0x20 DUP3 ADD SWAP1 POP SWAP3 SWAP2 POP POP JUMP JUMPDEST DUP3 DUP2 DUP4 MCOPY PUSH0 DUP4 DUP4 ADD MSTORE POP POP POP JUMP JUMPDEST PUSH0 PUSH2 0x422 DUP3 PUSH2 0x3F0 JUMP JUMPDEST PUSH2 0x42C DUP2 DUP6 PUSH2 0x3FA JUMP JUMPDEST SWAP4 POP PUSH2 0x43C DUP2 DUP6 PUSH1 0x20 DUP7 ADD PUSH2 0x40A JUMP JUMPDEST PUSH2 0x445 DUP2 PUSH2 0x22F JUMP JUMPDEST DUP5 ADD SWAP2 POP POP SWAP3 SWAP2 POP POP JUMP JUMPDEST PUSH0 DUP2 SWAP1 POP SWAP2 SWAP1 POP JUMP JUMPDEST PUSH2 0x462 DUP2 PUSH2 0x450 JUMP JUMPDEST DUP3 MSTORE POP POP JUMP JUMPDEST PUSH0 PUSH1 0x40 DUP3 ADD SWAP1 POP DUP2 DUP2 SUB PUSH0 DUP4 ADD MSTORE PUSH2 0x480 DUP2 DUP6 PUSH2 0x418 JUMP JUMPDEST SWAP1 POP PUSH2 0x48F PUSH1 0x20 DUP4 ADD DUP5 PUSH2 0x459 JUMP JUMPDEST SWAP4 SWAP3 POP POP POP JUMP JUMPDEST PUSH0 DUP2 SWAP1 POP SWAP3 SWAP2 POP POP JUMP JUMPDEST PUSH0 PUSH2 0x4AA DUP3 PUSH2 0x3F0 JUMP JUMPDEST PUSH2 0x4B4 DUP2 DUP6 PUSH2 0x496 JUMP JUMPDEST SWAP4 POP PUSH2 0x4C4 DUP2 DUP6 PUSH1 0x20 DUP7 ADD PUSH2 0x40A JUMP JUMPDEST DUP1 DUP5 ADD SWAP2 POP POP SWAP3 SWAP2 POP POP JUMP JUMPDEST PUSH0 PUSH2 0x4DB DUP3 DUP5 PUSH2 0x4A0 JUMP JUMPDEST SWAP2 POP DUP2 SWAP1 POP SWAP3 SWAP2 POP POP JUMP JUMPDEST PUSH0 DUP2 SWAP1 POP SWAP2 SWAP1 POP JUMP JUMPDEST PUSH2 0x500 PUSH2 0x4FB DUP3 PUSH2 0x363 JUMP JUMPDEST PUSH2 0x4E6 JUMP JUMPDEST DUP3 MSTORE POP POP JUMP JUMPDEST PUSH0 PUSH2 0x511 DUP3 DUP6 PUSH2 0x4A0 JUMP JUMPDEST SWAP2 POP PUSH2 0x51D DUP3 DUP5 PUSH2 0x4EF JUMP JUMPDEST PUSH1 0x20 DUP3 ADD SWAP2 POP DUP2 SWAP1 POP SWAP4 SWAP3 POP POP POP JUMP JUMPDEST PUSH2 0x536 DUP2 PUSH2 0x363 JUMP JUMPDEST DUP3 MSTORE POP POP JUMP JUMPDEST PUSH0 PUSH1 0x40 DUP3 ADD SWAP1 POP PUSH2 0x54F PUSH0 DUP4 ADD DUP6 PUSH2 0x52D JUMP JUMPDEST PUSH2 0x55C PUSH1 0x20 DUP4 ADD DUP5 PUSH2 0x459 JUMP JUMPDEST SWAP4 SWAP3 POP POP POP JUMP JUMPDEST PUSH32 0x4E487B7100000000000000000000000000000000000000000000000000000000 PUSH0 MSTORE PUSH1 0x11 PUSH1 0x4 MSTORE PUSH1 0x24 PUSH0 REVERT JUMPDEST PUSH0 PUSH2 0x59A DUP3 PUSH2 0x363 JUMP JUMPDEST SWAP2 POP PUSH32 0xFFFFFFFFFFFFFFFFFFFFFFFFFFFFFFFFFFFFFFFFFFFFFFFFFFFFFFFFFFFFFFFF DUP3 SUB PUSH2 0x5CC JUMPI PUSH2 0x5CB PUSH2 0x563 JUMP JUMPDEST JUMPDEST PUSH1 0x1 DUP3 ADD SWAP1 POP SWAP2 SWAP1 POP JUMP JUMPDEST PUSH32 0x4D617820697465726174696F6E73207265616368656420776974686F75742066 PUSH0 DUP3 ADD MSTORE PUSH32 0x696E64696E672061206D61746368000000000000000000000000000000000000 PUSH1 0x20 DUP3 ADD MSTORE POP JUMP JUMPDEST PUSH0 PUSH2 0x631 PUSH1 0x2E DUP4 PUSH2 0x3FA JUMP JUMPDEST SWAP2 POP PUSH2 0x63C DUP3 PUSH2 0x5D7 JUMP JUMPDEST PUSH1 0x40 DUP3 ADD SWAP1 POP SWAP2 SWAP1 POP JUMP JUMPDEST PUSH0 PUSH1 0x20 DUP3 ADD SWAP1 POP DUP2 DUP2 SUB PUSH0 DUP4 ADD MSTORE PUSH2 0x65E DUP2 PUSH2 0x625 JUMP JUMPDEST SWAP1 POP SWAP2 SWAP1 POP JUMP INVALID LOG2 PUSH5 0x6970667358 0x22 SLT KECCAK256 SWAP5 MSTORE PUSH29 0xA032AD0328AA155C75C489B775493102AA0D453BF4C74F806C0973BD65 PUSH5 0x736F6C6343 STOP ADDMOD BYTE STOP CALLER "
		},
		"gasEstimates": {
			"creation": {
				"codeDepositCost": "338200",
				"executionCost": "372",
				"totalCost": "338572"
			},
			"external": {
				"findHashWithPrefixAndStart(string,uint256)": "infinite"
			},
			"internal": {
				"startsWith(bytes32,bytes32)": "41"
			}
		},
		"methodIdentifiers": {
			"findHashWithPrefixAndStart(string,uint256)": "59755c06"
		}
	},
	"abi": [
		{
			"anonymous": false,
			"inputs": [
				{
					"indexed": false,
					"internalType": "string",
					"name": "input",
					"type": "string"
				},
				{
					"indexed": false,
					"internalType": "bytes32",
					"name": "hash",
					"type": "bytes32"
				}
			],
			"name": "HashFound",
			"type": "event"
		},
		{
			"anonymous": false,
			"inputs": [
				{
					"indexed": false,
					"internalType": "uint256",
					"name": "iteration",
					"type": "uint256"
				},
				{
					"indexed": false,
					"internalType": "bytes32",
					"name": "hash",
					"type": "bytes32"
				}
			],
			"name": "Iteration",
			"type": "event"
		},
		{
			"inputs": [
				{
					"internalType": "string",
					"name": "prefix",
					"type": "string"
				},
				{
					"internalType": "uint256",
					"name": "maxIterations",
					"type": "uint256"
				}
			],
			"name": "findHashWithPrefixAndStart",
			"outputs": [
				{
					"internalType": "string",
					"name": "",
					"type": "string"
				},
				{
					"internalType": "bytes32",
					"name": "",
					"type": "bytes32"
				}
			],
			"stateMutability": "nonpayable",
			"type": "function"
		}
	]
}