{
	"Assignment4/q5.sol": {
		"Donation": {
			"abi": [
				{
					"inputs": [],
					"stateMutability": "nonpayable",
					"type": "constructor"
				},
				{
					"anonymous": false,
					"inputs": [
						{
							"indexed": true,
							"internalType": "address",
							"name": "donor",
							"type": "address"
						},
						{
							"indexed": false,
							"internalType": "uint256",
							"name": "amount",
							"type": "uint256"
						}
					],
					"name": "DonationReceived",
					"type": "event"
				},
				{
					"anonymous": false,
					"inputs": [
						{
							"indexed": true,
							"internalType": "address",
							"name": "recipient",
							"type": "address"
						},
						{
							"indexed": false,
							"internalType": "uint256",
							"name": "amount",
							"type": "uint256"
						}
					],
					"name": "DonationTransferred",
					"type": "event"
				},
				{
					"inputs": [],
					"name": "donate",
					"outputs": [],
					"stateMutability": "payable",
					"type": "function"
				},
				{
					"inputs": [
						{
							"internalType": "address",
							"name": "",
							"type": "address"
						}
					],
					"name": "donations",
					"outputs": [
						{
							"internalType": "uint256",
							"name": "",
							"type": "uint256"
						}
					],
					"stateMutability": "view",
					"type": "function"
				},
				{
					"inputs": [],
					"name": "getBalance",
					"outputs": [
						{
							"internalType": "uint256",
							"name": "",
							"type": "uint256"
						}
					],
					"stateMutability": "view",
					"type": "function"
				},
				{
					"inputs": [],
					"name": "owner",
					"outputs": [
						{
							"internalType": "address",
							"name": "",
							"type": "address"
						}
					],
					"stateMutability": "view",
					"type": "function"
				},
				{
					"inputs": [
						{
							"internalType": "address payable",
							"name": "recipient",
							"type": "address"
						},
						{
							"internalType": "uint256",
							"name": "amount",
							"type": "uint256"
						}
					],
					"name": "transferDonation",
					"outputs": [],
					"stateMutability": "nonpayable",
					"type": "function"
				}
			],
			"devdoc": {
				"kind": "dev",
				"methods": {},
				"version": 1
			},
			"evm": {
				"assembly": "    /* \"Assignment4/q5.sol\":60:1022  contract Donation {... */\n  mstore(0x40, 0x80)\n    /* \"Assignment4/q5.sol\":310:361  constructor() {... */\n  callvalue\n  dup1\n  iszero\n  tag_1\n  jumpi\n  0x00\n  dup1\n  revert\ntag_1:\n  pop\n    /* \"Assignment4/q5.sol\":343:353  msg.sender */\n  caller\n    /* \"Assignment4/q5.sol\":335:340  owner */\n  0x00\n  dup1\n    /* \"Assignment4/q5.sol\":335:353  owner = msg.sender */\n  0x0100\n  exp\n  dup2\n  sload\n  dup2\n  0xffffffffffffffffffffffffffffffffffffffff\n  mul\n  not\n  and\n  swap1\n  dup4\n  0xffffffffffffffffffffffffffffffffffffffff\n  and\n  mul\n  or\n  swap1\n  sstore\n  pop\n    /* \"Assignment4/q5.sol\":60:1022  contract Donation {... */\n  dataSize(sub_0)\n  dup1\n  dataOffset(sub_0)\n  0x00\n  codecopy\n  0x00\n  return\nstop\n\nsub_0: assembly {\n        /* \"Assignment4/q5.sol\":60:1022  contract Donation {... */\n      mstore(0x40, 0x80)\n      jumpi(tag_1, lt(calldatasize, 0x04))\n      shr(0xe0, calldataload(0x00))\n      dup1\n      0x12065fe0\n      eq\n      tag_2\n      jumpi\n      dup1\n      0x8da5cb5b\n      eq\n      tag_3\n      jumpi\n      dup1\n      0xb53a9a0e\n      eq\n      tag_4\n      jumpi\n      dup1\n      0xcc6cb19a\n      eq\n      tag_5\n      jumpi\n      dup1\n      0xed88c68e\n      eq\n      tag_6\n      jumpi\n    tag_1:\n      0x00\n      dup1\n      revert\n        /* \"Assignment4/q5.sol\":920:1019  function getBalance() public view returns (uint256) {... */\n    tag_2:\n      callvalue\n      dup1\n      iszero\n      tag_7\n      jumpi\n      0x00\n      dup1\n      revert\n    tag_7:\n      pop\n      tag_8\n      tag_9\n      jump\t// in\n    tag_8:\n      mload(0x40)\n      tag_10\n      swap2\n      swap1\n      tag_11\n      jump\t// in\n    tag_10:\n      mload(0x40)\n      dup1\n      swap2\n      sub\n      swap1\n      return\n        /* \"Assignment4/q5.sol\":85:105  address public owner */\n    tag_3:\n      callvalue\n      dup1\n      iszero\n      tag_12\n      jumpi\n      0x00\n      dup1\n      revert\n    tag_12:\n      pop\n      tag_13\n      tag_14\n      jump\t// in\n    tag_13:\n      mload(0x40)\n      tag_15\n      swap2\n      swap1\n      tag_16\n      jump\t// in\n    tag_15:\n      mload(0x40)\n      dup1\n      swap2\n      sub\n      swap1\n      return\n        /* \"Assignment4/q5.sol\":586:912  function transferDonation(address payable recipient, uint256 amount) public {... */\n    tag_4:\n      callvalue\n      dup1\n      iszero\n      tag_17\n      jumpi\n      0x00\n      dup1\n      revert\n    tag_17:\n      pop\n      tag_18\n      0x04\n      dup1\n      calldatasize\n      sub\n      dup2\n      add\n      swap1\n      tag_19\n      swap2\n      swap1\n      tag_20\n      jump\t// in\n    tag_19:\n      tag_21\n      jump\t// in\n    tag_18:\n      stop\n        /* \"Assignment4/q5.sol\":112:156  mapping(address => uint256) public donations */\n    tag_5:\n      callvalue\n      dup1\n      iszero\n      tag_22\n      jumpi\n      0x00\n      dup1\n      revert\n    tag_22:\n      pop\n      tag_23\n      0x04\n      dup1\n      calldatasize\n      sub\n      dup2\n      add\n      swap1\n      tag_24\n      swap2\n      swap1\n      tag_25\n      jump\t// in\n    tag_24:\n      tag_26\n      jump\t// in\n    tag_23:\n      mload(0x40)\n      tag_27\n      swap2\n      swap1\n      tag_11\n      jump\t// in\n    tag_27:\n      mload(0x40)\n      dup1\n      swap2\n      sub\n      swap1\n      return\n        /* \"Assignment4/q5.sol\":369:578  function donate() public payable {... */\n    tag_6:\n      tag_28\n      tag_29\n      jump\t// in\n    tag_28:\n      stop\n        /* \"Assignment4/q5.sol\":920:1019  function getBalance() public view returns (uint256) {... */\n    tag_9:\n        /* \"Assignment4/q5.sol\":963:970  uint256 */\n      0x00\n        /* \"Assignment4/q5.sol\":990:1011  address(this).balance */\n      selfbalance\n        /* \"Assignment4/q5.sol\":983:1011  return address(this).balance */\n      swap1\n      pop\n        /* \"Assignment4/q5.sol\":920:1019  function getBalance() public view returns (uint256) {... */\n      swap1\n      jump\t// out\n        /* \"Assignment4/q5.sol\":85:105  address public owner */\n    tag_14:\n      0x00\n      dup1\n      sload\n      swap1\n      0x0100\n      exp\n      swap1\n      div\n      0xffffffffffffffffffffffffffffffffffffffff\n      and\n      dup2\n      jump\t// out\n        /* \"Assignment4/q5.sol\":586:912  function transferDonation(address payable recipient, uint256 amount) public {... */\n    tag_21:\n        /* \"Assignment4/q5.sol\":695:700  owner */\n      0x00\n      dup1\n      sload\n      swap1\n      0x0100\n      exp\n      swap1\n      div\n      0xffffffffffffffffffffffffffffffffffffffff\n      and\n        /* \"Assignment4/q5.sol\":681:700  msg.sender == owner */\n      0xffffffffffffffffffffffffffffffffffffffff\n      and\n        /* \"Assignment4/q5.sol\":681:691  msg.sender */\n      caller\n        /* \"Assignment4/q5.sol\":681:700  msg.sender == owner */\n      0xffffffffffffffffffffffffffffffffffffffff\n      and\n      eq\n        /* \"Assignment4/q5.sol\":673:738  require(msg.sender == owner, \"Only owner can transfer donations\") */\n      tag_32\n      jumpi\n      mload(0x40)\n      0x08c379a000000000000000000000000000000000000000000000000000000000\n      dup2\n      mstore\n      0x04\n      add\n      tag_33\n      swap1\n      tag_34\n      jump\t// in\n    tag_33:\n      mload(0x40)\n      dup1\n      swap2\n      sub\n      swap1\n      revert\n    tag_32:\n        /* \"Assignment4/q5.sol\":782:788  amount */\n      dup1\n        /* \"Assignment4/q5.sol\":757:778  address(this).balance */\n      selfbalance\n        /* \"Assignment4/q5.sol\":757:788  address(this).balance >= amount */\n      lt\n      iszero\n        /* \"Assignment4/q5.sol\":749:813  require(address(this).balance >= amount, \"Insufficient balance\") */\n      tag_35\n      jumpi\n      mload(0x40)\n      0x08c379a000000000000000000000000000000000000000000000000000000000\n      dup2\n      mstore\n      0x04\n      add\n      tag_36\n      swap1\n      tag_37\n      jump\t// in\n    tag_36:\n      mload(0x40)\n      dup1\n      swap2\n      sub\n      swap1\n      revert\n    tag_35:\n        /* \"Assignment4/q5.sol\":824:833  recipient */\n      dup2\n        /* \"Assignment4/q5.sol\":824:842  recipient.transfer */\n      0xffffffffffffffffffffffffffffffffffffffff\n      and\n        /* \"Assignment4/q5.sol\":824:850  recipient.transfer(amount) */\n      0x08fc\n        /* \"Assignment4/q5.sol\":843:849  amount */\n      dup3\n        /* \"Assignment4/q5.sol\":824:850  recipient.transfer(amount) */\n      swap1\n      dup2\n      iszero\n      mul\n      swap1\n      mload(0x40)\n      0x00\n      mload(0x40)\n      dup1\n      dup4\n      sub\n      dup2\n      dup6\n      dup9\n      dup9\n      call\n      swap4\n      pop\n      pop\n      pop\n      pop\n      iszero\n      dup1\n      iszero\n      tag_39\n      jumpi\n      returndatasize\n      0x00\n      dup1\n      returndatacopy\n      revert(0x00, returndatasize)\n    tag_39:\n      pop\n        /* \"Assignment4/q5.sol\":886:895  recipient */\n      dup2\n        /* \"Assignment4/q5.sol\":866:904  DonationTransferred(recipient, amount) */\n      0xffffffffffffffffffffffffffffffffffffffff\n      and\n      0x787d3106cde7aa4ddd5abe23c8dbddf7ca8c84e95940d4a580aa0343d824dedf\n        /* \"Assignment4/q5.sol\":897:903  amount */\n      dup3\n        /* \"Assignment4/q5.sol\":866:904  DonationTransferred(recipient, amount) */\n      mload(0x40)\n      tag_40\n      swap2\n      swap1\n      tag_11\n      jump\t// in\n    tag_40:\n      mload(0x40)\n      dup1\n      swap2\n      sub\n      swap1\n      log2\n        /* \"Assignment4/q5.sol\":586:912  function transferDonation(address payable recipient, uint256 amount) public {... */\n      pop\n      pop\n      jump\t// out\n        /* \"Assignment4/q5.sol\":112:156  mapping(address => uint256) public donations */\n    tag_26:\n      mstore(0x20, 0x01)\n      dup1\n      0x00\n      mstore\n      keccak256(0x00, 0x40)\n      0x00\n      swap2\n      pop\n      swap1\n      pop\n      sload\n      dup2\n      jump\t// out\n        /* \"Assignment4/q5.sol\":369:578  function donate() public payable {... */\n    tag_29:\n        /* \"Assignment4/q5.sol\":433:434  0 */\n      0x00\n        /* \"Assignment4/q5.sol\":421:430  msg.value */\n      callvalue\n        /* \"Assignment4/q5.sol\":421:434  msg.value > 0 */\n      gt\n        /* \"Assignment4/q5.sol\":413:470  require(msg.value > 0, \"Donation must be greater than 0\") */\n      tag_42\n      jumpi\n      mload(0x40)\n      0x08c379a000000000000000000000000000000000000000000000000000000000\n      dup2\n      mstore\n      0x04\n      add\n      tag_43\n      swap1\n      tag_44\n      jump\t// in\n    tag_43:\n      mload(0x40)\n      dup1\n      swap2\n      sub\n      swap1\n      revert\n    tag_42:\n        /* \"Assignment4/q5.sol\":506:515  msg.value */\n      callvalue\n        /* \"Assignment4/q5.sol\":481:490  donations */\n      0x01\n        /* \"Assignment4/q5.sol\":481:502  donations[msg.sender] */\n      0x00\n        /* \"Assignment4/q5.sol\":491:501  msg.sender */\n      caller\n        /* \"Assignment4/q5.sol\":481:502  donations[msg.sender] */\n      0xffffffffffffffffffffffffffffffffffffffff\n      and\n      0xffffffffffffffffffffffffffffffffffffffff\n      and\n      dup2\n      mstore\n      0x20\n      add\n      swap1\n      dup2\n      mstore\n      0x20\n      add\n      0x00\n      keccak256\n      0x00\n        /* \"Assignment4/q5.sol\":481:515  donations[msg.sender] += msg.value */\n      dup3\n      dup3\n      sload\n      tag_45\n      swap2\n      swap1\n      tag_46\n      jump\t// in\n    tag_45:\n      swap3\n      pop\n      pop\n      dup2\n      swap1\n      sstore\n      pop\n        /* \"Assignment4/q5.sol\":548:558  msg.sender */\n      caller\n        /* \"Assignment4/q5.sol\":531:570  DonationReceived(msg.sender, msg.value) */\n      0xffffffffffffffffffffffffffffffffffffffff\n      and\n      0x264f630d9efa0d07053a31163641d9fcc0adafc9d9e76f1c37c2ce3a558d2c52\n        /* \"Assignment4/q5.sol\":560:569  msg.value */\n      callvalue\n        /* \"Assignment4/q5.sol\":531:570  DonationReceived(msg.sender, msg.value) */\n      mload(0x40)\n      tag_47\n      swap2\n      swap1\n      tag_11\n      jump\t// in\n    tag_47:\n      mload(0x40)\n      dup1\n      swap2\n      sub\n      swap1\n      log2\n        /* \"Assignment4/q5.sol\":369:578  function donate() public payable {... */\n      jump\t// out\n        /* \"#utility.yul\":7:84   */\n    tag_48:\n        /* \"#utility.yul\":44:51   */\n      0x00\n        /* \"#utility.yul\":73:78   */\n      dup2\n        /* \"#utility.yul\":62:78   */\n      swap1\n      pop\n        /* \"#utility.yul\":7:84   */\n      swap2\n      swap1\n      pop\n      jump\t// out\n        /* \"#utility.yul\":90:208   */\n    tag_49:\n        /* \"#utility.yul\":177:201   */\n      tag_74\n        /* \"#utility.yul\":195:200   */\n      dup2\n        /* \"#utility.yul\":177:201   */\n      tag_48\n      jump\t// in\n    tag_74:\n        /* \"#utility.yul\":172:175   */\n      dup3\n        /* \"#utility.yul\":165:202   */\n      mstore\n        /* \"#utility.yul\":90:208   */\n      pop\n      pop\n      jump\t// out\n        /* \"#utility.yul\":214:436   */\n    tag_11:\n        /* \"#utility.yul\":307:311   */\n      0x00\n        /* \"#utility.yul\":345:347   */\n      0x20\n        /* \"#utility.yul\":334:343   */\n      dup3\n        /* \"#utility.yul\":330:348   */\n      add\n        /* \"#utility.yul\":322:348   */\n      swap1\n      pop\n        /* \"#utility.yul\":358:429   */\n      tag_76\n        /* \"#utility.yul\":426:427   */\n      0x00\n        /* \"#utility.yul\":415:424   */\n      dup4\n        /* \"#utility.yul\":411:428   */\n      add\n        /* \"#utility.yul\":402:408   */\n      dup5\n        /* \"#utility.yul\":358:429   */\n      tag_49\n      jump\t// in\n    tag_76:\n        /* \"#utility.yul\":214:436   */\n      swap3\n      swap2\n      pop\n      pop\n      jump\t// out\n        /* \"#utility.yul\":442:568   */\n    tag_50:\n        /* \"#utility.yul\":479:486   */\n      0x00\n        /* \"#utility.yul\":519:561   */\n      0xffffffffffffffffffffffffffffffffffffffff\n        /* \"#utility.yul\":512:517   */\n      dup3\n        /* \"#utility.yul\":508:562   */\n      and\n        /* \"#utility.yul\":497:562   */\n      swap1\n      pop\n        /* \"#utility.yul\":442:568   */\n      swap2\n      swap1\n      pop\n      jump\t// out\n        /* \"#utility.yul\":574:670   */\n    tag_51:\n        /* \"#utility.yul\":611:618   */\n      0x00\n        /* \"#utility.yul\":640:664   */\n      tag_79\n        /* \"#utility.yul\":658:663   */\n      dup3\n        /* \"#utility.yul\":640:664   */\n      tag_50\n      jump\t// in\n    tag_79:\n        /* \"#utility.yul\":629:664   */\n      swap1\n      pop\n        /* \"#utility.yul\":574:670   */\n      swap2\n      swap1\n      pop\n      jump\t// out\n        /* \"#utility.yul\":676:794   */\n    tag_52:\n        /* \"#utility.yul\":763:787   */\n      tag_81\n        /* \"#utility.yul\":781:786   */\n      dup2\n        /* \"#utility.yul\":763:787   */\n      tag_51\n      jump\t// in\n    tag_81:\n        /* \"#utility.yul\":758:761   */\n      dup3\n        /* \"#utility.yul\":751:788   */\n      mstore\n        /* \"#utility.yul\":676:794   */\n      pop\n      pop\n      jump\t// out\n        /* \"#utility.yul\":800:1022   */\n    tag_16:\n        /* \"#utility.yul\":893:897   */\n      0x00\n        /* \"#utility.yul\":931:933   */\n      0x20\n        /* \"#utility.yul\":920:929   */\n      dup3\n        /* \"#utility.yul\":916:934   */\n      add\n        /* \"#utility.yul\":908:934   */\n      swap1\n      pop\n        /* \"#utility.yul\":944:1015   */\n      tag_83\n        /* \"#utility.yul\":1012:1013   */\n      0x00\n        /* \"#utility.yul\":1001:1010   */\n      dup4\n        /* \"#utility.yul\":997:1014   */\n      add\n        /* \"#utility.yul\":988:994   */\n      dup5\n        /* \"#utility.yul\":944:1015   */\n      tag_52\n      jump\t// in\n    tag_83:\n        /* \"#utility.yul\":800:1022   */\n      swap3\n      swap2\n      pop\n      pop\n      jump\t// out\n        /* \"#utility.yul\":1109:1226   */\n    tag_54:\n        /* \"#utility.yul\":1218:1219   */\n      0x00\n        /* \"#utility.yul\":1215:1216   */\n      dup1\n        /* \"#utility.yul\":1208:1220   */\n      revert\n        /* \"#utility.yul\":1355:1459   */\n    tag_56:\n        /* \"#utility.yul\":1400:1407   */\n      0x00\n        /* \"#utility.yul\":1429:1453   */\n      tag_88\n        /* \"#utility.yul\":1447:1452   */\n      dup3\n        /* \"#utility.yul\":1429:1453   */\n      tag_50\n      jump\t// in\n    tag_88:\n        /* \"#utility.yul\":1418:1453   */\n      swap1\n      pop\n        /* \"#utility.yul\":1355:1459   */\n      swap2\n      swap1\n      pop\n      jump\t// out\n        /* \"#utility.yul\":1465:1603   */\n    tag_57:\n        /* \"#utility.yul\":1546:1578   */\n      tag_90\n        /* \"#utility.yul\":1572:1577   */\n      dup2\n        /* \"#utility.yul\":1546:1578   */\n      tag_56\n      jump\t// in\n    tag_90:\n        /* \"#utility.yul\":1539:1544   */\n      dup2\n        /* \"#utility.yul\":1536:1579   */\n      eq\n        /* \"#utility.yul\":1526:1597   */\n      tag_91\n      jumpi\n        /* \"#utility.yul\":1593:1594   */\n      0x00\n        /* \"#utility.yul\":1590:1591   */\n      dup1\n        /* \"#utility.yul\":1583:1595   */\n      revert\n        /* \"#utility.yul\":1526:1597   */\n    tag_91:\n        /* \"#utility.yul\":1465:1603   */\n      pop\n      jump\t// out\n        /* \"#utility.yul\":1609:1764   */\n    tag_58:\n        /* \"#utility.yul\":1663:1668   */\n      0x00\n        /* \"#utility.yul\":1701:1707   */\n      dup2\n        /* \"#utility.yul\":1688:1708   */\n      calldataload\n        /* \"#utility.yul\":1679:1708   */\n      swap1\n      pop\n        /* \"#utility.yul\":1717:1758   */\n      tag_93\n        /* \"#utility.yul\":1752:1757   */\n      dup2\n        /* \"#utility.yul\":1717:1758   */\n      tag_57\n      jump\t// in\n    tag_93:\n        /* \"#utility.yul\":1609:1764   */\n      swap3\n      swap2\n      pop\n      pop\n      jump\t// out\n        /* \"#utility.yul\":1770:1892   */\n    tag_59:\n        /* \"#utility.yul\":1843:1867   */\n      tag_95\n        /* \"#utility.yul\":1861:1866   */\n      dup2\n        /* \"#utility.yul\":1843:1867   */\n      tag_48\n      jump\t// in\n    tag_95:\n        /* \"#utility.yul\":1836:1841   */\n      dup2\n        /* \"#utility.yul\":1833:1868   */\n      eq\n        /* \"#utility.yul\":1823:1886   */\n      tag_96\n      jumpi\n        /* \"#utility.yul\":1882:1883   */\n      0x00\n        /* \"#utility.yul\":1879:1880   */\n      dup1\n        /* \"#utility.yul\":1872:1884   */\n      revert\n        /* \"#utility.yul\":1823:1886   */\n    tag_96:\n        /* \"#utility.yul\":1770:1892   */\n      pop\n      jump\t// out\n        /* \"#utility.yul\":1898:2037   */\n    tag_60:\n        /* \"#utility.yul\":1944:1949   */\n      0x00\n        /* \"#utility.yul\":1982:1988   */\n      dup2\n        /* \"#utility.yul\":1969:1989   */\n      calldataload\n        /* \"#utility.yul\":1960:1989   */\n      swap1\n      pop\n        /* \"#utility.yul\":1998:2031   */\n      tag_98\n        /* \"#utility.yul\":2025:2030   */\n      dup2\n        /* \"#utility.yul\":1998:2031   */\n      tag_59\n      jump\t// in\n    tag_98:\n        /* \"#utility.yul\":1898:2037   */\n      swap3\n      swap2\n      pop\n      pop\n      jump\t// out\n        /* \"#utility.yul\":2043:2533   */\n    tag_20:\n        /* \"#utility.yul\":2119:2125   */\n      0x00\n        /* \"#utility.yul\":2127:2133   */\n      dup1\n        /* \"#utility.yul\":2176:2178   */\n      0x40\n        /* \"#utility.yul\":2164:2173   */\n      dup4\n        /* \"#utility.yul\":2155:2162   */\n      dup6\n        /* \"#utility.yul\":2151:2174   */\n      sub\n        /* \"#utility.yul\":2147:2179   */\n      slt\n        /* \"#utility.yul\":2144:2263   */\n      iszero\n      tag_100\n      jumpi\n        /* \"#utility.yul\":2182:2261   */\n      tag_101\n      tag_54\n      jump\t// in\n    tag_101:\n        /* \"#utility.yul\":2144:2263   */\n    tag_100:\n        /* \"#utility.yul\":2302:2303   */\n      0x00\n        /* \"#utility.yul\":2327:2388   */\n      tag_102\n        /* \"#utility.yul\":2380:2387   */\n      dup6\n        /* \"#utility.yul\":2371:2377   */\n      dup3\n        /* \"#utility.yul\":2360:2369   */\n      dup7\n        /* \"#utility.yul\":2356:2378   */\n      add\n        /* \"#utility.yul\":2327:2388   */\n      tag_58\n      jump\t// in\n    tag_102:\n        /* \"#utility.yul\":2317:2388   */\n      swap3\n      pop\n        /* \"#utility.yul\":2273:2398   */\n      pop\n        /* \"#utility.yul\":2437:2439   */\n      0x20\n        /* \"#utility.yul\":2463:2516   */\n      tag_103\n        /* \"#utility.yul\":2508:2515   */\n      dup6\n        /* \"#utility.yul\":2499:2505   */\n      dup3\n        /* \"#utility.yul\":2488:2497   */\n      dup7\n        /* \"#utility.yul\":2484:2506   */\n      add\n        /* \"#utility.yul\":2463:2516   */\n      tag_60\n      jump\t// in\n    tag_103:\n        /* \"#utility.yul\":2453:2516   */\n      swap2\n      pop\n        /* \"#utility.yul\":2408:2526   */\n      pop\n        /* \"#utility.yul\":2043:2533   */\n      swap3\n      pop\n      swap3\n      swap1\n      pop\n      jump\t// out\n        /* \"#utility.yul\":2539:2661   */\n    tag_61:\n        /* \"#utility.yul\":2612:2636   */\n      tag_105\n        /* \"#utility.yul\":2630:2635   */\n      dup2\n        /* \"#utility.yul\":2612:2636   */\n      tag_51\n      jump\t// in\n    tag_105:\n        /* \"#utility.yul\":2605:2610   */\n      dup2\n        /* \"#utility.yul\":2602:2637   */\n      eq\n        /* \"#utility.yul\":2592:2655   */\n      tag_106\n      jumpi\n        /* \"#utility.yul\":2651:2652   */\n      0x00\n        /* \"#utility.yul\":2648:2649   */\n      dup1\n        /* \"#utility.yul\":2641:2653   */\n      revert\n        /* \"#utility.yul\":2592:2655   */\n    tag_106:\n        /* \"#utility.yul\":2539:2661   */\n      pop\n      jump\t// out\n        /* \"#utility.yul\":2667:2806   */\n    tag_62:\n        /* \"#utility.yul\":2713:2718   */\n      0x00\n        /* \"#utility.yul\":2751:2757   */\n      dup2\n        /* \"#utility.yul\":2738:2758   */\n      calldataload\n        /* \"#utility.yul\":2729:2758   */\n      swap1\n      pop\n        /* \"#utility.yul\":2767:2800   */\n      tag_108\n        /* \"#utility.yul\":2794:2799   */\n      dup2\n        /* \"#utility.yul\":2767:2800   */\n      tag_61\n      jump\t// in\n    tag_108:\n        /* \"#utility.yul\":2667:2806   */\n      swap3\n      swap2\n      pop\n      pop\n      jump\t// out\n        /* \"#utility.yul\":2812:3141   */\n    tag_25:\n        /* \"#utility.yul\":2871:2877   */\n      0x00\n        /* \"#utility.yul\":2920:2922   */\n      0x20\n        /* \"#utility.yul\":2908:2917   */\n      dup3\n        /* \"#utility.yul\":2899:2906   */\n      dup5\n        /* \"#utility.yul\":2895:2918   */\n      sub\n        /* \"#utility.yul\":2891:2923   */\n      slt\n        /* \"#utility.yul\":2888:3007   */\n      iszero\n      tag_110\n      jumpi\n        /* \"#utility.yul\":2926:3005   */\n      tag_111\n      tag_54\n      jump\t// in\n    tag_111:\n        /* \"#utility.yul\":2888:3007   */\n    tag_110:\n        /* \"#utility.yul\":3046:3047   */\n      0x00\n        /* \"#utility.yul\":3071:3124   */\n      tag_112\n        /* \"#utility.yul\":3116:3123   */\n      dup5\n        /* \"#utility.yul\":3107:3113   */\n      dup3\n        /* \"#utility.yul\":3096:3105   */\n      dup6\n        /* \"#utility.yul\":3092:3114   */\n      add\n        /* \"#utility.yul\":3071:3124   */\n      tag_62\n      jump\t// in\n    tag_112:\n        /* \"#utility.yul\":3061:3124   */\n      swap2\n      pop\n        /* \"#utility.yul\":3017:3134   */\n      pop\n        /* \"#utility.yul\":2812:3141   */\n      swap3\n      swap2\n      pop\n      pop\n      jump\t// out\n        /* \"#utility.yul\":3147:3316   */\n    tag_63:\n        /* \"#utility.yul\":3231:3242   */\n      0x00\n        /* \"#utility.yul\":3265:3271   */\n      dup3\n        /* \"#utility.yul\":3260:3263   */\n      dup3\n        /* \"#utility.yul\":3253:3272   */\n      mstore\n        /* \"#utility.yul\":3305:3309   */\n      0x20\n        /* \"#utility.yul\":3300:3303   */\n      dup3\n        /* \"#utility.yul\":3296:3310   */\n      add\n        /* \"#utility.yul\":3281:3310   */\n      swap1\n      pop\n        /* \"#utility.yul\":3147:3316   */\n      swap3\n      swap2\n      pop\n      pop\n      jump\t// out\n        /* \"#utility.yul\":3322:3542   */\n    tag_64:\n        /* \"#utility.yul\":3462:3496   */\n      0x4f6e6c79206f776e65722063616e207472616e7366657220646f6e6174696f6e\n        /* \"#utility.yul\":3458:3459   */\n      0x00\n        /* \"#utility.yul\":3450:3456   */\n      dup3\n        /* \"#utility.yul\":3446:3460   */\n      add\n        /* \"#utility.yul\":3439:3497   */\n      mstore\n        /* \"#utility.yul\":3531:3534   */\n      0x7300000000000000000000000000000000000000000000000000000000000000\n        /* \"#utility.yul\":3526:3528   */\n      0x20\n        /* \"#utility.yul\":3518:3524   */\n      dup3\n        /* \"#utility.yul\":3514:3529   */\n      add\n        /* \"#utility.yul\":3507:3535   */\n      mstore\n        /* \"#utility.yul\":3322:3542   */\n      pop\n      jump\t// out\n        /* \"#utility.yul\":3548:3914   */\n    tag_65:\n        /* \"#utility.yul\":3690:3693   */\n      0x00\n        /* \"#utility.yul\":3711:3778   */\n      tag_116\n        /* \"#utility.yul\":3775:3777   */\n      0x21\n        /* \"#utility.yul\":3770:3773   */\n      dup4\n        /* \"#utility.yul\":3711:3778   */\n      tag_63\n      jump\t// in\n    tag_116:\n        /* \"#utility.yul\":3704:3778   */\n      swap2\n      pop\n        /* \"#utility.yul\":3787:3880   */\n      tag_117\n        /* \"#utility.yul\":3876:3879   */\n      dup3\n        /* \"#utility.yul\":3787:3880   */\n      tag_64\n      jump\t// in\n    tag_117:\n        /* \"#utility.yul\":3905:3907   */\n      0x40\n        /* \"#utility.yul\":3900:3903   */\n      dup3\n        /* \"#utility.yul\":3896:3908   */\n      add\n        /* \"#utility.yul\":3889:3908   */\n      swap1\n      pop\n        /* \"#utility.yul\":3548:3914   */\n      swap2\n      swap1\n      pop\n      jump\t// out\n        /* \"#utility.yul\":3920:4339   */\n    tag_34:\n        /* \"#utility.yul\":4086:4090   */\n      0x00\n        /* \"#utility.yul\":4124:4126   */\n      0x20\n        /* \"#utility.yul\":4113:4122   */\n      dup3\n        /* \"#utility.yul\":4109:4127   */\n      add\n        /* \"#utility.yul\":4101:4127   */\n      swap1\n      pop\n        /* \"#utility.yul\":4173:4182   */\n      dup2\n        /* \"#utility.yul\":4167:4171   */\n      dup2\n        /* \"#utility.yul\":4163:4183   */\n      sub\n        /* \"#utility.yul\":4159:4160   */\n      0x00\n        /* \"#utility.yul\":4148:4157   */\n      dup4\n        /* \"#utility.yul\":4144:4161   */\n      add\n        /* \"#utility.yul\":4137:4184   */\n      mstore\n        /* \"#utility.yul\":4201:4332   */\n      tag_119\n        /* \"#utility.yul\":4327:4331   */\n      dup2\n        /* \"#utility.yul\":4201:4332   */\n      tag_65\n      jump\t// in\n    tag_119:\n        /* \"#utility.yul\":4193:4332   */\n      swap1\n      pop\n        /* \"#utility.yul\":3920:4339   */\n      swap2\n      swap1\n      pop\n      jump\t// out\n        /* \"#utility.yul\":4345:4515   */\n    tag_66:\n        /* \"#utility.yul\":4485:4507   */\n      0x496e73756666696369656e742062616c616e6365000000000000000000000000\n        /* \"#utility.yul\":4481:4482   */\n      0x00\n        /* \"#utility.yul\":4473:4479   */\n      dup3\n        /* \"#utility.yul\":4469:4483   */\n      add\n        /* \"#utility.yul\":4462:4508   */\n      mstore\n        /* \"#utility.yul\":4345:4515   */\n      pop\n      jump\t// out\n        /* \"#utility.yul\":4521:4887   */\n    tag_67:\n        /* \"#utility.yul\":4663:4666   */\n      0x00\n        /* \"#utility.yul\":4684:4751   */\n      tag_122\n        /* \"#utility.yul\":4748:4750   */\n      0x14\n        /* \"#utility.yul\":4743:4746   */\n      dup4\n        /* \"#utility.yul\":4684:4751   */\n      tag_63\n      jump\t// in\n    tag_122:\n        /* \"#utility.yul\":4677:4751   */\n      swap2\n      pop\n        /* \"#utility.yul\":4760:4853   */\n      tag_123\n        /* \"#utility.yul\":4849:4852   */\n      dup3\n        /* \"#utility.yul\":4760:4853   */\n      tag_66\n      jump\t// in\n    tag_123:\n        /* \"#utility.yul\":4878:4880   */\n      0x20\n        /* \"#utility.yul\":4873:4876   */\n      dup3\n        /* \"#utility.yul\":4869:4881   */\n      add\n        /* \"#utility.yul\":4862:4881   */\n      swap1\n      pop\n        /* \"#utility.yul\":4521:4887   */\n      swap2\n      swap1\n      pop\n      jump\t// out\n        /* \"#utility.yul\":4893:5312   */\n    tag_37:\n        /* \"#utility.yul\":5059:5063   */\n      0x00\n        /* \"#utility.yul\":5097:5099   */\n      0x20\n        /* \"#utility.yul\":5086:5095   */\n      dup3\n        /* \"#utility.yul\":5082:5100   */\n      add\n        /* \"#utility.yul\":5074:5100   */\n      swap1\n      pop\n        /* \"#utility.yul\":5146:5155   */\n      dup2\n        /* \"#utility.yul\":5140:5144   */\n      dup2\n        /* \"#utility.yul\":5136:5156   */\n      sub\n        /* \"#utility.yul\":5132:5133   */\n      0x00\n        /* \"#utility.yul\":5121:5130   */\n      dup4\n        /* \"#utility.yul\":5117:5134   */\n      add\n        /* \"#utility.yul\":5110:5157   */\n      mstore\n        /* \"#utility.yul\":5174:5305   */\n      tag_125\n        /* \"#utility.yul\":5300:5304   */\n      dup2\n        /* \"#utility.yul\":5174:5305   */\n      tag_67\n      jump\t// in\n    tag_125:\n        /* \"#utility.yul\":5166:5305   */\n      swap1\n      pop\n        /* \"#utility.yul\":4893:5312   */\n      swap2\n      swap1\n      pop\n      jump\t// out\n        /* \"#utility.yul\":5318:5499   */\n    tag_68:\n        /* \"#utility.yul\":5458:5491   */\n      0x446f6e6174696f6e206d7573742062652067726561746572207468616e203000\n        /* \"#utility.yul\":5454:5455   */\n      0x00\n        /* \"#utility.yul\":5446:5452   */\n      dup3\n        /* \"#utility.yul\":5442:5456   */\n      add\n        /* \"#utility.yul\":5435:5492   */\n      mstore\n        /* \"#utility.yul\":5318:5499   */\n      pop\n      jump\t// out\n        /* \"#utility.yul\":5505:5871   */\n    tag_69:\n        /* \"#utility.yul\":5647:5650   */\n      0x00\n        /* \"#utility.yul\":5668:5735   */\n      tag_128\n        /* \"#utility.yul\":5732:5734   */\n      0x1f\n        /* \"#utility.yul\":5727:5730   */\n      dup4\n        /* \"#utility.yul\":5668:5735   */\n      tag_63\n      jump\t// in\n    tag_128:\n        /* \"#utility.yul\":5661:5735   */\n      swap2\n      pop\n        /* \"#utility.yul\":5744:5837   */\n      tag_129\n        /* \"#utility.yul\":5833:5836   */\n      dup3\n        /* \"#utility.yul\":5744:5837   */\n      tag_68\n      jump\t// in\n    tag_129:\n        /* \"#utility.yul\":5862:5864   */\n      0x20\n        /* \"#utility.yul\":5857:5860   */\n      dup3\n        /* \"#utility.yul\":5853:5865   */\n      add\n        /* \"#utility.yul\":5846:5865   */\n      swap1\n      pop\n        /* \"#utility.yul\":5505:5871   */\n      swap2\n      swap1\n      pop\n      jump\t// out\n        /* \"#utility.yul\":5877:6296   */\n    tag_44:\n        /* \"#utility.yul\":6043:6047   */\n      0x00\n        /* \"#utility.yul\":6081:6083   */\n      0x20\n        /* \"#utility.yul\":6070:6079   */\n      dup3\n        /* \"#utility.yul\":6066:6084   */\n      add\n        /* \"#utility.yul\":6058:6084   */\n      swap1\n      pop\n        /* \"#utility.yul\":6130:6139   */\n      dup2\n        /* \"#utility.yul\":6124:6128   */\n      dup2\n        /* \"#utility.yul\":6120:6140   */\n      sub\n        /* \"#utility.yul\":6116:6117   */\n      0x00\n        /* \"#utility.yul\":6105:6114   */\n      dup4\n        /* \"#utility.yul\":6101:6118   */\n      add\n        /* \"#utility.yul\":6094:6141   */\n      mstore\n        /* \"#utility.yul\":6158:6289   */\n      tag_131\n        /* \"#utility.yul\":6284:6288   */\n      dup2\n        /* \"#utility.yul\":6158:6289   */\n      tag_69\n      jump\t// in\n    tag_131:\n        /* \"#utility.yul\":6150:6289   */\n      swap1\n      pop\n        /* \"#utility.yul\":5877:6296   */\n      swap2\n      swap1\n      pop\n      jump\t// out\n        /* \"#utility.yul\":6302:6482   */\n    tag_70:\n        /* \"#utility.yul\":6350:6427   */\n      0x4e487b7100000000000000000000000000000000000000000000000000000000\n        /* \"#utility.yul\":6347:6348   */\n      0x00\n        /* \"#utility.yul\":6340:6428   */\n      mstore\n        /* \"#utility.yul\":6447:6451   */\n      0x11\n        /* \"#utility.yul\":6444:6445   */\n      0x04\n        /* \"#utility.yul\":6437:6452   */\n      mstore\n        /* \"#utility.yul\":6471:6475   */\n      0x24\n        /* \"#utility.yul\":6468:6469   */\n      0x00\n        /* \"#utility.yul\":6461:6476   */\n      revert\n        /* \"#utility.yul\":6488:6679   */\n    tag_46:\n        /* \"#utility.yul\":6528:6531   */\n      0x00\n        /* \"#utility.yul\":6547:6567   */\n      tag_134\n        /* \"#utility.yul\":6565:6566   */\n      dup3\n        /* \"#utility.yul\":6547:6567   */\n      tag_48\n      jump\t// in\n    tag_134:\n        /* \"#utility.yul\":6542:6567   */\n      swap2\n      pop\n        /* \"#utility.yul\":6581:6601   */\n      tag_135\n        /* \"#utility.yul\":6599:6600   */\n      dup4\n        /* \"#utility.yul\":6581:6601   */\n      tag_48\n      jump\t// in\n    tag_135:\n        /* \"#utility.yul\":6576:6601   */\n      swap3\n      pop\n        /* \"#utility.yul\":6624:6625   */\n      dup3\n        /* \"#utility.yul\":6621:6622   */\n      dup3\n        /* \"#utility.yul\":6617:6626   */\n      add\n        /* \"#utility.yul\":6610:6626   */\n      swap1\n      pop\n        /* \"#utility.yul\":6645:6648   */\n      dup1\n        /* \"#utility.yul\":6642:6643   */\n      dup3\n        /* \"#utility.yul\":6639:6649   */\n      gt\n        /* \"#utility.yul\":6636:6672   */\n      iszero\n      tag_136\n      jumpi\n        /* \"#utility.yul\":6652:6670   */\n      tag_137\n      tag_70\n      jump\t// in\n    tag_137:\n        /* \"#utility.yul\":6636:6672   */\n    tag_136:\n        /* \"#utility.yul\":6488:6679   */\n      swap3\n      swap2\n      pop\n      pop\n      jump\t// out\n\n    auxdata: 0xa264697066735822122021abb79ceeefb1edeff93501f8d02c8120d0eee6ffbc215a4bb48acb186af63f64736f6c634300081a0033\n}\n",
				"bytecode": {
					"linkReferences": {},
					"object": "6080604052348015600e575f80fd5b50335f806101000a81548173ffffffffffffffffffffffffffffffffffffffff021916908373ffffffffffffffffffffffffffffffffffffffff1602179055506107228061005b5f395ff3fe608060405260043610610049575f3560e01c806312065fe01461004d5780638da5cb5b14610077578063b53a9a0e146100a1578063cc6cb19a146100c9578063ed88c68e14610105575b5f80fd5b348015610058575f80fd5b5061006161010f565b60405161006e91906103b1565b60405180910390f35b348015610082575f80fd5b5061008b610116565b6040516100989190610409565b60405180910390f35b3480156100ac575f80fd5b506100c760048036038101906100c2919061048b565b610139565b005b3480156100d4575f80fd5b506100ef60048036038101906100ea91906104f3565b61029f565b6040516100fc91906103b1565b60405180910390f35b61010d6102b4565b005b5f47905090565b5f8054906101000a900473ffffffffffffffffffffffffffffffffffffffff1681565b5f8054906101000a900473ffffffffffffffffffffffffffffffffffffffff1673ffffffffffffffffffffffffffffffffffffffff163373ffffffffffffffffffffffffffffffffffffffff16146101c6576040517f08c379a00000000000000000000000000000000000000000000000000000000081526004016101bd9061059e565b60405180910390fd5b80471015610209576040517f08c379a000000000000000000000000000000000000000000000000000000000815260040161020090610606565b60405180910390fd5b8173ffffffffffffffffffffffffffffffffffffffff166108fc8290811502906040515f60405180830381858888f1935050505015801561024c573d5f803e3d5ffd5b508173ffffffffffffffffffffffffffffffffffffffff167f787d3106cde7aa4ddd5abe23c8dbddf7ca8c84e95940d4a580aa0343d824dedf8260405161029391906103b1565b60405180910390a25050565b6001602052805f5260405f205f915090505481565b5f34116102f6576040517f08c379a00000000000000000000000000000000000000000000000000000000081526004016102ed9061066e565b60405180910390fd5b3460015f3373ffffffffffffffffffffffffffffffffffffffff1673ffffffffffffffffffffffffffffffffffffffff1681526020019081526020015f205f82825461034291906106b9565b925050819055503373ffffffffffffffffffffffffffffffffffffffff167f264f630d9efa0d07053a31163641d9fcc0adafc9d9e76f1c37c2ce3a558d2c523460405161038f91906103b1565b60405180910390a2565b5f819050919050565b6103ab81610399565b82525050565b5f6020820190506103c45f8301846103a2565b92915050565b5f73ffffffffffffffffffffffffffffffffffffffff82169050919050565b5f6103f3826103ca565b9050919050565b610403816103e9565b82525050565b5f60208201905061041c5f8301846103fa565b92915050565b5f80fd5b5f610430826103ca565b9050919050565b61044081610426565b811461044a575f80fd5b50565b5f8135905061045b81610437565b92915050565b61046a81610399565b8114610474575f80fd5b50565b5f8135905061048581610461565b92915050565b5f80604083850312156104a1576104a0610422565b5b5f6104ae8582860161044d565b92505060206104bf85828601610477565b9150509250929050565b6104d2816103e9565b81146104dc575f80fd5b50565b5f813590506104ed816104c9565b92915050565b5f6020828403121561050857610507610422565b5b5f610515848285016104df565b91505092915050565b5f82825260208201905092915050565b7f4f6e6c79206f776e65722063616e207472616e7366657220646f6e6174696f6e5f8201527f7300000000000000000000000000000000000000000000000000000000000000602082015250565b5f61058860218361051e565b91506105938261052e565b604082019050919050565b5f6020820190508181035f8301526105b58161057c565b9050919050565b7f496e73756666696369656e742062616c616e63650000000000000000000000005f82015250565b5f6105f060148361051e565b91506105fb826105bc565b602082019050919050565b5f6020820190508181035f83015261061d816105e4565b9050919050565b7f446f6e6174696f6e206d7573742062652067726561746572207468616e2030005f82015250565b5f610658601f8361051e565b915061066382610624565b602082019050919050565b5f6020820190508181035f8301526106858161064c565b9050919050565b7f4e487b71000000000000000000000000000000000000000000000000000000005f52601160045260245ffd5b5f6106c382610399565b91506106ce83610399565b92508282019050808211156106e6576106e561068c565b5b9291505056fea264697066735822122021abb79ceeefb1edeff93501f8d02c8120d0eee6ffbc215a4bb48acb186af63f64736f6c634300081a0033",
					"opcodes": "PUSH1 0x80 PUSH1 0x40 MSTORE CALLVALUE DUP1 ISZERO PUSH1 0xE JUMPI PUSH0 DUP1 REVERT JUMPDEST POP CALLER PUSH0 DUP1 PUSH2 0x100 EXP DUP2 SLOAD DUP2 PUSH20 0xFFFFFFFFFFFFFFFFFFFFFFFFFFFFFFFFFFFFFFFF MUL NOT AND SWAP1 DUP4 PUSH20 0xFFFFFFFFFFFFFFFFFFFFFFFFFFFFFFFFFFFFFFFF AND MUL OR SWAP1 SSTORE POP PUSH2 0x722 DUP1 PUSH2 0x5B PUSH0 CODECOPY PUSH0 RETURN INVALID PUSH1 0x80 PUSH1 0x40 MSTORE PUSH1 0x4 CALLDATASIZE LT PUSH2 0x49 JUMPI PUSH0 CALLDATALOAD PUSH1 0xE0 SHR DUP1 PUSH4 0x12065FE0 EQ PUSH2 0x4D JUMPI DUP1 PUSH4 0x8DA5CB5B EQ PUSH2 0x77 JUMPI DUP1 PUSH4 0xB53A9A0E EQ PUSH2 0xA1 JUMPI DUP1 PUSH4 0xCC6CB19A EQ PUSH2 0xC9 JUMPI DUP1 PUSH4 0xED88C68E EQ PUSH2 0x105 JUMPI JUMPDEST PUSH0 DUP1 REVERT JUMPDEST CALLVALUE DUP1 ISZERO PUSH2 0x58 JUMPI PUSH0 DUP1 REVERT JUMPDEST POP PUSH2 0x61 PUSH2 0x10F JUMP JUMPDEST PUSH1 0x40 MLOAD PUSH2 0x6E SWAP2 SWAP1 PUSH2 0x3B1 JUMP JUMPDEST PUSH1 0x40 MLOAD DUP1 SWAP2 SUB SWAP1 RETURN JUMPDEST CALLVALUE DUP1 ISZERO PUSH2 0x82 JUMPI PUSH0 DUP1 REVERT JUMPDEST POP PUSH2 0x8B PUSH2 0x116 JUMP JUMPDEST PUSH1 0x40 MLOAD PUSH2 0x98 SWAP2 SWAP1 PUSH2 0x409 JUMP JUMPDEST PUSH1 0x40 MLOAD DUP1 SWAP2 SUB SWAP1 RETURN JUMPDEST CALLVALUE DUP1 ISZERO PUSH2 0xAC JUMPI PUSH0 DUP1 REVERT JUMPDEST POP PUSH2 0xC7 PUSH1 0x4 DUP1 CALLDATASIZE SUB DUP2 ADD SWAP1 PUSH2 0xC2 SWAP2 SWAP1 PUSH2 0x48B JUMP JUMPDEST PUSH2 0x139 JUMP JUMPDEST STOP JUMPDEST CALLVALUE DUP1 ISZERO PUSH2 0xD4 JUMPI PUSH0 DUP1 REVERT JUMPDEST POP PUSH2 0xEF PUSH1 0x4 DUP1 CALLDATASIZE SUB DUP2 ADD SWAP1 PUSH2 0xEA SWAP2 SWAP1 PUSH2 0x4F3 JUMP JUMPDEST PUSH2 0x29F JUMP JUMPDEST PUSH1 0x40 MLOAD PUSH2 0xFC SWAP2 SWAP1 PUSH2 0x3B1 JUMP JUMPDEST PUSH1 0x40 MLOAD DUP1 SWAP2 SUB SWAP1 RETURN JUMPDEST PUSH2 0x10D PUSH2 0x2B4 JUMP JUMPDEST STOP JUMPDEST PUSH0 SELFBALANCE SWAP1 POP SWAP1 JUMP JUMPDEST PUSH0 DUP1 SLOAD SWAP1 PUSH2 0x100 EXP SWAP1 DIV PUSH20 0xFFFFFFFFFFFFFFFFFFFFFFFFFFFFFFFFFFFFFFFF AND DUP2 JUMP JUMPDEST PUSH0 DUP1 SLOAD SWAP1 PUSH2 0x100 EXP SWAP1 DIV PUSH20 0xFFFFFFFFFFFFFFFFFFFFFFFFFFFFFFFFFFFFFFFF AND PUSH20 0xFFFFFFFFFFFFFFFFFFFFFFFFFFFFFFFFFFFFFFFF AND CALLER PUSH20 0xFFFFFFFFFFFFFFFFFFFFFFFFFFFFFFFFFFFFFFFF AND EQ PUSH2 0x1C6 JUMPI PUSH1 0x40 MLOAD PUSH32 0x8C379A000000000000000000000000000000000000000000000000000000000 DUP2 MSTORE PUSH1 0x4 ADD PUSH2 0x1BD SWAP1 PUSH2 0x59E JUMP JUMPDEST PUSH1 0x40 MLOAD DUP1 SWAP2 SUB SWAP1 REVERT JUMPDEST DUP1 SELFBALANCE LT ISZERO PUSH2 0x209 JUMPI PUSH1 0x40 MLOAD PUSH32 0x8C379A000000000000000000000000000000000000000000000000000000000 DUP2 MSTORE PUSH1 0x4 ADD PUSH2 0x200 SWAP1 PUSH2 0x606 JUMP JUMPDEST PUSH1 0x40 MLOAD DUP1 SWAP2 SUB SWAP1 REVERT JUMPDEST DUP2 PUSH20 0xFFFFFFFFFFFFFFFFFFFFFFFFFFFFFFFFFFFFFFFF AND PUSH2 0x8FC DUP3 SWAP1 DUP2 ISZERO MUL SWAP1 PUSH1 0x40 MLOAD PUSH0 PUSH1 0x40 MLOAD DUP1 DUP4 SUB DUP2 DUP6 DUP9 DUP9 CALL SWAP4 POP POP POP POP ISZERO DUP1 ISZERO PUSH2 0x24C JUMPI RETURNDATASIZE PUSH0 DUP1 RETURNDATACOPY RETURNDATASIZE PUSH0 REVERT JUMPDEST POP DUP2 PUSH20 0xFFFFFFFFFFFFFFFFFFFFFFFFFFFFFFFFFFFFFFFF AND PUSH32 0x787D3106CDE7AA4DDD5ABE23C8DBDDF7CA8C84E95940D4A580AA0343D824DEDF DUP3 PUSH1 0x40 MLOAD PUSH2 0x293 SWAP2 SWAP1 PUSH2 0x3B1 JUMP JUMPDEST PUSH1 0x40 MLOAD DUP1 SWAP2 SUB SWAP1 LOG2 POP POP JUMP JUMPDEST PUSH1 0x1 PUSH1 0x20 MSTORE DUP1 PUSH0 MSTORE PUSH1 0x40 PUSH0 KECCAK256 PUSH0 SWAP2 POP SWAP1 POP SLOAD DUP2 JUMP JUMPDEST PUSH0 CALLVALUE GT PUSH2 0x2F6 JUMPI PUSH1 0x40 MLOAD PUSH32 0x8C379A000000000000000000000000000000000000000000000000000000000 DUP2 MSTORE PUSH1 0x4 ADD PUSH2 0x2ED SWAP1 PUSH2 0x66E JUMP JUMPDEST PUSH1 0x40 MLOAD DUP1 SWAP2 SUB SWAP1 REVERT JUMPDEST CALLVALUE PUSH1 0x1 PUSH0 CALLER PUSH20 0xFFFFFFFFFFFFFFFFFFFFFFFFFFFFFFFFFFFFFFFF AND PUSH20 0xFFFFFFFFFFFFFFFFFFFFFFFFFFFFFFFFFFFFFFFF AND DUP2 MSTORE PUSH1 0x20 ADD SWAP1 DUP2 MSTORE PUSH1 0x20 ADD PUSH0 KECCAK256 PUSH0 DUP3 DUP3 SLOAD PUSH2 0x342 SWAP2 SWAP1 PUSH2 0x6B9 JUMP JUMPDEST SWAP3 POP POP DUP2 SWAP1 SSTORE POP CALLER PUSH20 0xFFFFFFFFFFFFFFFFFFFFFFFFFFFFFFFFFFFFFFFF AND PUSH32 0x264F630D9EFA0D07053A31163641D9FCC0ADAFC9D9E76F1C37C2CE3A558D2C52 CALLVALUE PUSH1 0x40 MLOAD PUSH2 0x38F SWAP2 SWAP1 PUSH2 0x3B1 JUMP JUMPDEST PUSH1 0x40 MLOAD DUP1 SWAP2 SUB SWAP1 LOG2 JUMP JUMPDEST PUSH0 DUP2 SWAP1 POP SWAP2 SWAP1 POP JUMP JUMPDEST PUSH2 0x3AB DUP2 PUSH2 0x399 JUMP JUMPDEST DUP3 MSTORE POP POP JUMP JUMPDEST PUSH0 PUSH1 0x20 DUP3 ADD SWAP1 POP PUSH2 0x3C4 PUSH0 DUP4 ADD DUP5 PUSH2 0x3A2 JUMP JUMPDEST SWAP3 SWAP2 POP POP JUMP JUMPDEST PUSH0 PUSH20 0xFFFFFFFFFFFFFFFFFFFFFFFFFFFFFFFFFFFFFFFF DUP3 AND SWAP1 POP SWAP2 SWAP1 POP JUMP JUMPDEST PUSH0 PUSH2 0x3F3 DUP3 PUSH2 0x3CA JUMP JUMPDEST SWAP1 POP SWAP2 SWAP1 POP JUMP JUMPDEST PUSH2 0x403 DUP2 PUSH2 0x3E9 JUMP JUMPDEST DUP3 MSTORE POP POP JUMP JUMPDEST PUSH0 PUSH1 0x20 DUP3 ADD SWAP1 POP PUSH2 0x41C PUSH0 DUP4 ADD DUP5 PUSH2 0x3FA JUMP JUMPDEST SWAP3 SWAP2 POP POP JUMP JUMPDEST PUSH0 DUP1 REVERT JUMPDEST PUSH0 PUSH2 0x430 DUP3 PUSH2 0x3CA JUMP JUMPDEST SWAP1 POP SWAP2 SWAP1 POP JUMP JUMPDEST PUSH2 0x440 DUP2 PUSH2 0x426 JUMP JUMPDEST DUP2 EQ PUSH2 0x44A JUMPI PUSH0 DUP1 REVERT JUMPDEST POP JUMP JUMPDEST PUSH0 DUP2 CALLDATALOAD SWAP1 POP PUSH2 0x45B DUP2 PUSH2 0x437 JUMP JUMPDEST SWAP3 SWAP2 POP POP JUMP JUMPDEST PUSH2 0x46A DUP2 PUSH2 0x399 JUMP JUMPDEST DUP2 EQ PUSH2 0x474 JUMPI PUSH0 DUP1 REVERT JUMPDEST POP JUMP JUMPDEST PUSH0 DUP2 CALLDATALOAD SWAP1 POP PUSH2 0x485 DUP2 PUSH2 0x461 JUMP JUMPDEST SWAP3 SWAP2 POP POP JUMP JUMPDEST PUSH0 DUP1 PUSH1 0x40 DUP4 DUP6 SUB SLT ISZERO PUSH2 0x4A1 JUMPI PUSH2 0x4A0 PUSH2 0x422 JUMP JUMPDEST JUMPDEST PUSH0 PUSH2 0x4AE DUP6 DUP3 DUP7 ADD PUSH2 0x44D JUMP JUMPDEST SWAP3 POP POP PUSH1 0x20 PUSH2 0x4BF DUP6 DUP3 DUP7 ADD PUSH2 0x477 JUMP JUMPDEST SWAP2 POP POP SWAP3 POP SWAP3 SWAP1 POP JUMP JUMPDEST PUSH2 0x4D2 DUP2 PUSH2 0x3E9 JUMP JUMPDEST DUP2 EQ PUSH2 0x4DC JUMPI PUSH0 DUP1 REVERT JUMPDEST POP JUMP JUMPDEST PUSH0 DUP2 CALLDATALOAD SWAP1 POP PUSH2 0x4ED DUP2 PUSH2 0x4C9 JUMP JUMPDEST SWAP3 SWAP2 POP POP JUMP JUMPDEST PUSH0 PUSH1 0x20 DUP3 DUP5 SUB SLT ISZERO PUSH2 0x508 JUMPI PUSH2 0x507 PUSH2 0x422 JUMP JUMPDEST JUMPDEST PUSH0 PUSH2 0x515 DUP5 DUP3 DUP6 ADD PUSH2 0x4DF JUMP JUMPDEST SWAP2 POP POP SWAP3 SWAP2 POP POP JUMP JUMPDEST PUSH0 DUP3 DUP3 MSTORE PUSH1 0x20 DUP3 ADD SWAP1 POP SWAP3 SWAP2 POP POP JUMP JUMPDEST PUSH32 0x4F6E6C79206F776E65722063616E207472616E7366657220646F6E6174696F6E PUSH0 DUP3 ADD MSTORE PUSH32 0x7300000000000000000000000000000000000000000000000000000000000000 PUSH1 0x20 DUP3 ADD MSTORE POP JUMP JUMPDEST PUSH0 PUSH2 0x588 PUSH1 0x21 DUP4 PUSH2 0x51E JUMP JUMPDEST SWAP2 POP PUSH2 0x593 DUP3 PUSH2 0x52E JUMP JUMPDEST PUSH1 0x40 DUP3 ADD SWAP1 POP SWAP2 SWAP1 POP JUMP JUMPDEST PUSH0 PUSH1 0x20 DUP3 ADD SWAP1 POP DUP2 DUP2 SUB PUSH0 DUP4 ADD MSTORE PUSH2 0x5B5 DUP2 PUSH2 0x57C JUMP JUMPDEST SWAP1 POP SWAP2 SWAP1 POP JUMP JUMPDEST PUSH32 0x496E73756666696369656E742062616C616E6365000000000000000000000000 PUSH0 DUP3 ADD MSTORE POP JUMP JUMPDEST PUSH0 PUSH2 0x5F0 PUSH1 0x14 DUP4 PUSH2 0x51E JUMP JUMPDEST SWAP2 POP PUSH2 0x5FB DUP3 PUSH2 0x5BC JUMP JUMPDEST PUSH1 0x20 DUP3 ADD SWAP1 POP SWAP2 SWAP1 POP JUMP JUMPDEST PUSH0 PUSH1 0x20 DUP3 ADD SWAP1 POP DUP2 DUP2 SUB PUSH0 DUP4 ADD MSTORE PUSH2 0x61D DUP2 PUSH2 0x5E4 JUMP JUMPDEST SWAP1 POP SWAP2 SWAP1 POP JUMP JUMPDEST PUSH32 0x446F6E6174696F6E206D7573742062652067726561746572207468616E203000 PUSH0 DUP3 ADD MSTORE POP JUMP JUMPDEST PUSH0 PUSH2 0x658 PUSH1 0x1F DUP4 PUSH2 0x51E JUMP JUMPDEST SWAP2 POP PUSH2 0x663 DUP3 PUSH2 0x624 JUMP JUMPDEST PUSH1 0x20 DUP3 ADD SWAP1 POP SWAP2 SWAP1 POP JUMP JUMPDEST PUSH0 PUSH1 0x20 DUP3 ADD SWAP1 POP DUP2 DUP2 SUB PUSH0 DUP4 ADD MSTORE PUSH2 0x685 DUP2 PUSH2 0x64C JUMP JUMPDEST SWAP1 POP SWAP2 SWAP1 POP JUMP JUMPDEST PUSH32 0x4E487B7100000000000000000000000000000000000000000000000000000000 PUSH0 MSTORE PUSH1 0x11 PUSH1 0x4 MSTORE PUSH1 0x24 PUSH0 REVERT JUMPDEST PUSH0 PUSH2 0x6C3 DUP3 PUSH2 0x399 JUMP JUMPDEST SWAP2 POP PUSH2 0x6CE DUP4 PUSH2 0x399 JUMP JUMPDEST SWAP3 POP DUP3 DUP3 ADD SWAP1 POP DUP1 DUP3 GT ISZERO PUSH2 0x6E6 JUMPI PUSH2 0x6E5 PUSH2 0x68C JUMP JUMPDEST JUMPDEST SWAP3 SWAP2 POP POP JUMP INVALID LOG2 PUSH5 0x6970667358 0x22 SLT KECCAK256 0x21 0xAB 0xB7 SWAP13 0xEE 0xEF 0xB1 0xED 0xEF 0xF9 CALLDATALOAD ADD 0xF8 0xD0 0x2C DUP2 KECCAK256 0xD0 0xEE 0xE6 SELFDESTRUCT 0xBC 0x21 GAS 0x4B 0xB4 DUP11 0xCB XOR PUSH11 0xF63F64736F6C634300081A STOP CALLER "
				},
				"gasEstimates": {
					"creation": {
						"codeDepositCost": "365200",
						"executionCost": "24668",
						"totalCost": "389868"
					},
					"external": {
						"donate()": "infinite",
						"donations(address)": "2846",
						"getBalance()": "312",
						"owner()": "2505",
						"transferDonation(address,uint256)": "infinite"
					}
				},
				"methodIdentifiers": {
					"donate()": "ed88c68e",
					"donations(address)": "cc6cb19a",
					"getBalance()": "12065fe0",
					"owner()": "8da5cb5b",
					"transferDonation(address,uint256)": "b53a9a0e"
				}
			},
			"storageLayout": {
				"storage": [
					{
						"astId": 3,
						"contract": "Assignment4/q5.sol:Donation",
						"label": "owner",
						"offset": 0,
						"slot": "0",
						"type": "t_address"
					},
					{
						"astId": 7,
						"contract": "Assignment4/q5.sol:Donation",
						"label": "donations",
						"offset": 0,
						"slot": "1",
						"type": "t_mapping(t_address,t_uint256)"
					}
				],
				"types": {
					"t_address": {
						"encoding": "inplace",
						"label": "address",
						"numberOfBytes": "20"
					},
					"t_mapping(t_address,t_uint256)": {
						"encoding": "mapping",
						"key": "t_address",
						"label": "mapping(address => uint256)",
						"numberOfBytes": "32",
						"value": "t_uint256"
					},
					"t_uint256": {
						"encoding": "inplace",
						"label": "uint256",
						"numberOfBytes": "32"
					}
				}
			},
			"userdoc": {
				"kind": "user",
				"methods": {},
				"version": 1
			}
		}
	}
}