{
	"Assignment4/q1.sol": {
		"HashWithPrefix": {
			"abi": [
				{
					"inputs": [
						{
							"internalType": "string",
							"name": "prefix",
							"type": "string"
						},
						{
							"internalType": "uint256",
							"name": "maxIterations",
							"type": "uint256"
						}
					],
					"name": "findHashWithPrefix",
					"outputs": [
						{
							"internalType": "string",
							"name": "",
							"type": "string"
						},
						{
							"internalType": "bytes32",
							"name": "",
							"type": "bytes32"
						}
					],
					"stateMutability": "pure",
					"type": "function"
				}
			],
			"devdoc": {
				"kind": "dev",
				"methods": {},
				"version": 1
			},
			"evm": {
				"assembly": "    /* \"Assignment4/q1.sol\":60:1036  contract HashWithPrefix {... */\n  mstore(0x40, 0x80)\n  callvalue\n  dup1\n  iszero\n  tag_1\n  jumpi\n  0x00\n  dup1\n  revert\ntag_1:\n  pop\n  dataSize(sub_0)\n  dup1\n  dataOffset(sub_0)\n  0x00\n  codecopy\n  0x00\n  return\nstop\n\nsub_0: assembly {\n        /* \"Assignment4/q1.sol\":60:1036  contract HashWithPrefix {... */\n      mstore(0x40, 0x80)\n      callvalue\n      dup1\n      iszero\n      tag_1\n      jumpi\n      0x00\n      dup1\n      revert\n    tag_1:\n      pop\n      jumpi(tag_2, lt(calldatasize, 0x04))\n      shr(0xe0, calldataload(0x00))\n      dup1\n      0xe6319bfb\n      eq\n      tag_3\n      jumpi\n    tag_2:\n      0x00\n      dup1\n      revert\n        /* \"Assignment4/q1.sol\":91:633  function findHashWithPrefix(string memory prefix, uint256 maxIterations) public pure returns (string memory, bytes32) {... */\n    tag_3:\n      tag_4\n      0x04\n      dup1\n      calldatasize\n      sub\n      dup2\n      add\n      swap1\n      tag_5\n      swap2\n      swap1\n      tag_6\n      jump\t// in\n    tag_5:\n      tag_7\n      jump\t// in\n    tag_4:\n      mload(0x40)\n      tag_8\n      swap3\n      swap2\n      swap1\n      tag_9\n      jump\t// in\n    tag_8:\n      mload(0x40)\n      dup1\n      swap2\n      sub\n      swap1\n      return\n    tag_7:\n        /* \"Assignment4/q1.sol\":185:198  string memory */\n      0x60\n        /* \"Assignment4/q1.sol\":200:207  bytes32 */\n      0x00\n        /* \"Assignment4/q1.sol\":220:229  uint256 i */\n      dup1\n        /* \"Assignment4/q1.sol\":232:233  0 */\n      0x00\n        /* \"Assignment4/q1.sol\":220:233  uint256 i = 0 */\n      swap1\n      pop\n        /* \"Assignment4/q1.sol\":244:524  while (i < maxIterations) {... */\n    tag_11:\n        /* \"Assignment4/q1.sol\":255:268  maxIterations */\n      dup4\n        /* \"Assignment4/q1.sol\":251:252  i */\n      dup2\n        /* \"Assignment4/q1.sol\":251:268  i < maxIterations */\n      lt\n        /* \"Assignment4/q1.sol\":244:524  while (i < maxIterations) {... */\n      iszero\n      tag_12\n      jumpi\n        /* \"Assignment4/q1.sol\":285:304  string memory input */\n      0x00\n        /* \"Assignment4/q1.sol\":331:332  i */\n      dup2\n        /* \"Assignment4/q1.sol\":314:333  abi.encodePacked(i) */\n      add(0x20, mload(0x40))\n      tag_13\n      swap2\n      swap1\n      tag_14\n      jump\t// in\n    tag_13:\n      mload(0x40)\n      0x20\n      dup2\n      dup4\n      sub\n      sub\n      dup2\n      mstore\n      swap1\n      0x40\n      mstore\n        /* \"Assignment4/q1.sol\":285:334  string memory input = string(abi.encodePacked(i)) */\n      swap1\n      pop\n        /* \"Assignment4/q1.sol\":349:361  bytes32 hash */\n      0x00\n        /* \"Assignment4/q1.sol\":364:395  sha256(abi.encodePacked(input)) */\n      0x02\n        /* \"Assignment4/q1.sol\":388:393  input */\n      dup3\n        /* \"Assignment4/q1.sol\":371:394  abi.encodePacked(input) */\n      add(0x20, mload(0x40))\n      tag_15\n      swap2\n      swap1\n      tag_16\n      jump\t// in\n    tag_15:\n      mload(0x40)\n      0x20\n      dup2\n      dup4\n      sub\n      sub\n      dup2\n      mstore\n      swap1\n      0x40\n      mstore\n        /* \"Assignment4/q1.sol\":364:395  sha256(abi.encodePacked(input)) */\n      mload(0x40)\n      tag_17\n      swap2\n      swap1\n      tag_18\n      jump\t// in\n    tag_17:\n      0x20\n      mload(0x40)\n      dup1\n      dup4\n      sub\n      dup2\n      dup6\n      gas\n      staticcall\n      iszero\n      dup1\n      iszero\n      tag_20\n      jumpi\n      returndatasize\n      0x00\n      dup1\n      returndatacopy\n      revert(0x00, returndatasize)\n    tag_20:\n      pop\n      pop\n      pop\n      mload(0x40)\n      returndatasize\n      not(0x1f)\n      0x1f\n      dup3\n      add\n      and\n      dup3\n      add\n      dup1\n      0x40\n      mstore\n      pop\n      dup2\n      add\n      swap1\n      tag_21\n      swap2\n      swap1\n      tag_22\n      jump\t// in\n    tag_21:\n        /* \"Assignment4/q1.sol\":349:395  bytes32 hash = sha256(abi.encodePacked(input)) */\n      swap1\n      pop\n        /* \"Assignment4/q1.sol\":414:438  startsWith(hash, prefix) */\n      tag_23\n        /* \"Assignment4/q1.sol\":425:429  hash */\n      dup2\n        /* \"Assignment4/q1.sol\":431:437  prefix */\n      dup9\n        /* \"Assignment4/q1.sol\":414:424  startsWith */\n      tag_24\n        /* \"Assignment4/q1.sol\":414:438  startsWith(hash, prefix) */\n      jump\t// in\n    tag_23:\n        /* \"Assignment4/q1.sol\":410:495  if (startsWith(hash, prefix)) {... */\n      iszero\n      tag_25\n      jumpi\n        /* \"Assignment4/q1.sol\":467:472  input */\n      dup2\n        /* \"Assignment4/q1.sol\":474:478  hash */\n      dup2\n        /* \"Assignment4/q1.sol\":459:479  return (input, hash) */\n      swap5\n      pop\n      swap5\n      pop\n      pop\n      pop\n      pop\n      jump(tag_10)\n        /* \"Assignment4/q1.sol\":410:495  if (startsWith(hash, prefix)) {... */\n    tag_25:\n        /* \"Assignment4/q1.sol\":509:512  i++ */\n      dup3\n      dup1\n      tag_26\n      swap1\n      tag_27\n      jump\t// in\n    tag_26:\n      swap4\n      pop\n      pop\n        /* \"Assignment4/q1.sol\":270:524  {... */\n      pop\n      pop\n        /* \"Assignment4/q1.sol\":244:524  while (i < maxIterations) {... */\n      jump(tag_11)\n    tag_12:\n        /* \"Assignment4/q1.sol\":557:558  0 */\n      0x00\n        /* \"Assignment4/q1.sol\":549:559  bytes32(0) */\n      dup1\n      shl\n        /* \"Assignment4/q1.sol\":534:560  return (\"abc\", bytes32(0)) */\n      mload(0x40)\n      dup1\n      0x40\n      add\n      0x40\n      mstore\n      dup1\n      0x03\n      dup2\n      mstore\n      0x20\n      add\n      0x6162630000000000000000000000000000000000000000000000000000000000\n      dup2\n      mstore\n      pop\n      swap1\n      swap3\n      pop\n      swap3\n      pop\n      pop\n        /* \"Assignment4/q1.sol\":91:633  function findHashWithPrefix(string memory prefix, uint256 maxIterations) public pure returns (string memory, bytes32) {... */\n    tag_10:\n      swap3\n      pop\n      swap3\n      swap1\n      pop\n      jump\t// out\n        /* \"Assignment4/q1.sol\":641:1033  function startsWith(bytes32 hash, string memory prefix) internal pure returns (bool) {... */\n    tag_24:\n        /* \"Assignment4/q1.sol\":720:724  bool */\n      0x00\n        /* \"Assignment4/q1.sol\":737:759  bytes memory hashBytes */\n      dup1\n        /* \"Assignment4/q1.sol\":779:783  hash */\n      dup4\n        /* \"Assignment4/q1.sol\":762:784  abi.encodePacked(hash) */\n      add(0x20, mload(0x40))\n      tag_29\n      swap2\n      swap1\n      tag_30\n      jump\t// in\n    tag_29:\n      mload(0x40)\n      0x20\n      dup2\n      dup4\n      sub\n      sub\n      dup2\n      mstore\n      swap1\n      0x40\n      mstore\n        /* \"Assignment4/q1.sol\":737:784  bytes memory hashBytes = abi.encodePacked(hash) */\n      swap1\n      pop\n        /* \"Assignment4/q1.sol\":795:819  bytes memory prefixBytes */\n      0x00\n        /* \"Assignment4/q1.sol\":828:834  prefix */\n      dup4\n        /* \"Assignment4/q1.sol\":795:835  bytes memory prefixBytes = bytes(prefix) */\n      swap1\n      pop\n        /* \"Assignment4/q1.sol\":851:860  uint256 i */\n      0x00\n        /* \"Assignment4/q1.sol\":846:1004  for (uint256 i = 0; i < prefixBytes.length; i++) {... */\n    tag_31:\n        /* \"Assignment4/q1.sol\":870:881  prefixBytes */\n      dup2\n        /* \"Assignment4/q1.sol\":870:888  prefixBytes.length */\n      mload\n        /* \"Assignment4/q1.sol\":866:867  i */\n      dup2\n        /* \"Assignment4/q1.sol\":866:888  i < prefixBytes.length */\n      lt\n        /* \"Assignment4/q1.sol\":846:1004  for (uint256 i = 0; i < prefixBytes.length; i++) {... */\n      iszero\n      tag_32\n      jumpi\n        /* \"Assignment4/q1.sol\":930:941  prefixBytes */\n      dup2\n        /* \"Assignment4/q1.sol\":942:943  i */\n      dup2\n        /* \"Assignment4/q1.sol\":930:944  prefixBytes[i] */\n      dup2\n      mload\n      dup2\n      lt\n      tag_34\n      jumpi\n      tag_35\n      tag_36\n      jump\t// in\n    tag_35:\n    tag_34:\n      0x20\n      add\n      add\n      mload\n      0xf8\n      shr\n      0xf8\n      shl\n        /* \"Assignment4/q1.sol\":914:944  hashBytes[i] != prefixBytes[i] */\n      not(0xffffffffffffffffffffffffffffffffffffffffffffffffffffffffffffff)\n      and\n        /* \"Assignment4/q1.sol\":914:923  hashBytes */\n      dup4\n        /* \"Assignment4/q1.sol\":924:925  i */\n      dup3\n        /* \"Assignment4/q1.sol\":914:926  hashBytes[i] */\n      dup2\n      mload\n      dup2\n      lt\n      tag_37\n      jumpi\n      tag_38\n      tag_36\n      jump\t// in\n    tag_38:\n    tag_37:\n      0x20\n      add\n      add\n      mload\n      0xf8\n      shr\n      0xf8\n      shl\n        /* \"Assignment4/q1.sol\":914:944  hashBytes[i] != prefixBytes[i] */\n      not(0xffffffffffffffffffffffffffffffffffffffffffffffffffffffffffffff)\n      and\n      eq\n        /* \"Assignment4/q1.sol\":910:993  if (hashBytes[i] != prefixBytes[i]) {... */\n      tag_39\n      jumpi\n        /* \"Assignment4/q1.sol\":972:977  false */\n      0x00\n        /* \"Assignment4/q1.sol\":965:977  return false */\n      swap4\n      pop\n      pop\n      pop\n      pop\n      jump(tag_28)\n        /* \"Assignment4/q1.sol\":910:993  if (hashBytes[i] != prefixBytes[i]) {... */\n    tag_39:\n        /* \"Assignment4/q1.sol\":890:893  i++ */\n      dup1\n      dup1\n      0x01\n      add\n      swap2\n      pop\n      pop\n        /* \"Assignment4/q1.sol\":846:1004  for (uint256 i = 0; i < prefixBytes.length; i++) {... */\n      jump(tag_31)\n    tag_32:\n      pop\n        /* \"Assignment4/q1.sol\":1021:1025  true */\n      0x01\n        /* \"Assignment4/q1.sol\":1014:1025  return true */\n      swap3\n      pop\n      pop\n      pop\n        /* \"Assignment4/q1.sol\":641:1033  function startsWith(bytes32 hash, string memory prefix) internal pure returns (bool) {... */\n    tag_28:\n      swap3\n      swap2\n      pop\n      pop\n      jump\t// out\n        /* \"#utility.yul\":7:82   */\n    tag_40:\n        /* \"#utility.yul\":40:46   */\n      0x00\n        /* \"#utility.yul\":73:75   */\n      0x40\n        /* \"#utility.yul\":67:76   */\n      mload\n        /* \"#utility.yul\":57:76   */\n      swap1\n      pop\n        /* \"#utility.yul\":7:82   */\n      swap1\n      jump\t// out\n        /* \"#utility.yul\":88:205   */\n    tag_41:\n        /* \"#utility.yul\":197:198   */\n      0x00\n        /* \"#utility.yul\":194:195   */\n      dup1\n        /* \"#utility.yul\":187:199   */\n      revert\n        /* \"#utility.yul\":211:328   */\n    tag_42:\n        /* \"#utility.yul\":320:321   */\n      0x00\n        /* \"#utility.yul\":317:318   */\n      dup1\n        /* \"#utility.yul\":310:322   */\n      revert\n        /* \"#utility.yul\":334:451   */\n    tag_43:\n        /* \"#utility.yul\":443:444   */\n      0x00\n        /* \"#utility.yul\":440:441   */\n      dup1\n        /* \"#utility.yul\":433:445   */\n      revert\n        /* \"#utility.yul\":457:574   */\n    tag_44:\n        /* \"#utility.yul\":566:567   */\n      0x00\n        /* \"#utility.yul\":563:564   */\n      dup1\n        /* \"#utility.yul\":556:568   */\n      revert\n        /* \"#utility.yul\":580:682   */\n    tag_45:\n        /* \"#utility.yul\":621:627   */\n      0x00\n        /* \"#utility.yul\":672:674   */\n      0x1f\n        /* \"#utility.yul\":668:675   */\n      not\n        /* \"#utility.yul\":663:665   */\n      0x1f\n        /* \"#utility.yul\":656:661   */\n      dup4\n        /* \"#utility.yul\":652:666   */\n      add\n        /* \"#utility.yul\":648:676   */\n      and\n        /* \"#utility.yul\":638:676   */\n      swap1\n      pop\n        /* \"#utility.yul\":580:682   */\n      swap2\n      swap1\n      pop\n      jump\t// out\n        /* \"#utility.yul\":688:868   */\n    tag_46:\n        /* \"#utility.yul\":736:813   */\n      0x4e487b7100000000000000000000000000000000000000000000000000000000\n        /* \"#utility.yul\":733:734   */\n      0x00\n        /* \"#utility.yul\":726:814   */\n      mstore\n        /* \"#utility.yul\":833:837   */\n      0x41\n        /* \"#utility.yul\":830:831   */\n      0x04\n        /* \"#utility.yul\":823:838   */\n      mstore\n        /* \"#utility.yul\":857:861   */\n      0x24\n        /* \"#utility.yul\":854:855   */\n      0x00\n        /* \"#utility.yul\":847:862   */\n      revert\n        /* \"#utility.yul\":874:1155   */\n    tag_47:\n        /* \"#utility.yul\":957:984   */\n      tag_83\n        /* \"#utility.yul\":979:983   */\n      dup3\n        /* \"#utility.yul\":957:984   */\n      tag_45\n      jump\t// in\n    tag_83:\n        /* \"#utility.yul\":949:955   */\n      dup2\n        /* \"#utility.yul\":945:985   */\n      add\n        /* \"#utility.yul\":1087:1093   */\n      dup2\n        /* \"#utility.yul\":1075:1085   */\n      dup2\n        /* \"#utility.yul\":1072:1094   */\n      lt\n        /* \"#utility.yul\":1051:1069   */\n      0xffffffffffffffff\n        /* \"#utility.yul\":1039:1049   */\n      dup3\n        /* \"#utility.yul\":1036:1070   */\n      gt\n        /* \"#utility.yul\":1033:1095   */\n      or\n        /* \"#utility.yul\":1030:1118   */\n      iszero\n      tag_84\n      jumpi\n        /* \"#utility.yul\":1098:1116   */\n      tag_85\n      tag_46\n      jump\t// in\n    tag_85:\n        /* \"#utility.yul\":1030:1118   */\n    tag_84:\n        /* \"#utility.yul\":1138:1148   */\n      dup1\n        /* \"#utility.yul\":1134:1136   */\n      0x40\n        /* \"#utility.yul\":1127:1149   */\n      mstore\n        /* \"#utility.yul\":917:1155   */\n      pop\n        /* \"#utility.yul\":874:1155   */\n      pop\n      pop\n      jump\t// out\n        /* \"#utility.yul\":1161:1290   */\n    tag_48:\n        /* \"#utility.yul\":1195:1201   */\n      0x00\n        /* \"#utility.yul\":1222:1242   */\n      tag_87\n      tag_40\n      jump\t// in\n    tag_87:\n        /* \"#utility.yul\":1212:1242   */\n      swap1\n      pop\n        /* \"#utility.yul\":1251:1284   */\n      tag_88\n        /* \"#utility.yul\":1279:1283   */\n      dup3\n        /* \"#utility.yul\":1271:1277   */\n      dup3\n        /* \"#utility.yul\":1251:1284   */\n      tag_47\n      jump\t// in\n    tag_88:\n        /* \"#utility.yul\":1161:1290   */\n      swap2\n      swap1\n      pop\n      jump\t// out\n        /* \"#utility.yul\":1296:1604   */\n    tag_49:\n        /* \"#utility.yul\":1358:1362   */\n      0x00\n        /* \"#utility.yul\":1448:1466   */\n      0xffffffffffffffff\n        /* \"#utility.yul\":1440:1446   */\n      dup3\n        /* \"#utility.yul\":1437:1467   */\n      gt\n        /* \"#utility.yul\":1434:1490   */\n      iszero\n      tag_90\n      jumpi\n        /* \"#utility.yul\":1470:1488   */\n      tag_91\n      tag_46\n      jump\t// in\n    tag_91:\n        /* \"#utility.yul\":1434:1490   */\n    tag_90:\n        /* \"#utility.yul\":1508:1537   */\n      tag_92\n        /* \"#utility.yul\":1530:1536   */\n      dup3\n        /* \"#utility.yul\":1508:1537   */\n      tag_45\n      jump\t// in\n    tag_92:\n        /* \"#utility.yul\":1500:1537   */\n      swap1\n      pop\n        /* \"#utility.yul\":1592:1596   */\n      0x20\n        /* \"#utility.yul\":1586:1590   */\n      dup2\n        /* \"#utility.yul\":1582:1597   */\n      add\n        /* \"#utility.yul\":1574:1597   */\n      swap1\n      pop\n        /* \"#utility.yul\":1296:1604   */\n      swap2\n      swap1\n      pop\n      jump\t// out\n        /* \"#utility.yul\":1610:1758   */\n    tag_50:\n        /* \"#utility.yul\":1708:1714   */\n      dup3\n        /* \"#utility.yul\":1703:1706   */\n      dup2\n        /* \"#utility.yul\":1698:1701   */\n      dup4\n        /* \"#utility.yul\":1685:1715   */\n      calldatacopy\n        /* \"#utility.yul\":1749:1750   */\n      0x00\n        /* \"#utility.yul\":1740:1746   */\n      dup4\n        /* \"#utility.yul\":1735:1738   */\n      dup4\n        /* \"#utility.yul\":1731:1747   */\n      add\n        /* \"#utility.yul\":1724:1751   */\n      mstore\n        /* \"#utility.yul\":1610:1758   */\n      pop\n      pop\n      pop\n      jump\t// out\n        /* \"#utility.yul\":1764:2189   */\n    tag_51:\n        /* \"#utility.yul\":1842:1847   */\n      0x00\n        /* \"#utility.yul\":1867:1933   */\n      tag_95\n        /* \"#utility.yul\":1883:1932   */\n      tag_96\n        /* \"#utility.yul\":1925:1931   */\n      dup5\n        /* \"#utility.yul\":1883:1932   */\n      tag_49\n      jump\t// in\n    tag_96:\n        /* \"#utility.yul\":1867:1933   */\n      tag_48\n      jump\t// in\n    tag_95:\n        /* \"#utility.yul\":1858:1933   */\n      swap1\n      pop\n        /* \"#utility.yul\":1956:1962   */\n      dup3\n        /* \"#utility.yul\":1949:1954   */\n      dup2\n        /* \"#utility.yul\":1942:1963   */\n      mstore\n        /* \"#utility.yul\":1994:1998   */\n      0x20\n        /* \"#utility.yul\":1987:1992   */\n      dup2\n        /* \"#utility.yul\":1983:1999   */\n      add\n        /* \"#utility.yul\":2032:2035   */\n      dup5\n        /* \"#utility.yul\":2023:2029   */\n      dup5\n        /* \"#utility.yul\":2018:2021   */\n      dup5\n        /* \"#utility.yul\":2014:2030   */\n      add\n        /* \"#utility.yul\":2011:2036   */\n      gt\n        /* \"#utility.yul\":2008:2120   */\n      iszero\n      tag_97\n      jumpi\n        /* \"#utility.yul\":2039:2118   */\n      tag_98\n      tag_44\n      jump\t// in\n    tag_98:\n        /* \"#utility.yul\":2008:2120   */\n    tag_97:\n        /* \"#utility.yul\":2129:2183   */\n      tag_99\n        /* \"#utility.yul\":2176:2182   */\n      dup5\n        /* \"#utility.yul\":2171:2174   */\n      dup3\n        /* \"#utility.yul\":2166:2169   */\n      dup6\n        /* \"#utility.yul\":2129:2183   */\n      tag_50\n      jump\t// in\n    tag_99:\n        /* \"#utility.yul\":1848:2189   */\n      pop\n        /* \"#utility.yul\":1764:2189   */\n      swap4\n      swap3\n      pop\n      pop\n      pop\n      jump\t// out\n        /* \"#utility.yul\":2209:2549   */\n    tag_52:\n        /* \"#utility.yul\":2265:2270   */\n      0x00\n        /* \"#utility.yul\":2314:2317   */\n      dup3\n        /* \"#utility.yul\":2307:2311   */\n      0x1f\n        /* \"#utility.yul\":2299:2305   */\n      dup4\n        /* \"#utility.yul\":2295:2312   */\n      add\n        /* \"#utility.yul\":2291:2318   */\n      slt\n        /* \"#utility.yul\":2281:2403   */\n      tag_101\n      jumpi\n        /* \"#utility.yul\":2322:2401   */\n      tag_102\n      tag_43\n      jump\t// in\n    tag_102:\n        /* \"#utility.yul\":2281:2403   */\n    tag_101:\n        /* \"#utility.yul\":2439:2445   */\n      dup2\n        /* \"#utility.yul\":2426:2446   */\n      calldataload\n        /* \"#utility.yul\":2464:2543   */\n      tag_103\n        /* \"#utility.yul\":2539:2542   */\n      dup5\n        /* \"#utility.yul\":2531:2537   */\n      dup3\n        /* \"#utility.yul\":2524:2528   */\n      0x20\n        /* \"#utility.yul\":2516:2522   */\n      dup7\n        /* \"#utility.yul\":2512:2529   */\n      add\n        /* \"#utility.yul\":2464:2543   */\n      tag_51\n      jump\t// in\n    tag_103:\n        /* \"#utility.yul\":2455:2543   */\n      swap2\n      pop\n        /* \"#utility.yul\":2271:2549   */\n      pop\n        /* \"#utility.yul\":2209:2549   */\n      swap3\n      swap2\n      pop\n      pop\n      jump\t// out\n        /* \"#utility.yul\":2555:2632   */\n    tag_53:\n        /* \"#utility.yul\":2592:2599   */\n      0x00\n        /* \"#utility.yul\":2621:2626   */\n      dup2\n        /* \"#utility.yul\":2610:2626   */\n      swap1\n      pop\n        /* \"#utility.yul\":2555:2632   */\n      swap2\n      swap1\n      pop\n      jump\t// out\n        /* \"#utility.yul\":2638:2760   */\n    tag_54:\n        /* \"#utility.yul\":2711:2735   */\n      tag_106\n        /* \"#utility.yul\":2729:2734   */\n      dup2\n        /* \"#utility.yul\":2711:2735   */\n      tag_53\n      jump\t// in\n    tag_106:\n        /* \"#utility.yul\":2704:2709   */\n      dup2\n        /* \"#utility.yul\":2701:2736   */\n      eq\n        /* \"#utility.yul\":2691:2754   */\n      tag_107\n      jumpi\n        /* \"#utility.yul\":2750:2751   */\n      0x00\n        /* \"#utility.yul\":2747:2748   */\n      dup1\n        /* \"#utility.yul\":2740:2752   */\n      revert\n        /* \"#utility.yul\":2691:2754   */\n    tag_107:\n        /* \"#utility.yul\":2638:2760   */\n      pop\n      jump\t// out\n        /* \"#utility.yul\":2766:2905   */\n    tag_55:\n        /* \"#utility.yul\":2812:2817   */\n      0x00\n        /* \"#utility.yul\":2850:2856   */\n      dup2\n        /* \"#utility.yul\":2837:2857   */\n      calldataload\n        /* \"#utility.yul\":2828:2857   */\n      swap1\n      pop\n        /* \"#utility.yul\":2866:2899   */\n      tag_109\n        /* \"#utility.yul\":2893:2898   */\n      dup2\n        /* \"#utility.yul\":2866:2899   */\n      tag_54\n      jump\t// in\n    tag_109:\n        /* \"#utility.yul\":2766:2905   */\n      swap3\n      swap2\n      pop\n      pop\n      jump\t// out\n        /* \"#utility.yul\":2911:3565   */\n    tag_6:\n        /* \"#utility.yul\":2989:2995   */\n      0x00\n        /* \"#utility.yul\":2997:3003   */\n      dup1\n        /* \"#utility.yul\":3046:3048   */\n      0x40\n        /* \"#utility.yul\":3034:3043   */\n      dup4\n        /* \"#utility.yul\":3025:3032   */\n      dup6\n        /* \"#utility.yul\":3021:3044   */\n      sub\n        /* \"#utility.yul\":3017:3049   */\n      slt\n        /* \"#utility.yul\":3014:3133   */\n      iszero\n      tag_111\n      jumpi\n        /* \"#utility.yul\":3052:3131   */\n      tag_112\n      tag_41\n      jump\t// in\n    tag_112:\n        /* \"#utility.yul\":3014:3133   */\n    tag_111:\n        /* \"#utility.yul\":3200:3201   */\n      0x00\n        /* \"#utility.yul\":3189:3198   */\n      dup4\n        /* \"#utility.yul\":3185:3202   */\n      add\n        /* \"#utility.yul\":3172:3203   */\n      calldataload\n        /* \"#utility.yul\":3230:3248   */\n      0xffffffffffffffff\n        /* \"#utility.yul\":3222:3228   */\n      dup2\n        /* \"#utility.yul\":3219:3249   */\n      gt\n        /* \"#utility.yul\":3216:3333   */\n      iszero\n      tag_113\n      jumpi\n        /* \"#utility.yul\":3252:3331   */\n      tag_114\n      tag_42\n      jump\t// in\n    tag_114:\n        /* \"#utility.yul\":3216:3333   */\n    tag_113:\n        /* \"#utility.yul\":3357:3420   */\n      tag_115\n        /* \"#utility.yul\":3412:3419   */\n      dup6\n        /* \"#utility.yul\":3403:3409   */\n      dup3\n        /* \"#utility.yul\":3392:3401   */\n      dup7\n        /* \"#utility.yul\":3388:3410   */\n      add\n        /* \"#utility.yul\":3357:3420   */\n      tag_52\n      jump\t// in\n    tag_115:\n        /* \"#utility.yul\":3347:3420   */\n      swap3\n      pop\n        /* \"#utility.yul\":3143:3430   */\n      pop\n        /* \"#utility.yul\":3469:3471   */\n      0x20\n        /* \"#utility.yul\":3495:3548   */\n      tag_116\n        /* \"#utility.yul\":3540:3547   */\n      dup6\n        /* \"#utility.yul\":3531:3537   */\n      dup3\n        /* \"#utility.yul\":3520:3529   */\n      dup7\n        /* \"#utility.yul\":3516:3538   */\n      add\n        /* \"#utility.yul\":3495:3548   */\n      tag_55\n      jump\t// in\n    tag_116:\n        /* \"#utility.yul\":3485:3548   */\n      swap2\n      pop\n        /* \"#utility.yul\":3440:3558   */\n      pop\n        /* \"#utility.yul\":2911:3565   */\n      swap3\n      pop\n      swap3\n      swap1\n      pop\n      jump\t// out\n        /* \"#utility.yul\":3571:3670   */\n    tag_56:\n        /* \"#utility.yul\":3623:3629   */\n      0x00\n        /* \"#utility.yul\":3657:3662   */\n      dup2\n        /* \"#utility.yul\":3651:3663   */\n      mload\n        /* \"#utility.yul\":3641:3663   */\n      swap1\n      pop\n        /* \"#utility.yul\":3571:3670   */\n      swap2\n      swap1\n      pop\n      jump\t// out\n        /* \"#utility.yul\":3676:3845   */\n    tag_57:\n        /* \"#utility.yul\":3760:3771   */\n      0x00\n        /* \"#utility.yul\":3794:3800   */\n      dup3\n        /* \"#utility.yul\":3789:3792   */\n      dup3\n        /* \"#utility.yul\":3782:3801   */\n      mstore\n        /* \"#utility.yul\":3834:3838   */\n      0x20\n        /* \"#utility.yul\":3829:3832   */\n      dup3\n        /* \"#utility.yul\":3825:3839   */\n      add\n        /* \"#utility.yul\":3810:3839   */\n      swap1\n      pop\n        /* \"#utility.yul\":3676:3845   */\n      swap3\n      swap2\n      pop\n      pop\n      jump\t// out\n        /* \"#utility.yul\":3851:3990   */\n    tag_58:\n        /* \"#utility.yul\":3940:3946   */\n      dup3\n        /* \"#utility.yul\":3935:3938   */\n      dup2\n        /* \"#utility.yul\":3930:3933   */\n      dup4\n        /* \"#utility.yul\":3924:3947   */\n      mcopy\n        /* \"#utility.yul\":3981:3982   */\n      0x00\n        /* \"#utility.yul\":3972:3978   */\n      dup4\n        /* \"#utility.yul\":3967:3970   */\n      dup4\n        /* \"#utility.yul\":3963:3979   */\n      add\n        /* \"#utility.yul\":3956:3983   */\n      mstore\n        /* \"#utility.yul\":3851:3990   */\n      pop\n      pop\n      pop\n      jump\t// out\n        /* \"#utility.yul\":3996:4373   */\n    tag_59:\n        /* \"#utility.yul\":4084:4087   */\n      0x00\n        /* \"#utility.yul\":4112:4151   */\n      tag_121\n        /* \"#utility.yul\":4145:4150   */\n      dup3\n        /* \"#utility.yul\":4112:4151   */\n      tag_56\n      jump\t// in\n    tag_121:\n        /* \"#utility.yul\":4167:4238   */\n      tag_122\n        /* \"#utility.yul\":4231:4237   */\n      dup2\n        /* \"#utility.yul\":4226:4229   */\n      dup6\n        /* \"#utility.yul\":4167:4238   */\n      tag_57\n      jump\t// in\n    tag_122:\n        /* \"#utility.yul\":4160:4238   */\n      swap4\n      pop\n        /* \"#utility.yul\":4247:4312   */\n      tag_123\n        /* \"#utility.yul\":4305:4311   */\n      dup2\n        /* \"#utility.yul\":4300:4303   */\n      dup6\n        /* \"#utility.yul\":4293:4297   */\n      0x20\n        /* \"#utility.yul\":4286:4291   */\n      dup7\n        /* \"#utility.yul\":4282:4298   */\n      add\n        /* \"#utility.yul\":4247:4312   */\n      tag_58\n      jump\t// in\n    tag_123:\n        /* \"#utility.yul\":4337:4366   */\n      tag_124\n        /* \"#utility.yul\":4359:4365   */\n      dup2\n        /* \"#utility.yul\":4337:4366   */\n      tag_45\n      jump\t// in\n    tag_124:\n        /* \"#utility.yul\":4332:4335   */\n      dup5\n        /* \"#utility.yul\":4328:4367   */\n      add\n        /* \"#utility.yul\":4321:4367   */\n      swap2\n      pop\n        /* \"#utility.yul\":4088:4373   */\n      pop\n        /* \"#utility.yul\":3996:4373   */\n      swap3\n      swap2\n      pop\n      pop\n      jump\t// out\n        /* \"#utility.yul\":4379:4456   */\n    tag_60:\n        /* \"#utility.yul\":4416:4423   */\n      0x00\n        /* \"#utility.yul\":4445:4450   */\n      dup2\n        /* \"#utility.yul\":4434:4450   */\n      swap1\n      pop\n        /* \"#utility.yul\":4379:4456   */\n      swap2\n      swap1\n      pop\n      jump\t// out\n        /* \"#utility.yul\":4462:4580   */\n    tag_61:\n        /* \"#utility.yul\":4549:4573   */\n      tag_127\n        /* \"#utility.yul\":4567:4572   */\n      dup2\n        /* \"#utility.yul\":4549:4573   */\n      tag_60\n      jump\t// in\n    tag_127:\n        /* \"#utility.yul\":4544:4547   */\n      dup3\n        /* \"#utility.yul\":4537:4574   */\n      mstore\n        /* \"#utility.yul\":4462:4580   */\n      pop\n      pop\n      jump\t// out\n        /* \"#utility.yul\":4586:5009   */\n    tag_9:\n        /* \"#utility.yul\":4727:4731   */\n      0x00\n        /* \"#utility.yul\":4765:4767   */\n      0x40\n        /* \"#utility.yul\":4754:4763   */\n      dup3\n        /* \"#utility.yul\":4750:4768   */\n      add\n        /* \"#utility.yul\":4742:4768   */\n      swap1\n      pop\n        /* \"#utility.yul\":4814:4823   */\n      dup2\n        /* \"#utility.yul\":4808:4812   */\n      dup2\n        /* \"#utility.yul\":4804:4824   */\n      sub\n        /* \"#utility.yul\":4800:4801   */\n      0x00\n        /* \"#utility.yul\":4789:4798   */\n      dup4\n        /* \"#utility.yul\":4785:4802   */\n      add\n        /* \"#utility.yul\":4778:4825   */\n      mstore\n        /* \"#utility.yul\":4842:4920   */\n      tag_129\n        /* \"#utility.yul\":4915:4919   */\n      dup2\n        /* \"#utility.yul\":4906:4912   */\n      dup6\n        /* \"#utility.yul\":4842:4920   */\n      tag_59\n      jump\t// in\n    tag_129:\n        /* \"#utility.yul\":4834:4920   */\n      swap1\n      pop\n        /* \"#utility.yul\":4930:5002   */\n      tag_130\n        /* \"#utility.yul\":4998:5000   */\n      0x20\n        /* \"#utility.yul\":4987:4996   */\n      dup4\n        /* \"#utility.yul\":4983:5001   */\n      add\n        /* \"#utility.yul\":4974:4980   */\n      dup5\n        /* \"#utility.yul\":4930:5002   */\n      tag_61\n      jump\t// in\n    tag_130:\n        /* \"#utility.yul\":4586:5009   */\n      swap4\n      swap3\n      pop\n      pop\n      pop\n      jump\t// out\n        /* \"#utility.yul\":5015:5094   */\n    tag_62:\n        /* \"#utility.yul\":5054:5061   */\n      0x00\n        /* \"#utility.yul\":5083:5088   */\n      dup2\n        /* \"#utility.yul\":5072:5088   */\n      swap1\n      pop\n        /* \"#utility.yul\":5015:5094   */\n      swap2\n      swap1\n      pop\n      jump\t// out\n        /* \"#utility.yul\":5100:5257   */\n    tag_63:\n        /* \"#utility.yul\":5205:5250   */\n      tag_133\n        /* \"#utility.yul\":5225:5249   */\n      tag_134\n        /* \"#utility.yul\":5243:5248   */\n      dup3\n        /* \"#utility.yul\":5225:5249   */\n      tag_53\n      jump\t// in\n    tag_134:\n        /* \"#utility.yul\":5205:5250   */\n      tag_62\n      jump\t// in\n    tag_133:\n        /* \"#utility.yul\":5200:5203   */\n      dup3\n        /* \"#utility.yul\":5193:5251   */\n      mstore\n        /* \"#utility.yul\":5100:5257   */\n      pop\n      pop\n      jump\t// out\n        /* \"#utility.yul\":5263:5519   */\n    tag_14:\n        /* \"#utility.yul\":5375:5378   */\n      0x00\n        /* \"#utility.yul\":5390:5465   */\n      tag_136\n        /* \"#utility.yul\":5461:5464   */\n      dup3\n        /* \"#utility.yul\":5452:5458   */\n      dup5\n        /* \"#utility.yul\":5390:5465   */\n      tag_63\n      jump\t// in\n    tag_136:\n        /* \"#utility.yul\":5490:5492   */\n      0x20\n        /* \"#utility.yul\":5485:5488   */\n      dup3\n        /* \"#utility.yul\":5481:5493   */\n      add\n        /* \"#utility.yul\":5474:5493   */\n      swap2\n      pop\n        /* \"#utility.yul\":5510:5513   */\n      dup2\n        /* \"#utility.yul\":5503:5513   */\n      swap1\n      pop\n        /* \"#utility.yul\":5263:5519   */\n      swap3\n      swap2\n      pop\n      pop\n      jump\t// out\n        /* \"#utility.yul\":5525:5673   */\n    tag_64:\n        /* \"#utility.yul\":5627:5638   */\n      0x00\n        /* \"#utility.yul\":5664:5667   */\n      dup2\n        /* \"#utility.yul\":5649:5667   */\n      swap1\n      pop\n        /* \"#utility.yul\":5525:5673   */\n      swap3\n      swap2\n      pop\n      pop\n      jump\t// out\n        /* \"#utility.yul\":5679:6069   */\n    tag_65:\n        /* \"#utility.yul\":5785:5788   */\n      0x00\n        /* \"#utility.yul\":5813:5852   */\n      tag_139\n        /* \"#utility.yul\":5846:5851   */\n      dup3\n        /* \"#utility.yul\":5813:5852   */\n      tag_56\n      jump\t// in\n    tag_139:\n        /* \"#utility.yul\":5868:5957   */\n      tag_140\n        /* \"#utility.yul\":5950:5956   */\n      dup2\n        /* \"#utility.yul\":5945:5948   */\n      dup6\n        /* \"#utility.yul\":5868:5957   */\n      tag_64\n      jump\t// in\n    tag_140:\n        /* \"#utility.yul\":5861:5957   */\n      swap4\n      pop\n        /* \"#utility.yul\":5966:6031   */\n      tag_141\n        /* \"#utility.yul\":6024:6030   */\n      dup2\n        /* \"#utility.yul\":6019:6022   */\n      dup6\n        /* \"#utility.yul\":6012:6016   */\n      0x20\n        /* \"#utility.yul\":6005:6010   */\n      dup7\n        /* \"#utility.yul\":6001:6017   */\n      add\n        /* \"#utility.yul\":5966:6031   */\n      tag_58\n      jump\t// in\n    tag_141:\n        /* \"#utility.yul\":6056:6062   */\n      dup1\n        /* \"#utility.yul\":6051:6054   */\n      dup5\n        /* \"#utility.yul\":6047:6063   */\n      add\n        /* \"#utility.yul\":6040:6063   */\n      swap2\n      pop\n        /* \"#utility.yul\":5789:6069   */\n      pop\n        /* \"#utility.yul\":5679:6069   */\n      swap3\n      swap2\n      pop\n      pop\n      jump\t// out\n        /* \"#utility.yul\":6075:6350   */\n    tag_16:\n        /* \"#utility.yul\":6207:6210   */\n      0x00\n        /* \"#utility.yul\":6229:6324   */\n      tag_143\n        /* \"#utility.yul\":6320:6323   */\n      dup3\n        /* \"#utility.yul\":6311:6317   */\n      dup5\n        /* \"#utility.yul\":6229:6324   */\n      tag_65\n      jump\t// in\n    tag_143:\n        /* \"#utility.yul\":6222:6324   */\n      swap2\n      pop\n        /* \"#utility.yul\":6341:6344   */\n      dup2\n        /* \"#utility.yul\":6334:6344   */\n      swap1\n      pop\n        /* \"#utility.yul\":6075:6350   */\n      swap3\n      swap2\n      pop\n      pop\n      jump\t// out\n        /* \"#utility.yul\":6356:6454   */\n    tag_66:\n        /* \"#utility.yul\":6407:6413   */\n      0x00\n        /* \"#utility.yul\":6441:6446   */\n      dup2\n        /* \"#utility.yul\":6435:6447   */\n      mload\n        /* \"#utility.yul\":6425:6447   */\n      swap1\n      pop\n        /* \"#utility.yul\":6356:6454   */\n      swap2\n      swap1\n      pop\n      jump\t// out\n        /* \"#utility.yul\":6460:6607   */\n    tag_67:\n        /* \"#utility.yul\":6561:6572   */\n      0x00\n        /* \"#utility.yul\":6598:6601   */\n      dup2\n        /* \"#utility.yul\":6583:6601   */\n      swap1\n      pop\n        /* \"#utility.yul\":6460:6607   */\n      swap3\n      swap2\n      pop\n      pop\n      jump\t// out\n        /* \"#utility.yul\":6613:6999   */\n    tag_68:\n        /* \"#utility.yul\":6717:6720   */\n      0x00\n        /* \"#utility.yul\":6745:6783   */\n      tag_147\n        /* \"#utility.yul\":6777:6782   */\n      dup3\n        /* \"#utility.yul\":6745:6783   */\n      tag_66\n      jump\t// in\n    tag_147:\n        /* \"#utility.yul\":6799:6887   */\n      tag_148\n        /* \"#utility.yul\":6880:6886   */\n      dup2\n        /* \"#utility.yul\":6875:6878   */\n      dup6\n        /* \"#utility.yul\":6799:6887   */\n      tag_67\n      jump\t// in\n    tag_148:\n        /* \"#utility.yul\":6792:6887   */\n      swap4\n      pop\n        /* \"#utility.yul\":6896:6961   */\n      tag_149\n        /* \"#utility.yul\":6954:6960   */\n      dup2\n        /* \"#utility.yul\":6949:6952   */\n      dup6\n        /* \"#utility.yul\":6942:6946   */\n      0x20\n        /* \"#utility.yul\":6935:6940   */\n      dup7\n        /* \"#utility.yul\":6931:6947   */\n      add\n        /* \"#utility.yul\":6896:6961   */\n      tag_58\n      jump\t// in\n    tag_149:\n        /* \"#utility.yul\":6986:6992   */\n      dup1\n        /* \"#utility.yul\":6981:6984   */\n      dup5\n        /* \"#utility.yul\":6977:6993   */\n      add\n        /* \"#utility.yul\":6970:6993   */\n      swap2\n      pop\n        /* \"#utility.yul\":6721:6999   */\n      pop\n        /* \"#utility.yul\":6613:6999   */\n      swap3\n      swap2\n      pop\n      pop\n      jump\t// out\n        /* \"#utility.yul\":7005:7276   */\n    tag_18:\n        /* \"#utility.yul\":7135:7138   */\n      0x00\n        /* \"#utility.yul\":7157:7250   */\n      tag_151\n        /* \"#utility.yul\":7246:7249   */\n      dup3\n        /* \"#utility.yul\":7237:7243   */\n      dup5\n        /* \"#utility.yul\":7157:7250   */\n      tag_68\n      jump\t// in\n    tag_151:\n        /* \"#utility.yul\":7150:7250   */\n      swap2\n      pop\n        /* \"#utility.yul\":7267:7270   */\n      dup2\n        /* \"#utility.yul\":7260:7270   */\n      swap1\n      pop\n        /* \"#utility.yul\":7005:7276   */\n      swap3\n      swap2\n      pop\n      pop\n      jump\t// out\n        /* \"#utility.yul\":7282:7404   */\n    tag_69:\n        /* \"#utility.yul\":7355:7379   */\n      tag_153\n        /* \"#utility.yul\":7373:7378   */\n      dup2\n        /* \"#utility.yul\":7355:7379   */\n      tag_60\n      jump\t// in\n    tag_153:\n        /* \"#utility.yul\":7348:7353   */\n      dup2\n        /* \"#utility.yul\":7345:7380   */\n      eq\n        /* \"#utility.yul\":7335:7398   */\n      tag_154\n      jumpi\n        /* \"#utility.yul\":7394:7395   */\n      0x00\n        /* \"#utility.yul\":7391:7392   */\n      dup1\n        /* \"#utility.yul\":7384:7396   */\n      revert\n        /* \"#utility.yul\":7335:7398   */\n    tag_154:\n        /* \"#utility.yul\":7282:7404   */\n      pop\n      jump\t// out\n        /* \"#utility.yul\":7410:7553   */\n    tag_70:\n        /* \"#utility.yul\":7467:7472   */\n      0x00\n        /* \"#utility.yul\":7498:7504   */\n      dup2\n        /* \"#utility.yul\":7492:7505   */\n      mload\n        /* \"#utility.yul\":7483:7505   */\n      swap1\n      pop\n        /* \"#utility.yul\":7514:7547   */\n      tag_156\n        /* \"#utility.yul\":7541:7546   */\n      dup2\n        /* \"#utility.yul\":7514:7547   */\n      tag_69\n      jump\t// in\n    tag_156:\n        /* \"#utility.yul\":7410:7553   */\n      swap3\n      swap2\n      pop\n      pop\n      jump\t// out\n        /* \"#utility.yul\":7559:7910   */\n    tag_22:\n        /* \"#utility.yul\":7629:7635   */\n      0x00\n        /* \"#utility.yul\":7678:7680   */\n      0x20\n        /* \"#utility.yul\":7666:7675   */\n      dup3\n        /* \"#utility.yul\":7657:7664   */\n      dup5\n        /* \"#utility.yul\":7653:7676   */\n      sub\n        /* \"#utility.yul\":7649:7681   */\n      slt\n        /* \"#utility.yul\":7646:7765   */\n      iszero\n      tag_158\n      jumpi\n        /* \"#utility.yul\":7684:7763   */\n      tag_159\n      tag_41\n      jump\t// in\n    tag_159:\n        /* \"#utility.yul\":7646:7765   */\n    tag_158:\n        /* \"#utility.yul\":7804:7805   */\n      0x00\n        /* \"#utility.yul\":7829:7893   */\n      tag_160\n        /* \"#utility.yul\":7885:7892   */\n      dup5\n        /* \"#utility.yul\":7876:7882   */\n      dup3\n        /* \"#utility.yul\":7865:7874   */\n      dup6\n        /* \"#utility.yul\":7861:7883   */\n      add\n        /* \"#utility.yul\":7829:7893   */\n      tag_70\n      jump\t// in\n    tag_160:\n        /* \"#utility.yul\":7819:7893   */\n      swap2\n      pop\n        /* \"#utility.yul\":7775:7903   */\n      pop\n        /* \"#utility.yul\":7559:7910   */\n      swap3\n      swap2\n      pop\n      pop\n      jump\t// out\n        /* \"#utility.yul\":7916:8096   */\n    tag_71:\n        /* \"#utility.yul\":7964:8041   */\n      0x4e487b7100000000000000000000000000000000000000000000000000000000\n        /* \"#utility.yul\":7961:7962   */\n      0x00\n        /* \"#utility.yul\":7954:8042   */\n      mstore\n        /* \"#utility.yul\":8061:8065   */\n      0x11\n        /* \"#utility.yul\":8058:8059   */\n      0x04\n        /* \"#utility.yul\":8051:8066   */\n      mstore\n        /* \"#utility.yul\":8085:8089   */\n      0x24\n        /* \"#utility.yul\":8082:8083   */\n      0x00\n        /* \"#utility.yul\":8075:8090   */\n      revert\n        /* \"#utility.yul\":8102:8335   */\n    tag_27:\n        /* \"#utility.yul\":8141:8144   */\n      0x00\n        /* \"#utility.yul\":8164:8188   */\n      tag_163\n        /* \"#utility.yul\":8182:8187   */\n      dup3\n        /* \"#utility.yul\":8164:8188   */\n      tag_53\n      jump\t// in\n    tag_163:\n        /* \"#utility.yul\":8155:8188   */\n      swap2\n      pop\n        /* \"#utility.yul\":8210:8276   */\n      0xffffffffffffffffffffffffffffffffffffffffffffffffffffffffffffffff\n        /* \"#utility.yul\":8203:8208   */\n      dup3\n        /* \"#utility.yul\":8200:8277   */\n      sub\n        /* \"#utility.yul\":8197:8300   */\n      tag_164\n      jumpi\n        /* \"#utility.yul\":8280:8298   */\n      tag_165\n      tag_71\n      jump\t// in\n    tag_165:\n        /* \"#utility.yul\":8197:8300   */\n    tag_164:\n        /* \"#utility.yul\":8327:8328   */\n      0x01\n        /* \"#utility.yul\":8320:8325   */\n      dup3\n        /* \"#utility.yul\":8316:8329   */\n      add\n        /* \"#utility.yul\":8309:8329   */\n      swap1\n      pop\n        /* \"#utility.yul\":8102:8335   */\n      swap2\n      swap1\n      pop\n      jump\t// out\n        /* \"#utility.yul\":8341:8420   */\n    tag_72:\n        /* \"#utility.yul\":8380:8387   */\n      0x00\n        /* \"#utility.yul\":8409:8414   */\n      dup2\n        /* \"#utility.yul\":8398:8414   */\n      swap1\n      pop\n        /* \"#utility.yul\":8341:8420   */\n      swap2\n      swap1\n      pop\n      jump\t// out\n        /* \"#utility.yul\":8426:8583   */\n    tag_73:\n        /* \"#utility.yul\":8531:8576   */\n      tag_168\n        /* \"#utility.yul\":8551:8575   */\n      tag_169\n        /* \"#utility.yul\":8569:8574   */\n      dup3\n        /* \"#utility.yul\":8551:8575   */\n      tag_60\n      jump\t// in\n    tag_169:\n        /* \"#utility.yul\":8531:8576   */\n      tag_72\n      jump\t// in\n    tag_168:\n        /* \"#utility.yul\":8526:8529   */\n      dup3\n        /* \"#utility.yul\":8519:8577   */\n      mstore\n        /* \"#utility.yul\":8426:8583   */\n      pop\n      pop\n      jump\t// out\n        /* \"#utility.yul\":8589:8845   */\n    tag_30:\n        /* \"#utility.yul\":8701:8704   */\n      0x00\n        /* \"#utility.yul\":8716:8791   */\n      tag_171\n        /* \"#utility.yul\":8787:8790   */\n      dup3\n        /* \"#utility.yul\":8778:8784   */\n      dup5\n        /* \"#utility.yul\":8716:8791   */\n      tag_73\n      jump\t// in\n    tag_171:\n        /* \"#utility.yul\":8816:8818   */\n      0x20\n        /* \"#utility.yul\":8811:8814   */\n      dup3\n        /* \"#utility.yul\":8807:8819   */\n      add\n        /* \"#utility.yul\":8800:8819   */\n      swap2\n      pop\n        /* \"#utility.yul\":8836:8839   */\n      dup2\n        /* \"#utility.yul\":8829:8839   */\n      swap1\n      pop\n        /* \"#utility.yul\":8589:8845   */\n      swap3\n      swap2\n      pop\n      pop\n      jump\t// out\n        /* \"#utility.yul\":8851:9031   */\n    tag_36:\n        /* \"#utility.yul\":8899:8976   */\n      0x4e487b7100000000000000000000000000000000000000000000000000000000\n        /* \"#utility.yul\":8896:8897   */\n      0x00\n        /* \"#utility.yul\":8889:8977   */\n      mstore\n        /* \"#utility.yul\":8996:9000   */\n      0x32\n        /* \"#utility.yul\":8993:8994   */\n      0x04\n        /* \"#utility.yul\":8986:9001   */\n      mstore\n        /* \"#utility.yul\":9020:9024   */\n      0x24\n        /* \"#utility.yul\":9017:9018   */\n      0x00\n        /* \"#utility.yul\":9010:9025   */\n      revert\n\n    auxdata: 0xa26469706673582212206f72bb3522931bbf42a0e3abccf38464a2a7dc762e6ec33a20e1b3141ad51d3d64736f6c634300081a0033\n}\n",
				"bytecode": {
					"linkReferences": {},
					"object": "6080604052348015600e575f80fd5b506107228061001c5f395ff3fe608060405234801561000f575f80fd5b5060043610610029575f3560e01c8063e6319bfb1461002d575b5f80fd5b610047600480360381019061004291906103d8565b61005e565b6040516100559291906104aa565b60405180910390f35b60605f805f90505b83811015610133575f8160405160200161008091906104f8565b60405160208183030381529060405290505f6002826040516020016100a5919061054c565b6040516020818303038152906040526040516100c191906105a6565b602060405180830381855afa1580156100dc573d5f803e3d5ffd5b5050506040513d601f19601f820116820180604052508101906100ff91906105e6565b905061010b818861017a565b1561011e57818194509450505050610173565b82806101299061063e565b9350505050610066565b5f801b6040518060400160405280600381526020017f61626300000000000000000000000000000000000000000000000000000000008152509092509250505b9250929050565b5f808360405160200161018d91906106a5565b60405160208183030381529060405290505f8390505f5b815181101561024a578181815181106101c0576101bf6106bf565b5b602001015160f81c60f81b7effffffffffffffffffffffffffffffffffffffffffffffffffffffffffffff1916838281518110610200576101ff6106bf565b5b602001015160f81c60f81b7effffffffffffffffffffffffffffffffffffffffffffffffffffffffffffff19161461023d575f9350505050610252565b80806001019150506101a4565b506001925050505b92915050565b5f604051905090565b5f80fd5b5f80fd5b5f80fd5b5f80fd5b5f601f19601f8301169050919050565b7f4e487b71000000000000000000000000000000000000000000000000000000005f52604160045260245ffd5b6102b782610271565b810181811067ffffffffffffffff821117156102d6576102d5610281565b5b80604052505050565b5f6102e8610258565b90506102f482826102ae565b919050565b5f67ffffffffffffffff82111561031357610312610281565b5b61031c82610271565b9050602081019050919050565b828183375f83830152505050565b5f610349610344846102f9565b6102df565b9050828152602081018484840111156103655761036461026d565b5b610370848285610329565b509392505050565b5f82601f83011261038c5761038b610269565b5b813561039c848260208601610337565b91505092915050565b5f819050919050565b6103b7816103a5565b81146103c1575f80fd5b50565b5f813590506103d2816103ae565b92915050565b5f80604083850312156103ee576103ed610261565b5b5f83013567ffffffffffffffff81111561040b5761040a610265565b5b61041785828601610378565b9250506020610428858286016103c4565b9150509250929050565b5f81519050919050565b5f82825260208201905092915050565b8281835e5f83830152505050565b5f61046482610432565b61046e818561043c565b935061047e81856020860161044c565b61048781610271565b840191505092915050565b5f819050919050565b6104a481610492565b82525050565b5f6040820190508181035f8301526104c2818561045a565b90506104d1602083018461049b565b9392505050565b5f819050919050565b6104f26104ed826103a5565b6104d8565b82525050565b5f61050382846104e1565b60208201915081905092915050565b5f81905092915050565b5f61052682610432565b6105308185610512565b935061054081856020860161044c565b80840191505092915050565b5f610557828461051c565b915081905092915050565b5f81519050919050565b5f81905092915050565b5f61058082610562565b61058a818561056c565b935061059a81856020860161044c565b80840191505092915050565b5f6105b18284610576565b915081905092915050565b6105c581610492565b81146105cf575f80fd5b50565b5f815190506105e0816105bc565b92915050565b5f602082840312156105fb576105fa610261565b5b5f610608848285016105d2565b91505092915050565b7f4e487b71000000000000000000000000000000000000000000000000000000005f52601160045260245ffd5b5f610648826103a5565b91507fffffffffffffffffffffffffffffffffffffffffffffffffffffffffffffffff820361067a57610679610611565b5b600182019050919050565b5f819050919050565b61069f61069a82610492565b610685565b82525050565b5f6106b0828461068e565b60208201915081905092915050565b7f4e487b71000000000000000000000000000000000000000000000000000000005f52603260045260245ffdfea26469706673582212206f72bb3522931bbf42a0e3abccf38464a2a7dc762e6ec33a20e1b3141ad51d3d64736f6c634300081a0033",
					"opcodes": "PUSH1 0x80 PUSH1 0x40 MSTORE CALLVALUE DUP1 ISZERO PUSH1 0xE JUMPI PUSH0 DUP1 REVERT JUMPDEST POP PUSH2 0x722 DUP1 PUSH2 0x1C PUSH0 CODECOPY PUSH0 RETURN INVALID PUSH1 0x80 PUSH1 0x40 MSTORE CALLVALUE DUP1 ISZERO PUSH2 0xF JUMPI PUSH0 DUP1 REVERT JUMPDEST POP PUSH1 0x4 CALLDATASIZE LT PUSH2 0x29 JUMPI PUSH0 CALLDATALOAD PUSH1 0xE0 SHR DUP1 PUSH4 0xE6319BFB EQ PUSH2 0x2D JUMPI JUMPDEST PUSH0 DUP1 REVERT JUMPDEST PUSH2 0x47 PUSH1 0x4 DUP1 CALLDATASIZE SUB DUP2 ADD SWAP1 PUSH2 0x42 SWAP2 SWAP1 PUSH2 0x3D8 JUMP JUMPDEST PUSH2 0x5E JUMP JUMPDEST PUSH1 0x40 MLOAD PUSH2 0x55 SWAP3 SWAP2 SWAP1 PUSH2 0x4AA JUMP JUMPDEST PUSH1 0x40 MLOAD DUP1 SWAP2 SUB SWAP1 RETURN JUMPDEST PUSH1 0x60 PUSH0 DUP1 PUSH0 SWAP1 POP JUMPDEST DUP4 DUP2 LT ISZERO PUSH2 0x133 JUMPI PUSH0 DUP2 PUSH1 0x40 MLOAD PUSH1 0x20 ADD PUSH2 0x80 SWAP2 SWAP1 PUSH2 0x4F8 JUMP JUMPDEST PUSH1 0x40 MLOAD PUSH1 0x20 DUP2 DUP4 SUB SUB DUP2 MSTORE SWAP1 PUSH1 0x40 MSTORE SWAP1 POP PUSH0 PUSH1 0x2 DUP3 PUSH1 0x40 MLOAD PUSH1 0x20 ADD PUSH2 0xA5 SWAP2 SWAP1 PUSH2 0x54C JUMP JUMPDEST PUSH1 0x40 MLOAD PUSH1 0x20 DUP2 DUP4 SUB SUB DUP2 MSTORE SWAP1 PUSH1 0x40 MSTORE PUSH1 0x40 MLOAD PUSH2 0xC1 SWAP2 SWAP1 PUSH2 0x5A6 JUMP JUMPDEST PUSH1 0x20 PUSH1 0x40 MLOAD DUP1 DUP4 SUB DUP2 DUP6 GAS STATICCALL ISZERO DUP1 ISZERO PUSH2 0xDC JUMPI RETURNDATASIZE PUSH0 DUP1 RETURNDATACOPY RETURNDATASIZE PUSH0 REVERT JUMPDEST POP POP POP PUSH1 0x40 MLOAD RETURNDATASIZE PUSH1 0x1F NOT PUSH1 0x1F DUP3 ADD AND DUP3 ADD DUP1 PUSH1 0x40 MSTORE POP DUP2 ADD SWAP1 PUSH2 0xFF SWAP2 SWAP1 PUSH2 0x5E6 JUMP JUMPDEST SWAP1 POP PUSH2 0x10B DUP2 DUP9 PUSH2 0x17A JUMP JUMPDEST ISZERO PUSH2 0x11E JUMPI DUP2 DUP2 SWAP5 POP SWAP5 POP POP POP POP PUSH2 0x173 JUMP JUMPDEST DUP3 DUP1 PUSH2 0x129 SWAP1 PUSH2 0x63E JUMP JUMPDEST SWAP4 POP POP POP POP PUSH2 0x66 JUMP JUMPDEST PUSH0 DUP1 SHL PUSH1 0x40 MLOAD DUP1 PUSH1 0x40 ADD PUSH1 0x40 MSTORE DUP1 PUSH1 0x3 DUP2 MSTORE PUSH1 0x20 ADD PUSH32 0x6162630000000000000000000000000000000000000000000000000000000000 DUP2 MSTORE POP SWAP1 SWAP3 POP SWAP3 POP POP JUMPDEST SWAP3 POP SWAP3 SWAP1 POP JUMP JUMPDEST PUSH0 DUP1 DUP4 PUSH1 0x40 MLOAD PUSH1 0x20 ADD PUSH2 0x18D SWAP2 SWAP1 PUSH2 0x6A5 JUMP JUMPDEST PUSH1 0x40 MLOAD PUSH1 0x20 DUP2 DUP4 SUB SUB DUP2 MSTORE SWAP1 PUSH1 0x40 MSTORE SWAP1 POP PUSH0 DUP4 SWAP1 POP PUSH0 JUMPDEST DUP2 MLOAD DUP2 LT ISZERO PUSH2 0x24A JUMPI DUP2 DUP2 DUP2 MLOAD DUP2 LT PUSH2 0x1C0 JUMPI PUSH2 0x1BF PUSH2 0x6BF JUMP JUMPDEST JUMPDEST PUSH1 0x20 ADD ADD MLOAD PUSH1 0xF8 SHR PUSH1 0xF8 SHL PUSH31 0xFFFFFFFFFFFFFFFFFFFFFFFFFFFFFFFFFFFFFFFFFFFFFFFFFFFFFFFFFFFFFF NOT AND DUP4 DUP3 DUP2 MLOAD DUP2 LT PUSH2 0x200 JUMPI PUSH2 0x1FF PUSH2 0x6BF JUMP JUMPDEST JUMPDEST PUSH1 0x20 ADD ADD MLOAD PUSH1 0xF8 SHR PUSH1 0xF8 SHL PUSH31 0xFFFFFFFFFFFFFFFFFFFFFFFFFFFFFFFFFFFFFFFFFFFFFFFFFFFFFFFFFFFFFF NOT AND EQ PUSH2 0x23D JUMPI PUSH0 SWAP4 POP POP POP POP PUSH2 0x252 JUMP JUMPDEST DUP1 DUP1 PUSH1 0x1 ADD SWAP2 POP POP PUSH2 0x1A4 JUMP JUMPDEST POP PUSH1 0x1 SWAP3 POP POP POP JUMPDEST SWAP3 SWAP2 POP POP JUMP JUMPDEST PUSH0 PUSH1 0x40 MLOAD SWAP1 POP SWAP1 JUMP JUMPDEST PUSH0 DUP1 REVERT JUMPDEST PUSH0 DUP1 REVERT JUMPDEST PUSH0 DUP1 REVERT JUMPDEST PUSH0 DUP1 REVERT JUMPDEST PUSH0 PUSH1 0x1F NOT PUSH1 0x1F DUP4 ADD AND SWAP1 POP SWAP2 SWAP1 POP JUMP JUMPDEST PUSH32 0x4E487B7100000000000000000000000000000000000000000000000000000000 PUSH0 MSTORE PUSH1 0x41 PUSH1 0x4 MSTORE PUSH1 0x24 PUSH0 REVERT JUMPDEST PUSH2 0x2B7 DUP3 PUSH2 0x271 JUMP JUMPDEST DUP2 ADD DUP2 DUP2 LT PUSH8 0xFFFFFFFFFFFFFFFF DUP3 GT OR ISZERO PUSH2 0x2D6 JUMPI PUSH2 0x2D5 PUSH2 0x281 JUMP JUMPDEST JUMPDEST DUP1 PUSH1 0x40 MSTORE POP POP POP JUMP JUMPDEST PUSH0 PUSH2 0x2E8 PUSH2 0x258 JUMP JUMPDEST SWAP1 POP PUSH2 0x2F4 DUP3 DUP3 PUSH2 0x2AE JUMP JUMPDEST SWAP2 SWAP1 POP JUMP JUMPDEST PUSH0 PUSH8 0xFFFFFFFFFFFFFFFF DUP3 GT ISZERO PUSH2 0x313 JUMPI PUSH2 0x312 PUSH2 0x281 JUMP JUMPDEST JUMPDEST PUSH2 0x31C DUP3 PUSH2 0x271 JUMP JUMPDEST SWAP1 POP PUSH1 0x20 DUP2 ADD SWAP1 POP SWAP2 SWAP1 POP JUMP JUMPDEST DUP3 DUP2 DUP4 CALLDATACOPY PUSH0 DUP4 DUP4 ADD MSTORE POP POP POP JUMP JUMPDEST PUSH0 PUSH2 0x349 PUSH2 0x344 DUP5 PUSH2 0x2F9 JUMP JUMPDEST PUSH2 0x2DF JUMP JUMPDEST SWAP1 POP DUP3 DUP2 MSTORE PUSH1 0x20 DUP2 ADD DUP5 DUP5 DUP5 ADD GT ISZERO PUSH2 0x365 JUMPI PUSH2 0x364 PUSH2 0x26D JUMP JUMPDEST JUMPDEST PUSH2 0x370 DUP5 DUP3 DUP6 PUSH2 0x329 JUMP JUMPDEST POP SWAP4 SWAP3 POP POP POP JUMP JUMPDEST PUSH0 DUP3 PUSH1 0x1F DUP4 ADD SLT PUSH2 0x38C JUMPI PUSH2 0x38B PUSH2 0x269 JUMP JUMPDEST JUMPDEST DUP2 CALLDATALOAD PUSH2 0x39C DUP5 DUP3 PUSH1 0x20 DUP7 ADD PUSH2 0x337 JUMP JUMPDEST SWAP2 POP POP SWAP3 SWAP2 POP POP JUMP JUMPDEST PUSH0 DUP2 SWAP1 POP SWAP2 SWAP1 POP JUMP JUMPDEST PUSH2 0x3B7 DUP2 PUSH2 0x3A5 JUMP JUMPDEST DUP2 EQ PUSH2 0x3C1 JUMPI PUSH0 DUP1 REVERT JUMPDEST POP JUMP JUMPDEST PUSH0 DUP2 CALLDATALOAD SWAP1 POP PUSH2 0x3D2 DUP2 PUSH2 0x3AE JUMP JUMPDEST SWAP3 SWAP2 POP POP JUMP JUMPDEST PUSH0 DUP1 PUSH1 0x40 DUP4 DUP6 SUB SLT ISZERO PUSH2 0x3EE JUMPI PUSH2 0x3ED PUSH2 0x261 JUMP JUMPDEST JUMPDEST PUSH0 DUP4 ADD CALLDATALOAD PUSH8 0xFFFFFFFFFFFFFFFF DUP2 GT ISZERO PUSH2 0x40B JUMPI PUSH2 0x40A PUSH2 0x265 JUMP JUMPDEST JUMPDEST PUSH2 0x417 DUP6 DUP3 DUP7 ADD PUSH2 0x378 JUMP JUMPDEST SWAP3 POP POP PUSH1 0x20 PUSH2 0x428 DUP6 DUP3 DUP7 ADD PUSH2 0x3C4 JUMP JUMPDEST SWAP2 POP POP SWAP3 POP SWAP3 SWAP1 POP JUMP JUMPDEST PUSH0 DUP2 MLOAD SWAP1 POP SWAP2 SWAP1 POP JUMP JUMPDEST PUSH0 DUP3 DUP3 MSTORE PUSH1 0x20 DUP3 ADD SWAP1 POP SWAP3 SWAP2 POP POP JUMP JUMPDEST DUP3 DUP2 DUP4 MCOPY PUSH0 DUP4 DUP4 ADD MSTORE POP POP POP JUMP JUMPDEST PUSH0 PUSH2 0x464 DUP3 PUSH2 0x432 JUMP JUMPDEST PUSH2 0x46E DUP2 DUP6 PUSH2 0x43C JUMP JUMPDEST SWAP4 POP PUSH2 0x47E DUP2 DUP6 PUSH1 0x20 DUP7 ADD PUSH2 0x44C JUMP JUMPDEST PUSH2 0x487 DUP2 PUSH2 0x271 JUMP JUMPDEST DUP5 ADD SWAP2 POP POP SWAP3 SWAP2 POP POP JUMP JUMPDEST PUSH0 DUP2 SWAP1 POP SWAP2 SWAP1 POP JUMP JUMPDEST PUSH2 0x4A4 DUP2 PUSH2 0x492 JUMP JUMPDEST DUP3 MSTORE POP POP JUMP JUMPDEST PUSH0 PUSH1 0x40 DUP3 ADD SWAP1 POP DUP2 DUP2 SUB PUSH0 DUP4 ADD MSTORE PUSH2 0x4C2 DUP2 DUP6 PUSH2 0x45A JUMP JUMPDEST SWAP1 POP PUSH2 0x4D1 PUSH1 0x20 DUP4 ADD DUP5 PUSH2 0x49B JUMP JUMPDEST SWAP4 SWAP3 POP POP POP JUMP JUMPDEST PUSH0 DUP2 SWAP1 POP SWAP2 SWAP1 POP JUMP JUMPDEST PUSH2 0x4F2 PUSH2 0x4ED DUP3 PUSH2 0x3A5 JUMP JUMPDEST PUSH2 0x4D8 JUMP JUMPDEST DUP3 MSTORE POP POP JUMP JUMPDEST PUSH0 PUSH2 0x503 DUP3 DUP5 PUSH2 0x4E1 JUMP JUMPDEST PUSH1 0x20 DUP3 ADD SWAP2 POP DUP2 SWAP1 POP SWAP3 SWAP2 POP POP JUMP JUMPDEST PUSH0 DUP2 SWAP1 POP SWAP3 SWAP2 POP POP JUMP JUMPDEST PUSH0 PUSH2 0x526 DUP3 PUSH2 0x432 JUMP JUMPDEST PUSH2 0x530 DUP2 DUP6 PUSH2 0x512 JUMP JUMPDEST SWAP4 POP PUSH2 0x540 DUP2 DUP6 PUSH1 0x20 DUP7 ADD PUSH2 0x44C JUMP JUMPDEST DUP1 DUP5 ADD SWAP2 POP POP SWAP3 SWAP2 POP POP JUMP JUMPDEST PUSH0 PUSH2 0x557 DUP3 DUP5 PUSH2 0x51C JUMP JUMPDEST SWAP2 POP DUP2 SWAP1 POP SWAP3 SWAP2 POP POP JUMP JUMPDEST PUSH0 DUP2 MLOAD SWAP1 POP SWAP2 SWAP1 POP JUMP JUMPDEST PUSH0 DUP2 SWAP1 POP SWAP3 SWAP2 POP POP JUMP JUMPDEST PUSH0 PUSH2 0x580 DUP3 PUSH2 0x562 JUMP JUMPDEST PUSH2 0x58A DUP2 DUP6 PUSH2 0x56C JUMP JUMPDEST SWAP4 POP PUSH2 0x59A DUP2 DUP6 PUSH1 0x20 DUP7 ADD PUSH2 0x44C JUMP JUMPDEST DUP1 DUP5 ADD SWAP2 POP POP SWAP3 SWAP2 POP POP JUMP JUMPDEST PUSH0 PUSH2 0x5B1 DUP3 DUP5 PUSH2 0x576 JUMP JUMPDEST SWAP2 POP DUP2 SWAP1 POP SWAP3 SWAP2 POP POP JUMP JUMPDEST PUSH2 0x5C5 DUP2 PUSH2 0x492 JUMP JUMPDEST DUP2 EQ PUSH2 0x5CF JUMPI PUSH0 DUP1 REVERT JUMPDEST POP JUMP JUMPDEST PUSH0 DUP2 MLOAD SWAP1 POP PUSH2 0x5E0 DUP2 PUSH2 0x5BC JUMP JUMPDEST SWAP3 SWAP2 POP POP JUMP JUMPDEST PUSH0 PUSH1 0x20 DUP3 DUP5 SUB SLT ISZERO PUSH2 0x5FB JUMPI PUSH2 0x5FA PUSH2 0x261 JUMP JUMPDEST JUMPDEST PUSH0 PUSH2 0x608 DUP5 DUP3 DUP6 ADD PUSH2 0x5D2 JUMP JUMPDEST SWAP2 POP POP SWAP3 SWAP2 POP POP JUMP JUMPDEST PUSH32 0x4E487B7100000000000000000000000000000000000000000000000000000000 PUSH0 MSTORE PUSH1 0x11 PUSH1 0x4 MSTORE PUSH1 0x24 PUSH0 REVERT JUMPDEST PUSH0 PUSH2 0x648 DUP3 PUSH2 0x3A5 JUMP JUMPDEST SWAP2 POP PUSH32 0xFFFFFFFFFFFFFFFFFFFFFFFFFFFFFFFFFFFFFFFFFFFFFFFFFFFFFFFFFFFFFFFF DUP3 SUB PUSH2 0x67A JUMPI PUSH2 0x679 PUSH2 0x611 JUMP JUMPDEST JUMPDEST PUSH1 0x1 DUP3 ADD SWAP1 POP SWAP2 SWAP1 POP JUMP JUMPDEST PUSH0 DUP2 SWAP1 POP SWAP2 SWAP1 POP JUMP JUMPDEST PUSH2 0x69F PUSH2 0x69A DUP3 PUSH2 0x492 JUMP JUMPDEST PUSH2 0x685 JUMP JUMPDEST DUP3 MSTORE POP POP JUMP JUMPDEST PUSH0 PUSH2 0x6B0 DUP3 DUP5 PUSH2 0x68E JUMP JUMPDEST PUSH1 0x20 DUP3 ADD SWAP2 POP DUP2 SWAP1 POP SWAP3 SWAP2 POP POP JUMP JUMPDEST PUSH32 0x4E487B7100000000000000000000000000000000000000000000000000000000 PUSH0 MSTORE PUSH1 0x32 PUSH1 0x4 MSTORE PUSH1 0x24 PUSH0 REVERT INVALID LOG2 PUSH5 0x6970667358 0x22 SLT KECCAK256 PUSH16 0x72BB3522931BBF42A0E3ABCCF38464A2 0xA7 0xDC PUSH23 0x2E6EC33A20E1B3141AD51D3D64736F6C634300081A0033 "
				},
				"gasEstimates": {
					"creation": {
						"codeDepositCost": "365200",
						"executionCost": "403",
						"totalCost": "365603"
					},
					"external": {
						"findHashWithPrefix(string,uint256)": "infinite"
					},
					"internal": {
						"startsWith(bytes32,string memory)": "infinite"
					}
				},
				"methodIdentifiers": {
					"findHashWithPrefix(string,uint256)": "e6319bfb"
				}
			},
			"storageLayout": {
				"storage": [],
				"types": null
			},
			"userdoc": {
				"kind": "user",
				"methods": {},
				"version": 1
			}
		}
	}
}